{
  "_format": "hh-sol-artifact-1",
  "contractName": "Arena",
  "sourceName": "contracts/Arena.sol",
  "abi": [
    {
      "anonymous": false,
      "inputs": [
        {
          "indexed": true,
          "internalType": "uint256",
          "name": "attackerId",
          "type": "uint256"
        },
        {
          "indexed": true,
          "internalType": "uint256",
          "name": "targetId",
          "type": "uint256"
        },
        {
          "indexed": false,
          "internalType": "uint16",
          "name": "damage",
          "type": "uint16"
        },
        {
          "indexed": false,
          "internalType": "bool",
          "name": "wasCritical",
          "type": "bool"
        }
      ],
      "name": "ArenaEvent",
      "type": "event"
    },
    {
      "anonymous": false,
      "inputs": [
        {
          "indexed": true,
          "internalType": "uint256",
          "name": "fighterId",
          "type": "uint256"
        },
        {
          "indexed": false,
          "internalType": "uint32",
          "name": "newLevel",
          "type": "uint32"
        },
        {
          "indexed": false,
          "internalType": "uint16",
          "name": "newSpendablePoints",
          "type": "uint16"
        }
      ],
      "name": "FighterLeveledUpEvent",
      "type": "event"
    },
    {
      "anonymous": false,
      "inputs": [
        {
          "indexed": true,
          "internalType": "address",
          "name": "previousOwner",
          "type": "address"
        },
        {
          "indexed": true,
          "internalType": "address",
          "name": "newOwner",
          "type": "address"
        }
      ],
      "name": "OwnershipTransferred",
      "type": "event"
    },
    {
      "anonymous": false,
      "inputs": [
        {
          "indexed": true,
          "internalType": "uint256",
          "name": "targetId",
          "type": "uint256"
        },
        {
          "indexed": false,
          "internalType": "uint256",
          "name": "targetWeaponId",
          "type": "uint256"
        }
      ],
      "name": "WeaponChosenForTargetEvent",
      "type": "event"
    },
    {
      "inputs": [],
      "name": "_collectMerchantBalance",
      "outputs": [],
      "stateMutability": "nonpayable",
      "type": "function"
    },
    {
      "inputs": [
        {
          "internalType": "uint32",
          "name": "_level",
          "type": "uint32"
        },
        {
          "internalType": "enum WeaponTier",
          "name": "_tier",
          "type": "uint8"
        }
      ],
      "name": "_computeWeaponPrice",
      "outputs": [
        {
          "internalType": "uint256",
          "name": "",
          "type": "uint256"
        }
      ],
      "stateMutability": "view",
      "type": "function"
    },
    {
      "inputs": [
        {
          "internalType": "string",
          "name": "_name",
          "type": "string"
        },
        {
          "internalType": "enum FighterClass",
          "name": "_class",
          "type": "uint8"
        }
      ],
      "name": "_createFirstFighter",
      "outputs": [],
      "stateMutability": "nonpayable",
      "type": "function"
    },
    {
      "inputs": [
        {
          "internalType": "uint256",
          "name": "id",
          "type": "uint256"
        }
      ],
      "name": "_getFighterById",
      "outputs": [
        {
          "components": [
            {
              "internalType": "string",
              "name": "name",
              "type": "string"
            },
            {
              "internalType": "uint32",
              "name": "level",
              "type": "uint32"
            },
            {
              "internalType": "uint32",
              "name": "readyTime",
              "type": "uint32"
            },
            {
              "internalType": "uint16",
              "name": "winCount",
              "type": "uint16"
            },
            {
              "internalType": "uint16",
              "name": "lossCount",
              "type": "uint16"
            },
            {
              "internalType": "uint16",
              "name": "HP",
              "type": "uint16"
            },
            {
              "internalType": "uint16",
              "name": "strength",
              "type": "uint16"
            },
            {
              "internalType": "uint16",
              "name": "agility",
              "type": "uint16"
            },
            {
              "internalType": "uint16",
              "name": "dexterity",
              "type": "uint16"
            },
            {
              "internalType": "uint16",
              "name": "luck",
              "type": "uint16"
            },
            {
              "internalType": "uint16",
              "name": "currentXP",
              "type": "uint16"
            },
            {
              "internalType": "uint16",
              "name": "levelUpXP",
              "type": "uint16"
            },
            {
              "internalType": "uint16",
              "name": "spendablePoints",
              "type": "uint16"
            },
            {
              "internalType": "enum FighterClass",
              "name": "class",
              "type": "uint8"
            }
          ],
          "internalType": "struct FighterFactory.Fighter",
          "name": "",
          "type": "tuple"
        }
      ],
      "stateMutability": "view",
      "type": "function"
    },
    {
      "inputs": [],
      "name": "_getFightersCount",
      "outputs": [
        {
          "internalType": "uint256",
          "name": "",
          "type": "uint256"
        }
      ],
      "stateMutability": "view",
      "type": "function"
    },
    {
      "inputs": [
        {
          "internalType": "uint256",
          "name": "latest",
          "type": "uint256"
        }
      ],
      "name": "_getLatestFighters",
      "outputs": [
        {
          "components": [
            {
              "internalType": "uint256",
              "name": "id",
              "type": "uint256"
            },
            {
              "components": [
                {
                  "internalType": "string",
                  "name": "name",
                  "type": "string"
                },
                {
                  "internalType": "uint32",
                  "name": "level",
                  "type": "uint32"
                },
                {
                  "internalType": "uint32",
                  "name": "readyTime",
                  "type": "uint32"
                },
                {
                  "internalType": "uint16",
                  "name": "winCount",
                  "type": "uint16"
                },
                {
                  "internalType": "uint16",
                  "name": "lossCount",
                  "type": "uint16"
                },
                {
                  "internalType": "uint16",
                  "name": "HP",
                  "type": "uint16"
                },
                {
                  "internalType": "uint16",
                  "name": "strength",
                  "type": "uint16"
                },
                {
                  "internalType": "uint16",
                  "name": "agility",
                  "type": "uint16"
                },
                {
                  "internalType": "uint16",
                  "name": "dexterity",
                  "type": "uint16"
                },
                {
                  "internalType": "uint16",
                  "name": "luck",
                  "type": "uint16"
                },
                {
                  "internalType": "uint16",
                  "name": "currentXP",
                  "type": "uint16"
                },
                {
                  "internalType": "uint16",
                  "name": "levelUpXP",
                  "type": "uint16"
                },
                {
                  "internalType": "uint16",
                  "name": "spendablePoints",
                  "type": "uint16"
                },
                {
                  "internalType": "enum FighterClass",
                  "name": "class",
                  "type": "uint8"
                }
              ],
              "internalType": "struct FighterFactory.Fighter",
              "name": "fighter",
              "type": "tuple"
            },
            {
              "internalType": "address",
              "name": "owner",
              "type": "address"
            }
          ],
          "internalType": "struct FighterFactory.FighterDTO[]",
          "name": "",
          "type": "tuple[]"
        }
      ],
      "stateMutability": "view",
      "type": "function"
    },
    {
      "inputs": [
        {
          "internalType": "address",
          "name": "_owner",
          "type": "address"
        }
      ],
      "name": "_getUserFighters",
      "outputs": [
        {
          "components": [
            {
              "internalType": "uint256",
              "name": "id",
              "type": "uint256"
            },
            {
              "components": [
                {
                  "internalType": "string",
                  "name": "name",
                  "type": "string"
                },
                {
                  "internalType": "uint32",
                  "name": "level",
                  "type": "uint32"
                },
                {
                  "internalType": "uint32",
                  "name": "readyTime",
                  "type": "uint32"
                },
                {
                  "internalType": "uint16",
                  "name": "winCount",
                  "type": "uint16"
                },
                {
                  "internalType": "uint16",
                  "name": "lossCount",
                  "type": "uint16"
                },
                {
                  "internalType": "uint16",
                  "name": "HP",
                  "type": "uint16"
                },
                {
                  "internalType": "uint16",
                  "name": "strength",
                  "type": "uint16"
                },
                {
                  "internalType": "uint16",
                  "name": "agility",
                  "type": "uint16"
                },
                {
                  "internalType": "uint16",
                  "name": "dexterity",
                  "type": "uint16"
                },
                {
                  "internalType": "uint16",
                  "name": "luck",
                  "type": "uint16"
                },
                {
                  "internalType": "uint16",
                  "name": "currentXP",
                  "type": "uint16"
                },
                {
                  "internalType": "uint16",
                  "name": "levelUpXP",
                  "type": "uint16"
                },
                {
                  "internalType": "uint16",
                  "name": "spendablePoints",
                  "type": "uint16"
                },
                {
                  "internalType": "enum FighterClass",
                  "name": "class",
                  "type": "uint8"
                }
              ],
              "internalType": "struct FighterFactory.Fighter",
              "name": "fighter",
              "type": "tuple"
            }
          ],
          "internalType": "struct FighterFactory.FighterBarracksDTO[]",
          "name": "",
          "type": "tuple[]"
        }
      ],
      "stateMutability": "view",
      "type": "function"
    },
    {
      "inputs": [
        {
          "internalType": "address",
          "name": "_owner",
          "type": "address"
        }
      ],
      "name": "_getUserWeapons",
      "outputs": [
        {
          "components": [
            {
              "internalType": "uint256",
              "name": "id",
              "type": "uint256"
            },
            {
              "components": [
                {
                  "internalType": "uint32",
                  "name": "levelReq",
                  "type": "uint32"
                },
                {
                  "internalType": "uint32",
                  "name": "damage",
                  "type": "uint32"
                },
                {
                  "internalType": "uint16",
                  "name": "skillReq",
                  "type": "uint16"
                },
                {
                  "internalType": "enum WeaponType",
                  "name": "weapType",
                  "type": "uint8"
                },
                {
                  "internalType": "enum WeaponTier",
                  "name": "tier",
                  "type": "uint8"
                }
              ],
              "internalType": "struct WeaponFactory.Weapon",
              "name": "weapon",
              "type": "tuple"
            }
          ],
          "internalType": "struct WeaponFactory.WeaponDTO[]",
          "name": "",
          "type": "tuple[]"
        }
      ],
      "stateMutability": "view",
      "type": "function"
    },
    {
      "inputs": [
        {
          "internalType": "uint256",
          "name": "id",
          "type": "uint256"
        }
      ],
      "name": "_getWeaponById",
      "outputs": [
        {
          "components": [
            {
              "internalType": "uint32",
              "name": "levelReq",
              "type": "uint32"
            },
            {
              "internalType": "uint32",
              "name": "damage",
              "type": "uint32"
            },
            {
              "internalType": "uint16",
              "name": "skillReq",
              "type": "uint16"
            },
            {
              "internalType": "enum WeaponType",
              "name": "weapType",
              "type": "uint8"
            },
            {
              "internalType": "enum WeaponTier",
              "name": "tier",
              "type": "uint8"
            }
          ],
          "internalType": "struct WeaponFactory.Weapon",
          "name": "",
          "type": "tuple"
        }
      ],
      "stateMutability": "view",
      "type": "function"
    },
    {
      "inputs": [
        {
          "internalType": "uint32",
          "name": "_level",
          "type": "uint32"
        },
        {
          "internalType": "enum WeaponType",
          "name": "_type",
          "type": "uint8"
        },
        {
          "internalType": "enum WeaponTier",
          "name": "_tier",
          "type": "uint8"
        }
      ],
      "name": "_purchaseWeapon",
      "outputs": [],
      "stateMutability": "payable",
      "type": "function"
    },
    {
      "inputs": [
        {
          "internalType": "uint256",
          "name": "_fighterId",
          "type": "uint256"
        },
        {
          "internalType": "uint16",
          "name": "_STR",
          "type": "uint16"
        },
        {
          "internalType": "uint16",
          "name": "_AGL",
          "type": "uint16"
        },
        {
          "internalType": "uint16",
          "name": "_LCK",
          "type": "uint16"
        },
        {
          "internalType": "uint16",
          "name": "_DEX",
          "type": "uint16"
        }
      ],
      "name": "_spendAvailablePoints",
      "outputs": [],
      "stateMutability": "nonpayable",
      "type": "function"
    },
    {
      "inputs": [
        {
          "internalType": "uint256",
          "name": "_myFighterId",
          "type": "uint256"
        },
        {
          "internalType": "bool",
          "name": "_hasOwnerWeapon",
          "type": "bool"
        },
        {
          "internalType": "uint256",
          "name": "_myWeaponId",
          "type": "uint256"
        },
        {
          "internalType": "uint256",
          "name": "_targetFighterId",
          "type": "uint256"
        }
      ],
      "name": "attack",
      "outputs": [
        {
          "internalType": "bool",
          "name": "",
          "type": "bool"
        }
      ],
      "stateMutability": "nonpayable",
      "type": "function"
    },
    {
      "inputs": [],
      "name": "owner",
      "outputs": [
        {
          "internalType": "address",
          "name": "",
          "type": "address"
        }
      ],
      "stateMutability": "view",
      "type": "function"
    },
    {
      "inputs": [
        {
          "internalType": "string",
          "name": "_name",
          "type": "string"
        },
        {
          "internalType": "enum FighterClass",
          "name": "_class",
          "type": "uint8"
        }
      ],
      "name": "redeemAvailablePupil",
      "outputs": [],
      "stateMutability": "nonpayable",
      "type": "function"
    },
    {
      "inputs": [],
      "name": "renounceOwnership",
      "outputs": [],
      "stateMutability": "nonpayable",
      "type": "function"
    },
    {
      "inputs": [
        {
          "internalType": "address",
          "name": "newOwner",
          "type": "address"
        }
      ],
      "name": "transferOwnership",
      "outputs": [],
      "stateMutability": "nonpayable",
      "type": "function"
    },
    {
      "stateMutability": "payable",
      "type": "receive"
    }
  ],
  "bytecode": "0x6080604052620151806001556602aa1efb94e0006009556601c6bf52634000600a556605543df729c000600b55660aa87bee538000600c556000600d55600a600e60006101000a81548163ffffffff021916908363ffffffff1602179055503480156200006b57600080fd5b506200008c620000806200009260201b60201c565b6200009a60201b60201c565b6200015e565b600033905090565b60008060009054906101000a900473ffffffffffffffffffffffffffffffffffffffff169050816000806101000a81548173ffffffffffffffffffffffffffffffffffffffff021916908373ffffffffffffffffffffffffffffffffffffffff1602179055508173ffffffffffffffffffffffffffffffffffffffff168173ffffffffffffffffffffffffffffffffffffffff167f8be0079c531659141344cd1fd0a4f28419497f9722a3daafe3b4186f6b6457e060405160405180910390a35050565b615eb8806200016e6000396000f3fe6080604052600436106100f75760003560e01c8063cb74c2a81161008a578063f2fde38b11610059578063f2fde38b14610326578063f47565ca1461034f578063f9d7f1711461038c578063fbba44c6146103c9576100fe565b8063cb74c2a814610258578063cfb8c2ad14610283578063d5f5da3b146102c0578063ea965255146102e9576100fe565b80639b1f87e8116100c65780639b1f87e814610199578063adec464a146101d6578063b67340b5146101ff578063bfdde8a81461021b576100fe565b8063208ea929146101035780636c691ab914610140578063715018a6146101575780638da5cb5b1461016e576100fe565b366100fe57005b600080fd5b34801561010f57600080fd5b5061012a60048036038101906101259190613f6c565b6103f2565b60405161013791906141f3565b60405180910390f35b34801561014c57600080fd5b5061015561068f565b005b34801561016357600080fd5b5061016c61075b565b005b34801561017a57600080fd5b506101836107e3565b6040516101909190614224565b60405180910390f35b3480156101a557600080fd5b506101c060048036038101906101bb919061426b565b61080c565b6040516101cd91906145c8565b60405180910390f35b3480156101e257600080fd5b506101fd60048036038101906101f89190614674565b610c07565b005b6102196004803603810190610214919061474a565b610d02565b005b34801561022757600080fd5b50610242600480360381019061023d919061426b565b610de0565b60405161024f91906148cb565b60405180910390f35b34801561026457600080fd5b5061026d6110a1565b60405161027a91906148fc565b60405180910390f35b34801561028f57600080fd5b506102aa60048036038101906102a5919061494f565b6110ae565b6040516102b791906149c5565b60405180910390f35b3480156102cc57600080fd5b506102e760048036038101906102e29190614674565b6117ca565b005b3480156102f557600080fd5b50610310600480360381019061030b91906149e0565b61187a565b60405161031d91906148fc565b60405180910390f35b34801561033257600080fd5b5061034d60048036038101906103489190613f6c565b61194c565b005b34801561035b57600080fd5b506103766004803603810190610371919061426b565b611a44565b6040516103839190614a88565b60405180910390f35b34801561039857600080fd5b506103b360048036038101906103ae9190613f6c565b611b89565b6040516103c09190614ba2565b60405180910390f35b3480156103d557600080fd5b506103f060048036038101906103eb9190614bf0565b611fa2565b005b60606000600860008473ffffffffffffffffffffffffffffffffffffffff1673ffffffffffffffffffffffffffffffffffffffff16815260200190815260200160002054905060008167ffffffffffffffff81111561045457610453614c6b565b5b60405190808252806020026020018201604052801561048d57816020015b61047a613ccc565b8152602001906001900390816104725790505b5090506000805b600680549050811015610683578573ffffffffffffffffffffffffffffffffffffffff166007600083815260200190815260200160002060009054906101000a900473ffffffffffffffffffffffffffffffffffffffff1673ffffffffffffffffffffffffffffffffffffffff1614156106705760405180604001604052808281526020016006838154811061052d5761052c614c9a565b5b906000526020600020016040518060a00160405290816000820160009054906101000a900463ffffffff1663ffffffff1663ffffffff1681526020016000820160049054906101000a900463ffffffff1663ffffffff1663ffffffff1681526020016000820160089054906101000a900461ffff1661ffff1661ffff16815260200160008201600a9054906101000a900460ff1660018111156105d3576105d261401a565b5b60018111156105e5576105e461401a565b5b815260200160008201600b9054906101000a900460ff16600281111561060e5761060d61401a565b5b60028111156106205761061f61401a565b5b8152505081525083838151811061063a57610639614c9a565b5b6020026020010181905250818061065090614cf8565b925050838061065e90614d41565b945050600084141561066f57610683565b5b808061067b90614cf8565b915050610494565b50819350505050919050565b61069761228b565b73ffffffffffffffffffffffffffffffffffffffff166106b56107e3565b73ffffffffffffffffffffffffffffffffffffffff161461070b576040517f08c379a000000000000000000000000000000000000000000000000000000000815260040161070290614dc8565b60405180910390fd5b61071361228b565b73ffffffffffffffffffffffffffffffffffffffff166108fc479081150290604051600060405180830381858888f19350505050158015610758573d6000803e3d6000fd5b50565b61076361228b565b73ffffffffffffffffffffffffffffffffffffffff166107816107e3565b73ffffffffffffffffffffffffffffffffffffffff16146107d7576040517f08c379a00000000000000000000000000000000000000000000000000000000081526004016107ce90614dc8565b60405180910390fd5b6107e16000612293565b565b60008060009054906101000a900473ffffffffffffffffffffffffffffffffffffffff16905090565b60606000821015801561082457506002805490508211155b61082d57600080fd5b600082141561083f5760028054905091505b60008267ffffffffffffffff81111561085b5761085a614c6b565b5b60405190808252806020026020018201604052801561089457816020015b610881613cec565b8152602001906001900390816108795790505b50905060008060016002805490506108ac9190614de8565b90505b846002805490506108c09190614de8565b8110610bfc576040518060600160405280828152602001600283815481106108eb576108ea614c9a565b5b9060005260206000209060020201604051806101c001604052908160008201805461091590614e4b565b80601f016020809104026020016040519081016040528092919081815260200182805461094190614e4b565b801561098e5780601f106109635761010080835404028352916020019161098e565b820191906000526020600020905b81548152906001019060200180831161097157829003601f168201915b505050505081526020016001820160009054906101000a900463ffffffff1663ffffffff1663ffffffff1681526020016001820160049054906101000a900463ffffffff1663ffffffff1663ffffffff1681526020016001820160089054906101000a900461ffff1661ffff1661ffff16815260200160018201600a9054906101000a900461ffff1661ffff1661ffff16815260200160018201600c9054906101000a900461ffff1661ffff1661ffff16815260200160018201600e9054906101000a900461ffff1661ffff1661ffff1681526020016001820160109054906101000a900461ffff1661ffff1661ffff1681526020016001820160129054906101000a900461ffff1661ffff1661ffff1681526020016001820160149054906101000a900461ffff1661ffff1661ffff1681526020016001820160169054906101000a900461ffff1661ffff1661ffff1681526020016001820160189054906101000a900461ffff1661ffff1661ffff16815260200160018201601a9054906101000a900461ffff1661ffff1661ffff16815260200160018201601c9054906101000a900460ff166002811115610b4857610b4761401a565b5b6002811115610b5a57610b5961401a565b5b8152505081526020016003600084815260200190815260200160002060009054906101000a900473ffffffffffffffffffffffffffffffffffffffff1673ffffffffffffffffffffffffffffffffffffffff16815250838381518110610bc357610bc2614c9a565b5b60200260200101819052508180610bd990614cf8565b92505084821415610be957610bfc565b8080610bf490614d41565b9150506108af565b508192505050919050565b600060046000610c1561228b565b73ffffffffffffffffffffffffffffffffffffffff1673ffffffffffffffffffffffffffffffffffffffff1681526020019081526020016000205414610c90576040517f08c379a0000000000000000000000000000000000000000000000000000000008152600401610c8790614f15565b60405180910390fd5b610c9b838383612357565b600060056000610ca961228b565b73ffffffffffffffffffffffffffffffffffffffff1673ffffffffffffffffffffffffffffffffffffffff16815260200190815260200160002060006101000a81548161ffff021916908361ffff160217905550505050565b610d0c838261187a565b80341015610d4f576040517f08c379a0000000000000000000000000000000000000000000000000000000008152600401610d4690614fa7565b60405180910390fd5b6000610d5b858461187a565b905060008134610d6b9190614de8565b90506000811115610dc557610d7e61228b565b73ffffffffffffffffffffffffffffffffffffffff166108fc829081150290604051600060405180830381858888f19350505050158015610dc3573d6000803e3d6000fd5b505b610dd8610dd061228b565b8787876129ac565b505050505050565b610de8613d29565b60008210158015610e0a57506001600280549050610e069190614de8565b8211155b610e1357600080fd5b60028281548110610e2757610e26614c9a565b5b9060005260206000209060020201604051806101c0016040529081600082018054610e5190614e4b565b80601f0160208091040260200160405190810160405280929190818152602001828054610e7d90614e4b565b8015610eca5780601f10610e9f57610100808354040283529160200191610eca565b820191906000526020600020905b815481529060010190602001808311610ead57829003601f168201915b505050505081526020016001820160009054906101000a900463ffffffff1663ffffffff1663ffffffff1681526020016001820160049054906101000a900463ffffffff1663ffffffff1663ffffffff1681526020016001820160089054906101000a900461ffff1661ffff1661ffff16815260200160018201600a9054906101000a900461ffff1661ffff1661ffff16815260200160018201600c9054906101000a900461ffff1661ffff1661ffff16815260200160018201600e9054906101000a900461ffff1661ffff1661ffff1681526020016001820160109054906101000a900461ffff1661ffff1661ffff1681526020016001820160129054906101000a900461ffff1661ffff1661ffff1681526020016001820160149054906101000a900461ffff1661ffff1661ffff1681526020016001820160169054906101000a900461ffff1661ffff1661ffff1681526020016001820160189054906101000a900461ffff1661ffff1661ffff16815260200160018201601a9054906101000a900461ffff1661ffff1661ffff16815260200160018201601c9054906101000a900460ff1660028111156110845761108361401a565b5b60028111156110965761109561401a565b5b815250509050919050565b6000600280549050905090565b6000846003600082815260200190815260200160002060009054906101000a900473ffffffffffffffffffffffffffffffffffffffff1673ffffffffffffffffffffffffffffffffffffffff1661110361228b565b73ffffffffffffffffffffffffffffffffffffffff1614611159576040517f08c379a000000000000000000000000000000000000000000000000000000000815260040161115090615039565b60405180910390fd5b8261116261228b565b73ffffffffffffffffffffffffffffffffffffffff166003600083815260200190815260200160002060009054906101000a900473ffffffffffffffffffffffffffffffffffffffff1673ffffffffffffffffffffffffffffffffffffffff161415611203576040517f08c379a00000000000000000000000000000000000000000000000000000000081526004016111fa906150cb565b60405180910390fd5b60006002888154811061121957611218614c9a565b5b9060005260206000209060020201905060006002868154811061123f5761123e614c9a565b5b906000526020600020906002020190506000600e60009054906101000a900463ffffffff1690508815611697576007600089815260200190815260200160002060009054906101000a900473ffffffffffffffffffffffffffffffffffffffff1673ffffffffffffffffffffffffffffffffffffffff166112be61228b565b73ffffffffffffffffffffffffffffffffffffffff1614611314576040517f08c379a000000000000000000000000000000000000000000000000000000000815260040161130b9061515d565b60405180910390fd5b60006006898154811061132a57611329614c9a565b5b906000526020600020016040518060a00160405290816000820160009054906101000a900463ffffffff1663ffffffff1663ffffffff1681526020016000820160049054906101000a900463ffffffff1663ffffffff1663ffffffff1681526020016000820160089054906101000a900461ffff1661ffff1661ffff16815260200160008201600a9054906101000a900460ff1660018111156113d0576113cf61401a565b5b60018111156113e2576113e161401a565b5b815260200160008201600b9054906101000a900460ff16600281111561140b5761140a61401a565b5b600281111561141d5761141c61401a565b5b815250509050806000015163ffffffff168460010160009054906101000a900463ffffffff1663ffffffff16101561148a576040517f08c379a0000000000000000000000000000000000000000000000000000000008152600401611481906151ef565b60405180910390fd5b6000600181111561149e5761149d61401a565b5b816060015160018111156114b5576114b461401a565b5b141561152157806040015161ffff168460010160109054906101000a900461ffff1661ffff16101561151c576040517f08c379a000000000000000000000000000000000000000000000000000000000815260040161151390615281565b60405180910390fd5b611583565b806040015161ffff1684600101600e9054906101000a900461ffff1661ffff161015611582576040517f08c379a000000000000000000000000000000000000000000000000000000000815260040161157990615313565b60405180910390fd5b5b600160028111156115975761159661401a565b5b84600101601c9054906101000a900460ff1660028111156115bb576115ba61401a565b5b1480156115f05750600060018111156115d7576115d661401a565b5b816060015160018111156115ee576115ed61401a565b5b145b8061166357506000600281111561160a5761160961401a565b5b84600101601c9054906101000a900460ff16600281111561162e5761162d61401a565b5b14801561166257506001808111156116495761164861401a565b5b816060015160018111156116605761165f61401a565b5b145b5b1561168d576116866002826020015163ffffffff16612e4990919063ffffffff16565b9150611695565b806020015191505b505b600080611723600360008b815260200190815260200160002060009054906101000a900473ffffffffffffffffffffffffffffffffffffffff168560010160009054906101000a900463ffffffff1686600101600e9054906101000a900461ffff168760010160109054906101000a900461ffff1688600101601c9054906101000a900460ff16612e5f565b91509150600a63ffffffff168263ffffffff16111561177557887fa4e95ab035d76d13bdc07420aa87ff099f6730e677eac0a5867073179f9363d28260405161176c91906148fc565b60405180910390a25b60006117858d87868d898861309a565b905080156117a4576117968d61333d565b61179f8a613435565b6117b7565b6117ad8d613435565b6117b68a61333d565b5b8098505050505050505050949350505050565b600161ffff16600560006117dc61228b565b73ffffffffffffffffffffffffffffffffffffffff1673ffffffffffffffffffffffffffffffffffffffff16815260200190815260200160002060009054906101000a900461ffff1661ffff16101561186a576040517f08c379a0000000000000000000000000000000000000000000000000000000008152600401611861906153a5565b60405180910390fd5b611875838383612357565b505050565b6000806118988463ffffffff1660095461352d90919063ffffffff16565b90506002808111156118ad576118ac61401a565b5b8360028111156118c0576118bf61401a565b5b14156118e3576118db600a548261354390919063ffffffff16565b915050611946565b600060028111156118f7576118f661401a565b5b83600281111561190a5761190961401a565b5b141561192d57611925600c548261354390919063ffffffff16565b915050611946565b611942600a548261354390919063ffffffff16565b9150505b92915050565b61195461228b565b73ffffffffffffffffffffffffffffffffffffffff166119726107e3565b73ffffffffffffffffffffffffffffffffffffffff16146119c8576040517f08c379a00000000000000000000000000000000000000000000000000000000081526004016119bf90614dc8565b60405180910390fd5b600073ffffffffffffffffffffffffffffffffffffffff168173ffffffffffffffffffffffffffffffffffffffff161415611a38576040517f08c379a0000000000000000000000000000000000000000000000000000000008152600401611a2f90615437565b60405180910390fd5b611a4181612293565b50565b611a4c613dde565b60008210158015611a6e57506001600680549050611a6a9190614de8565b8211155b611a7757600080fd5b60068281548110611a8b57611a8a614c9a565b5b906000526020600020016040518060a00160405290816000820160009054906101000a900463ffffffff1663ffffffff1663ffffffff1681526020016000820160049054906101000a900463ffffffff1663ffffffff1663ffffffff1681526020016000820160089054906101000a900461ffff1661ffff1661ffff16815260200160008201600a9054906101000a900460ff166001811115611b3157611b3061401a565b5b6001811115611b4357611b4261401a565b5b815260200160008201600b9054906101000a900460ff166002811115611b6c57611b6b61401a565b5b6002811115611b7e57611b7d61401a565b5b815250509050919050565b60606000600460008473ffffffffffffffffffffffffffffffffffffffff1673ffffffffffffffffffffffffffffffffffffffff16815260200190815260200160002054905060008167ffffffffffffffff811115611beb57611bea614c6b565b5b604051908082528060200260200182016040528015611c2457816020015b611c11613e41565b815260200190600190039081611c095790505b5090506000805b600280549050811015611f96578573ffffffffffffffffffffffffffffffffffffffff166003600083815260200190815260200160002060009054906101000a900473ffffffffffffffffffffffffffffffffffffffff1673ffffffffffffffffffffffffffffffffffffffff161415611f8357604051806040016040528082815260200160028381548110611cc457611cc3614c9a565b5b9060005260206000209060020201604051806101c0016040529081600082018054611cee90614e4b565b80601f0160208091040260200160405190810160405280929190818152602001828054611d1a90614e4b565b8015611d675780601f10611d3c57610100808354040283529160200191611d67565b820191906000526020600020905b815481529060010190602001808311611d4a57829003601f168201915b505050505081526020016001820160009054906101000a900463ffffffff1663ffffffff1663ffffffff1681526020016001820160049054906101000a900463ffffffff1663ffffffff1663ffffffff1681526020016001820160089054906101000a900461ffff1661ffff1661ffff16815260200160018201600a9054906101000a900461ffff1661ffff1661ffff16815260200160018201600c9054906101000a900461ffff1661ffff1661ffff16815260200160018201600e9054906101000a900461ffff1661ffff1661ffff1681526020016001820160109054906101000a900461ffff1661ffff1661ffff1681526020016001820160129054906101000a900461ffff1661ffff1661ffff1681526020016001820160149054906101000a900461ffff1661ffff1661ffff1681526020016001820160169054906101000a900461ffff1661ffff1661ffff1681526020016001820160189054906101000a900461ffff1661ffff1661ffff16815260200160018201601a9054906101000a900461ffff1661ffff1661ffff16815260200160018201601c9054906101000a900460ff166002811115611f2157611f2061401a565b5b6002811115611f3357611f3261401a565b5b81525050815250838381518110611f4d57611f4c614c9a565b5b60200260200101819052508180611f6390614cf8565b9250508380611f7190614d41565b9450506000841415611f8257611f96565b5b8080611f8e90614cf8565b915050611c2b565b50819350505050919050565b846003600082815260200190815260200160002060009054906101000a900473ffffffffffffffffffffffffffffffffffffffff1673ffffffffffffffffffffffffffffffffffffffff16611ff561228b565b73ffffffffffffffffffffffffffffffffffffffff161461204b576040517f08c379a000000000000000000000000000000000000000000000000000000000815260040161204290615039565b60405180910390fd5b60006002878154811061206157612060614c9a565b5b90600052602060002090600202019050600086905061208d868261ffff1661355990919063ffffffff16565b90506120a6858261ffff1661355990919063ffffffff16565b90506120bf848261ffff1661355990919063ffffffff16565b905081600101601a9054906101000a900461ffff1661ffff168161ffff16111561211e576040517f08c379a0000000000000000000000000000000000000000000000000000000008152600401612115906154ef565b60405180910390fd5b6121478183600101601a9054906101000a900461ffff1661ffff1661356f90919063ffffffff16565b82600101601a6101000a81548161ffff021916908361ffff16021790555061218e8783600101600e9054906101000a900461ffff1661ffff1661355990919063ffffffff16565b82600101600e6101000a81548161ffff021916908361ffff1602179055506121d5868360010160109054906101000a900461ffff1661ffff1661355990919063ffffffff16565b8260010160106101000a81548161ffff021916908361ffff16021790555061221c848360010160129054906101000a900461ffff1661ffff1661355990919063ffffffff16565b8260010160126101000a81548161ffff021916908361ffff160217905550612263858360010160149054906101000a900461ffff1661ffff1661355990919063ffffffff16565b8260010160146101000a81548161ffff021916908361ffff1602179055505050505050505050565b600033905090565b60008060009054906101000a900473ffffffffffffffffffffffffffffffffffffffff169050816000806101000a81548173ffffffffffffffffffffffffffffffffffffffff021916908373ffffffffffffffffffffffffffffffffffffffff1602179055508173ffffffffffffffffffffffffffffffffffffffff168173ffffffffffffffffffffffffffffffffffffffff167f8be0079c531659141344cd1fd0a4f28419497f9722a3daafe3b4186f6b6457e060405160405180910390a35050565b828260008282905014156123a0576040517f08c379a000000000000000000000000000000000000000000000000000000000815260040161239790615581565b60405180910390fd5b82600060028111156123b5576123b461401a565b5b8160028111156123c8576123c761401a565b5b14806123f85750600160028111156123e3576123e261401a565b5b8160028111156123f6576123f561401a565b5b145b8061242657506002808111156124115761241061401a565b5b8160028111156124245761242361401a565b5b145b612465576040517f08c379a000000000000000000000000000000000000000000000000000000000815260040161245c90615613565b60405180910390fd5b85858080601f016020809104026020016040519081016040528093929190818152602001838380828437600081840152601f19601f8201169050808301925050505050505060006124bc6124b761228b565b611b89565b90506000805b8251811015612518576124f78382815181106124e1576124e0614c9a565b5b6020026020010151602001516000015185613585565b156125055760019150612518565b808061251090614cf8565b9150506124c2565b50801561255a576040517f08c379a0000000000000000000000000000000000000000000000000000000008152600401612551906156a5565b60405180910390fd5b6002604051806101c001604052808b8b8080601f016020809104026020016040519081016040528093929190818152602001838380828437600081840152601f19601f820116905080830192505050505050508152602001600163ffffffff1681526020016125d46001544261354390919063ffffffff16565b63ffffffff168152602001600061ffff168152602001600061ffff168152602001606461ffff168152602001600161ffff168152602001600161ffff168152602001600161ffff168152602001600161ffff168152602001600061ffff168152602001606461ffff168152602001600061ffff1681526020018960028111156126605761265f61401a565b5b815250908060018154018082558091505060019003906000526020600020906002020160009091909190915060008201518160000190805190602001906126a8929190613e61565b5060208201518160010160006101000a81548163ffffffff021916908363ffffffff16021790555060408201518160010160046101000a81548163ffffffff021916908363ffffffff16021790555060608201518160010160086101000a81548161ffff021916908361ffff160217905550608082015181600101600a6101000a81548161ffff021916908361ffff16021790555060a082015181600101600c6101000a81548161ffff021916908361ffff16021790555060c082015181600101600e6101000a81548161ffff021916908361ffff16021790555060e08201518160010160106101000a81548161ffff021916908361ffff1602179055506101008201518160010160126101000a81548161ffff021916908361ffff1602179055506101208201518160010160146101000a81548161ffff021916908361ffff1602179055506101408201518160010160166101000a81548161ffff021916908361ffff1602179055506101608201518160010160186101000a81548161ffff021916908361ffff16021790555061018082015181600101601a6101000a81548161ffff021916908361ffff1602179055506101a082015181600101601c6101000a81548160ff021916908360028111156128865761288561401a565b5b02179055505050600060016002805490506128a19190614de8565b90506128ab61228b565b6003600083815260200190815260200160002060006101000a81548173ffffffffffffffffffffffffffffffffffffffff021916908373ffffffffffffffffffffffffffffffffffffffff16021790555061295660016004600061290d61228b565b73ffffffffffffffffffffffffffffffffffffffff1673ffffffffffffffffffffffffffffffffffffffff1681526020019081526020016000205461354390919063ffffffff16565b6004600061296261228b565b73ffffffffffffffffffffffffffffffffffffffff1673ffffffffffffffffffffffffffffffffffffffff1681526020019081526020016000208190555050505050505050505050565b8260018163ffffffff1610156129f7576040517f08c379a00000000000000000000000000000000000000000000000000000000081526004016129ee90615737565b60405180910390fd5b8260006001811115612a0c57612a0b61401a565b5b816001811115612a1f57612a1e61401a565b5b1480612a4e5750600180811115612a3957612a3861401a565b5b816001811115612a4c57612a4b61401a565b5b145b612a8d576040517f08c379a0000000000000000000000000000000000000000000000000000000008152600401612a84906157c9565b60405180910390fd5b8260006002811115612aa257612aa161401a565b5b816002811115612ab557612ab461401a565b5b1480612ae5575060016002811115612ad057612acf61401a565b5b816002811115612ae357612ae261401a565b5b145b80612b135750600280811115612afe57612afd61401a565b5b816002811115612b1157612b1061401a565b5b145b612b52576040517f08c379a0000000000000000000000000000000000000000000000000000000008152600401612b49906157c9565b60405180910390fd5b6000806002811115612b6757612b6661401a565b5b856002811115612b7a57612b7961401a565b5b1415612b8557600890505b60016002811115612b9957612b9861401a565b5b856002811115612bac57612bab61401a565b5b1415612bb757600690505b600280811115612bca57612bc961401a565b5b856002811115612bdd57612bdc61401a565b5b1415612be857600390505b60066040518060a001604052808963ffffffff168152602001612c0b8a896135de565b63ffffffff1681526020018361ffff168152602001886001811115612c3357612c3261401a565b5b8152602001876002811115612c4b57612c4a61401a565b5b8152509080600181540180825580915050600190039060005260206000200160009091909190915060008201518160000160006101000a81548163ffffffff021916908363ffffffff16021790555060208201518160000160046101000a81548163ffffffff021916908363ffffffff16021790555060408201518160000160086101000a81548161ffff021916908361ffff160217905550606082015181600001600a6101000a81548160ff02191690836001811115612d0f57612d0e61401a565b5b0217905550608082015181600001600b6101000a81548160ff02191690836002811115612d3f57612d3e61401a565b5b0217905550505087600760006001600680549050612d5d9190614de8565b815260200190815260200160002060006101000a81548173ffffffffffffffffffffffffffffffffffffffff021916908373ffffffffffffffffffffffffffffffffffffffff160217905550612dfc6001600860008b73ffffffffffffffffffffffffffffffffffffffff1673ffffffffffffffffffffffffffffffffffffffff1681526020019081526020016000205461354390919063ffffffff16565b600860008a73ffffffffffffffffffffffffffffffffffffffff1673ffffffffffffffffffffffffffffffffffffffff168152602001908152602001600020819055505050505050505050565b60008183612e5791906157e9565b905092915050565b6000806000600a9050600080612e748a6103f2565b905060005b8151811015613086576000828281518110612e9757612e96614c9a565b5b60200260200101516020015190508a63ffffffff16816000015163ffffffff16116130725760006001811115612ed057612ecf61401a565b5b81606001516001811115612ee757612ee661401a565b5b1415612fb1578861ffff16816040015161ffff1611612fac5760016002811115612f1457612f1361401a565b5b886002811115612f2757612f2661401a565b5b1415612f87578463ffffffff16612f526002836020015163ffffffff16612e4990919063ffffffff16565b63ffffffff161115612f8257612f7c6002826020015163ffffffff16612e4990919063ffffffff16565b94508193505b612fab565b8463ffffffff16816020015163ffffffff161115612faa57806020015194508193505b5b5b613071565b8961ffff16816040015161ffff16116130705760006002811115612fd857612fd761401a565b5b886002811115612feb57612fea61401a565b5b141561304b578463ffffffff166130166002836020015163ffffffff16612e4990919063ffffffff16565b63ffffffff161115613046576130406002826020015163ffffffff16612e4990919063ffffffff16565b94508193505b61306f565b8463ffffffff16816020015163ffffffff16111561306e57806020015194508193505b5b5b5b5b50808061307e90614cf8565b915050612e79565b508282945094505050509550959350505050565b60008560010160049054906101000a900463ffffffff16428163ffffffff1611156130fa576040517f08c379a00000000000000000000000000000000000000000000000000000000081526004016130f190615899565b60405180910390fd5b6131038761369e565b600087600101600c9054906101000a900461ffff1661ffff1690506002808111156131315761313061401a565b5b88600101601c9054906101000a900460ff1660028111156131555761315461401a565b5b14156131995760328161316891906158c6565b90508760010160009054906101000a900463ffffffff16600a61318b919061593e565b8161319691906158c6565b90505b600085600101600c9054906101000a900461ffff1661ffff1690506002808111156131c7576131c661401a565b5b86600101601c9054906101000a900460ff1660028111156131eb576131ea61401a565b5b141561322f576032816131fe91906158c6565b90508560010160009054906101000a900463ffffffff16600a613221919061593e565b8161322c91906158c6565b90505b60005b600115613306576132728b8a8c60010160149054906101000a900461ffff1661325961228b565b8c8c60010160129054906101000a900461ffff166136d1565b90508061ffff16826132849190615a1d565b915060008260030b1361329d5760019450505050613332565b6132d688878960010160149054906101000a900461ffff166132bd61228b565b8f8f60010160129054906101000a900461ffff166136d1565b90508061ffff16836132e89190615a1d565b925060008360030b136133015760009450505050613332565b613232565b60008360030b13158061331d575060008260030b13155b61332a57613329615a95565b5b600094505050505b509695505050505050565b60006002828154811061335357613352614c9a565b5b9060005260206000209060020201905061338d60018260010160089054906101000a900461ffff1661ffff1661355990919063ffffffff16565b8160010160086101000a81548161ffff021916908361ffff1602179055506133d5602d8260010160169054906101000a900461ffff1661ffff1661355990919063ffffffff16565b8160010160166101000a81548161ffff021916908361ffff1602179055508060010160189054906101000a900461ffff1661ffff168160010160169054906101000a900461ffff1661ffff16106134315761343081836137f6565b5b5050565b60006002828154811061344b5761344a614c9a565b5b90600052602060002090600202019050613485600182600101600a9054906101000a900461ffff1661ffff1661355990919063ffffffff16565b81600101600a6101000a81548161ffff021916908361ffff1602179055506134cd60148260010160169054906101000a900461ffff1661ffff1661355990919063ffffffff16565b8160010160166101000a81548161ffff021916908361ffff1602179055508060010160189054906101000a900461ffff1661ffff168160010160169054906101000a900461ffff1661ffff16106135295761352881836137f6565b5b5050565b6000818361353b9190615ac4565b905092915050565b600081836135519190615b1e565b905092915050565b600081836135679190615b74565b905092915050565b6000818361357d9190615bac565b905092915050565b6000816040516020016135989190615c1c565b60405160208183030381529060405280519060200120836040516020016135bf9190615c1c565b6040516020818303038152906040528051906020012014905092915050565b60006002808111156135f3576135f261401a565b5b8260028111156136065761360561401a565b5b141561362d5761362660028463ffffffff16612e4990919063ffffffff16565b9050613698565b600060028111156136415761364061401a565b5b8260028111156136545761365361401a565b5b141561367b5761367460048463ffffffff16612e4990919063ffffffff16565b9050613698565b61369560038463ffffffff16612e4990919063ffffffff16565b90505b92915050565b600154426136ac9190615b1e565b8160010160046101000a81548163ffffffff021916908363ffffffff16021790555050565b60006136dd8483613aee565b156137275782877fcce4f0668cb0ecd051f3e42f34aaff29f7fc1d9554bcf8d825cb4960f15a9e77600080604051613716929190615c78565b60405180910390a3600090506137ec565b6137318486613aee565b156137ac5782877fcce4f0668cb0ecd051f3e42f34aaff29f7fc1d9554bcf8d825cb4960f15a9e7761377360028a63ffffffff16612e4990919063ffffffff16565b6001604051613783929190615cb0565b60405180910390a36137a560028763ffffffff16612e4990919063ffffffff16565b90506137ec565b82877fcce4f0668cb0ecd051f3e42f34aaff29f7fc1d9554bcf8d825cb4960f15a9e778860016040516137e0929190615cb0565b60405180910390a38590505b9695505050505050565b61382060648360010160189054906101000a900461ffff1661ffff1661355990919063ffffffff16565b8260010160186101000a81548161ffff021916908361ffff16021790555061386c60018360010160009054906101000a900463ffffffff1663ffffffff16613b8690919063ffffffff16565b8260010160006101000a81548163ffffffff021916908363ffffffff1602179055506138b8601483600101600c9054906101000a900461ffff1661ffff1661355990919063ffffffff16565b82600101600c6101000a81548161ffff021916908361ffff160217905550613900600183600101601a9054906101000a900461ffff1661ffff1661355990919063ffffffff16565b82600101601a6101000a81548161ffff021916908361ffff160217905550600061394e600a8460010160009054906101000a900463ffffffff1663ffffffff16613b9c90919063ffffffff16565b63ffffffff161415613a8a5760006003600083815260200190815260200160002060009054906101000a900473ffffffffffffffffffffffffffffffffffffffff1690506139f76001600560008473ffffffffffffffffffffffffffffffffffffffff1673ffffffffffffffffffffffffffffffffffffffff16815260200190815260200160002060009054906101000a900461ffff1661ffff1661355990919063ffffffff16565b600560008373ffffffffffffffffffffffffffffffffffffffff1673ffffffffffffffffffffffffffffffffffffffff16815260200190815260200160002060006101000a81548161ffff021916908361ffff160217905550613a5981613bb2565b15613a8857613a87818460010160009054906101000a900463ffffffff16613a8084613c34565b60026129ac565b5b505b807f284d83b741d04b66c66fb22029862604204702909c62315ad79f489c4f5b91bb8360010160009054906101000a900463ffffffff1684600101601a9054906101000a900461ffff16604051613ae2929190615ce8565b60405180910390a25050565b60008060058361ffff16613b029190615b1e565b9050613b1a6001600d5461354390919063ffffffff16565b600d819055506000613b6560644287600d54604051602001613b3e93929190615d7a565b6040516020818303038152906040528051906020012060001c613cb690919063ffffffff16565b9050818111613b7957600192505050613b80565b6000925050505b92915050565b60008183613b949190615db7565b905092915050565b60008183613baa9190615e20565b905092915050565b6000613bca6001600d5461354390919063ffffffff16565b600d819055506000613c1560644285600d54604051602001613bee93929190615d7a565b6040516020818303038152906040528051906020012060001c613cb690919063ffffffff16565b905060288111613c29576001915050613c2f565b60009150505b919050565b6000613c4c6001600d5461354390919063ffffffff16565b600d819055506000613c9760644285600d54604051602001613c7093929190615d7a565b6040516020818303038152906040528051906020012060001c613cb690919063ffffffff16565b905060328111613cab576000915050613cb1565b60019150505b919050565b60008183613cc49190615e51565b905092915050565b604051806040016040528060008152602001613ce6613dde565b81525090565b604051806060016040528060008152602001613d06613d29565b8152602001600073ffffffffffffffffffffffffffffffffffffffff1681525090565b604051806101c0016040528060608152602001600063ffffffff168152602001600063ffffffff168152602001600061ffff168152602001600061ffff168152602001600061ffff168152602001600061ffff168152602001600061ffff168152602001600061ffff168152602001600061ffff168152602001600061ffff168152602001600061ffff168152602001600061ffff16815260200160006002811115613dd857613dd761401a565b5b81525090565b6040518060a00160405280600063ffffffff168152602001600063ffffffff168152602001600061ffff16815260200160006001811115613e2257613e2161401a565b5b815260200160006002811115613e3b57613e3a61401a565b5b81525090565b604051806040016040528060008152602001613e5b613d29565b81525090565b828054613e6d90614e4b565b90600052602060002090601f016020900481019282613e8f5760008555613ed6565b82601f10613ea857805160ff1916838001178555613ed6565b82800160010185558215613ed6579182015b82811115613ed5578251825591602001919060010190613eba565b5b509050613ee39190613ee7565b5090565b5b80821115613f00576000816000905550600101613ee8565b5090565b600080fd5b600080fd5b600073ffffffffffffffffffffffffffffffffffffffff82169050919050565b6000613f3982613f0e565b9050919050565b613f4981613f2e565b8114613f5457600080fd5b50565b600081359050613f6681613f40565b92915050565b600060208284031215613f8257613f81613f04565b5b6000613f9084828501613f57565b91505092915050565b600081519050919050565b600082825260208201905092915050565b6000819050602082019050919050565b6000819050919050565b613fd881613fc5565b82525050565b600063ffffffff82169050919050565b613ff781613fde565b82525050565b600061ffff82169050919050565b61401481613ffd565b82525050565b7f4e487b7100000000000000000000000000000000000000000000000000000000600052602160045260246000fd5b6002811061405a5761405961401a565b5b50565b600081905061406b82614049565b919050565b600061407b8261405d565b9050919050565b61408b81614070565b82525050565b600381106140a2576140a161401a565b5b50565b60008190506140b382614091565b919050565b60006140c3826140a5565b9050919050565b6140d3816140b8565b82525050565b60a0820160008201516140ef6000850182613fee565b5060208201516141026020850182613fee565b506040820151614115604085018261400b565b5060608201516141286060850182614082565b50608082015161413b60808501826140ca565b50505050565b60c0820160008201516141576000850182613fcf565b50602082015161416a60208501826140d9565b50505050565b600061417c8383614141565b60c08301905092915050565b6000602082019050919050565b60006141a082613f99565b6141aa8185613fa4565b93506141b583613fb5565b8060005b838110156141e65781516141cd8882614170565b97506141d883614188565b9250506001810190506141b9565b5085935050505092915050565b6000602082019050818103600083015261420d8184614195565b905092915050565b61421e81613f2e565b82525050565b60006020820190506142396000830184614215565b92915050565b61424881613fc5565b811461425357600080fd5b50565b6000813590506142658161423f565b92915050565b60006020828403121561428157614280613f04565b5b600061428f84828501614256565b91505092915050565b600081519050919050565b600082825260208201905092915050565b6000819050602082019050919050565b600081519050919050565b600082825260208201905092915050565b60005b838110156142fe5780820151818401526020810190506142e3565b8381111561430d576000848401525b50505050565b6000601f19601f8301169050919050565b600061432f826142c4565b61433981856142cf565b93506143498185602086016142e0565b61435281614313565b840191505092915050565b6003811061436e5761436d61401a565b5b50565b600081905061437f8261435d565b919050565b600061438f82614371565b9050919050565b61439f81614384565b82525050565b60006101c08301600083015184820360008601526143c38282614324565b91505060208301516143d86020860182613fee565b5060408301516143eb6040860182613fee565b5060608301516143fe606086018261400b565b506080830151614411608086018261400b565b5060a083015161442460a086018261400b565b5060c083015161443760c086018261400b565b5060e083015161444a60e086018261400b565b5061010083015161445f61010086018261400b565b5061012083015161447461012086018261400b565b5061014083015161448961014086018261400b565b5061016083015161449e61016086018261400b565b506101808301516144b361018086018261400b565b506101a08301516144c86101a0860182614396565b508091505092915050565b6144dc81613f2e565b82525050565b60006060830160008301516144fa6000860182613fcf565b506020830151848203602086015261451282826143a5565b915050604083015161452760408601826144d3565b508091505092915050565b600061453e83836144e2565b905092915050565b6000602082019050919050565b600061455e82614298565b61456881856142a3565b93508360208202850161457a856142b4565b8060005b858110156145b657848403895281516145978582614532565b94506145a283614546565b925060208a0199505060018101905061457e565b50829750879550505050505092915050565b600060208201905081810360008301526145e28184614553565b905092915050565b600080fd5b600080fd5b600080fd5b60008083601f84011261460f5761460e6145ea565b5b8235905067ffffffffffffffff81111561462c5761462b6145ef565b5b602083019150836001820283011115614648576146476145f4565b5b9250929050565b6003811061465c57600080fd5b50565b60008135905061466e8161464f565b92915050565b60008060006040848603121561468d5761468c613f04565b5b600084013567ffffffffffffffff8111156146ab576146aa613f09565b5b6146b7868287016145f9565b935093505060206146ca8682870161465f565b9150509250925092565b6146dd81613fde565b81146146e857600080fd5b50565b6000813590506146fa816146d4565b92915050565b6002811061470d57600080fd5b50565b60008135905061471f81614700565b92915050565b6003811061473257600080fd5b50565b60008135905061474481614725565b92915050565b60008060006060848603121561476357614762613f04565b5b6000614771868287016146eb565b935050602061478286828701614710565b925050604061479386828701614735565b9150509250925092565b60006101c08301600083015184820360008601526147bb8282614324565b91505060208301516147d06020860182613fee565b5060408301516147e36040860182613fee565b5060608301516147f6606086018261400b565b506080830151614809608086018261400b565b5060a083015161481c60a086018261400b565b5060c083015161482f60c086018261400b565b5060e083015161484260e086018261400b565b5061010083015161485761010086018261400b565b5061012083015161486c61012086018261400b565b5061014083015161488161014086018261400b565b5061016083015161489661016086018261400b565b506101808301516148ab61018086018261400b565b506101a08301516148c06101a0860182614396565b508091505092915050565b600060208201905081810360008301526148e5818461479d565b905092915050565b6148f681613fc5565b82525050565b600060208201905061491160008301846148ed565b92915050565b60008115159050919050565b61492c81614917565b811461493757600080fd5b50565b60008135905061494981614923565b92915050565b6000806000806080858703121561496957614968613f04565b5b600061497787828801614256565b94505060206149888782880161493a565b935050604061499987828801614256565b92505060606149aa87828801614256565b91505092959194509250565b6149bf81614917565b82525050565b60006020820190506149da60008301846149b6565b92915050565b600080604083850312156149f7576149f6613f04565b5b6000614a05858286016146eb565b9250506020614a1685828601614735565b9150509250929050565b60a082016000820151614a366000850182613fee565b506020820151614a496020850182613fee565b506040820151614a5c604085018261400b565b506060820151614a6f6060850182614082565b506080820151614a8260808501826140ca565b50505050565b600060a082019050614a9d6000830184614a20565b92915050565b600081519050919050565b600082825260208201905092915050565b6000819050602082019050919050565b6000604083016000830151614ae76000860182613fcf565b5060208301518482036020860152614aff82826143a5565b9150508091505092915050565b6000614b188383614acf565b905092915050565b6000602082019050919050565b6000614b3882614aa3565b614b428185614aae565b935083602082028501614b5485614abf565b8060005b85811015614b905784840389528151614b718582614b0c565b9450614b7c83614b20565b925060208a01995050600181019050614b58565b50829750879550505050505092915050565b60006020820190508181036000830152614bbc8184614b2d565b905092915050565b614bcd81613ffd565b8114614bd857600080fd5b50565b600081359050614bea81614bc4565b92915050565b600080600080600060a08688031215614c0c57614c0b613f04565b5b6000614c1a88828901614256565b9550506020614c2b88828901614bdb565b9450506040614c3c88828901614bdb565b9350506060614c4d88828901614bdb565b9250506080614c5e88828901614bdb565b9150509295509295909350565b7f4e487b7100000000000000000000000000000000000000000000000000000000600052604160045260246000fd5b7f4e487b7100000000000000000000000000000000000000000000000000000000600052603260045260246000fd5b7f4e487b7100000000000000000000000000000000000000000000000000000000600052601160045260246000fd5b6000614d0382613fc5565b91507fffffffffffffffffffffffffffffffffffffffffffffffffffffffffffffffff821415614d3657614d35614cc9565b5b600182019050919050565b6000614d4c82613fc5565b91506000821415614d6057614d5f614cc9565b5b600182039050919050565b600082825260208201905092915050565b7f4f776e61626c653a2063616c6c6572206973206e6f7420746865206f776e6572600082015250565b6000614db2602083614d6b565b9150614dbd82614d7c565b602082019050919050565b60006020820190508181036000830152614de181614da5565b9050919050565b6000614df382613fc5565b9150614dfe83613fc5565b925082821015614e1157614e10614cc9565b5b828203905092915050565b7f4e487b7100000000000000000000000000000000000000000000000000000000600052602260045260246000fd5b60006002820490506001821680614e6357607f821691505b60208210811415614e7757614e76614e1c565b5b50919050565b7f596f7520616c7265616479206861766520666967687465727320696e20796f7560008201527f72204261727261636b732120456e74657220746865204172656e6120616e642060208201527f6561726e20796f757273656c66206d6f72652046696768746572732100000000604082015250565b6000614eff605c83614d6b565b9150614f0a82614e7d565b606082019050919050565b60006020820190508181036000830152614f2e81614ef2565b9050919050565b7f596f752073656e7420696e73756666696369656e742045544820666f7220666f60008201527f7267696e67207468697320776561706f6e210000000000000000000000000000602082015250565b6000614f91603283614d6b565b9150614f9c82614f35565b604082019050919050565b60006020820190508181036000830152614fc081614f84565b9050919050565b7f596f7520617265206e6f7420746865206f776e6572206f66207468697320466960008201527f6768746572210000000000000000000000000000000000000000000000000000602082015250565b6000615023602683614d6b565b915061502e82614fc7565b604082019050919050565b6000602082019050818103600083015261505281615016565b9050919050565b7f596f752063616e6e6f742061747461636b20796f7572206f776e20466967687460008201527f6572210000000000000000000000000000000000000000000000000000000000602082015250565b60006150b5602383614d6b565b91506150c082615059565b604082019050919050565b600060208201905081810360008301526150e4816150a8565b9050919050565b7f596f7520617265206e6f7420746865206f776e6572206f66207468697320576560008201527f61706f6e21000000000000000000000000000000000000000000000000000000602082015250565b6000615147602583614d6b565b9150615152826150eb565b604082019050919050565b600060208201905081810360008301526151768161513a565b9050919050565b7f596f752063616e6e6f7420757365207468697320776561706f6e2c20796f757260008201527f206c6576656c20697320746f6f20736d616c6c21000000000000000000000000602082015250565b60006151d9603483614d6b565b91506151e48261517d565b604082019050919050565b60006020820190508181036000830152615208816151cc565b9050919050565b7f596f752063616e6e6f7420757365207468697320776561706f6e2c20796f757260008201527f206167696c69747920736b696c6c20697320696e73756666696369656e742100602082015250565b600061526b603f83614d6b565b91506152768261520f565b604082019050919050565b6000602082019050818103600083015261529a8161525e565b9050919050565b7f596f752063616e6e6f7420757365207468697320776561706f6e2c20796f757260008201527f20737472656e67746820736b696c6c20697320696e73756666696369656e7421602082015250565b60006152fd604083614d6b565b9150615308826152a1565b604082019050919050565b6000602082019050818103600083015261532c816152f0565b9050919050565b7f596f7520646f206e6f74206861766520616e7920617661696c61626c6520707560008201527f70696c732120466967687420746f206561726e206d6f72652100000000000000602082015250565b600061538f603983614d6b565b915061539a82615333565b604082019050919050565b600060208201905081810360008301526153be81615382565b9050919050565b7f4f776e61626c653a206e6577206f776e657220697320746865207a65726f206160008201527f6464726573730000000000000000000000000000000000000000000000000000602082015250565b6000615421602683614d6b565b915061542c826153c5565b604082019050919050565b6000602082019050818103600083015261545081615414565b9050919050565b7f596f7520646f206e6f74206861766520656e6f75676820617661696c61626c6560008201527f207370656e6461626c6520706f696e747320696e206f7264657220746f20646f60208201527f207468697320616374696f6e2100000000000000000000000000000000000000604082015250565b60006154d9604d83614d6b565b91506154e482615457565b606082019050919050565b60006020820190508181036000830152615508816154cc565b9050919050565b7f546865206e616d6520796f7520696e73657274656420666f7220796f7572204660008201527f69676874657220697320696e76616c6964210000000000000000000000000000602082015250565b600061556b603283614d6b565b91506155768261550f565b604082019050919050565b6000602082019050818103600083015261559a8161555e565b9050919050565b7f54686520636c61737320796f7520696e73657274656420666f7220796f75722060008201527f4669676874657220697320696e76616c69642100000000000000000000000000602082015250565b60006155fd603383614d6b565b9150615608826155a1565b604082019050919050565b6000602082019050818103600083015261562c816155f0565b9050919050565b7f546865206e616d6520796f7520696e73657274656420666f7220796f7572204660008201527f69676874657220697320616c7265616479207573656421000000000000000000602082015250565b600061568f603783614d6b565b915061569a82615633565b604082019050919050565b600060208201905081810360008301526156be81615682565b9050919050565b7f546865206c6576656c20796f7520696e73657274656420666f7220796f75722060008201527f576561706f6e20697320696e76616c6964210000000000000000000000000000602082015250565b6000615721603283614d6b565b915061572c826156c5565b604082019050919050565b6000602082019050818103600083015261575081615714565b9050919050565b7f546865207479706520796f7520696e73657274656420666f7220796f7572205760008201527f6561706f6e20697320696e76616c696421000000000000000000000000000000602082015250565b60006157b3603183614d6b565b91506157be82615757565b604082019050919050565b600060208201905081810360008301526157e2816157a6565b9050919050565b60006157f482613fde565b91506157ff83613fde565b92508163ffffffff048311821515161561581c5761581b614cc9565b5b828202905092915050565b7f596f75722066696768746572206973206e6f742079657420726561647920746f60008201527f2066696768742100000000000000000000000000000000000000000000000000602082015250565b6000615883602783614d6b565b915061588e82615827565b604082019050919050565b600060208201905081810360008301526158b281615876565b9050919050565b60008160030b9050919050565b60006158d1826158b9565b91506158dc836158b9565b925081637fffffff038313600083121516156158fb576158fa614cc9565b5b817fffffffffffffffffffffffffffffffffffffffffffffffffffffffff8000000003831260008312161561593357615932614cc9565b5b828201905092915050565b6000615949826158b9565b9150615954836158b9565b925082637fffffff048211600084136000841316161561597757615976614cc9565b5b817fffffffffffffffffffffffffffffffffffffffffffffffffffffffff8000000005831260008412600084131616156159b4576159b3614cc9565b5b827fffffffffffffffffffffffffffffffffffffffffffffffffffffffff8000000005821260008413600084121616156159f1576159f0614cc9565b5b82637fffffff0582126000841260008412161615615a1257615a11614cc9565b5b828202905092915050565b6000615a28826158b9565b9150615a33836158b9565b9250827fffffffffffffffffffffffffffffffffffffffffffffffffffffffff8000000001821260008412151615615a6e57615a6d614cc9565b5b82637fffffff018213600084121615615a8a57615a89614cc9565b5b828203905092915050565b7f4e487b7100000000000000000000000000000000000000000000000000000000600052600160045260246000fd5b6000615acf82613fc5565b9150615ada83613fc5565b9250817fffffffffffffffffffffffffffffffffffffffffffffffffffffffffffffffff0483118215151615615b1357615b12614cc9565b5b828202905092915050565b6000615b2982613fc5565b9150615b3483613fc5565b9250827fffffffffffffffffffffffffffffffffffffffffffffffffffffffffffffffff03821115615b6957615b68614cc9565b5b828201905092915050565b6000615b7f82613ffd565b9150615b8a83613ffd565b92508261ffff03821115615ba157615ba0614cc9565b5b828201905092915050565b6000615bb782613ffd565b9150615bc283613ffd565b925082821015615bd557615bd4614cc9565b5b828203905092915050565b600081905092915050565b6000615bf6826142c4565b615c008185615be0565b9350615c108185602086016142e0565b80840191505092915050565b6000615c288284615beb565b915081905092915050565b6000819050919050565b6000819050919050565b6000615c62615c5d615c5884615c33565b615c3d565b613ffd565b9050919050565b615c7281615c47565b82525050565b6000604082019050615c8d6000830185615c69565b615c9a60208301846149b6565b9392505050565b615caa81613ffd565b82525050565b6000604082019050615cc56000830185615ca1565b615cd260208301846149b6565b9392505050565b615ce281613fde565b82525050565b6000604082019050615cfd6000830185615cd9565b615d0a6020830184615ca1565b9392505050565b6000819050919050565b615d2c615d2782613fc5565b615d11565b82525050565b60008160601b9050919050565b6000615d4a82615d32565b9050919050565b6000615d5c82615d3f565b9050919050565b615d74615d6f82613f2e565b615d51565b82525050565b6000615d868286615d1b565b602082019150615d968285615d63565b601482019150615da68284615d1b565b602082019150819050949350505050565b6000615dc282613fde565b9150615dcd83613fde565b92508263ffffffff03821115615de657615de5614cc9565b5b828201905092915050565b7f4e487b7100000000000000000000000000000000000000000000000000000000600052601260045260246000fd5b6000615e2b82613fde565b9150615e3683613fde565b925082615e4657615e45615df1565b5b828206905092915050565b6000615e5c82613fc5565b9150615e6783613fc5565b925082615e7757615e76615df1565b5b82820690509291505056fea2646970667358221220a05a3b383541ae2ee7d17e259cbd9c8f0b6157650cb98dfc1551d56cb7f7f13264736f6c634300080a0033",
  "linkReferences": {},
  "deployedLinkReferences": {}
}