{
  "_format": "hh-sol-artifact-1",
  "contractName": "Arena",
  "sourceName": "contracts/Arena.sol",
  "abi": [
    {
      "anonymous": false,
      "inputs": [
        {
          "indexed": true,
          "internalType": "uint256",
          "name": "attackerId",
          "type": "uint256"
        },
        {
          "indexed": true,
          "internalType": "uint256",
          "name": "targetId",
          "type": "uint256"
        },
        {
          "indexed": false,
          "internalType": "uint16",
          "name": "damage",
          "type": "uint16"
        },
        {
          "indexed": false,
          "internalType": "bool",
          "name": "wasCritical",
          "type": "bool"
        }
      ],
      "name": "ArenaEvent",
      "type": "event"
    },
    {
      "anonymous": false,
      "inputs": [
        {
          "indexed": true,
          "internalType": "uint256",
          "name": "fighterId",
          "type": "uint256"
        },
        {
          "indexed": false,
          "internalType": "uint32",
          "name": "newLevel",
          "type": "uint32"
        },
        {
          "indexed": false,
          "internalType": "uint16",
          "name": "newSpendablePoints",
          "type": "uint16"
        }
      ],
      "name": "FighterLeveledUpEvent",
      "type": "event"
    },
    {
      "anonymous": false,
      "inputs": [
        {
          "indexed": true,
          "internalType": "address",
          "name": "previousOwner",
          "type": "address"
        },
        {
          "indexed": true,
          "internalType": "address",
          "name": "newOwner",
          "type": "address"
        }
      ],
      "name": "OwnershipTransferred",
      "type": "event"
    },
    {
      "anonymous": false,
      "inputs": [
        {
          "indexed": true,
          "internalType": "uint256",
          "name": "targetId",
          "type": "uint256"
        },
        {
          "indexed": false,
          "internalType": "uint256",
          "name": "targetWeaponId",
          "type": "uint256"
        }
      ],
      "name": "WeaponChosenForTargetEvent",
      "type": "event"
    },
    {
      "inputs": [],
      "name": "_collectMerchantBalance",
      "outputs": [],
      "stateMutability": "nonpayable",
      "type": "function"
    },
    {
      "inputs": [
        {
          "internalType": "uint32",
          "name": "_level",
          "type": "uint32"
        },
        {
          "internalType": "enum WeaponTier",
          "name": "_tier",
          "type": "uint8"
        }
      ],
      "name": "_computeWeaponPrice",
      "outputs": [
        {
          "internalType": "uint256",
          "name": "",
          "type": "uint256"
        }
      ],
      "stateMutability": "view",
      "type": "function"
    },
    {
      "inputs": [
        {
          "internalType": "string",
          "name": "_name",
          "type": "string"
        },
        {
          "internalType": "enum FighterClass",
          "name": "_class",
          "type": "uint8"
        }
      ],
      "name": "_createFirstFighter",
      "outputs": [],
      "stateMutability": "nonpayable",
      "type": "function"
    },
    {
      "inputs": [
        {
          "internalType": "uint256",
          "name": "id",
          "type": "uint256"
        }
      ],
      "name": "_getFighterById",
      "outputs": [
        {
          "components": [
            {
              "internalType": "string",
              "name": "name",
              "type": "string"
            },
            {
              "internalType": "uint32",
              "name": "level",
              "type": "uint32"
            },
            {
              "internalType": "uint32",
              "name": "readyTime",
              "type": "uint32"
            },
            {
              "internalType": "uint16",
              "name": "winCount",
              "type": "uint16"
            },
            {
              "internalType": "uint16",
              "name": "lossCount",
              "type": "uint16"
            },
            {
              "internalType": "uint16",
              "name": "HP",
              "type": "uint16"
            },
            {
              "internalType": "uint16",
              "name": "strength",
              "type": "uint16"
            },
            {
              "internalType": "uint16",
              "name": "agility",
              "type": "uint16"
            },
            {
              "internalType": "uint16",
              "name": "dexterity",
              "type": "uint16"
            },
            {
              "internalType": "uint16",
              "name": "luck",
              "type": "uint16"
            },
            {
              "internalType": "uint16",
              "name": "currentXP",
              "type": "uint16"
            },
            {
              "internalType": "uint16",
              "name": "levelUpXP",
              "type": "uint16"
            },
            {
              "internalType": "uint16",
              "name": "spendablePoints",
              "type": "uint16"
            },
            {
              "internalType": "enum FighterClass",
              "name": "class",
              "type": "uint8"
            }
          ],
          "internalType": "struct FighterFactory.Fighter",
          "name": "",
          "type": "tuple"
        }
      ],
      "stateMutability": "view",
      "type": "function"
    },
    {
      "inputs": [],
      "name": "_getFightersCount",
      "outputs": [
        {
          "internalType": "uint256",
          "name": "",
          "type": "uint256"
        }
      ],
      "stateMutability": "view",
      "type": "function"
    },
    {
      "inputs": [
        {
          "internalType": "uint256",
          "name": "latest",
          "type": "uint256"
        }
      ],
      "name": "_getLatestFighters",
      "outputs": [
        {
          "components": [
            {
              "internalType": "uint256",
              "name": "id",
              "type": "uint256"
            },
            {
              "components": [
                {
                  "internalType": "string",
                  "name": "name",
                  "type": "string"
                },
                {
                  "internalType": "uint32",
                  "name": "level",
                  "type": "uint32"
                },
                {
                  "internalType": "uint32",
                  "name": "readyTime",
                  "type": "uint32"
                },
                {
                  "internalType": "uint16",
                  "name": "winCount",
                  "type": "uint16"
                },
                {
                  "internalType": "uint16",
                  "name": "lossCount",
                  "type": "uint16"
                },
                {
                  "internalType": "uint16",
                  "name": "HP",
                  "type": "uint16"
                },
                {
                  "internalType": "uint16",
                  "name": "strength",
                  "type": "uint16"
                },
                {
                  "internalType": "uint16",
                  "name": "agility",
                  "type": "uint16"
                },
                {
                  "internalType": "uint16",
                  "name": "dexterity",
                  "type": "uint16"
                },
                {
                  "internalType": "uint16",
                  "name": "luck",
                  "type": "uint16"
                },
                {
                  "internalType": "uint16",
                  "name": "currentXP",
                  "type": "uint16"
                },
                {
                  "internalType": "uint16",
                  "name": "levelUpXP",
                  "type": "uint16"
                },
                {
                  "internalType": "uint16",
                  "name": "spendablePoints",
                  "type": "uint16"
                },
                {
                  "internalType": "enum FighterClass",
                  "name": "class",
                  "type": "uint8"
                }
              ],
              "internalType": "struct FighterFactory.Fighter",
              "name": "fighter",
              "type": "tuple"
            },
            {
              "internalType": "address",
              "name": "owner",
              "type": "address"
            }
          ],
          "internalType": "struct FighterFactory.FighterDTO[]",
          "name": "",
          "type": "tuple[]"
        }
      ],
      "stateMutability": "view",
      "type": "function"
    },
    {
      "inputs": [
        {
          "internalType": "address",
          "name": "_owner",
          "type": "address"
        }
      ],
      "name": "_getUserFighters",
      "outputs": [
        {
          "components": [
            {
              "internalType": "uint256",
              "name": "id",
              "type": "uint256"
            },
            {
              "components": [
                {
                  "internalType": "string",
                  "name": "name",
                  "type": "string"
                },
                {
                  "internalType": "uint32",
                  "name": "level",
                  "type": "uint32"
                },
                {
                  "internalType": "uint32",
                  "name": "readyTime",
                  "type": "uint32"
                },
                {
                  "internalType": "uint16",
                  "name": "winCount",
                  "type": "uint16"
                },
                {
                  "internalType": "uint16",
                  "name": "lossCount",
                  "type": "uint16"
                },
                {
                  "internalType": "uint16",
                  "name": "HP",
                  "type": "uint16"
                },
                {
                  "internalType": "uint16",
                  "name": "strength",
                  "type": "uint16"
                },
                {
                  "internalType": "uint16",
                  "name": "agility",
                  "type": "uint16"
                },
                {
                  "internalType": "uint16",
                  "name": "dexterity",
                  "type": "uint16"
                },
                {
                  "internalType": "uint16",
                  "name": "luck",
                  "type": "uint16"
                },
                {
                  "internalType": "uint16",
                  "name": "currentXP",
                  "type": "uint16"
                },
                {
                  "internalType": "uint16",
                  "name": "levelUpXP",
                  "type": "uint16"
                },
                {
                  "internalType": "uint16",
                  "name": "spendablePoints",
                  "type": "uint16"
                },
                {
                  "internalType": "enum FighterClass",
                  "name": "class",
                  "type": "uint8"
                }
              ],
              "internalType": "struct FighterFactory.Fighter",
              "name": "fighter",
              "type": "tuple"
            }
          ],
          "internalType": "struct FighterFactory.FighterBarracksDTO[]",
          "name": "",
          "type": "tuple[]"
        }
      ],
      "stateMutability": "view",
      "type": "function"
    },
    {
      "inputs": [
        {
          "internalType": "address",
          "name": "_owner",
          "type": "address"
        }
      ],
      "name": "_getUserWeapons",
      "outputs": [
        {
          "components": [
            {
              "internalType": "uint256",
              "name": "id",
              "type": "uint256"
            },
            {
              "components": [
                {
                  "internalType": "uint32",
                  "name": "levelReq",
                  "type": "uint32"
                },
                {
                  "internalType": "uint32",
                  "name": "damage",
                  "type": "uint32"
                },
                {
                  "internalType": "uint16",
                  "name": "skillReq",
                  "type": "uint16"
                },
                {
                  "internalType": "enum WeaponType",
                  "name": "weapType",
                  "type": "uint8"
                },
                {
                  "internalType": "enum WeaponTier",
                  "name": "tier",
                  "type": "uint8"
                }
              ],
              "internalType": "struct WeaponFactory.Weapon",
              "name": "weapon",
              "type": "tuple"
            }
          ],
          "internalType": "struct WeaponFactory.WeaponDTO[]",
          "name": "",
          "type": "tuple[]"
        }
      ],
      "stateMutability": "view",
      "type": "function"
    },
    {
      "inputs": [
        {
          "internalType": "uint256",
          "name": "id",
          "type": "uint256"
        }
      ],
      "name": "_getWeaponById",
      "outputs": [
        {
          "components": [
            {
              "internalType": "uint32",
              "name": "levelReq",
              "type": "uint32"
            },
            {
              "internalType": "uint32",
              "name": "damage",
              "type": "uint32"
            },
            {
              "internalType": "uint16",
              "name": "skillReq",
              "type": "uint16"
            },
            {
              "internalType": "enum WeaponType",
              "name": "weapType",
              "type": "uint8"
            },
            {
              "internalType": "enum WeaponTier",
              "name": "tier",
              "type": "uint8"
            }
          ],
          "internalType": "struct WeaponFactory.Weapon",
          "name": "",
          "type": "tuple"
        }
      ],
      "stateMutability": "view",
      "type": "function"
    },
    {
      "inputs": [
        {
          "internalType": "uint32",
          "name": "_level",
          "type": "uint32"
        },
        {
          "internalType": "enum WeaponType",
          "name": "_type",
          "type": "uint8"
        },
        {
          "internalType": "enum WeaponTier",
          "name": "_tier",
          "type": "uint8"
        }
      ],
      "name": "_purchaseWeapon",
      "outputs": [],
      "stateMutability": "payable",
      "type": "function"
    },
    {
      "inputs": [
        {
          "internalType": "uint256",
          "name": "_fighterId",
          "type": "uint256"
        },
        {
          "internalType": "uint16",
          "name": "_STR",
          "type": "uint16"
        },
        {
          "internalType": "uint16",
          "name": "_AGL",
          "type": "uint16"
        },
        {
          "internalType": "uint16",
          "name": "_LCK",
          "type": "uint16"
        },
        {
          "internalType": "uint16",
          "name": "_DEX",
          "type": "uint16"
        }
      ],
      "name": "_spendAvailablePoints",
      "outputs": [],
      "stateMutability": "nonpayable",
      "type": "function"
    },
    {
      "inputs": [
        {
          "internalType": "uint256",
          "name": "_myFighterId",
          "type": "uint256"
        },
        {
          "internalType": "bool",
          "name": "_hasOwnerWeapon",
          "type": "bool"
        },
        {
          "internalType": "uint256",
          "name": "_myWeaponId",
          "type": "uint256"
        },
        {
          "internalType": "uint256",
          "name": "_targetFighterId",
          "type": "uint256"
        }
      ],
      "name": "attack",
      "outputs": [
        {
          "internalType": "bool",
          "name": "",
          "type": "bool"
        }
      ],
      "stateMutability": "nonpayable",
      "type": "function"
    },
    {
      "inputs": [],
      "name": "owner",
      "outputs": [
        {
          "internalType": "address",
          "name": "",
          "type": "address"
        }
      ],
      "stateMutability": "view",
      "type": "function"
    },
    {
      "inputs": [
        {
          "internalType": "string",
          "name": "_name",
          "type": "string"
        },
        {
          "internalType": "enum FighterClass",
          "name": "_class",
          "type": "uint8"
        }
      ],
      "name": "redeemAvailablePupil",
      "outputs": [],
      "stateMutability": "nonpayable",
      "type": "function"
    },
    {
      "inputs": [],
      "name": "renounceOwnership",
      "outputs": [],
      "stateMutability": "nonpayable",
      "type": "function"
    },
    {
      "inputs": [
        {
          "internalType": "address",
          "name": "newOwner",
          "type": "address"
        }
      ],
      "name": "transferOwnership",
      "outputs": [],
      "stateMutability": "nonpayable",
      "type": "function"
    },
    {
      "stateMutability": "payable",
      "type": "receive"
    }
  ],
  "bytecode": "0x6080604052620151806001556602aa1efb94e0006009556601c6bf52634000600a556605543df729c000600b55660aa87bee538000600c556000600d55600a600e60006101000a81548163ffffffff021916908363ffffffff1602179055503480156200006b57600080fd5b506200008c620000806200009260201b60201c565b6200009a60201b60201c565b6200015e565b600033905090565b60008060009054906101000a900473ffffffffffffffffffffffffffffffffffffffff169050816000806101000a81548173ffffffffffffffffffffffffffffffffffffffff021916908373ffffffffffffffffffffffffffffffffffffffff1602179055508173ffffffffffffffffffffffffffffffffffffffff168173ffffffffffffffffffffffffffffffffffffffff167f8be0079c531659141344cd1fd0a4f28419497f9722a3daafe3b4186f6b6457e060405160405180910390a35050565b615ef8806200016e6000396000f3fe6080604052600436106100f75760003560e01c8063cb74c2a81161008a578063f2fde38b11610059578063f2fde38b14610326578063f47565ca1461034f578063f9d7f1711461038c578063fbba44c6146103c9576100fe565b8063cb74c2a814610258578063cfb8c2ad14610283578063d5f5da3b146102c0578063ea965255146102e9576100fe565b80639b1f87e8116100c65780639b1f87e814610199578063adec464a146101d6578063b67340b5146101ff578063bfdde8a81461021b576100fe565b8063208ea929146101035780636c691ab914610140578063715018a6146101575780638da5cb5b1461016e576100fe565b366100fe57005b600080fd5b34801561010f57600080fd5b5061012a60048036038101906101259190613fac565b6103f2565b6040516101379190614233565b60405180910390f35b34801561014c57600080fd5b506101556106a3565b005b34801561016357600080fd5b5061016c61076f565b005b34801561017a57600080fd5b506101836107f7565b6040516101909190614264565b60405180910390f35b3480156101a557600080fd5b506101c060048036038101906101bb91906142ab565b610820565b6040516101cd9190614608565b60405180910390f35b3480156101e257600080fd5b506101fd60048036038101906101f891906146b4565b610c33565b005b6102196004803603810190610214919061478a565b610d2e565b005b34801561022757600080fd5b50610242600480360381019061023d91906142ab565b610e0c565b60405161024f919061490b565b60405180910390f35b34801561026457600080fd5b5061026d6110cd565b60405161027a919061493c565b60405180910390f35b34801561028f57600080fd5b506102aa60048036038101906102a5919061498f565b6110da565b6040516102b79190614a05565b60405180910390f35b3480156102cc57600080fd5b506102e760048036038101906102e291906146b4565b6117f6565b005b3480156102f557600080fd5b50610310600480360381019061030b9190614a20565b6118a6565b60405161031d919061493c565b60405180910390f35b34801561033257600080fd5b5061034d60048036038101906103489190613fac565b611978565b005b34801561035b57600080fd5b50610376600480360381019061037191906142ab565b611a70565b6040516103839190614ac8565b60405180910390f35b34801561039857600080fd5b506103b360048036038101906103ae9190613fac565b611bb5565b6040516103c09190614be2565b60405180910390f35b3480156103d557600080fd5b506103f060048036038101906103eb9190614c30565b611fe2565b005b60606000600860008473ffffffffffffffffffffffffffffffffffffffff1673ffffffffffffffffffffffffffffffffffffffff16815260200190815260200160002054905060008167ffffffffffffffff81111561045457610453614cab565b5b60405190808252806020026020018201604052801561048d57816020015b61047a613d0c565b8152602001906001900390816104725790505b50905060008214156104a357809250505061069e565b6000805b600680549050811015610696578573ffffffffffffffffffffffffffffffffffffffff166007600083815260200190815260200160002060009054906101000a900473ffffffffffffffffffffffffffffffffffffffff1673ffffffffffffffffffffffffffffffffffffffff161415610683576040518060400160405280828152602001600683815481106105405761053f614cda565b5b906000526020600020016040518060a00160405290816000820160009054906101000a900463ffffffff1663ffffffff1663ffffffff1681526020016000820160049054906101000a900463ffffffff1663ffffffff1663ffffffff1681526020016000820160089054906101000a900461ffff1661ffff1661ffff16815260200160008201600a9054906101000a900460ff1660018111156105e6576105e561405a565b5b60018111156105f8576105f761405a565b5b815260200160008201600b9054906101000a900460ff1660028111156106215761062061405a565b5b60028111156106335761063261405a565b5b8152505081525083838151811061064d5761064c614cda565b5b6020026020010181905250818061066390614d38565b925050838061067190614d81565b945050600084141561068257610696565b5b808061068e90614d38565b9150506104a7565b508193505050505b919050565b6106ab6122cb565b73ffffffffffffffffffffffffffffffffffffffff166106c96107f7565b73ffffffffffffffffffffffffffffffffffffffff161461071f576040517f08c379a000000000000000000000000000000000000000000000000000000000815260040161071690614e08565b60405180910390fd5b6107276122cb565b73ffffffffffffffffffffffffffffffffffffffff166108fc479081150290604051600060405180830381858888f1935050505015801561076c573d6000803e3d6000fd5b50565b6107776122cb565b73ffffffffffffffffffffffffffffffffffffffff166107956107f7565b73ffffffffffffffffffffffffffffffffffffffff16146107eb576040517f08c379a00000000000000000000000000000000000000000000000000000000081526004016107e290614e08565b60405180910390fd5b6107f560006122d3565b565b60008060009054906101000a900473ffffffffffffffffffffffffffffffffffffffff16905090565b60606000821015801561083857506002805490508211155b61084157600080fd5b60008214156108535760028054905091505b60008267ffffffffffffffff81111561086f5761086e614cab565b5b6040519080825280602002602001820160405280156108a857816020015b610895613d2c565b81526020019060019003908161088d5790505b509050600060028054905014156108c25780915050610c2e565b60008060016002805490506108d79190614e28565b90505b846002805490506108eb9190614e28565b8110610c275760405180606001604052808281526020016002838154811061091657610915614cda565b5b9060005260206000209060020201604051806101c001604052908160008201805461094090614e8b565b80601f016020809104026020016040519081016040528092919081815260200182805461096c90614e8b565b80156109b95780601f1061098e576101008083540402835291602001916109b9565b820191906000526020600020905b81548152906001019060200180831161099c57829003601f168201915b505050505081526020016001820160009054906101000a900463ffffffff1663ffffffff1663ffffffff1681526020016001820160049054906101000a900463ffffffff1663ffffffff1663ffffffff1681526020016001820160089054906101000a900461ffff1661ffff1661ffff16815260200160018201600a9054906101000a900461ffff1661ffff1661ffff16815260200160018201600c9054906101000a900461ffff1661ffff1661ffff16815260200160018201600e9054906101000a900461ffff1661ffff1661ffff1681526020016001820160109054906101000a900461ffff1661ffff1661ffff1681526020016001820160129054906101000a900461ffff1661ffff1661ffff1681526020016001820160149054906101000a900461ffff1661ffff1661ffff1681526020016001820160169054906101000a900461ffff1661ffff1661ffff1681526020016001820160189054906101000a900461ffff1661ffff1661ffff16815260200160018201601a9054906101000a900461ffff1661ffff1661ffff16815260200160018201601c9054906101000a900460ff166002811115610b7357610b7261405a565b5b6002811115610b8557610b8461405a565b5b8152505081526020016003600084815260200190815260200160002060009054906101000a900473ffffffffffffffffffffffffffffffffffffffff1673ffffffffffffffffffffffffffffffffffffffff16815250838381518110610bee57610bed614cda565b5b60200260200101819052508180610c0490614d38565b92505084821415610c1457610c27565b8080610c1f90614d81565b9150506108da565b5081925050505b919050565b600060046000610c416122cb565b73ffffffffffffffffffffffffffffffffffffffff1673ffffffffffffffffffffffffffffffffffffffff1681526020019081526020016000205414610cbc576040517f08c379a0000000000000000000000000000000000000000000000000000000008152600401610cb390614f55565b60405180910390fd5b610cc7838383612397565b600060056000610cd56122cb565b73ffffffffffffffffffffffffffffffffffffffff1673ffffffffffffffffffffffffffffffffffffffff16815260200190815260200160002060006101000a81548161ffff021916908361ffff160217905550505050565b610d3883826118a6565b80341015610d7b576040517f08c379a0000000000000000000000000000000000000000000000000000000008152600401610d7290614fe7565b60405180910390fd5b6000610d8785846118a6565b905060008134610d979190614e28565b90506000811115610df157610daa6122cb565b73ffffffffffffffffffffffffffffffffffffffff166108fc829081150290604051600060405180830381858888f19350505050158015610def573d6000803e3d6000fd5b505b610e04610dfc6122cb565b8787876129ec565b505050505050565b610e14613d69565b60008210158015610e3657506001600280549050610e329190614e28565b8211155b610e3f57600080fd5b60028281548110610e5357610e52614cda565b5b9060005260206000209060020201604051806101c0016040529081600082018054610e7d90614e8b565b80601f0160208091040260200160405190810160405280929190818152602001828054610ea990614e8b565b8015610ef65780601f10610ecb57610100808354040283529160200191610ef6565b820191906000526020600020905b815481529060010190602001808311610ed957829003601f168201915b505050505081526020016001820160009054906101000a900463ffffffff1663ffffffff1663ffffffff1681526020016001820160049054906101000a900463ffffffff1663ffffffff1663ffffffff1681526020016001820160089054906101000a900461ffff1661ffff1661ffff16815260200160018201600a9054906101000a900461ffff1661ffff1661ffff16815260200160018201600c9054906101000a900461ffff1661ffff1661ffff16815260200160018201600e9054906101000a900461ffff1661ffff1661ffff1681526020016001820160109054906101000a900461ffff1661ffff1661ffff1681526020016001820160129054906101000a900461ffff1661ffff1661ffff1681526020016001820160149054906101000a900461ffff1661ffff1661ffff1681526020016001820160169054906101000a900461ffff1661ffff1661ffff1681526020016001820160189054906101000a900461ffff1661ffff1661ffff16815260200160018201601a9054906101000a900461ffff1661ffff1661ffff16815260200160018201601c9054906101000a900460ff1660028111156110b0576110af61405a565b5b60028111156110c2576110c161405a565b5b815250509050919050565b6000600280549050905090565b6000846003600082815260200190815260200160002060009054906101000a900473ffffffffffffffffffffffffffffffffffffffff1673ffffffffffffffffffffffffffffffffffffffff1661112f6122cb565b73ffffffffffffffffffffffffffffffffffffffff1614611185576040517f08c379a000000000000000000000000000000000000000000000000000000000815260040161117c90615079565b60405180910390fd5b8261118e6122cb565b73ffffffffffffffffffffffffffffffffffffffff166003600083815260200190815260200160002060009054906101000a900473ffffffffffffffffffffffffffffffffffffffff1673ffffffffffffffffffffffffffffffffffffffff16141561122f576040517f08c379a00000000000000000000000000000000000000000000000000000000081526004016112269061510b565b60405180910390fd5b60006002888154811061124557611244614cda565b5b9060005260206000209060020201905060006002868154811061126b5761126a614cda565b5b906000526020600020906002020190506000600e60009054906101000a900463ffffffff16905088156116c3576007600089815260200190815260200160002060009054906101000a900473ffffffffffffffffffffffffffffffffffffffff1673ffffffffffffffffffffffffffffffffffffffff166112ea6122cb565b73ffffffffffffffffffffffffffffffffffffffff1614611340576040517f08c379a00000000000000000000000000000000000000000000000000000000081526004016113379061519d565b60405180910390fd5b60006006898154811061135657611355614cda565b5b906000526020600020016040518060a00160405290816000820160009054906101000a900463ffffffff1663ffffffff1663ffffffff1681526020016000820160049054906101000a900463ffffffff1663ffffffff1663ffffffff1681526020016000820160089054906101000a900461ffff1661ffff1661ffff16815260200160008201600a9054906101000a900460ff1660018111156113fc576113fb61405a565b5b600181111561140e5761140d61405a565b5b815260200160008201600b9054906101000a900460ff1660028111156114375761143661405a565b5b60028111156114495761144861405a565b5b815250509050806000015163ffffffff168460010160009054906101000a900463ffffffff1663ffffffff1610156114b6576040517f08c379a00000000000000000000000000000000000000000000000000000000081526004016114ad9061522f565b60405180910390fd5b600060018111156114ca576114c961405a565b5b816060015160018111156114e1576114e061405a565b5b141561154d57806040015161ffff168460010160109054906101000a900461ffff1661ffff161015611548576040517f08c379a000000000000000000000000000000000000000000000000000000000815260040161153f906152c1565b60405180910390fd5b6115af565b806040015161ffff1684600101600e9054906101000a900461ffff1661ffff1610156115ae576040517f08c379a00000000000000000000000000000000000000000000000000000000081526004016115a590615353565b60405180910390fd5b5b600160028111156115c3576115c261405a565b5b84600101601c9054906101000a900460ff1660028111156115e7576115e661405a565b5b14801561161c5750600060018111156116035761160261405a565b5b8160600151600181111561161a5761161961405a565b5b145b8061168f5750600060028111156116365761163561405a565b5b84600101601c9054906101000a900460ff16600281111561165a5761165961405a565b5b14801561168e57506001808111156116755761167461405a565b5b8160600151600181111561168c5761168b61405a565b5b145b5b156116b9576116b26002826020015163ffffffff16612e8990919063ffffffff16565b91506116c1565b806020015191505b505b60008061174f600360008b815260200190815260200160002060009054906101000a900473ffffffffffffffffffffffffffffffffffffffff168560010160009054906101000a900463ffffffff1686600101600e9054906101000a900461ffff168760010160109054906101000a900461ffff1688600101601c9054906101000a900460ff16612e9f565b91509150600a63ffffffff168263ffffffff1611156117a157887fa4e95ab035d76d13bdc07420aa87ff099f6730e677eac0a5867073179f9363d282604051611798919061493c565b60405180910390a25b60006117b18d87868d89886130da565b905080156117d0576117c28d61337d565b6117cb8a613475565b6117e3565b6117d98d613475565b6117e28a61337d565b5b8098505050505050505050949350505050565b600161ffff16600560006118086122cb565b73ffffffffffffffffffffffffffffffffffffffff1673ffffffffffffffffffffffffffffffffffffffff16815260200190815260200160002060009054906101000a900461ffff1661ffff161015611896576040517f08c379a000000000000000000000000000000000000000000000000000000000815260040161188d906153e5565b60405180910390fd5b6118a1838383612397565b505050565b6000806118c48463ffffffff1660095461356d90919063ffffffff16565b90506002808111156118d9576118d861405a565b5b8360028111156118ec576118eb61405a565b5b141561190f57611907600a548261358390919063ffffffff16565b915050611972565b600060028111156119235761192261405a565b5b8360028111156119365761193561405a565b5b141561195957611951600c548261358390919063ffffffff16565b915050611972565b61196e600a548261358390919063ffffffff16565b9150505b92915050565b6119806122cb565b73ffffffffffffffffffffffffffffffffffffffff1661199e6107f7565b73ffffffffffffffffffffffffffffffffffffffff16146119f4576040517f08c379a00000000000000000000000000000000000000000000000000000000081526004016119eb90614e08565b60405180910390fd5b600073ffffffffffffffffffffffffffffffffffffffff168173ffffffffffffffffffffffffffffffffffffffff161415611a64576040517f08c379a0000000000000000000000000000000000000000000000000000000008152600401611a5b90615477565b60405180910390fd5b611a6d816122d3565b50565b611a78613e1e565b60008210158015611a9a57506001600680549050611a969190614e28565b8211155b611aa357600080fd5b60068281548110611ab757611ab6614cda565b5b906000526020600020016040518060a00160405290816000820160009054906101000a900463ffffffff1663ffffffff1663ffffffff1681526020016000820160049054906101000a900463ffffffff1663ffffffff1663ffffffff1681526020016000820160089054906101000a900461ffff1661ffff1661ffff16815260200160008201600a9054906101000a900460ff166001811115611b5d57611b5c61405a565b5b6001811115611b6f57611b6e61405a565b5b815260200160008201600b9054906101000a900460ff166002811115611b9857611b9761405a565b5b6002811115611baa57611ba961405a565b5b815250509050919050565b60606000600460008473ffffffffffffffffffffffffffffffffffffffff1673ffffffffffffffffffffffffffffffffffffffff16815260200190815260200160002054905060008167ffffffffffffffff811115611c1757611c16614cab565b5b604051908082528060200260200182016040528015611c5057816020015b611c3d613e81565b815260200190600190039081611c355790505b5090506000821415611c66578092505050611fdd565b6000805b600280549050811015611fd5578573ffffffffffffffffffffffffffffffffffffffff166003600083815260200190815260200160002060009054906101000a900473ffffffffffffffffffffffffffffffffffffffff1673ffffffffffffffffffffffffffffffffffffffff161415611fc257604051806040016040528082815260200160028381548110611d0357611d02614cda565b5b9060005260206000209060020201604051806101c0016040529081600082018054611d2d90614e8b565b80601f0160208091040260200160405190810160405280929190818152602001828054611d5990614e8b565b8015611da65780601f10611d7b57610100808354040283529160200191611da6565b820191906000526020600020905b815481529060010190602001808311611d8957829003601f168201915b505050505081526020016001820160009054906101000a900463ffffffff1663ffffffff1663ffffffff1681526020016001820160049054906101000a900463ffffffff1663ffffffff1663ffffffff1681526020016001820160089054906101000a900461ffff1661ffff1661ffff16815260200160018201600a9054906101000a900461ffff1661ffff1661ffff16815260200160018201600c9054906101000a900461ffff1661ffff1661ffff16815260200160018201600e9054906101000a900461ffff1661ffff1661ffff1681526020016001820160109054906101000a900461ffff1661ffff1661ffff1681526020016001820160129054906101000a900461ffff1661ffff1661ffff1681526020016001820160149054906101000a900461ffff1661ffff1661ffff1681526020016001820160169054906101000a900461ffff1661ffff1661ffff1681526020016001820160189054906101000a900461ffff1661ffff1661ffff16815260200160018201601a9054906101000a900461ffff1661ffff1661ffff16815260200160018201601c9054906101000a900460ff166002811115611f6057611f5f61405a565b5b6002811115611f7257611f7161405a565b5b81525050815250838381518110611f8c57611f8b614cda565b5b60200260200101819052508180611fa290614d38565b9250508380611fb090614d81565b9450506000841415611fc157611fd5565b5b8080611fcd90614d38565b915050611c6a565b508193505050505b919050565b846003600082815260200190815260200160002060009054906101000a900473ffffffffffffffffffffffffffffffffffffffff1673ffffffffffffffffffffffffffffffffffffffff166120356122cb565b73ffffffffffffffffffffffffffffffffffffffff161461208b576040517f08c379a000000000000000000000000000000000000000000000000000000000815260040161208290615079565b60405180910390fd5b6000600287815481106120a1576120a0614cda565b5b9060005260206000209060020201905060008690506120cd868261ffff1661359990919063ffffffff16565b90506120e6858261ffff1661359990919063ffffffff16565b90506120ff848261ffff1661359990919063ffffffff16565b905081600101601a9054906101000a900461ffff1661ffff168161ffff16111561215e576040517f08c379a00000000000000000000000000000000000000000000000000000000081526004016121559061552f565b60405180910390fd5b6121878183600101601a9054906101000a900461ffff1661ffff166135af90919063ffffffff16565b82600101601a6101000a81548161ffff021916908361ffff1602179055506121ce8783600101600e9054906101000a900461ffff1661ffff1661359990919063ffffffff16565b82600101600e6101000a81548161ffff021916908361ffff160217905550612215868360010160109054906101000a900461ffff1661ffff1661359990919063ffffffff16565b8260010160106101000a81548161ffff021916908361ffff16021790555061225c848360010160129054906101000a900461ffff1661ffff1661359990919063ffffffff16565b8260010160126101000a81548161ffff021916908361ffff1602179055506122a3858360010160149054906101000a900461ffff1661ffff1661359990919063ffffffff16565b8260010160146101000a81548161ffff021916908361ffff1602179055505050505050505050565b600033905090565b60008060009054906101000a900473ffffffffffffffffffffffffffffffffffffffff169050816000806101000a81548173ffffffffffffffffffffffffffffffffffffffff021916908373ffffffffffffffffffffffffffffffffffffffff1602179055508173ffffffffffffffffffffffffffffffffffffffff168173ffffffffffffffffffffffffffffffffffffffff167f8be0079c531659141344cd1fd0a4f28419497f9722a3daafe3b4186f6b6457e060405160405180910390a35050565b828260008282905014156123e0576040517f08c379a00000000000000000000000000000000000000000000000000000000081526004016123d7906155c1565b60405180910390fd5b82600060028111156123f5576123f461405a565b5b8160028111156124085761240761405a565b5b14806124385750600160028111156124235761242261405a565b5b8160028111156124365761243561405a565b5b145b8061246657506002808111156124515761245061405a565b5b8160028111156124645761246361405a565b5b145b6124a5576040517f08c379a000000000000000000000000000000000000000000000000000000000815260040161249c90615653565b60405180910390fd5b85858080601f016020809104026020016040519081016040528093929190818152602001838380828437600081840152601f19601f8201169050808301925050505050505060006124fc6124f76122cb565b611bb5565b90506000805b82518110156125585761253783828151811061252157612520614cda565b5b60200260200101516020015160000151856135c5565b156125455760019150612558565b808061255090614d38565b915050612502565b50801561259a576040517f08c379a0000000000000000000000000000000000000000000000000000000008152600401612591906156e5565b60405180910390fd5b6002604051806101c001604052808b8b8080601f016020809104026020016040519081016040528093929190818152602001838380828437600081840152601f19601f820116905080830192505050505050508152602001600163ffffffff1681526020016126146001544261358390919063ffffffff16565b63ffffffff168152602001600061ffff168152602001600061ffff168152602001606461ffff168152602001600161ffff168152602001600161ffff168152602001600161ffff168152602001600161ffff168152602001600061ffff168152602001606461ffff168152602001600061ffff1681526020018960028111156126a05761269f61405a565b5b815250908060018154018082558091505060019003906000526020600020906002020160009091909190915060008201518160000190805190602001906126e8929190613ea1565b5060208201518160010160006101000a81548163ffffffff021916908363ffffffff16021790555060408201518160010160046101000a81548163ffffffff021916908363ffffffff16021790555060608201518160010160086101000a81548161ffff021916908361ffff160217905550608082015181600101600a6101000a81548161ffff021916908361ffff16021790555060a082015181600101600c6101000a81548161ffff021916908361ffff16021790555060c082015181600101600e6101000a81548161ffff021916908361ffff16021790555060e08201518160010160106101000a81548161ffff021916908361ffff1602179055506101008201518160010160126101000a81548161ffff021916908361ffff1602179055506101208201518160010160146101000a81548161ffff021916908361ffff1602179055506101408201518160010160166101000a81548161ffff021916908361ffff1602179055506101608201518160010160186101000a81548161ffff021916908361ffff16021790555061018082015181600101601a6101000a81548161ffff021916908361ffff1602179055506101a082015181600101601c6101000a81548160ff021916908360028111156128c6576128c561405a565b5b02179055505050600060016002805490506128e19190614e28565b90506128eb6122cb565b6003600083815260200190815260200160002060006101000a81548173ffffffffffffffffffffffffffffffffffffffff021916908373ffffffffffffffffffffffffffffffffffffffff16021790555061299660016004600061294d6122cb565b73ffffffffffffffffffffffffffffffffffffffff1673ffffffffffffffffffffffffffffffffffffffff1681526020019081526020016000205461358390919063ffffffff16565b600460006129a26122cb565b73ffffffffffffffffffffffffffffffffffffffff1673ffffffffffffffffffffffffffffffffffffffff1681526020019081526020016000208190555050505050505050505050565b8260018163ffffffff161015612a37576040517f08c379a0000000000000000000000000000000000000000000000000000000008152600401612a2e90615777565b60405180910390fd5b8260006001811115612a4c57612a4b61405a565b5b816001811115612a5f57612a5e61405a565b5b1480612a8e5750600180811115612a7957612a7861405a565b5b816001811115612a8c57612a8b61405a565b5b145b612acd576040517f08c379a0000000000000000000000000000000000000000000000000000000008152600401612ac490615809565b60405180910390fd5b8260006002811115612ae257612ae161405a565b5b816002811115612af557612af461405a565b5b1480612b25575060016002811115612b1057612b0f61405a565b5b816002811115612b2357612b2261405a565b5b145b80612b535750600280811115612b3e57612b3d61405a565b5b816002811115612b5157612b5061405a565b5b145b612b92576040517f08c379a0000000000000000000000000000000000000000000000000000000008152600401612b8990615809565b60405180910390fd5b6000806002811115612ba757612ba661405a565b5b856002811115612bba57612bb961405a565b5b1415612bc557600890505b60016002811115612bd957612bd861405a565b5b856002811115612bec57612beb61405a565b5b1415612bf757600690505b600280811115612c0a57612c0961405a565b5b856002811115612c1d57612c1c61405a565b5b1415612c2857600390505b60066040518060a001604052808963ffffffff168152602001612c4b8a8961361e565b63ffffffff1681526020018361ffff168152602001886001811115612c7357612c7261405a565b5b8152602001876002811115612c8b57612c8a61405a565b5b8152509080600181540180825580915050600190039060005260206000200160009091909190915060008201518160000160006101000a81548163ffffffff021916908363ffffffff16021790555060208201518160000160046101000a81548163ffffffff021916908363ffffffff16021790555060408201518160000160086101000a81548161ffff021916908361ffff160217905550606082015181600001600a6101000a81548160ff02191690836001811115612d4f57612d4e61405a565b5b0217905550608082015181600001600b6101000a81548160ff02191690836002811115612d7f57612d7e61405a565b5b0217905550505087600760006001600680549050612d9d9190614e28565b815260200190815260200160002060006101000a81548173ffffffffffffffffffffffffffffffffffffffff021916908373ffffffffffffffffffffffffffffffffffffffff160217905550612e3c6001600860008b73ffffffffffffffffffffffffffffffffffffffff1673ffffffffffffffffffffffffffffffffffffffff1681526020019081526020016000205461358390919063ffffffff16565b600860008a73ffffffffffffffffffffffffffffffffffffffff1673ffffffffffffffffffffffffffffffffffffffff168152602001908152602001600020819055505050505050505050565b60008183612e979190615829565b905092915050565b6000806000600a9050600080612eb48a6103f2565b905060005b81518110156130c6576000828281518110612ed757612ed6614cda565b5b60200260200101516020015190508a63ffffffff16816000015163ffffffff16116130b25760006001811115612f1057612f0f61405a565b5b81606001516001811115612f2757612f2661405a565b5b1415612ff1578861ffff16816040015161ffff1611612fec5760016002811115612f5457612f5361405a565b5b886002811115612f6757612f6661405a565b5b1415612fc7578463ffffffff16612f926002836020015163ffffffff16612e8990919063ffffffff16565b63ffffffff161115612fc257612fbc6002826020015163ffffffff16612e8990919063ffffffff16565b94508193505b612feb565b8463ffffffff16816020015163ffffffff161115612fea57806020015194508193505b5b5b6130b1565b8961ffff16816040015161ffff16116130b057600060028111156130185761301761405a565b5b88600281111561302b5761302a61405a565b5b141561308b578463ffffffff166130566002836020015163ffffffff16612e8990919063ffffffff16565b63ffffffff161115613086576130806002826020015163ffffffff16612e8990919063ffffffff16565b94508193505b6130af565b8463ffffffff16816020015163ffffffff1611156130ae57806020015194508193505b5b5b5b5b5080806130be90614d38565b915050612eb9565b508282945094505050509550959350505050565b60008560010160049054906101000a900463ffffffff16428163ffffffff16111561313a576040517f08c379a0000000000000000000000000000000000000000000000000000000008152600401613131906158d9565b60405180910390fd5b613143876136de565b600087600101600c9054906101000a900461ffff1661ffff1690506002808111156131715761317061405a565b5b88600101601c9054906101000a900460ff1660028111156131955761319461405a565b5b14156131d9576032816131a89190615906565b90508760010160009054906101000a900463ffffffff16600a6131cb919061597e565b816131d69190615906565b90505b600085600101600c9054906101000a900461ffff1661ffff1690506002808111156132075761320661405a565b5b86600101601c9054906101000a900460ff16600281111561322b5761322a61405a565b5b141561326f5760328161323e9190615906565b90508560010160009054906101000a900463ffffffff16600a613261919061597e565b8161326c9190615906565b90505b60005b600115613346576132b28b8a8c60010160149054906101000a900461ffff166132996122cb565b8c8c60010160129054906101000a900461ffff16613711565b90508061ffff16826132c49190615a5d565b915060008260030b136132dd5760019450505050613372565b61331688878960010160149054906101000a900461ffff166132fd6122cb565b8f8f60010160129054906101000a900461ffff16613711565b90508061ffff16836133289190615a5d565b925060008360030b136133415760009450505050613372565b613272565b60008360030b13158061335d575060008260030b13155b61336a57613369615ad5565b5b600094505050505b509695505050505050565b60006002828154811061339357613392614cda565b5b906000526020600020906002020190506133cd60018260010160089054906101000a900461ffff1661ffff1661359990919063ffffffff16565b8160010160086101000a81548161ffff021916908361ffff160217905550613415602d8260010160169054906101000a900461ffff1661ffff1661359990919063ffffffff16565b8160010160166101000a81548161ffff021916908361ffff1602179055508060010160189054906101000a900461ffff1661ffff168160010160169054906101000a900461ffff1661ffff1610613471576134708183613836565b5b5050565b60006002828154811061348b5761348a614cda565b5b906000526020600020906002020190506134c5600182600101600a9054906101000a900461ffff1661ffff1661359990919063ffffffff16565b81600101600a6101000a81548161ffff021916908361ffff16021790555061350d60148260010160169054906101000a900461ffff1661ffff1661359990919063ffffffff16565b8160010160166101000a81548161ffff021916908361ffff1602179055508060010160189054906101000a900461ffff1661ffff168160010160169054906101000a900461ffff1661ffff1610613569576135688183613836565b5b5050565b6000818361357b9190615b04565b905092915050565b600081836135919190615b5e565b905092915050565b600081836135a79190615bb4565b905092915050565b600081836135bd9190615bec565b905092915050565b6000816040516020016135d89190615c5c565b60405160208183030381529060405280519060200120836040516020016135ff9190615c5c565b6040516020818303038152906040528051906020012014905092915050565b60006002808111156136335761363261405a565b5b8260028111156136465761364561405a565b5b141561366d5761366660028463ffffffff16612e8990919063ffffffff16565b90506136d8565b600060028111156136815761368061405a565b5b8260028111156136945761369361405a565b5b14156136bb576136b460048463ffffffff16612e8990919063ffffffff16565b90506136d8565b6136d560038463ffffffff16612e8990919063ffffffff16565b90505b92915050565b600154426136ec9190615b5e565b8160010160046101000a81548163ffffffff021916908363ffffffff16021790555050565b600061371d8483613b2e565b156137675782877fcce4f0668cb0ecd051f3e42f34aaff29f7fc1d9554bcf8d825cb4960f15a9e77600080604051613756929190615cb8565b60405180910390a36000905061382c565b6137718486613b2e565b156137ec5782877fcce4f0668cb0ecd051f3e42f34aaff29f7fc1d9554bcf8d825cb4960f15a9e776137b360028a63ffffffff16612e8990919063ffffffff16565b60016040516137c3929190615cf0565b60405180910390a36137e560028763ffffffff16612e8990919063ffffffff16565b905061382c565b82877fcce4f0668cb0ecd051f3e42f34aaff29f7fc1d9554bcf8d825cb4960f15a9e77886001604051613820929190615cf0565b60405180910390a38590505b9695505050505050565b61386060648360010160189054906101000a900461ffff1661ffff1661359990919063ffffffff16565b8260010160186101000a81548161ffff021916908361ffff1602179055506138ac60018360010160009054906101000a900463ffffffff1663ffffffff16613bc690919063ffffffff16565b8260010160006101000a81548163ffffffff021916908363ffffffff1602179055506138f8601483600101600c9054906101000a900461ffff1661ffff1661359990919063ffffffff16565b82600101600c6101000a81548161ffff021916908361ffff160217905550613940600183600101601a9054906101000a900461ffff1661ffff1661359990919063ffffffff16565b82600101601a6101000a81548161ffff021916908361ffff160217905550600061398e600a8460010160009054906101000a900463ffffffff1663ffffffff16613bdc90919063ffffffff16565b63ffffffff161415613aca5760006003600083815260200190815260200160002060009054906101000a900473ffffffffffffffffffffffffffffffffffffffff169050613a376001600560008473ffffffffffffffffffffffffffffffffffffffff1673ffffffffffffffffffffffffffffffffffffffff16815260200190815260200160002060009054906101000a900461ffff1661ffff1661359990919063ffffffff16565b600560008373ffffffffffffffffffffffffffffffffffffffff1673ffffffffffffffffffffffffffffffffffffffff16815260200190815260200160002060006101000a81548161ffff021916908361ffff160217905550613a9981613bf2565b15613ac857613ac7818460010160009054906101000a900463ffffffff16613ac084613c74565b60026129ec565b5b505b807f284d83b741d04b66c66fb22029862604204702909c62315ad79f489c4f5b91bb8360010160009054906101000a900463ffffffff1684600101601a9054906101000a900461ffff16604051613b22929190615d28565b60405180910390a25050565b60008060058361ffff16613b429190615b5e565b9050613b5a6001600d5461358390919063ffffffff16565b600d819055506000613ba560644287600d54604051602001613b7e93929190615dba565b6040516020818303038152906040528051906020012060001c613cf690919063ffffffff16565b9050818111613bb957600192505050613bc0565b6000925050505b92915050565b60008183613bd49190615df7565b905092915050565b60008183613bea9190615e60565b905092915050565b6000613c0a6001600d5461358390919063ffffffff16565b600d819055506000613c5560644285600d54604051602001613c2e93929190615dba565b6040516020818303038152906040528051906020012060001c613cf690919063ffffffff16565b905060288111613c69576001915050613c6f565b60009150505b919050565b6000613c8c6001600d5461358390919063ffffffff16565b600d819055506000613cd760644285600d54604051602001613cb093929190615dba565b6040516020818303038152906040528051906020012060001c613cf690919063ffffffff16565b905060328111613ceb576000915050613cf1565b60019150505b919050565b60008183613d049190615e91565b905092915050565b604051806040016040528060008152602001613d26613e1e565b81525090565b604051806060016040528060008152602001613d46613d69565b8152602001600073ffffffffffffffffffffffffffffffffffffffff1681525090565b604051806101c0016040528060608152602001600063ffffffff168152602001600063ffffffff168152602001600061ffff168152602001600061ffff168152602001600061ffff168152602001600061ffff168152602001600061ffff168152602001600061ffff168152602001600061ffff168152602001600061ffff168152602001600061ffff168152602001600061ffff16815260200160006002811115613e1857613e1761405a565b5b81525090565b6040518060a00160405280600063ffffffff168152602001600063ffffffff168152602001600061ffff16815260200160006001811115613e6257613e6161405a565b5b815260200160006002811115613e7b57613e7a61405a565b5b81525090565b604051806040016040528060008152602001613e9b613d69565b81525090565b828054613ead90614e8b565b90600052602060002090601f016020900481019282613ecf5760008555613f16565b82601f10613ee857805160ff1916838001178555613f16565b82800160010185558215613f16579182015b82811115613f15578251825591602001919060010190613efa565b5b509050613f239190613f27565b5090565b5b80821115613f40576000816000905550600101613f28565b5090565b600080fd5b600080fd5b600073ffffffffffffffffffffffffffffffffffffffff82169050919050565b6000613f7982613f4e565b9050919050565b613f8981613f6e565b8114613f9457600080fd5b50565b600081359050613fa681613f80565b92915050565b600060208284031215613fc257613fc1613f44565b5b6000613fd084828501613f97565b91505092915050565b600081519050919050565b600082825260208201905092915050565b6000819050602082019050919050565b6000819050919050565b61401881614005565b82525050565b600063ffffffff82169050919050565b6140378161401e565b82525050565b600061ffff82169050919050565b6140548161403d565b82525050565b7f4e487b7100000000000000000000000000000000000000000000000000000000600052602160045260246000fd5b6002811061409a5761409961405a565b5b50565b60008190506140ab82614089565b919050565b60006140bb8261409d565b9050919050565b6140cb816140b0565b82525050565b600381106140e2576140e161405a565b5b50565b60008190506140f3826140d1565b919050565b6000614103826140e5565b9050919050565b614113816140f8565b82525050565b60a08201600082015161412f600085018261402e565b506020820151614142602085018261402e565b506040820151614155604085018261404b565b50606082015161416860608501826140c2565b50608082015161417b608085018261410a565b50505050565b60c082016000820151614197600085018261400f565b5060208201516141aa6020850182614119565b50505050565b60006141bc8383614181565b60c08301905092915050565b6000602082019050919050565b60006141e082613fd9565b6141ea8185613fe4565b93506141f583613ff5565b8060005b8381101561422657815161420d88826141b0565b9750614218836141c8565b9250506001810190506141f9565b5085935050505092915050565b6000602082019050818103600083015261424d81846141d5565b905092915050565b61425e81613f6e565b82525050565b60006020820190506142796000830184614255565b92915050565b61428881614005565b811461429357600080fd5b50565b6000813590506142a58161427f565b92915050565b6000602082840312156142c1576142c0613f44565b5b60006142cf84828501614296565b91505092915050565b600081519050919050565b600082825260208201905092915050565b6000819050602082019050919050565b600081519050919050565b600082825260208201905092915050565b60005b8381101561433e578082015181840152602081019050614323565b8381111561434d576000848401525b50505050565b6000601f19601f8301169050919050565b600061436f82614304565b614379818561430f565b9350614389818560208601614320565b61439281614353565b840191505092915050565b600381106143ae576143ad61405a565b5b50565b60008190506143bf8261439d565b919050565b60006143cf826143b1565b9050919050565b6143df816143c4565b82525050565b60006101c08301600083015184820360008601526144038282614364565b9150506020830151614418602086018261402e565b50604083015161442b604086018261402e565b50606083015161443e606086018261404b565b506080830151614451608086018261404b565b5060a083015161446460a086018261404b565b5060c083015161447760c086018261404b565b5060e083015161448a60e086018261404b565b5061010083015161449f61010086018261404b565b506101208301516144b461012086018261404b565b506101408301516144c961014086018261404b565b506101608301516144de61016086018261404b565b506101808301516144f361018086018261404b565b506101a08301516145086101a08601826143d6565b508091505092915050565b61451c81613f6e565b82525050565b600060608301600083015161453a600086018261400f565b506020830151848203602086015261455282826143e5565b91505060408301516145676040860182614513565b508091505092915050565b600061457e8383614522565b905092915050565b6000602082019050919050565b600061459e826142d8565b6145a881856142e3565b9350836020820285016145ba856142f4565b8060005b858110156145f657848403895281516145d78582614572565b94506145e283614586565b925060208a019950506001810190506145be565b50829750879550505050505092915050565b600060208201905081810360008301526146228184614593565b905092915050565b600080fd5b600080fd5b600080fd5b60008083601f84011261464f5761464e61462a565b5b8235905067ffffffffffffffff81111561466c5761466b61462f565b5b60208301915083600182028301111561468857614687614634565b5b9250929050565b6003811061469c57600080fd5b50565b6000813590506146ae8161468f565b92915050565b6000806000604084860312156146cd576146cc613f44565b5b600084013567ffffffffffffffff8111156146eb576146ea613f49565b5b6146f786828701614639565b9350935050602061470a8682870161469f565b9150509250925092565b61471d8161401e565b811461472857600080fd5b50565b60008135905061473a81614714565b92915050565b6002811061474d57600080fd5b50565b60008135905061475f81614740565b92915050565b6003811061477257600080fd5b50565b60008135905061478481614765565b92915050565b6000806000606084860312156147a3576147a2613f44565b5b60006147b18682870161472b565b93505060206147c286828701614750565b92505060406147d386828701614775565b9150509250925092565b60006101c08301600083015184820360008601526147fb8282614364565b9150506020830151614810602086018261402e565b506040830151614823604086018261402e565b506060830151614836606086018261404b565b506080830151614849608086018261404b565b5060a083015161485c60a086018261404b565b5060c083015161486f60c086018261404b565b5060e083015161488260e086018261404b565b5061010083015161489761010086018261404b565b506101208301516148ac61012086018261404b565b506101408301516148c161014086018261404b565b506101608301516148d661016086018261404b565b506101808301516148eb61018086018261404b565b506101a08301516149006101a08601826143d6565b508091505092915050565b6000602082019050818103600083015261492581846147dd565b905092915050565b61493681614005565b82525050565b6000602082019050614951600083018461492d565b92915050565b60008115159050919050565b61496c81614957565b811461497757600080fd5b50565b60008135905061498981614963565b92915050565b600080600080608085870312156149a9576149a8613f44565b5b60006149b787828801614296565b94505060206149c88782880161497a565b93505060406149d987828801614296565b92505060606149ea87828801614296565b91505092959194509250565b6149ff81614957565b82525050565b6000602082019050614a1a60008301846149f6565b92915050565b60008060408385031215614a3757614a36613f44565b5b6000614a458582860161472b565b9250506020614a5685828601614775565b9150509250929050565b60a082016000820151614a76600085018261402e565b506020820151614a89602085018261402e565b506040820151614a9c604085018261404b565b506060820151614aaf60608501826140c2565b506080820151614ac2608085018261410a565b50505050565b600060a082019050614add6000830184614a60565b92915050565b600081519050919050565b600082825260208201905092915050565b6000819050602082019050919050565b6000604083016000830151614b27600086018261400f565b5060208301518482036020860152614b3f82826143e5565b9150508091505092915050565b6000614b588383614b0f565b905092915050565b6000602082019050919050565b6000614b7882614ae3565b614b828185614aee565b935083602082028501614b9485614aff565b8060005b85811015614bd05784840389528151614bb18582614b4c565b9450614bbc83614b60565b925060208a01995050600181019050614b98565b50829750879550505050505092915050565b60006020820190508181036000830152614bfc8184614b6d565b905092915050565b614c0d8161403d565b8114614c1857600080fd5b50565b600081359050614c2a81614c04565b92915050565b600080600080600060a08688031215614c4c57614c4b613f44565b5b6000614c5a88828901614296565b9550506020614c6b88828901614c1b565b9450506040614c7c88828901614c1b565b9350506060614c8d88828901614c1b565b9250506080614c9e88828901614c1b565b9150509295509295909350565b7f4e487b7100000000000000000000000000000000000000000000000000000000600052604160045260246000fd5b7f4e487b7100000000000000000000000000000000000000000000000000000000600052603260045260246000fd5b7f4e487b7100000000000000000000000000000000000000000000000000000000600052601160045260246000fd5b6000614d4382614005565b91507fffffffffffffffffffffffffffffffffffffffffffffffffffffffffffffffff821415614d7657614d75614d09565b5b600182019050919050565b6000614d8c82614005565b91506000821415614da057614d9f614d09565b5b600182039050919050565b600082825260208201905092915050565b7f4f776e61626c653a2063616c6c6572206973206e6f7420746865206f776e6572600082015250565b6000614df2602083614dab565b9150614dfd82614dbc565b602082019050919050565b60006020820190508181036000830152614e2181614de5565b9050919050565b6000614e3382614005565b9150614e3e83614005565b925082821015614e5157614e50614d09565b5b828203905092915050565b7f4e487b7100000000000000000000000000000000000000000000000000000000600052602260045260246000fd5b60006002820490506001821680614ea357607f821691505b60208210811415614eb757614eb6614e5c565b5b50919050565b7f596f7520616c7265616479206861766520666967687465727320696e20796f7560008201527f72204261727261636b732120456e74657220746865204172656e6120616e642060208201527f6561726e20796f757273656c66206d6f72652046696768746572732100000000604082015250565b6000614f3f605c83614dab565b9150614f4a82614ebd565b606082019050919050565b60006020820190508181036000830152614f6e81614f32565b9050919050565b7f596f752073656e7420696e73756666696369656e742045544820666f7220666f60008201527f7267696e67207468697320776561706f6e210000000000000000000000000000602082015250565b6000614fd1603283614dab565b9150614fdc82614f75565b604082019050919050565b6000602082019050818103600083015261500081614fc4565b9050919050565b7f596f7520617265206e6f7420746865206f776e6572206f66207468697320466960008201527f6768746572210000000000000000000000000000000000000000000000000000602082015250565b6000615063602683614dab565b915061506e82615007565b604082019050919050565b6000602082019050818103600083015261509281615056565b9050919050565b7f596f752063616e6e6f742061747461636b20796f7572206f776e20466967687460008201527f6572210000000000000000000000000000000000000000000000000000000000602082015250565b60006150f5602383614dab565b915061510082615099565b604082019050919050565b60006020820190508181036000830152615124816150e8565b9050919050565b7f596f7520617265206e6f7420746865206f776e6572206f66207468697320576560008201527f61706f6e21000000000000000000000000000000000000000000000000000000602082015250565b6000615187602583614dab565b91506151928261512b565b604082019050919050565b600060208201905081810360008301526151b68161517a565b9050919050565b7f596f752063616e6e6f7420757365207468697320776561706f6e2c20796f757260008201527f206c6576656c20697320746f6f20736d616c6c21000000000000000000000000602082015250565b6000615219603483614dab565b9150615224826151bd565b604082019050919050565b600060208201905081810360008301526152488161520c565b9050919050565b7f596f752063616e6e6f7420757365207468697320776561706f6e2c20796f757260008201527f206167696c69747920736b696c6c20697320696e73756666696369656e742100602082015250565b60006152ab603f83614dab565b91506152b68261524f565b604082019050919050565b600060208201905081810360008301526152da8161529e565b9050919050565b7f596f752063616e6e6f7420757365207468697320776561706f6e2c20796f757260008201527f20737472656e67746820736b696c6c20697320696e73756666696369656e7421602082015250565b600061533d604083614dab565b9150615348826152e1565b604082019050919050565b6000602082019050818103600083015261536c81615330565b9050919050565b7f596f7520646f206e6f74206861766520616e7920617661696c61626c6520707560008201527f70696c732120466967687420746f206561726e206d6f72652100000000000000602082015250565b60006153cf603983614dab565b91506153da82615373565b604082019050919050565b600060208201905081810360008301526153fe816153c2565b9050919050565b7f4f776e61626c653a206e6577206f776e657220697320746865207a65726f206160008201527f6464726573730000000000000000000000000000000000000000000000000000602082015250565b6000615461602683614dab565b915061546c82615405565b604082019050919050565b6000602082019050818103600083015261549081615454565b9050919050565b7f596f7520646f206e6f74206861766520656e6f75676820617661696c61626c6560008201527f207370656e6461626c6520706f696e747320696e206f7264657220746f20646f60208201527f207468697320616374696f6e2100000000000000000000000000000000000000604082015250565b6000615519604d83614dab565b915061552482615497565b606082019050919050565b600060208201905081810360008301526155488161550c565b9050919050565b7f546865206e616d6520796f7520696e73657274656420666f7220796f7572204660008201527f69676874657220697320696e76616c6964210000000000000000000000000000602082015250565b60006155ab603283614dab565b91506155b68261554f565b604082019050919050565b600060208201905081810360008301526155da8161559e565b9050919050565b7f54686520636c61737320796f7520696e73657274656420666f7220796f75722060008201527f4669676874657220697320696e76616c69642100000000000000000000000000602082015250565b600061563d603383614dab565b9150615648826155e1565b604082019050919050565b6000602082019050818103600083015261566c81615630565b9050919050565b7f546865206e616d6520796f7520696e73657274656420666f7220796f7572204660008201527f69676874657220697320616c7265616479207573656421000000000000000000602082015250565b60006156cf603783614dab565b91506156da82615673565b604082019050919050565b600060208201905081810360008301526156fe816156c2565b9050919050565b7f546865206c6576656c20796f7520696e73657274656420666f7220796f75722060008201527f576561706f6e20697320696e76616c6964210000000000000000000000000000602082015250565b6000615761603283614dab565b915061576c82615705565b604082019050919050565b6000602082019050818103600083015261579081615754565b9050919050565b7f546865207479706520796f7520696e73657274656420666f7220796f7572205760008201527f6561706f6e20697320696e76616c696421000000000000000000000000000000602082015250565b60006157f3603183614dab565b91506157fe82615797565b604082019050919050565b60006020820190508181036000830152615822816157e6565b9050919050565b60006158348261401e565b915061583f8361401e565b92508163ffffffff048311821515161561585c5761585b614d09565b5b828202905092915050565b7f596f75722066696768746572206973206e6f742079657420726561647920746f60008201527f2066696768742100000000000000000000000000000000000000000000000000602082015250565b60006158c3602783614dab565b91506158ce82615867565b604082019050919050565b600060208201905081810360008301526158f2816158b6565b9050919050565b60008160030b9050919050565b6000615911826158f9565b915061591c836158f9565b925081637fffffff0383136000831215161561593b5761593a614d09565b5b817fffffffffffffffffffffffffffffffffffffffffffffffffffffffff8000000003831260008312161561597357615972614d09565b5b828201905092915050565b6000615989826158f9565b9150615994836158f9565b925082637fffffff04821160008413600084131616156159b7576159b6614d09565b5b817fffffffffffffffffffffffffffffffffffffffffffffffffffffffff8000000005831260008412600084131616156159f4576159f3614d09565b5b827fffffffffffffffffffffffffffffffffffffffffffffffffffffffff800000000582126000841360008412161615615a3157615a30614d09565b5b82637fffffff0582126000841260008412161615615a5257615a51614d09565b5b828202905092915050565b6000615a68826158f9565b9150615a73836158f9565b9250827fffffffffffffffffffffffffffffffffffffffffffffffffffffffff8000000001821260008412151615615aae57615aad614d09565b5b82637fffffff018213600084121615615aca57615ac9614d09565b5b828203905092915050565b7f4e487b7100000000000000000000000000000000000000000000000000000000600052600160045260246000fd5b6000615b0f82614005565b9150615b1a83614005565b9250817fffffffffffffffffffffffffffffffffffffffffffffffffffffffffffffffff0483118215151615615b5357615b52614d09565b5b828202905092915050565b6000615b6982614005565b9150615b7483614005565b9250827fffffffffffffffffffffffffffffffffffffffffffffffffffffffffffffffff03821115615ba957615ba8614d09565b5b828201905092915050565b6000615bbf8261403d565b9150615bca8361403d565b92508261ffff03821115615be157615be0614d09565b5b828201905092915050565b6000615bf78261403d565b9150615c028361403d565b925082821015615c1557615c14614d09565b5b828203905092915050565b600081905092915050565b6000615c3682614304565b615c408185615c20565b9350615c50818560208601614320565b80840191505092915050565b6000615c688284615c2b565b915081905092915050565b6000819050919050565b6000819050919050565b6000615ca2615c9d615c9884615c73565b615c7d565b61403d565b9050919050565b615cb281615c87565b82525050565b6000604082019050615ccd6000830185615ca9565b615cda60208301846149f6565b9392505050565b615cea8161403d565b82525050565b6000604082019050615d056000830185615ce1565b615d1260208301846149f6565b9392505050565b615d228161401e565b82525050565b6000604082019050615d3d6000830185615d19565b615d4a6020830184615ce1565b9392505050565b6000819050919050565b615d6c615d6782614005565b615d51565b82525050565b60008160601b9050919050565b6000615d8a82615d72565b9050919050565b6000615d9c82615d7f565b9050919050565b615db4615daf82613f6e565b615d91565b82525050565b6000615dc68286615d5b565b602082019150615dd68285615da3565b601482019150615de68284615d5b565b602082019150819050949350505050565b6000615e028261401e565b9150615e0d8361401e565b92508263ffffffff03821115615e2657615e25614d09565b5b828201905092915050565b7f4e487b7100000000000000000000000000000000000000000000000000000000600052601260045260246000fd5b6000615e6b8261401e565b9150615e768361401e565b925082615e8657615e85615e31565b5b828206905092915050565b6000615e9c82614005565b9150615ea783614005565b925082615eb757615eb6615e31565b5b82820690509291505056fea2646970667358221220b2ab9ce77676f9b60735ab60b1e906857663234672cf7ba4a98107682ee20b5564736f6c634300080a0033",
  "linkReferences": {},
  "deployedLinkReferences": {}
}