{
  "_format": "hh-sol-artifact-1",
  "contractName": "Arena",
  "sourceName": "contracts/Arena.sol",
  "abi": [
    {
      "anonymous": false,
      "inputs": [
        {
          "indexed": true,
          "internalType": "uint256",
          "name": "attackerId",
          "type": "uint256"
        },
        {
          "indexed": true,
          "internalType": "uint256",
          "name": "targetId",
          "type": "uint256"
        },
        {
          "indexed": false,
          "internalType": "uint16",
          "name": "damage",
          "type": "uint16"
        },
        {
          "indexed": false,
          "internalType": "bool",
          "name": "wasCritical",
          "type": "bool"
        }
      ],
      "name": "ArenaEvent",
      "type": "event"
    },
    {
      "anonymous": false,
      "inputs": [
        {
          "indexed": true,
          "internalType": "address",
          "name": "previousOwner",
          "type": "address"
        },
        {
          "indexed": true,
          "internalType": "address",
          "name": "newOwner",
          "type": "address"
        }
      ],
      "name": "OwnershipTransferred",
      "type": "event"
    },
    {
      "anonymous": false,
      "inputs": [
        {
          "indexed": false,
          "internalType": "bool",
          "name": "youWon",
          "type": "bool"
        }
      ],
      "name": "WhoWon",
      "type": "event"
    },
    {
      "inputs": [],
      "name": "_collectMerchantBalance",
      "outputs": [],
      "stateMutability": "nonpayable",
      "type": "function"
    },
    {
      "inputs": [
        {
          "internalType": "uint32",
          "name": "_level",
          "type": "uint32"
        },
        {
          "internalType": "enum WeaponTier",
          "name": "_tier",
          "type": "uint8"
        }
      ],
      "name": "_computeWeaponPrice",
      "outputs": [
        {
          "internalType": "uint256",
          "name": "",
          "type": "uint256"
        }
      ],
      "stateMutability": "view",
      "type": "function"
    },
    {
      "inputs": [
        {
          "internalType": "string",
          "name": "_name",
          "type": "string"
        },
        {
          "internalType": "enum FighterClass",
          "name": "_class",
          "type": "uint8"
        }
      ],
      "name": "_createFirstFighter",
      "outputs": [],
      "stateMutability": "nonpayable",
      "type": "function"
    },
    {
      "inputs": [],
      "name": "_getFightersCount",
      "outputs": [
        {
          "internalType": "uint256",
          "name": "",
          "type": "uint256"
        }
      ],
      "stateMutability": "view",
      "type": "function"
    },
    {
      "inputs": [
        {
          "internalType": "uint256",
          "name": "latest",
          "type": "uint256"
        }
      ],
      "name": "_getLatestFighters",
      "outputs": [
        {
          "components": [
            {
              "internalType": "address",
              "name": "owner",
              "type": "address"
            },
            {
              "components": [
                {
                  "internalType": "uint16",
                  "name": "winCount",
                  "type": "uint16"
                },
                {
                  "internalType": "uint16",
                  "name": "lossCount",
                  "type": "uint16"
                },
                {
                  "internalType": "uint16",
                  "name": "HP",
                  "type": "uint16"
                },
                {
                  "internalType": "uint16",
                  "name": "strength",
                  "type": "uint16"
                },
                {
                  "internalType": "uint16",
                  "name": "agility",
                  "type": "uint16"
                },
                {
                  "internalType": "uint16",
                  "name": "dexterity",
                  "type": "uint16"
                },
                {
                  "internalType": "uint16",
                  "name": "luck",
                  "type": "uint16"
                },
                {
                  "internalType": "uint16",
                  "name": "currentXP",
                  "type": "uint16"
                },
                {
                  "internalType": "uint16",
                  "name": "levelUpXP",
                  "type": "uint16"
                },
                {
                  "internalType": "uint16",
                  "name": "spendablePoints",
                  "type": "uint16"
                },
                {
                  "internalType": "uint32",
                  "name": "level",
                  "type": "uint32"
                },
                {
                  "internalType": "uint32",
                  "name": "readyTime",
                  "type": "uint32"
                },
                {
                  "internalType": "enum FighterClass",
                  "name": "class",
                  "type": "uint8"
                },
                {
                  "internalType": "string",
                  "name": "name",
                  "type": "string"
                }
              ],
              "internalType": "struct FighterFactory.Fighter",
              "name": "fighter",
              "type": "tuple"
            },
            {
              "internalType": "uint256",
              "name": "id",
              "type": "uint256"
            }
          ],
          "internalType": "struct FighterFactory.FighterDTO[]",
          "name": "",
          "type": "tuple[]"
        }
      ],
      "stateMutability": "view",
      "type": "function"
    },
    {
      "inputs": [],
      "name": "_getMyAvailablePupils",
      "outputs": [
        {
          "internalType": "uint256",
          "name": "",
          "type": "uint256"
        }
      ],
      "stateMutability": "view",
      "type": "function"
    },
    {
      "inputs": [
        {
          "internalType": "address",
          "name": "_owner",
          "type": "address"
        }
      ],
      "name": "_getUserFighters",
      "outputs": [
        {
          "components": [
            {
              "components": [
                {
                  "internalType": "uint16",
                  "name": "winCount",
                  "type": "uint16"
                },
                {
                  "internalType": "uint16",
                  "name": "lossCount",
                  "type": "uint16"
                },
                {
                  "internalType": "uint16",
                  "name": "HP",
                  "type": "uint16"
                },
                {
                  "internalType": "uint16",
                  "name": "strength",
                  "type": "uint16"
                },
                {
                  "internalType": "uint16",
                  "name": "agility",
                  "type": "uint16"
                },
                {
                  "internalType": "uint16",
                  "name": "dexterity",
                  "type": "uint16"
                },
                {
                  "internalType": "uint16",
                  "name": "luck",
                  "type": "uint16"
                },
                {
                  "internalType": "uint16",
                  "name": "currentXP",
                  "type": "uint16"
                },
                {
                  "internalType": "uint16",
                  "name": "levelUpXP",
                  "type": "uint16"
                },
                {
                  "internalType": "uint16",
                  "name": "spendablePoints",
                  "type": "uint16"
                },
                {
                  "internalType": "uint32",
                  "name": "level",
                  "type": "uint32"
                },
                {
                  "internalType": "uint32",
                  "name": "readyTime",
                  "type": "uint32"
                },
                {
                  "internalType": "enum FighterClass",
                  "name": "class",
                  "type": "uint8"
                },
                {
                  "internalType": "string",
                  "name": "name",
                  "type": "string"
                }
              ],
              "internalType": "struct FighterFactory.Fighter",
              "name": "fighter",
              "type": "tuple"
            },
            {
              "internalType": "uint256",
              "name": "id",
              "type": "uint256"
            }
          ],
          "internalType": "struct FighterFactory.FighterBarracksDTO[]",
          "name": "",
          "type": "tuple[]"
        }
      ],
      "stateMutability": "view",
      "type": "function"
    },
    {
      "inputs": [
        {
          "internalType": "address",
          "name": "_owner",
          "type": "address"
        }
      ],
      "name": "_getUserWeapons",
      "outputs": [
        {
          "components": [
            {
              "components": [
                {
                  "internalType": "uint32",
                  "name": "levelReq",
                  "type": "uint32"
                },
                {
                  "internalType": "uint32",
                  "name": "damage",
                  "type": "uint32"
                },
                {
                  "internalType": "uint16",
                  "name": "skillReq",
                  "type": "uint16"
                },
                {
                  "internalType": "enum WeaponType",
                  "name": "weapType",
                  "type": "uint8"
                },
                {
                  "internalType": "enum WeaponTier",
                  "name": "tier",
                  "type": "uint8"
                }
              ],
              "internalType": "struct WeaponFactory.Weapon",
              "name": "weapon",
              "type": "tuple"
            },
            {
              "internalType": "uint256",
              "name": "id",
              "type": "uint256"
            }
          ],
          "internalType": "struct WeaponFactory.WeaponDTO[]",
          "name": "",
          "type": "tuple[]"
        }
      ],
      "stateMutability": "view",
      "type": "function"
    },
    {
      "inputs": [
        {
          "internalType": "uint256",
          "name": "id",
          "type": "uint256"
        }
      ],
      "name": "_getWeaponByFighterId",
      "outputs": [
        {
          "components": [
            {
              "components": [
                {
                  "internalType": "uint32",
                  "name": "levelReq",
                  "type": "uint32"
                },
                {
                  "internalType": "uint32",
                  "name": "damage",
                  "type": "uint32"
                },
                {
                  "internalType": "uint16",
                  "name": "skillReq",
                  "type": "uint16"
                },
                {
                  "internalType": "enum WeaponType",
                  "name": "weapType",
                  "type": "uint8"
                },
                {
                  "internalType": "enum WeaponTier",
                  "name": "tier",
                  "type": "uint8"
                }
              ],
              "internalType": "struct WeaponFactory.Weapon",
              "name": "weapon",
              "type": "tuple"
            },
            {
              "internalType": "uint256",
              "name": "id",
              "type": "uint256"
            }
          ],
          "internalType": "struct WeaponFactory.WeaponDTO[]",
          "name": "",
          "type": "tuple[]"
        }
      ],
      "stateMutability": "view",
      "type": "function"
    },
    {
      "inputs": [
        {
          "internalType": "uint32",
          "name": "_level",
          "type": "uint32"
        },
        {
          "internalType": "enum WeaponType",
          "name": "_type",
          "type": "uint8"
        },
        {
          "internalType": "enum WeaponTier",
          "name": "_tier",
          "type": "uint8"
        }
      ],
      "name": "_purchaseWeapon",
      "outputs": [],
      "stateMutability": "payable",
      "type": "function"
    },
    {
      "inputs": [
        {
          "internalType": "uint256",
          "name": "_fighterId",
          "type": "uint256"
        },
        {
          "internalType": "uint16",
          "name": "_STR",
          "type": "uint16"
        },
        {
          "internalType": "uint16",
          "name": "_AGL",
          "type": "uint16"
        },
        {
          "internalType": "uint16",
          "name": "_LCK",
          "type": "uint16"
        },
        {
          "internalType": "uint16",
          "name": "_DEX",
          "type": "uint16"
        }
      ],
      "name": "_spendAvailablePoints",
      "outputs": [],
      "stateMutability": "nonpayable",
      "type": "function"
    },
    {
      "inputs": [
        {
          "internalType": "uint256",
          "name": "_myFighterId",
          "type": "uint256"
        },
        {
          "internalType": "bool",
          "name": "_hasOwnerWeapon",
          "type": "bool"
        },
        {
          "internalType": "uint256",
          "name": "_myWeaponId",
          "type": "uint256"
        },
        {
          "internalType": "uint256",
          "name": "_targetFighterId",
          "type": "uint256"
        },
        {
          "internalType": "bool",
          "name": "_hasTargetWeapon",
          "type": "bool"
        },
        {
          "internalType": "uint256",
          "name": "_targetWeaponId",
          "type": "uint256"
        }
      ],
      "name": "attack",
      "outputs": [],
      "stateMutability": "nonpayable",
      "type": "function"
    },
    {
      "inputs": [
        {
          "internalType": "address",
          "name": "_owner",
          "type": "address"
        }
      ],
      "name": "fetchAvailablePupils",
      "outputs": [
        {
          "internalType": "uint16",
          "name": "",
          "type": "uint16"
        }
      ],
      "stateMutability": "view",
      "type": "function"
    },
    {
      "inputs": [],
      "name": "owner",
      "outputs": [
        {
          "internalType": "address",
          "name": "",
          "type": "address"
        }
      ],
      "stateMutability": "view",
      "type": "function"
    },
    {
      "inputs": [
        {
          "internalType": "string",
          "name": "_name",
          "type": "string"
        },
        {
          "internalType": "enum FighterClass",
          "name": "_class",
          "type": "uint8"
        }
      ],
      "name": "redeemAvailablePupil",
      "outputs": [],
      "stateMutability": "nonpayable",
      "type": "function"
    },
    {
      "inputs": [],
      "name": "renounceOwnership",
      "outputs": [],
      "stateMutability": "nonpayable",
      "type": "function"
    },
    {
      "inputs": [
        {
          "internalType": "address",
          "name": "newOwner",
          "type": "address"
        }
      ],
      "name": "transferOwnership",
      "outputs": [],
      "stateMutability": "nonpayable",
      "type": "function"
    },
    {
      "stateMutability": "payable",
      "type": "receive"
    }
  ],
  "bytecode": "0x6080604052603c6001556602aa1efb94e0006009556601c6bf52634000600a556605543df729c000600b55660aa87bee538000600c556000600d55600f600e60006101000a81548163ffffffff021916908363ffffffff1602179055503480156200006957600080fd5b506200008a6200007e6200009060201b60201c565b6200009860201b60201c565b6200015c565b600033905090565b60008060009054906101000a900473ffffffffffffffffffffffffffffffffffffffff169050816000806101000a81548173ffffffffffffffffffffffffffffffffffffffff021916908373ffffffffffffffffffffffffffffffffffffffff1602179055508173ffffffffffffffffffffffffffffffffffffffff168173ffffffffffffffffffffffffffffffffffffffff167f8be0079c531659141344cd1fd0a4f28419497f9722a3daafe3b4186f6b6457e060405160405180910390a35050565b615b0c806200016c6000396000f3fe6080604052600436106101025760003560e01c8063b67340b511610095578063ea96525511610064578063ea9652551461030b578063ecfa934814610348578063f2fde38b14610385578063f9d7f171146103ae578063fbba44c6146103eb57610109565b8063b67340b514610270578063cb74c2a81461028c578063d5f5da3b146102b7578063dc932676146102e057610109565b80638da5cb5b116100d15780638da5cb5b146101a2578063927eeddc146101cd5780639b1f87e81461020a578063adec464a1461024757610109565b806313c1bce11461010e578063208ea929146101375780636c691ab914610174578063715018a61461018b57610109565b3661010957005b600080fd5b34801561011a57600080fd5b5061013560048036038101906101309190613f42565b610414565b005b34801561014357600080fd5b5061015e6004803603810190610159919061402d565b610f5d565b60405161016b91906142aa565b60405180910390f35b34801561018057600080fd5b5061018961120e565b005b34801561019757600080fd5b506101a06112da565b005b3480156101ae57600080fd5b506101b7611362565b6040516101c491906142db565b60405180910390f35b3480156101d957600080fd5b506101f460048036038101906101ef919061402d565b61138b565b6040516102019190614305565b60405180910390f35b34801561021657600080fd5b50610231600480360381019061022c9190614320565b6113e2565b60405161023e919061467d565b60405180910390f35b34801561025357600080fd5b5061026e60048036038101906102699190614729565b6117f5565b005b61028a600480360381019061028591906147ff565b6118f0565b005b34801561029857600080fd5b506102a16119ce565b6040516102ae9190614861565b60405180910390f35b3480156102c357600080fd5b506102de60048036038101906102d99190614729565b6119db565b005b3480156102ec57600080fd5b506102f5611b57565b6040516103029190614861565b60405180910390f35b34801561031757600080fd5b50610332600480360381019061032d919061487c565b611bb7565b60405161033f9190614861565b60405180910390f35b34801561035457600080fd5b5061036f600480360381019061036a9190614320565b611c89565b60405161037c91906142aa565b60405180910390f35b34801561039157600080fd5b506103ac60048036038101906103a7919061402d565b611cce565b005b3480156103ba57600080fd5b506103d560048036038101906103d0919061402d565b611dc6565b6040516103e291906149bb565b60405180910390f35b3480156103f757600080fd5b50610412600480360381019061040d9190614a09565b6121f3565b005b856003600082815260200190815260200160002060009054906101000a900473ffffffffffffffffffffffffffffffffffffffff1673ffffffffffffffffffffffffffffffffffffffff166104676124dc565b73ffffffffffffffffffffffffffffffffffffffff16146104bd576040517f08c379a00000000000000000000000000000000000000000000000000000000081526004016104b490614b07565b60405180910390fd5b836104c66124dc565b73ffffffffffffffffffffffffffffffffffffffff166003600083815260200190815260200160002060009054906101000a900473ffffffffffffffffffffffffffffffffffffffff1673ffffffffffffffffffffffffffffffffffffffff161415610567576040517f08c379a000000000000000000000000000000000000000000000000000000000815260040161055e90614b99565b60405180910390fd5b60006002898154811061057d5761057c614bb9565b5b90600052602060002090600202019050428160000160189054906101000a900463ffffffff1663ffffffff1611156105ea576040517f08c379a00000000000000000000000000000000000000000000000000000000081526004016105e190614c5a565b60405180910390fd5b6105f3816124e4565b6000600e60009054906101000a900463ffffffff1690508815610a3b576007600089815260200190815260200160002060009054906101000a900473ffffffffffffffffffffffffffffffffffffffff1673ffffffffffffffffffffffffffffffffffffffff166106626124dc565b73ffffffffffffffffffffffffffffffffffffffff16146106b8576040517f08c379a00000000000000000000000000000000000000000000000000000000081526004016106af90614cec565b60405180910390fd5b6000600689815481106106ce576106cd614bb9565b5b906000526020600020016040518060a00160405290816000820160009054906101000a900463ffffffff1663ffffffff1663ffffffff1681526020016000820160049054906101000a900463ffffffff1663ffffffff1663ffffffff1681526020016000820160089054906101000a900461ffff1661ffff1661ffff16815260200160008201600a9054906101000a900460ff166001811115610774576107736140c2565b5b6001811115610786576107856140c2565b5b815260200160008201600b9054906101000a900460ff1660028111156107af576107ae6140c2565b5b60028111156107c1576107c06140c2565b5b815250509050806000015163ffffffff168360000160149054906101000a900463ffffffff1663ffffffff16101561082e576040517f08c379a000000000000000000000000000000000000000000000000000000000815260040161082590614d7e565b60405180910390fd5b60006001811115610842576108416140c2565b5b81606001516001811115610859576108586140c2565b5b14156108c557806040015161ffff168360000160089054906101000a900461ffff1661ffff1610156108c0576040517f08c379a00000000000000000000000000000000000000000000000000000000081526004016108b790614e10565b60405180910390fd5b610927565b806040015161ffff168360000160069054906101000a900461ffff1661ffff161015610926576040517f08c379a000000000000000000000000000000000000000000000000000000000815260040161091d90614ea2565b60405180910390fd5b5b6001600281111561093b5761093a6140c2565b5b83600001601c9054906101000a900460ff16600281111561095f5761095e6140c2565b5b14801561099457506000600181111561097b5761097a6140c2565b5b81606001516001811115610992576109916140c2565b5b145b80610a075750600060028111156109ae576109ad6140c2565b5b83600001601c9054906101000a900460ff1660028111156109d2576109d16140c2565b5b148015610a0657506001808111156109ed576109ec6140c2565b5b81606001516001811115610a0457610a036140c2565b5b145b5b15610a3157610a2a6002826020015163ffffffff1661251790919063ffffffff16565b9150610a39565b806020015191505b505b600060028881548110610a5157610a50614bb9565b5b906000526020600020906002020190506000600e60009054906101000a900463ffffffff1690508715610ed5576007600088815260200190815260200160002060009054906101000a900473ffffffffffffffffffffffffffffffffffffffff1673ffffffffffffffffffffffffffffffffffffffff16600360008b815260200190815260200160002060009054906101000a900473ffffffffffffffffffffffffffffffffffffffff1673ffffffffffffffffffffffffffffffffffffffff1614610b52576040517f08c379a0000000000000000000000000000000000000000000000000000000008152600401610b4990614cec565b60405180910390fd5b600060068881548110610b6857610b67614bb9565b5b906000526020600020016040518060a00160405290816000820160009054906101000a900463ffffffff1663ffffffff1663ffffffff1681526020016000820160049054906101000a900463ffffffff1663ffffffff1663ffffffff1681526020016000820160089054906101000a900461ffff1661ffff1661ffff16815260200160008201600a9054906101000a900460ff166001811115610c0e57610c0d6140c2565b5b6001811115610c2057610c1f6140c2565b5b815260200160008201600b9054906101000a900460ff166002811115610c4957610c486140c2565b5b6002811115610c5b57610c5a6140c2565b5b815250509050806000015163ffffffff168360000160149054906101000a900463ffffffff1663ffffffff161015610cc8576040517f08c379a0000000000000000000000000000000000000000000000000000000008152600401610cbf90614d7e565b60405180910390fd5b60006001811115610cdc57610cdb6140c2565b5b81606001516001811115610cf357610cf26140c2565b5b1415610d5f57806040015161ffff168360000160089054906101000a900461ffff1661ffff161015610d5a576040517f08c379a0000000000000000000000000000000000000000000000000000000008152600401610d5190614e10565b60405180910390fd5b610dc1565b806040015161ffff168360000160069054906101000a900461ffff1661ffff161015610dc0576040517f08c379a0000000000000000000000000000000000000000000000000000000008152600401610db790614ea2565b60405180910390fd5b5b60016002811115610dd557610dd46140c2565b5b83600001601c9054906101000a900460ff166002811115610df957610df86140c2565b5b148015610e2e575060006001811115610e1557610e146140c2565b5b81606001516001811115610e2c57610e2b6140c2565b5b145b80610ea1575060006002811115610e4857610e476140c2565b5b83600001601c9054906101000a900460ff166002811115610e6c57610e6b6140c2565b5b148015610ea05750600180811115610e8757610e866140c2565b5b81606001516001811115610e9e57610e9d6140c2565b5b145b5b15610ecb57610ec46002826020015163ffffffff1661251790919063ffffffff16565b9150610ed3565b806020015191505b505b6000610ee58d86868d878761252d565b90508015610f0457610ef68d6127df565b610eff8a6128d7565b610f17565b610f0d8d6128d7565b610f168a6127df565b5b7fbf30fbcd321ef240818144cebd3d57345fa6d5d053a6778754a84a8478272f3281604051610f469190614ed1565b60405180910390a150505050505050505050505050565b60606000600860008473ffffffffffffffffffffffffffffffffffffffff1673ffffffffffffffffffffffffffffffffffffffff16815260200190815260200160002054905060008167ffffffffffffffff811115610fbf57610fbe614eec565b5b604051908082528060200260200182016040528015610ff857816020015b610fe5613c92565b815260200190600190039081610fdd5790505b509050600082141561100e578092505050611209565b6000805b600680549050811015611201578573ffffffffffffffffffffffffffffffffffffffff166007600083815260200190815260200160002060009054906101000a900473ffffffffffffffffffffffffffffffffffffffff1673ffffffffffffffffffffffffffffffffffffffff1614156111ee576040518060400160405280600683815481106110a5576110a4614bb9565b5b906000526020600020016040518060a00160405290816000820160009054906101000a900463ffffffff1663ffffffff1663ffffffff1681526020016000820160049054906101000a900463ffffffff1663ffffffff1663ffffffff1681526020016000820160089054906101000a900461ffff1661ffff1661ffff16815260200160008201600a9054906101000a900460ff16600181111561114b5761114a6140c2565b5b600181111561115d5761115c6140c2565b5b815260200160008201600b9054906101000a900460ff166002811115611186576111856140c2565b5b6002811115611198576111976140c2565b5b815250508152602001828152508383815181106111b8576111b7614bb9565b5b602002602001018190525081806111ce90614f4a565b92505083806111dc90614f93565b94505060008414156111ed57611201565b5b80806111f990614f4a565b915050611012565b508193505050505b919050565b6112166124dc565b73ffffffffffffffffffffffffffffffffffffffff16611234611362565b73ffffffffffffffffffffffffffffffffffffffff161461128a576040517f08c379a000000000000000000000000000000000000000000000000000000000815260040161128190615009565b60405180910390fd5b6112926124dc565b73ffffffffffffffffffffffffffffffffffffffff166108fc479081150290604051600060405180830381858888f193505050501580156112d7573d6000803e3d6000fd5b50565b6112e26124dc565b73ffffffffffffffffffffffffffffffffffffffff16611300611362565b73ffffffffffffffffffffffffffffffffffffffff1614611356576040517f08c379a000000000000000000000000000000000000000000000000000000000815260040161134d90615009565b60405180910390fd5b61136060006129cf565b565b60008060009054906101000a900473ffffffffffffffffffffffffffffffffffffffff16905090565b6000600560008373ffffffffffffffffffffffffffffffffffffffff1673ffffffffffffffffffffffffffffffffffffffff16815260200190815260200160002060009054906101000a900461ffff169050919050565b6060600082101580156113fa57506002805490508211155b61140357600080fd5b60008214156114155760028054905091505b60008267ffffffffffffffff81111561143157611430614eec565b5b60405190808252806020026020018201604052801561146a57816020015b611457613cb2565b81526020019060019003908161144f5790505b5090506000600280549050141561148457809150506117f0565b60008060016002805490506114999190615029565b90505b846002805490506114ad9190615029565b81106117e95760405180606001604052806003600084815260200190815260200160002060009054906101000a900473ffffffffffffffffffffffffffffffffffffffff1673ffffffffffffffffffffffffffffffffffffffff1681526020016002838154811061152157611520614bb9565b5b9060005260206000209060020201604051806101c00160405290816000820160009054906101000a900461ffff1661ffff1661ffff1681526020016000820160029054906101000a900461ffff1661ffff1661ffff1681526020016000820160049054906101000a900461ffff1661ffff1661ffff1681526020016000820160069054906101000a900461ffff1661ffff1661ffff1681526020016000820160089054906101000a900461ffff1661ffff1661ffff16815260200160008201600a9054906101000a900461ffff1661ffff1661ffff16815260200160008201600c9054906101000a900461ffff1661ffff1661ffff16815260200160008201600e9054906101000a900461ffff1661ffff1661ffff1681526020016000820160109054906101000a900461ffff1661ffff1661ffff1681526020016000820160129054906101000a900461ffff1661ffff1661ffff1681526020016000820160149054906101000a900463ffffffff1663ffffffff1663ffffffff1681526020016000820160189054906101000a900463ffffffff1663ffffffff1663ffffffff16815260200160008201601c9054906101000a900460ff1660028111156116ec576116eb6140c2565b5b60028111156116fe576116fd6140c2565b5b81526020016001820180546117129061508c565b80601f016020809104026020016040519081016040528092919081815260200182805461173e9061508c565b801561178b5780601f106117605761010080835404028352916020019161178b565b820191906000526020600020905b81548152906001019060200180831161176e57829003601f168201915b5050505050815250508152602001828152508383815181106117b0576117af614bb9565b5b602002602001018190525081806117c690614f4a565b925050848214156117d6576117e9565b80806117e190614f93565b91505061149c565b5081925050505b919050565b6000600460006118036124dc565b73ffffffffffffffffffffffffffffffffffffffff1673ffffffffffffffffffffffffffffffffffffffff168152602001908152602001600020541461187e576040517f08c379a000000000000000000000000000000000000000000000000000000000815260040161187590615156565b60405180910390fd5b611889838383612a93565b6000600560006118976124dc565b73ffffffffffffffffffffffffffffffffffffffff1673ffffffffffffffffffffffffffffffffffffffff16815260200190815260200160002060006101000a81548161ffff021916908361ffff160217905550505050565b6118fa8382611bb7565b8034101561193d576040517f08c379a0000000000000000000000000000000000000000000000000000000008152600401611934906151e8565b60405180910390fd5b60006119498584611bb7565b9050600081346119599190615029565b905060008111156119b35761196c6124dc565b73ffffffffffffffffffffffffffffffffffffffff166108fc829081150290604051600060405180830381858888f193505050501580156119b1573d6000803e3d6000fd5b505b6119c66119be6124dc565b8787876130e9565b505050505050565b6000600280549050905090565b600161ffff16600560006119ed6124dc565b73ffffffffffffffffffffffffffffffffffffffff1673ffffffffffffffffffffffffffffffffffffffff16815260200190815260200160002060009054906101000a900461ffff1661ffff161015611a7b576040517f08c379a0000000000000000000000000000000000000000000000000000000008152600401611a729061527a565b60405180910390fd5b611a86838383612a93565b611af2600160056000611a976124dc565b73ffffffffffffffffffffffffffffffffffffffff1673ffffffffffffffffffffffffffffffffffffffff16815260200190815260200160002060009054906101000a900461ffff1661ffff1661358690919063ffffffff16565b60056000611afe6124dc565b73ffffffffffffffffffffffffffffffffffffffff1673ffffffffffffffffffffffffffffffffffffffff16815260200190815260200160002060006101000a81548161ffff021916908361ffff160217905550505050565b600060056000611b656124dc565b73ffffffffffffffffffffffffffffffffffffffff1673ffffffffffffffffffffffffffffffffffffffff16815260200190815260200160002060009054906101000a900461ffff1661ffff16905090565b600080611bd58463ffffffff1660095461359c90919063ffffffff16565b9050600280811115611bea57611be96140c2565b5b836002811115611bfd57611bfc6140c2565b5b1415611c2057611c18600a54826135b290919063ffffffff16565b915050611c83565b60006002811115611c3457611c336140c2565b5b836002811115611c4757611c466140c2565b5b1415611c6a57611c62600c54826135b290919063ffffffff16565b915050611c83565b611c7f600b54826135b290919063ffffffff16565b9150505b92915050565b6060611cc76003600084815260200190815260200160002060009054906101000a900473ffffffffffffffffffffffffffffffffffffffff16610f5d565b9050919050565b611cd66124dc565b73ffffffffffffffffffffffffffffffffffffffff16611cf4611362565b73ffffffffffffffffffffffffffffffffffffffff1614611d4a576040517f08c379a0000000000000000000000000000000000000000000000000000000008152600401611d4190615009565b60405180910390fd5b600073ffffffffffffffffffffffffffffffffffffffff168173ffffffffffffffffffffffffffffffffffffffff161415611dba576040517f08c379a0000000000000000000000000000000000000000000000000000000008152600401611db19061530c565b60405180910390fd5b611dc3816129cf565b50565b60606000600460008473ffffffffffffffffffffffffffffffffffffffff1673ffffffffffffffffffffffffffffffffffffffff16815260200190815260200160002054905060008167ffffffffffffffff811115611e2857611e27614eec565b5b604051908082528060200260200182016040528015611e6157816020015b611e4e613cef565b815260200190600190039081611e465790505b5090506000821415611e775780925050506121ee565b6000805b6002805490508110156121e6578573ffffffffffffffffffffffffffffffffffffffff166003600083815260200190815260200160002060009054906101000a900473ffffffffffffffffffffffffffffffffffffffff1673ffffffffffffffffffffffffffffffffffffffff1614156121d357604051806040016040528060028381548110611f0e57611f0d614bb9565b5b9060005260206000209060020201604051806101c00160405290816000820160009054906101000a900461ffff1661ffff1661ffff1681526020016000820160029054906101000a900461ffff1661ffff1661ffff1681526020016000820160049054906101000a900461ffff1661ffff1661ffff1681526020016000820160069054906101000a900461ffff1661ffff1661ffff1681526020016000820160089054906101000a900461ffff1661ffff1661ffff16815260200160008201600a9054906101000a900461ffff1661ffff1661ffff16815260200160008201600c9054906101000a900461ffff1661ffff1661ffff16815260200160008201600e9054906101000a900461ffff1661ffff1661ffff1681526020016000820160109054906101000a900461ffff1661ffff1661ffff1681526020016000820160129054906101000a900461ffff1661ffff1661ffff1681526020016000820160149054906101000a900463ffffffff1663ffffffff1663ffffffff1681526020016000820160189054906101000a900463ffffffff1663ffffffff1663ffffffff16815260200160008201601c9054906101000a900460ff1660028111156120d9576120d86140c2565b5b60028111156120eb576120ea6140c2565b5b81526020016001820180546120ff9061508c565b80601f016020809104026020016040519081016040528092919081815260200182805461212b9061508c565b80156121785780601f1061214d57610100808354040283529160200191612178565b820191906000526020600020905b81548152906001019060200180831161215b57829003601f168201915b50505050508152505081526020018281525083838151811061219d5761219c614bb9565b5b602002602001018190525081806121b390614f4a565b92505083806121c190614f93565b94505060008414156121d2576121e6565b5b80806121de90614f4a565b915050611e7b565b508193505050505b919050565b846003600082815260200190815260200160002060009054906101000a900473ffffffffffffffffffffffffffffffffffffffff1673ffffffffffffffffffffffffffffffffffffffff166122466124dc565b73ffffffffffffffffffffffffffffffffffffffff161461229c576040517f08c379a000000000000000000000000000000000000000000000000000000000815260040161229390614b07565b60405180910390fd5b6000600287815481106122b2576122b1614bb9565b5b9060005260206000209060020201905060008690506122de868261ffff166135c890919063ffffffff16565b90506122f7858261ffff166135c890919063ffffffff16565b9050612310848261ffff166135c890919063ffffffff16565b90508160000160129054906101000a900461ffff1661ffff168161ffff16111561236f576040517f08c379a0000000000000000000000000000000000000000000000000000000008152600401612366906153c4565b60405180910390fd5b612398818360000160129054906101000a900461ffff1661ffff1661358690919063ffffffff16565b8260000160126101000a81548161ffff021916908361ffff1602179055506123df878360000160069054906101000a900461ffff1661ffff166135c890919063ffffffff16565b8260000160066101000a81548161ffff021916908361ffff160217905550612426868360000160089054906101000a900461ffff1661ffff166135c890919063ffffffff16565b8260000160086101000a81548161ffff021916908361ffff16021790555061246d8483600001600a9054906101000a900461ffff1661ffff166135c890919063ffffffff16565b82600001600a6101000a81548161ffff021916908361ffff1602179055506124b48583600001600c9054906101000a900461ffff1661ffff166135c890919063ffffffff16565b82600001600c6101000a81548161ffff021916908361ffff1602179055505050505050505050565b600033905090565b600154426124f291906153e4565b8160000160186101000a81548163ffffffff021916908363ffffffff16021790555050565b60008183612525919061543a565b905092915050565b6000808660000160049054906101000a900461ffff1661ffff16905060028081111561255c5761255b6140c2565b5b87600001601c9054906101000a900460ff1660028111156125805761257f6140c2565b5b14156125f1576125a060198263ffffffff166135de90919063ffffffff16565b905060006125d260058960000160149054906101000a900463ffffffff1663ffffffff1661251790919063ffffffff16565b90506125ed818363ffffffff166135de90919063ffffffff16565b9150505b60008460000160049054906101000a900461ffff1661ffff16905060028081111561261f5761261e6140c2565b5b85600001601c9054906101000a900460ff166002811115612643576126426140c2565b5b14156126b45761266360198263ffffffff166135de90919063ffffffff16565b9050600061269560058a60000160149054906101000a900463ffffffff1663ffffffff1661251790919063ffffffff16565b90506126b0818363ffffffff166135de90919063ffffffff16565b9150505b60005b6001156127a3576126f78a898b600001600c9054906101000a900461ffff166126de6124dc565b8b8b600001600a9054906101000a900461ffff166135f4565b90508061ffff1663ffffffff168263ffffffff161161271c57600193505050506127d5565b8061ffff168261272c9190615478565b9150612767878688600001600c9054906101000a900461ffff1661274e6124dc565b8e8e600001600a9054906101000a900461ffff166135f4565b90508061ffff1663ffffffff168363ffffffff161161278c57600093505050506127d5565b8061ffff168361279c9190615478565b92506126b7565b60008363ffffffff161115806127c0575060008263ffffffff1611155b6127cd576127cc6154ac565b5b600093505050505b9695505050505050565b6000600282815481106127f5576127f4614bb9565b5b9060005260206000209060020201905061282f60018260000160009054906101000a900461ffff1661ffff166135c890919063ffffffff16565b8160000160006101000a81548161ffff021916908361ffff160217905550612877602882600001600e9054906101000a900461ffff1661ffff166135c890919063ffffffff16565b81600001600e6101000a81548161ffff021916908361ffff1602179055508060000160109054906101000a900461ffff1661ffff1681600001600e9054906101000a900461ffff1661ffff16106128d3576128d28183613719565b5b5050565b6000600282815481106128ed576128ec614bb9565b5b9060005260206000209060020201905061292760018260000160029054906101000a900461ffff1661ffff166135c890919063ffffffff16565b8160000160026101000a81548161ffff021916908361ffff16021790555061296f601982600001600e9054906101000a900461ffff1661ffff166135c890919063ffffffff16565b81600001600e6101000a81548161ffff021916908361ffff1602179055508060000160109054906101000a900461ffff1661ffff1681600001600e9054906101000a900461ffff1661ffff16106129cb576129ca8183613719565b5b5050565b60008060009054906101000a900473ffffffffffffffffffffffffffffffffffffffff169050816000806101000a81548173ffffffffffffffffffffffffffffffffffffffff021916908373ffffffffffffffffffffffffffffffffffffffff1602179055508173ffffffffffffffffffffffffffffffffffffffff168173ffffffffffffffffffffffffffffffffffffffff167f8be0079c531659141344cd1fd0a4f28419497f9722a3daafe3b4186f6b6457e060405160405180910390a35050565b82826000828290501415612adc576040517f08c379a0000000000000000000000000000000000000000000000000000000008152600401612ad39061554d565b60405180910390fd5b8260006002811115612af157612af06140c2565b5b816002811115612b0457612b036140c2565b5b1480612b34575060016002811115612b1f57612b1e6140c2565b5b816002811115612b3257612b316140c2565b5b145b80612b625750600280811115612b4d57612b4c6140c2565b5b816002811115612b6057612b5f6140c2565b5b145b612ba1576040517f08c379a0000000000000000000000000000000000000000000000000000000008152600401612b98906155df565b60405180910390fd5b85858080601f016020809104026020016040519081016040528093929190818152602001838380828437600081840152601f19601f820116905080830192505050505050506000612bf8612bf36124dc565b611dc6565b90506000805b8251811015612c5557612c34838281518110612c1d57612c1c614bb9565b5b6020026020010151600001516101a00151856139b1565b15612c425760019150612c55565b8080612c4d90614f4a565b915050612bfe565b508015612c97576040517f08c379a0000000000000000000000000000000000000000000000000000000008152600401612c8e90615671565b60405180910390fd5b6002604051806101c00160405280600061ffff168152602001600061ffff168152602001606461ffff168152602001600161ffff168152602001600161ffff168152602001600161ffff168152602001600161ffff168152602001600061ffff168152602001606461ffff168152602001600061ffff168152602001600163ffffffff168152602001612d35600154426135b290919063ffffffff16565b63ffffffff168152602001896002811115612d5357612d526140c2565b5b81526020018b8b8080601f016020809104026020016040519081016040528093929190818152602001838380828437600081840152601f19601f82011690508083019250505050505050815250908060018154018082558091505060019003906000526020600020906002020160009091909190915060008201518160000160006101000a81548161ffff021916908361ffff16021790555060208201518160000160026101000a81548161ffff021916908361ffff16021790555060408201518160000160046101000a81548161ffff021916908361ffff16021790555060608201518160000160066101000a81548161ffff021916908361ffff16021790555060808201518160000160086101000a81548161ffff021916908361ffff16021790555060a082015181600001600a6101000a81548161ffff021916908361ffff16021790555060c082015181600001600c6101000a81548161ffff021916908361ffff16021790555060e082015181600001600e6101000a81548161ffff021916908361ffff1602179055506101008201518160000160106101000a81548161ffff021916908361ffff1602179055506101208201518160000160126101000a81548161ffff021916908361ffff1602179055506101408201518160000160146101000a81548163ffffffff021916908363ffffffff1602179055506101608201518160000160186101000a81548163ffffffff021916908363ffffffff16021790555061018082015181600001601c6101000a81548160ff02191690836002811115612fa557612fa46140c2565b5b02179055506101a0820151816001019080519060200190612fc7929190613d0f565b50505060006001600280549050612fde9190615029565b9050612fe86124dc565b6003600083815260200190815260200160002060006101000a81548173ffffffffffffffffffffffffffffffffffffffff021916908373ffffffffffffffffffffffffffffffffffffffff16021790555061309360016004600061304a6124dc565b73ffffffffffffffffffffffffffffffffffffffff1673ffffffffffffffffffffffffffffffffffffffff168152602001908152602001600020546135b290919063ffffffff16565b6004600061309f6124dc565b73ffffffffffffffffffffffffffffffffffffffff1673ffffffffffffffffffffffffffffffffffffffff1681526020019081526020016000208190555050505050505050505050565b8260018163ffffffff161015613134576040517f08c379a000000000000000000000000000000000000000000000000000000000815260040161312b90615703565b60405180910390fd5b8260006001811115613149576131486140c2565b5b81600181111561315c5761315b6140c2565b5b148061318b5750600180811115613176576131756140c2565b5b816001811115613189576131886140c2565b5b145b6131ca576040517f08c379a00000000000000000000000000000000000000000000000000000000081526004016131c190615795565b60405180910390fd5b82600060028111156131df576131de6140c2565b5b8160028111156131f2576131f16140c2565b5b148061322257506001600281111561320d5761320c6140c2565b5b8160028111156132205761321f6140c2565b5b145b80613250575060028081111561323b5761323a6140c2565b5b81600281111561324e5761324d6140c2565b5b145b61328f576040517f08c379a000000000000000000000000000000000000000000000000000000000815260040161328690615795565b60405180910390fd5b60008060028111156132a4576132a36140c2565b5b8560028111156132b7576132b66140c2565b5b14156132c257600890505b600160028111156132d6576132d56140c2565b5b8560028111156132e9576132e86140c2565b5b14156132f457600690505b600280811115613307576133066140c2565b5b85600281111561331a576133196140c2565b5b141561332557600390505b60066040518060a001604052808963ffffffff1681526020016133488a89613a0a565b63ffffffff1681526020018361ffff1681526020018860018111156133705761336f6140c2565b5b8152602001876002811115613388576133876140c2565b5b8152509080600181540180825580915050600190039060005260206000200160009091909190915060008201518160000160006101000a81548163ffffffff021916908363ffffffff16021790555060208201518160000160046101000a81548163ffffffff021916908363ffffffff16021790555060408201518160000160086101000a81548161ffff021916908361ffff160217905550606082015181600001600a6101000a81548160ff0219169083600181111561344c5761344b6140c2565b5b0217905550608082015181600001600b6101000a81548160ff0219169083600281111561347c5761347b6140c2565b5b021790555050508760076000600160068054905061349a9190615029565b815260200190815260200160002060006101000a81548173ffffffffffffffffffffffffffffffffffffffff021916908373ffffffffffffffffffffffffffffffffffffffff1602179055506135396001600860008b73ffffffffffffffffffffffffffffffffffffffff1673ffffffffffffffffffffffffffffffffffffffff168152602001908152602001600020546135b290919063ffffffff16565b600860008a73ffffffffffffffffffffffffffffffffffffffff1673ffffffffffffffffffffffffffffffffffffffff168152602001908152602001600020819055505050505050505050565b6000818361359491906157b5565b905092915050565b600081836135aa91906157e9565b905092915050565b600081836135c091906153e4565b905092915050565b600081836135d69190615843565b905092915050565b600081836135ec919061587b565b905092915050565b60006136008483613aca565b1561364a5782877fcce4f0668cb0ecd051f3e42f34aaff29f7fc1d9554bcf8d825cb4960f15a9e776000806040516136399291906158fa565b60405180910390a36000905061370f565b6136548486613aca565b156136cf5782877fcce4f0668cb0ecd051f3e42f34aaff29f7fc1d9554bcf8d825cb4960f15a9e7761369660028a63ffffffff1661251790919063ffffffff16565b60016040516136a6929190615923565b60405180910390a36136c860028763ffffffff1661251790919063ffffffff16565b905061370f565b82877fcce4f0668cb0ecd051f3e42f34aaff29f7fc1d9554bcf8d825cb4960f15a9e77886000604051613703929190615923565b60405180910390a38590505b9695505050505050565b61374360648360000160109054906101000a900461ffff1661ffff166135c890919063ffffffff16565b8260000160106101000a81548161ffff021916908361ffff16021790555061378f60018360000160149054906101000a900463ffffffff1663ffffffff166135de90919063ffffffff16565b8260000160146101000a81548163ffffffff021916908363ffffffff1602179055506137db600a8360000160049054906101000a900461ffff1661ffff166135c890919063ffffffff16565b8260000160046101000a81548161ffff021916908361ffff16021790555061382360018360000160129054906101000a900461ffff1661ffff166135c890919063ffffffff16565b8260000160126101000a81548161ffff021916908361ffff1602179055506000613871600a8460000160149054906101000a900463ffffffff1663ffffffff16613b6290919063ffffffff16565b63ffffffff1614156139ad5760006003600083815260200190815260200160002060009054906101000a900473ffffffffffffffffffffffffffffffffffffffff16905061391a6001600560008473ffffffffffffffffffffffffffffffffffffffff1673ffffffffffffffffffffffffffffffffffffffff16815260200190815260200160002060009054906101000a900461ffff1661ffff166135c890919063ffffffff16565b600560008373ffffffffffffffffffffffffffffffffffffffff1673ffffffffffffffffffffffffffffffffffffffff16815260200190815260200160002060006101000a81548161ffff021916908361ffff16021790555061397c81613b78565b156139ab576139aa818460000160149054906101000a900463ffffffff166139a384613bfa565b60026130e9565b5b505b5050565b6000816040516020016139c49190615988565b60405160208183030381529060405280519060200120836040516020016139eb9190615988565b6040516020818303038152906040528051906020012014905092915050565b6000600280811115613a1f57613a1e6140c2565b5b826002811115613a3257613a316140c2565b5b1415613a5957613a5260028463ffffffff1661251790919063ffffffff16565b9050613ac4565b60006002811115613a6d57613a6c6140c2565b5b826002811115613a8057613a7f6140c2565b5b1415613aa757613aa060048463ffffffff1661251790919063ffffffff16565b9050613ac4565b613ac160038463ffffffff1661251790919063ffffffff16565b90505b92915050565b60008060058361ffff16613ade91906153e4565b9050613af66001600d546135b290919063ffffffff16565b600d819055506000613b4160644287600d54604051602001613b1a93929190615a08565b6040516020818303038152906040528051906020012060001c613c7c90919063ffffffff16565b9050818111613b5557600192505050613b5c565b6000925050505b92915050565b60008183613b709190615a74565b905092915050565b6000613b906001600d546135b290919063ffffffff16565b600d819055506000613bdb60644285600d54604051602001613bb493929190615a08565b6040516020818303038152906040528051906020012060001c613c7c90919063ffffffff16565b905060288111613bef576001915050613bf5565b60009150505b919050565b6000613c126001600d546135b290919063ffffffff16565b600d819055506000613c5d60644285600d54604051602001613c3693929190615a08565b6040516020818303038152906040528051906020012060001c613c7c90919063ffffffff16565b905060328111613c71576000915050613c77565b60019150505b919050565b60008183613c8a9190615aa5565b905092915050565b6040518060400160405280613ca5613d95565b8152602001600081525090565b6040518060600160405280600073ffffffffffffffffffffffffffffffffffffffff168152602001613ce2613df8565b8152602001600081525090565b6040518060400160405280613d02613df8565b8152602001600081525090565b828054613d1b9061508c565b90600052602060002090601f016020900481019282613d3d5760008555613d84565b82601f10613d5657805160ff1916838001178555613d84565b82800160010185558215613d84579182015b82811115613d83578251825591602001919060010190613d68565b5b509050613d919190613ead565b5090565b6040518060a00160405280600063ffffffff168152602001600063ffffffff168152602001600061ffff16815260200160006001811115613dd957613dd86140c2565b5b815260200160006002811115613df257613df16140c2565b5b81525090565b604051806101c00160405280600061ffff168152602001600061ffff168152602001600061ffff168152602001600061ffff168152602001600061ffff168152602001600061ffff168152602001600061ffff168152602001600061ffff168152602001600061ffff168152602001600061ffff168152602001600063ffffffff168152602001600063ffffffff16815260200160006002811115613ea057613e9f6140c2565b5b8152602001606081525090565b5b80821115613ec6576000816000905550600101613eae565b5090565b600080fd5b600080fd5b6000819050919050565b613ee781613ed4565b8114613ef257600080fd5b50565b600081359050613f0481613ede565b92915050565b60008115159050919050565b613f1f81613f0a565b8114613f2a57600080fd5b50565b600081359050613f3c81613f16565b92915050565b60008060008060008060c08789031215613f5f57613f5e613eca565b5b6000613f6d89828a01613ef5565b9650506020613f7e89828a01613f2d565b9550506040613f8f89828a01613ef5565b9450506060613fa089828a01613ef5565b9350506080613fb189828a01613f2d565b92505060a0613fc289828a01613ef5565b9150509295509295509295565b600073ffffffffffffffffffffffffffffffffffffffff82169050919050565b6000613ffa82613fcf565b9050919050565b61400a81613fef565b811461401557600080fd5b50565b60008135905061402781614001565b92915050565b60006020828403121561404357614042613eca565b5b600061405184828501614018565b91505092915050565b600081519050919050565b600082825260208201905092915050565b6000819050602082019050919050565b600063ffffffff82169050919050565b61409f81614086565b82525050565b600061ffff82169050919050565b6140bc816140a5565b82525050565b7f4e487b7100000000000000000000000000000000000000000000000000000000600052602160045260246000fd5b60028110614102576141016140c2565b5b50565b6000819050614113826140f1565b919050565b600061412382614105565b9050919050565b61413381614118565b82525050565b6003811061414a576141496140c2565b5b50565b600081905061415b82614139565b919050565b600061416b8261414d565b9050919050565b61417b81614160565b82525050565b60a0820160008201516141976000850182614096565b5060208201516141aa6020850182614096565b5060408201516141bd60408501826140b3565b5060608201516141d0606085018261412a565b5060808201516141e36080850182614172565b50505050565b6141f281613ed4565b82525050565b60c08201600082015161420e6000850182614181565b50602082015161422160a08501826141e9565b50505050565b600061423383836141f8565b60c08301905092915050565b6000602082019050919050565b60006142578261405a565b6142618185614065565b935061426c83614076565b8060005b8381101561429d5781516142848882614227565b975061428f8361423f565b925050600181019050614270565b5085935050505092915050565b600060208201905081810360008301526142c4818461424c565b905092915050565b6142d581613fef565b82525050565b60006020820190506142f060008301846142cc565b92915050565b6142ff816140a5565b82525050565b600060208201905061431a60008301846142f6565b92915050565b60006020828403121561433657614335613eca565b5b600061434484828501613ef5565b91505092915050565b600081519050919050565b600082825260208201905092915050565b6000819050602082019050919050565b61438281613fef565b82525050565b60038110614399576143986140c2565b5b50565b60008190506143aa82614388565b919050565b60006143ba8261439c565b9050919050565b6143ca816143af565b82525050565b600081519050919050565b600082825260208201905092915050565b60005b8381101561440a5780820151818401526020810190506143ef565b83811115614419576000848401525b50505050565b6000601f19601f8301169050919050565b600061443b826143d0565b61444581856143db565b93506144558185602086016143ec565b61445e8161441f565b840191505092915050565b60006101c08301600083015161448260008601826140b3565b50602083015161449560208601826140b3565b5060408301516144a860408601826140b3565b5060608301516144bb60608601826140b3565b5060808301516144ce60808601826140b3565b5060a08301516144e160a08601826140b3565b5060c08301516144f460c08601826140b3565b5060e083015161450760e08601826140b3565b5061010083015161451c6101008601826140b3565b506101208301516145316101208601826140b3565b50610140830151614546610140860182614096565b5061016083015161455b610160860182614096565b506101808301516145706101808601826143c1565b506101a08301518482036101a086015261458a8282614430565b9150508091505092915050565b60006060830160008301516145af6000860182614379565b50602083015184820360208601526145c78282614469565b91505060408301516145dc60408601826141e9565b508091505092915050565b60006145f38383614597565b905092915050565b6000602082019050919050565b60006146138261434d565b61461d8185614358565b93508360208202850161462f85614369565b8060005b8581101561466b578484038952815161464c85826145e7565b9450614657836145fb565b925060208a01995050600181019050614633565b50829750879550505050505092915050565b600060208201905081810360008301526146978184614608565b905092915050565b600080fd5b600080fd5b600080fd5b60008083601f8401126146c4576146c361469f565b5b8235905067ffffffffffffffff8111156146e1576146e06146a4565b5b6020830191508360018202830111156146fd576146fc6146a9565b5b9250929050565b6003811061471157600080fd5b50565b60008135905061472381614704565b92915050565b60008060006040848603121561474257614741613eca565b5b600084013567ffffffffffffffff8111156147605761475f613ecf565b5b61476c868287016146ae565b9350935050602061477f86828701614714565b9150509250925092565b61479281614086565b811461479d57600080fd5b50565b6000813590506147af81614789565b92915050565b600281106147c257600080fd5b50565b6000813590506147d4816147b5565b92915050565b600381106147e757600080fd5b50565b6000813590506147f9816147da565b92915050565b60008060006060848603121561481857614817613eca565b5b6000614826868287016147a0565b9350506020614837868287016147c5565b9250506040614848868287016147ea565b9150509250925092565b61485b81613ed4565b82525050565b60006020820190506148766000830184614852565b92915050565b6000806040838503121561489357614892613eca565b5b60006148a1858286016147a0565b92505060206148b2858286016147ea565b9150509250929050565b600081519050919050565b600082825260208201905092915050565b6000819050602082019050919050565b600060408301600083015184820360008601526149058282614469565b915050602083015161491a60208601826141e9565b508091505092915050565b600061493183836148e8565b905092915050565b6000602082019050919050565b6000614951826148bc565b61495b81856148c7565b93508360208202850161496d856148d8565b8060005b858110156149a9578484038952815161498a8582614925565b945061499583614939565b925060208a01995050600181019050614971565b50829750879550505050505092915050565b600060208201905081810360008301526149d58184614946565b905092915050565b6149e6816140a5565b81146149f157600080fd5b50565b600081359050614a03816149dd565b92915050565b600080600080600060a08688031215614a2557614a24613eca565b5b6000614a3388828901613ef5565b9550506020614a44888289016149f4565b9450506040614a55888289016149f4565b9350506060614a66888289016149f4565b9250506080614a77888289016149f4565b9150509295509295909350565b600082825260208201905092915050565b7f596f7520617265206e6f7420746865206f776e6572206f66207468697320466960008201527f6768746572210000000000000000000000000000000000000000000000000000602082015250565b6000614af1602683614a84565b9150614afc82614a95565b604082019050919050565b60006020820190508181036000830152614b2081614ae4565b9050919050565b7f596f752063616e6e6f742061747461636b20796f7572206f776e20466967687460008201527f6572210000000000000000000000000000000000000000000000000000000000602082015250565b6000614b83602383614a84565b9150614b8e82614b27565b604082019050919050565b60006020820190508181036000830152614bb281614b76565b9050919050565b7f4e487b7100000000000000000000000000000000000000000000000000000000600052603260045260246000fd5b7f596f75722066696768746572206973206e6f742079657420726561647920746f60008201527f2066696768742100000000000000000000000000000000000000000000000000602082015250565b6000614c44602783614a84565b9150614c4f82614be8565b604082019050919050565b60006020820190508181036000830152614c7381614c37565b9050919050565b7f596f7520617265206e6f7420746865206f776e6572206f66207468697320576560008201527f61706f6e21000000000000000000000000000000000000000000000000000000602082015250565b6000614cd6602583614a84565b9150614ce182614c7a565b604082019050919050565b60006020820190508181036000830152614d0581614cc9565b9050919050565b7f596f752063616e6e6f7420757365207468697320776561706f6e2c20796f757260008201527f206c6576656c20697320746f6f20736d616c6c21000000000000000000000000602082015250565b6000614d68603483614a84565b9150614d7382614d0c565b604082019050919050565b60006020820190508181036000830152614d9781614d5b565b9050919050565b7f596f752063616e6e6f7420757365207468697320776561706f6e2c20796f757260008201527f206167696c69747920736b696c6c20697320696e73756666696369656e742100602082015250565b6000614dfa603f83614a84565b9150614e0582614d9e565b604082019050919050565b60006020820190508181036000830152614e2981614ded565b9050919050565b7f596f752063616e6e6f7420757365207468697320776561706f6e2c20796f757260008201527f20737472656e67746820736b696c6c20697320696e73756666696369656e7421602082015250565b6000614e8c604083614a84565b9150614e9782614e30565b604082019050919050565b60006020820190508181036000830152614ebb81614e7f565b9050919050565b614ecb81613f0a565b82525050565b6000602082019050614ee66000830184614ec2565b92915050565b7f4e487b7100000000000000000000000000000000000000000000000000000000600052604160045260246000fd5b7f4e487b7100000000000000000000000000000000000000000000000000000000600052601160045260246000fd5b6000614f5582613ed4565b91507fffffffffffffffffffffffffffffffffffffffffffffffffffffffffffffffff821415614f8857614f87614f1b565b5b600182019050919050565b6000614f9e82613ed4565b91506000821415614fb257614fb1614f1b565b5b600182039050919050565b7f4f776e61626c653a2063616c6c6572206973206e6f7420746865206f776e6572600082015250565b6000614ff3602083614a84565b9150614ffe82614fbd565b602082019050919050565b6000602082019050818103600083015261502281614fe6565b9050919050565b600061503482613ed4565b915061503f83613ed4565b92508282101561505257615051614f1b565b5b828203905092915050565b7f4e487b7100000000000000000000000000000000000000000000000000000000600052602260045260246000fd5b600060028204905060018216806150a457607f821691505b602082108114156150b8576150b761505d565b5b50919050565b7f596f7520616c7265616479206861766520666967687465727320696e20796f7560008201527f72204261727261636b732120456e74657220746865204172656e6120616e642060208201527f6561726e20796f757273656c66206d6f72652046696768746572732100000000604082015250565b6000615140605c83614a84565b915061514b826150be565b606082019050919050565b6000602082019050818103600083015261516f81615133565b9050919050565b7f596f752073656e7420696e73756666696369656e742045544820666f7220666f60008201527f7267696e67207468697320776561706f6e210000000000000000000000000000602082015250565b60006151d2603283614a84565b91506151dd82615176565b604082019050919050565b60006020820190508181036000830152615201816151c5565b9050919050565b7f596f7520646f206e6f74206861766520616e7920617661696c61626c6520707560008201527f70696c732120466967687420746f206561726e206d6f72652100000000000000602082015250565b6000615264603983614a84565b915061526f82615208565b604082019050919050565b6000602082019050818103600083015261529381615257565b9050919050565b7f4f776e61626c653a206e6577206f776e657220697320746865207a65726f206160008201527f6464726573730000000000000000000000000000000000000000000000000000602082015250565b60006152f6602683614a84565b91506153018261529a565b604082019050919050565b60006020820190508181036000830152615325816152e9565b9050919050565b7f596f7520646f206e6f74206861766520656e6f75676820617661696c61626c6560008201527f207370656e6461626c6520706f696e747320696e206f7264657220746f20646f60208201527f207468697320616374696f6e2100000000000000000000000000000000000000604082015250565b60006153ae604d83614a84565b91506153b98261532c565b606082019050919050565b600060208201905081810360008301526153dd816153a1565b9050919050565b60006153ef82613ed4565b91506153fa83613ed4565b9250827fffffffffffffffffffffffffffffffffffffffffffffffffffffffffffffffff0382111561542f5761542e614f1b565b5b828201905092915050565b600061544582614086565b915061545083614086565b92508163ffffffff048311821515161561546d5761546c614f1b565b5b828202905092915050565b600061548382614086565b915061548e83614086565b9250828210156154a1576154a0614f1b565b5b828203905092915050565b7f4e487b7100000000000000000000000000000000000000000000000000000000600052600160045260246000fd5b7f546865206e616d6520796f7520696e73657274656420666f7220796f7572204660008201527f69676874657220697320696e76616c6964210000000000000000000000000000602082015250565b6000615537603283614a84565b9150615542826154db565b604082019050919050565b600060208201905081810360008301526155668161552a565b9050919050565b7f54686520636c61737320796f7520696e73657274656420666f7220796f75722060008201527f4669676874657220697320696e76616c69642100000000000000000000000000602082015250565b60006155c9603383614a84565b91506155d48261556d565b604082019050919050565b600060208201905081810360008301526155f8816155bc565b9050919050565b7f546865206e616d6520796f7520696e73657274656420666f7220796f7572204660008201527f69676874657220697320616c7265616479207573656421000000000000000000602082015250565b600061565b603783614a84565b9150615666826155ff565b604082019050919050565b6000602082019050818103600083015261568a8161564e565b9050919050565b7f546865206c6576656c20796f7520696e73657274656420666f7220796f75722060008201527f576561706f6e20697320696e76616c6964210000000000000000000000000000602082015250565b60006156ed603283614a84565b91506156f882615691565b604082019050919050565b6000602082019050818103600083015261571c816156e0565b9050919050565b7f546865207479706520796f7520696e73657274656420666f7220796f7572205760008201527f6561706f6e20697320696e76616c696421000000000000000000000000000000602082015250565b600061577f603183614a84565b915061578a82615723565b604082019050919050565b600060208201905081810360008301526157ae81615772565b9050919050565b60006157c0826140a5565b91506157cb836140a5565b9250828210156157de576157dd614f1b565b5b828203905092915050565b60006157f482613ed4565b91506157ff83613ed4565b9250817fffffffffffffffffffffffffffffffffffffffffffffffffffffffffffffffff048311821515161561583857615837614f1b565b5b828202905092915050565b600061584e826140a5565b9150615859836140a5565b92508261ffff038211156158705761586f614f1b565b5b828201905092915050565b600061588682614086565b915061589183614086565b92508263ffffffff038211156158aa576158a9614f1b565b5b828201905092915050565b6000819050919050565b6000819050919050565b60006158e46158df6158da846158b5565b6158bf565b6140a5565b9050919050565b6158f4816158c9565b82525050565b600060408201905061590f60008301856158eb565b61591c6020830184614ec2565b9392505050565b600060408201905061593860008301856142f6565b6159456020830184614ec2565b9392505050565b600081905092915050565b6000615962826143d0565b61596c818561594c565b935061597c8185602086016143ec565b80840191505092915050565b60006159948284615957565b915081905092915050565b6000819050919050565b6159ba6159b582613ed4565b61599f565b82525050565b60008160601b9050919050565b60006159d8826159c0565b9050919050565b60006159ea826159cd565b9050919050565b615a026159fd82613fef565b6159df565b82525050565b6000615a1482866159a9565b602082019150615a2482856159f1565b601482019150615a3482846159a9565b602082019150819050949350505050565b7f4e487b7100000000000000000000000000000000000000000000000000000000600052601260045260246000fd5b6000615a7f82614086565b9150615a8a83614086565b925082615a9a57615a99615a45565b5b828206905092915050565b6000615ab082613ed4565b9150615abb83613ed4565b925082615acb57615aca615a45565b5b82820690509291505056fea26469706673582212202a81b4953a06d02d902d5ca014108455d7388ced17b4aff38037c410c9856df864736f6c634300080a0033",
  "linkReferences": {},
  "deployedLinkReferences": {}
}