{
  "_format": "hh-sol-artifact-1",
  "contractName": "Arena",
  "sourceName": "contracts/Arena.sol",
  "abi": [
    {
      "anonymous": false,
      "inputs": [
        {
          "indexed": true,
          "internalType": "address",
          "name": "owner",
          "type": "address"
        },
        {
          "indexed": true,
          "internalType": "address",
          "name": "approved",
          "type": "address"
        },
        {
          "indexed": true,
          "internalType": "uint256",
          "name": "tokenId",
          "type": "uint256"
        }
      ],
      "name": "Approval",
      "type": "event"
    },
    {
      "anonymous": false,
      "inputs": [
        {
          "indexed": true,
          "internalType": "address",
          "name": "owner",
          "type": "address"
        },
        {
          "indexed": true,
          "internalType": "address",
          "name": "operator",
          "type": "address"
        },
        {
          "indexed": false,
          "internalType": "bool",
          "name": "approved",
          "type": "bool"
        }
      ],
      "name": "ApprovalForAll",
      "type": "event"
    },
    {
      "anonymous": false,
      "inputs": [
        {
          "indexed": true,
          "internalType": "uint256",
          "name": "attackerId",
          "type": "uint256"
        },
        {
          "indexed": true,
          "internalType": "uint256",
          "name": "targetId",
          "type": "uint256"
        },
        {
          "indexed": false,
          "internalType": "uint16",
          "name": "damage",
          "type": "uint16"
        },
        {
          "indexed": false,
          "internalType": "bool",
          "name": "wasCritical",
          "type": "bool"
        }
      ],
      "name": "ArenaEvent",
      "type": "event"
    },
    {
      "anonymous": false,
      "inputs": [
        {
          "indexed": true,
          "internalType": "address",
          "name": "previousOwner",
          "type": "address"
        },
        {
          "indexed": true,
          "internalType": "address",
          "name": "newOwner",
          "type": "address"
        }
      ],
      "name": "OwnershipTransferred",
      "type": "event"
    },
    {
      "anonymous": false,
      "inputs": [
        {
          "indexed": true,
          "internalType": "address",
          "name": "from",
          "type": "address"
        },
        {
          "indexed": true,
          "internalType": "address",
          "name": "to",
          "type": "address"
        },
        {
          "indexed": true,
          "internalType": "uint256",
          "name": "tokenId",
          "type": "uint256"
        }
      ],
      "name": "Transfer",
      "type": "event"
    },
    {
      "anonymous": false,
      "inputs": [
        {
          "indexed": false,
          "internalType": "bool",
          "name": "youWon",
          "type": "bool"
        }
      ],
      "name": "WhoWon",
      "type": "event"
    },
    {
      "inputs": [],
      "name": "_collectBalance",
      "outputs": [],
      "stateMutability": "nonpayable",
      "type": "function"
    },
    {
      "inputs": [],
      "name": "_getFightersCount",
      "outputs": [
        {
          "internalType": "uint256",
          "name": "",
          "type": "uint256"
        }
      ],
      "stateMutability": "view",
      "type": "function"
    },
    {
      "inputs": [
        {
          "internalType": "uint256",
          "name": "latest",
          "type": "uint256"
        }
      ],
      "name": "_getLatestFighters",
      "outputs": [
        {
          "components": [
            {
              "internalType": "address",
              "name": "owner",
              "type": "address"
            },
            {
              "components": [
                {
                  "internalType": "bool",
                  "name": "isForSale",
                  "type": "bool"
                },
                {
                  "internalType": "uint16",
                  "name": "winCount",
                  "type": "uint16"
                },
                {
                  "internalType": "uint16",
                  "name": "lossCount",
                  "type": "uint16"
                },
                {
                  "internalType": "uint16",
                  "name": "HP",
                  "type": "uint16"
                },
                {
                  "internalType": "uint16",
                  "name": "strength",
                  "type": "uint16"
                },
                {
                  "internalType": "uint16",
                  "name": "agility",
                  "type": "uint16"
                },
                {
                  "internalType": "uint16",
                  "name": "dexterity",
                  "type": "uint16"
                },
                {
                  "internalType": "uint16",
                  "name": "luck",
                  "type": "uint16"
                },
                {
                  "internalType": "uint16",
                  "name": "currentXP",
                  "type": "uint16"
                },
                {
                  "internalType": "uint16",
                  "name": "levelUpXP",
                  "type": "uint16"
                },
                {
                  "internalType": "uint16",
                  "name": "spendablePoints",
                  "type": "uint16"
                },
                {
                  "internalType": "uint32",
                  "name": "level",
                  "type": "uint32"
                },
                {
                  "internalType": "uint32",
                  "name": "readyTime",
                  "type": "uint32"
                },
                {
                  "internalType": "enum FighterClass",
                  "name": "class",
                  "type": "uint8"
                },
                {
                  "internalType": "string",
                  "name": "name",
                  "type": "string"
                }
              ],
              "internalType": "struct FighterFactory.Fighter",
              "name": "fighter",
              "type": "tuple"
            },
            {
              "internalType": "uint256",
              "name": "id",
              "type": "uint256"
            }
          ],
          "internalType": "struct FighterFactory.FighterDTO[]",
          "name": "",
          "type": "tuple[]"
        }
      ],
      "stateMutability": "view",
      "type": "function"
    },
    {
      "inputs": [],
      "name": "_getMyAvailablePupils",
      "outputs": [
        {
          "internalType": "uint256",
          "name": "",
          "type": "uint256"
        }
      ],
      "stateMutability": "view",
      "type": "function"
    },
    {
      "inputs": [
        {
          "internalType": "address",
          "name": "_owner",
          "type": "address"
        }
      ],
      "name": "_getUserFighters",
      "outputs": [
        {
          "components": [
            {
              "components": [
                {
                  "internalType": "bool",
                  "name": "isForSale",
                  "type": "bool"
                },
                {
                  "internalType": "uint16",
                  "name": "winCount",
                  "type": "uint16"
                },
                {
                  "internalType": "uint16",
                  "name": "lossCount",
                  "type": "uint16"
                },
                {
                  "internalType": "uint16",
                  "name": "HP",
                  "type": "uint16"
                },
                {
                  "internalType": "uint16",
                  "name": "strength",
                  "type": "uint16"
                },
                {
                  "internalType": "uint16",
                  "name": "agility",
                  "type": "uint16"
                },
                {
                  "internalType": "uint16",
                  "name": "dexterity",
                  "type": "uint16"
                },
                {
                  "internalType": "uint16",
                  "name": "luck",
                  "type": "uint16"
                },
                {
                  "internalType": "uint16",
                  "name": "currentXP",
                  "type": "uint16"
                },
                {
                  "internalType": "uint16",
                  "name": "levelUpXP",
                  "type": "uint16"
                },
                {
                  "internalType": "uint16",
                  "name": "spendablePoints",
                  "type": "uint16"
                },
                {
                  "internalType": "uint32",
                  "name": "level",
                  "type": "uint32"
                },
                {
                  "internalType": "uint32",
                  "name": "readyTime",
                  "type": "uint32"
                },
                {
                  "internalType": "enum FighterClass",
                  "name": "class",
                  "type": "uint8"
                },
                {
                  "internalType": "string",
                  "name": "name",
                  "type": "string"
                }
              ],
              "internalType": "struct FighterFactory.Fighter",
              "name": "fighter",
              "type": "tuple"
            },
            {
              "internalType": "uint256",
              "name": "id",
              "type": "uint256"
            }
          ],
          "internalType": "struct FighterFactory.FighterBarracksDTO[]",
          "name": "",
          "type": "tuple[]"
        }
      ],
      "stateMutability": "view",
      "type": "function"
    },
    {
      "inputs": [
        {
          "internalType": "address",
          "name": "_owner",
          "type": "address"
        }
      ],
      "name": "_getUserWeapons",
      "outputs": [
        {
          "components": [
            {
              "components": [
                {
                  "internalType": "uint32",
                  "name": "levelReq",
                  "type": "uint32"
                },
                {
                  "internalType": "uint32",
                  "name": "damage",
                  "type": "uint32"
                },
                {
                  "internalType": "uint16",
                  "name": "skillReq",
                  "type": "uint16"
                },
                {
                  "internalType": "enum WeaponType",
                  "name": "weapType",
                  "type": "uint8"
                },
                {
                  "internalType": "enum WeaponTier",
                  "name": "tier",
                  "type": "uint8"
                }
              ],
              "internalType": "struct WeaponFactory.Weapon",
              "name": "weapon",
              "type": "tuple"
            },
            {
              "internalType": "uint256",
              "name": "id",
              "type": "uint256"
            }
          ],
          "internalType": "struct WeaponFactory.WeaponDTO[]",
          "name": "",
          "type": "tuple[]"
        }
      ],
      "stateMutability": "view",
      "type": "function"
    },
    {
      "inputs": [
        {
          "internalType": "uint256",
          "name": "id",
          "type": "uint256"
        }
      ],
      "name": "_getWeaponByFighterId",
      "outputs": [
        {
          "components": [
            {
              "components": [
                {
                  "internalType": "uint32",
                  "name": "levelReq",
                  "type": "uint32"
                },
                {
                  "internalType": "uint32",
                  "name": "damage",
                  "type": "uint32"
                },
                {
                  "internalType": "uint16",
                  "name": "skillReq",
                  "type": "uint16"
                },
                {
                  "internalType": "enum WeaponType",
                  "name": "weapType",
                  "type": "uint8"
                },
                {
                  "internalType": "enum WeaponTier",
                  "name": "tier",
                  "type": "uint8"
                }
              ],
              "internalType": "struct WeaponFactory.Weapon",
              "name": "weapon",
              "type": "tuple"
            },
            {
              "internalType": "uint256",
              "name": "id",
              "type": "uint256"
            }
          ],
          "internalType": "struct WeaponFactory.WeaponDTO[]",
          "name": "",
          "type": "tuple[]"
        }
      ],
      "stateMutability": "view",
      "type": "function"
    },
    {
      "inputs": [
        {
          "internalType": "address",
          "name": "to",
          "type": "address"
        },
        {
          "internalType": "uint256",
          "name": "tokenId",
          "type": "uint256"
        }
      ],
      "name": "approve",
      "outputs": [],
      "stateMutability": "nonpayable",
      "type": "function"
    },
    {
      "inputs": [
        {
          "internalType": "uint256",
          "name": "_myFighterId",
          "type": "uint256"
        },
        {
          "internalType": "bool",
          "name": "_hasOwnerWeapon",
          "type": "bool"
        },
        {
          "internalType": "uint256",
          "name": "_myWeaponId",
          "type": "uint256"
        },
        {
          "internalType": "uint256",
          "name": "_targetFighterId",
          "type": "uint256"
        }
      ],
      "name": "attack",
      "outputs": [],
      "stateMutability": "nonpayable",
      "type": "function"
    },
    {
      "inputs": [
        {
          "internalType": "address",
          "name": "owner",
          "type": "address"
        }
      ],
      "name": "balanceOf",
      "outputs": [
        {
          "internalType": "uint256",
          "name": "",
          "type": "uint256"
        }
      ],
      "stateMutability": "view",
      "type": "function"
    },
    {
      "inputs": [
        {
          "internalType": "uint256",
          "name": "_fighterId",
          "type": "uint256"
        }
      ],
      "name": "buyFighter",
      "outputs": [],
      "stateMutability": "payable",
      "type": "function"
    },
    {
      "inputs": [
        {
          "internalType": "address",
          "name": "newAddr",
          "type": "address"
        }
      ],
      "name": "changeNFTHolderAccount",
      "outputs": [],
      "stateMutability": "nonpayable",
      "type": "function"
    },
    {
      "inputs": [
        {
          "internalType": "uint32",
          "name": "_level",
          "type": "uint32"
        },
        {
          "internalType": "enum WeaponTier",
          "name": "_tier",
          "type": "uint8"
        }
      ],
      "name": "computeWeaponPrice",
      "outputs": [
        {
          "internalType": "uint256",
          "name": "",
          "type": "uint256"
        }
      ],
      "stateMutability": "view",
      "type": "function"
    },
    {
      "inputs": [
        {
          "internalType": "string",
          "name": "_givenName",
          "type": "string"
        },
        {
          "internalType": "enum FighterClass",
          "name": "_class",
          "type": "uint8"
        }
      ],
      "name": "createFirstFighter",
      "outputs": [],
      "stateMutability": "nonpayable",
      "type": "function"
    },
    {
      "inputs": [],
      "name": "feePercent",
      "outputs": [
        {
          "internalType": "uint16",
          "name": "",
          "type": "uint16"
        }
      ],
      "stateMutability": "view",
      "type": "function"
    },
    {
      "inputs": [
        {
          "internalType": "address",
          "name": "_owner",
          "type": "address"
        }
      ],
      "name": "fetchAvailablePupils",
      "outputs": [
        {
          "internalType": "uint16",
          "name": "",
          "type": "uint16"
        }
      ],
      "stateMutability": "view",
      "type": "function"
    },
    {
      "inputs": [
        {
          "internalType": "uint256",
          "name": "tokenId",
          "type": "uint256"
        }
      ],
      "name": "getApproved",
      "outputs": [
        {
          "internalType": "address",
          "name": "",
          "type": "address"
        }
      ],
      "stateMutability": "view",
      "type": "function"
    },
    {
      "inputs": [
        {
          "internalType": "uint256",
          "name": "fighterId",
          "type": "uint256"
        }
      ],
      "name": "getFighterPrice",
      "outputs": [
        {
          "internalType": "uint256",
          "name": "",
          "type": "uint256"
        }
      ],
      "stateMutability": "view",
      "type": "function"
    },
    {
      "inputs": [
        {
          "internalType": "uint256",
          "name": "fighterId",
          "type": "uint256"
        }
      ],
      "name": "getFighterSeller",
      "outputs": [
        {
          "internalType": "address",
          "name": "",
          "type": "address"
        }
      ],
      "stateMutability": "view",
      "type": "function"
    },
    {
      "inputs": [
        {
          "internalType": "address",
          "name": "receiver",
          "type": "address"
        },
        {
          "internalType": "uint256",
          "name": "_myFighterId",
          "type": "uint256"
        }
      ],
      "name": "giftFighter",
      "outputs": [],
      "stateMutability": "nonpayable",
      "type": "function"
    },
    {
      "inputs": [
        {
          "internalType": "address",
          "name": "owner",
          "type": "address"
        },
        {
          "internalType": "address",
          "name": "operator",
          "type": "address"
        }
      ],
      "name": "isApprovedForAll",
      "outputs": [
        {
          "internalType": "bool",
          "name": "",
          "type": "bool"
        }
      ],
      "stateMutability": "view",
      "type": "function"
    },
    {
      "inputs": [],
      "name": "name",
      "outputs": [
        {
          "internalType": "string",
          "name": "",
          "type": "string"
        }
      ],
      "stateMutability": "view",
      "type": "function"
    },
    {
      "inputs": [],
      "name": "owner",
      "outputs": [
        {
          "internalType": "address",
          "name": "",
          "type": "address"
        }
      ],
      "stateMutability": "view",
      "type": "function"
    },
    {
      "inputs": [
        {
          "internalType": "uint256",
          "name": "tokenId",
          "type": "uint256"
        }
      ],
      "name": "ownerOf",
      "outputs": [
        {
          "internalType": "address",
          "name": "",
          "type": "address"
        }
      ],
      "stateMutability": "view",
      "type": "function"
    },
    {
      "inputs": [
        {
          "internalType": "uint32",
          "name": "_level",
          "type": "uint32"
        },
        {
          "internalType": "enum WeaponType",
          "name": "_type",
          "type": "uint8"
        },
        {
          "internalType": "enum WeaponTier",
          "name": "_tier",
          "type": "uint8"
        }
      ],
      "name": "purchaseWeapon",
      "outputs": [],
      "stateMutability": "payable",
      "type": "function"
    },
    {
      "inputs": [
        {
          "internalType": "uint256",
          "name": "_myFighterId",
          "type": "uint256"
        },
        {
          "internalType": "uint256",
          "name": "price",
          "type": "uint256"
        }
      ],
      "name": "putUpForSale",
      "outputs": [],
      "stateMutability": "nonpayable",
      "type": "function"
    },
    {
      "inputs": [
        {
          "internalType": "string",
          "name": "_name",
          "type": "string"
        },
        {
          "internalType": "enum FighterClass",
          "name": "_class",
          "type": "uint8"
        }
      ],
      "name": "redeemAvailablePupil",
      "outputs": [],
      "stateMutability": "nonpayable",
      "type": "function"
    },
    {
      "inputs": [],
      "name": "renounceOwnership",
      "outputs": [],
      "stateMutability": "nonpayable",
      "type": "function"
    },
    {
      "inputs": [
        {
          "internalType": "address",
          "name": "from",
          "type": "address"
        },
        {
          "internalType": "address",
          "name": "to",
          "type": "address"
        },
        {
          "internalType": "uint256",
          "name": "tokenId",
          "type": "uint256"
        }
      ],
      "name": "safeTransferFrom",
      "outputs": [],
      "stateMutability": "nonpayable",
      "type": "function"
    },
    {
      "inputs": [
        {
          "internalType": "address",
          "name": "from",
          "type": "address"
        },
        {
          "internalType": "address",
          "name": "to",
          "type": "address"
        },
        {
          "internalType": "uint256",
          "name": "tokenId",
          "type": "uint256"
        },
        {
          "internalType": "bytes",
          "name": "_data",
          "type": "bytes"
        }
      ],
      "name": "safeTransferFrom",
      "outputs": [],
      "stateMutability": "nonpayable",
      "type": "function"
    },
    {
      "inputs": [
        {
          "internalType": "uint256",
          "name": "_fee",
          "type": "uint256"
        }
      ],
      "name": "setATierPrice",
      "outputs": [],
      "stateMutability": "nonpayable",
      "type": "function"
    },
    {
      "inputs": [
        {
          "internalType": "address",
          "name": "operator",
          "type": "address"
        },
        {
          "internalType": "bool",
          "name": "approved",
          "type": "bool"
        }
      ],
      "name": "setApprovalForAll",
      "outputs": [],
      "stateMutability": "nonpayable",
      "type": "function"
    },
    {
      "inputs": [
        {
          "internalType": "uint256",
          "name": "_fee",
          "type": "uint256"
        }
      ],
      "name": "setBTierPrice",
      "outputs": [],
      "stateMutability": "nonpayable",
      "type": "function"
    },
    {
      "inputs": [
        {
          "internalType": "uint256",
          "name": "_fee",
          "type": "uint256"
        }
      ],
      "name": "setFeePerLevel",
      "outputs": [],
      "stateMutability": "nonpayable",
      "type": "function"
    },
    {
      "inputs": [
        {
          "internalType": "uint256",
          "name": "_fee",
          "type": "uint256"
        }
      ],
      "name": "setSTierPrice",
      "outputs": [],
      "stateMutability": "nonpayable",
      "type": "function"
    },
    {
      "inputs": [
        {
          "internalType": "uint256",
          "name": "_fighterId",
          "type": "uint256"
        },
        {
          "internalType": "uint16",
          "name": "_STR",
          "type": "uint16"
        },
        {
          "internalType": "uint16",
          "name": "_AGL",
          "type": "uint16"
        },
        {
          "internalType": "uint16",
          "name": "_LCK",
          "type": "uint16"
        },
        {
          "internalType": "uint16",
          "name": "_DEX",
          "type": "uint16"
        }
      ],
      "name": "spendAvailablePoints",
      "outputs": [],
      "stateMutability": "nonpayable",
      "type": "function"
    },
    {
      "inputs": [
        {
          "internalType": "bytes4",
          "name": "interfaceId",
          "type": "bytes4"
        }
      ],
      "name": "supportsInterface",
      "outputs": [
        {
          "internalType": "bool",
          "name": "",
          "type": "bool"
        }
      ],
      "stateMutability": "view",
      "type": "function"
    },
    {
      "inputs": [],
      "name": "symbol",
      "outputs": [
        {
          "internalType": "string",
          "name": "",
          "type": "string"
        }
      ],
      "stateMutability": "view",
      "type": "function"
    },
    {
      "inputs": [
        {
          "internalType": "uint256",
          "name": "_id",
          "type": "uint256"
        }
      ],
      "name": "tokenURI",
      "outputs": [
        {
          "internalType": "string",
          "name": "",
          "type": "string"
        }
      ],
      "stateMutability": "view",
      "type": "function"
    },
    {
      "inputs": [
        {
          "internalType": "address",
          "name": "from",
          "type": "address"
        },
        {
          "internalType": "address",
          "name": "to",
          "type": "address"
        },
        {
          "internalType": "uint256",
          "name": "tokenId",
          "type": "uint256"
        }
      ],
      "name": "transferFrom",
      "outputs": [],
      "stateMutability": "nonpayable",
      "type": "function"
    },
    {
      "inputs": [
        {
          "internalType": "address",
          "name": "newOwner",
          "type": "address"
        }
      ],
      "name": "transferOwnership",
      "outputs": [],
      "stateMutability": "nonpayable",
      "type": "function"
    },
    {
      "stateMutability": "payable",
      "type": "receive"
    }
  ],
  "bytecode": "0x603c608052610100604052601360c08190527f43727970746f4172656e6146696768746572730000000000000000000000000060e0908152620000469160079190620003ae565b50604080518082019091526007808252662334b3b43a32b960c91b60209092019182526200007791600891620003ae565b50600560a052600b80546001600160a01b03191673308bcae2716ead370abec327978528ff21981c4f1790556602aa1efb94e0006011556601c6bf526340006012556605543df729c000601355660aa87bee53800060145560006015556016805463ffffffff1916600f179055348015620000f157600080fd5b50620000fd336200035e565b6040805180820190915260078152662bb0b93934b7b960c91b60208083019182526000805260059052905162000155917f05b8ccbb9d4d8fb16ea74ce3c29a41f1b461fbdaff4714a0d9a8eb05499746bc91620003ae565b5060408051808201909152600781526653616d7572616960c81b60208083019182526001600052600590529051620001af917f1471eb6eb2c5e789fc3de43f8ce62938c7d1836ec861730447e2ada8fd81017b91620003ae565b5060408051808201909152600580825264111c9d5a5960da1b6020808401918252600260005291909152905162000208917f89832631fb3c3307a103ba2c84ab569c64d6182a18893dcd163f0f1c2090733a91620003ae565b5060408051808201909152601f81527f68747470733a2f2f692e696d6775722e636f6d2f79684a4f7a4e542e706e670060208083019182526000805260069052905162000277917f54cdd369e4e8a8515e52ca72ec816c2101831ad1f18bf44102ed171459c9b4f891620003ae565b5060408051808201909152601f81527f68747470733a2f2f692e696d6775722e636f6d2f74744575656d7a2e706e670060208083019182526001600052600690529051620002e7917f3e5fec24aa4dc4e5aee2e025e51e1392c72a2500577559fae9665c6d52bd6a3191620003ae565b5060408051808201909152601f81527f68747470733a2f2f692e696d6775722e636f6d2f6153393246617a2e706e67006020808301918252600260005260069052905162000357917f8819ef417987f8ae7a81f42cdfb18815282fe989326fbff903d13cf0e03ace2991620003ae565b506200049b565b600080546001600160a01b038381166001600160a01b0319831681178455604051919092169283917f8be0079c531659141344cd1fd0a4f28419497f9722a3daafe3b4186f6b6457e09190a35050565b828054620003bc906200046a565b90600052602060002090601f016020900481019282620003e057600085556200042b565b82601f10620003fb57805160ff19168380011785556200042b565b828001600101855582156200042b579182015b828111156200042b5782518255916020019190600101906200040e565b50620004399291506200043d565b5090565b5b808211156200043957600081556001016200043e565b634e487b7160e01b600052602260045260246000fd5b6002810460018216806200047f57607f821691505b6020821081141562000495576200049562000454565b50919050565b60805160a051615c0f620004cf600039600081816104e60152612f34015260008181612ba401526133040152615c0f6000f3fe60806040526004361061024a5760003560e01c80638b2144a311610139578063c87b56dd116100b6578063d5f5da3b1161007a578063d5f5da3b146106f7578063dc93267614610717578063e985e9c51461073d578063ecfa934814610786578063f2fde38b146107a6578063f9d7f171146107c657600080fd5b8063c87b56dd1461066f578063cb74c2a81461068f578063cbb5bbbf146106a4578063ccc72842146106b7578063cfb8c2ad146106d757600080fd5b806395d89b41116100fd57806395d89b41146105cd5780639b1f87e8146105e25780639c42a2071461060f578063a22cb4651461062f578063b88d4fde1461064f57600080fd5b80638b2144a3146105155780638da5cb5b146105355780638f2fd16c14610553578063927eeddc1461057357806395d67c91146105ad57600080fd5b806342842e0e116101c75780637011c9561161018b5780637011c9561461046a57806370a082311461048a578063715018a6146104aa57806379003507146104bf5780637fd6f15c146104d457600080fd5b806342842e0e146103bd57806345a90c82146103dd5780634ed442ca146103fd5780635e96c6941461042a5780636352211e1461044a57600080fd5b80630a424b721161020e5780630a424b7214610310578063208ea9291461033057806323b872dd1461035d57806334405f531461037d5780634162a3fd1461039d57600080fd5b80630146adb21461025657806301ffc9a71461026b57806306fdde03146102a1578063081812fc146102c3578063095ea7b3146102f057600080fd5b3661025157005b600080fd5b610269610264366004613eb2565b6107f3565b005b34801561027757600080fd5b5061028b610286366004613f1d565b61088b565b6040516102989190613f48565b60405180910390f35b3480156102ad57600080fd5b506102b66108dd565b6040516102989190613fb4565b3480156102cf57600080fd5b506102e36102de366004613fd6565b61096f565b6040516102989190614011565b3480156102fc57600080fd5b5061026961030b366004614033565b6109bf565b34801561031c57600080fd5b5061026961032b366004614070565b610a42565b34801561033c57600080fd5b5061035061034b366004614070565b610ab4565b6040516102989190614202565b34801561036957600080fd5b50610269610378366004614213565b610c9b565b34801561038957600080fd5b506102696103983660046142ab565b610ccc565b3480156103a957600080fd5b506102696103b8366004614311565b610d3d565b3480156103c957600080fd5b506102696103d8366004614213565b610f02565b3480156103e957600080fd5b506102696103f8366004613fd6565b610f1d565b34801561040957600080fd5b5061041d610418366004614389565b610f4c565b60405161029891906143bc565b34801561043657600080fd5b506102696104453660046143ca565b610fda565b34801561045657600080fd5b506102e3610465366004613fd6565b611127565b34801561047657600080fd5b50610269610485366004613fd6565b61115c565b34801561049657600080fd5b5061041d6104a5366004614070565b61118b565b3480156104b657600080fd5b506102696111cf565b3480156104cb57600080fd5b50610269611205565b3480156104e057600080fd5b506105087f000000000000000000000000000000000000000000000000000000000000000081565b60405161029891906143ec565b34801561052157600080fd5b50610269610530366004613fd6565b61125e565b34801561054157600080fd5b506000546001600160a01b03166102e3565b34801561055f57600080fd5b506102e361056e366004613fd6565b61128d565b34801561057f57600080fd5b5061050861058e366004614070565b6001600160a01b031660009081526004602052604090205461ffff1690565b3480156105b957600080fd5b506102696105c8366004613fd6565b6112e1565b3480156105d957600080fd5b506102b6611310565b3480156105ee57600080fd5b506106026105fd366004613fd6565b61131f565b60405161029891906145f0565b34801561061b57600080fd5b5061026961062a366004614033565b611612565b34801561063b57600080fd5b5061026961064a366004614614565b611703565b34801561065b57600080fd5b5061026961066a366004614735565b611712565b34801561067b57600080fd5b506102b661068a366004613fd6565b61174a565b34801561069b57600080fd5b5060015461041d565b6102696106b2366004613fd6565b611a81565b3480156106c357600080fd5b5061041d6106d2366004613fd6565b611c11565b3480156106e357600080fd5b506102696106f23660046147b4565b611c58565b34801561070357600080fd5b506102696107123660046142ab565b6120fb565b34801561072357600080fd5b503360009081526004602052604090205461ffff1661041d565b34801561074957600080fd5b5061028b61075836600461480c565b6001600160a01b039182166000908152600a6020908152604080832093909416825291909152205460ff1690565b34801561079257600080fd5b506103506107a1366004613fd6565b612165565b3480156107b257600080fd5b506102696107c1366004614070565b612189565b3480156107d257600080fd5b506107e66107e1366004614070565b6121e2565b60405161029891906148d1565b6107fd8382610f4c565b803410156108265760405162461bcd60e51b815260040161081d90614934565b60405180910390fd5b60006108328584610f4c565b90506000610840823461495a565b9050801561087757604051339082156108fc029083906000818181858888f19350505050158015610875573d6000803e3d6000fd5b505b610883338787876124b9565b505050505050565b60006001600160e01b031982166380ac58cd60e01b14806108bc57506001600160e01b03198216635b5e139f60e01b145b806108d757506301ffc9a760e01b6001600160e01b03198316145b92915050565b6060600780546108ec9061498b565b80601f01602080910402602001604051908101604052809291908181526020018280546109189061498b565b80156109655780601f1061093a57610100808354040283529160200191610965565b820191906000526020600020905b81548152906001019060200180831161094857829003601f168201915b5050505050905090565b6000818152600260205260408120546001600160a01b03166109a35760405162461bcd60e51b815260040161081d906149fb565b506000908152600960205260409020546001600160a01b031690565b6000818152600260205260409020546001600160a01b039081169083168114156109fb5760405162461bcd60e51b815260040161081d90614a49565b336001600160a01b0382161480610a175750610a178133610758565b610a335760405162461bcd60e51b815260040161081d90614ab3565b610a3d83836127b4565b505050565b6000546001600160a01b03163314610a6c5760405162461bcd60e51b815260040161081d90614af8565b6001600160a01b038116610a925760405162461bcd60e51b815260040161081d90614b56565b600b80546001600160a01b0319166001600160a01b0392909216919091179055565b6001600160a01b0381166000908152601060205260408120546060918167ffffffffffffffff811115610ae957610ae9614647565b604051908082528060200260200182016040528015610b2257816020015b610b0f613cd9565b815260200190600190039081610b075790505b50905081610b31579392505050565b6000805b600e54811015610c91576000818152600f60205260409020546001600160a01b0387811691161415610c7f576040518060400160405280600e8381548110610b7f57610b7f614b66565b60009182526020918290206040805160a08101825291909201805463ffffffff80821684526401000000008204169483019490945261ffff600160401b8504169282019290925291606083019060ff600160501b909104166001811115610be857610be86140a7565b6001811115610bf957610bf96140a7565b81528154602090910190600160581b900460ff166002811115610c1e57610c1e6140a7565b6002811115610c2f57610c2f6140a7565b81525050815260200182815250838381518110610c4e57610c4e614b66565b60200260200101819052508180610c6490614b7c565b9250508380610c7290614b97565b94505083610c7f57610c91565b80610c8981614b7c565b915050610b35565b5090949350505050565b610ca5338261281b565b610cc15760405162461bcd60e51b815260040161081d90614bfc565b610a3d8383836128c6565b3360009081526003602052604090205415610cf95760405162461bcd60e51b815260040161081d90614c8f565b610d048383836129ef565b6000600481335b6001600160a01b031681526020810191909152604001600020805461ffff191661ffff92909216919091179055505050565b60008581526002602052604090205485906001600160a01b0316336001600160a01b031614610d7e5760405162461bcd60e51b815260040161081d90614ce2565b600060018781548110610d9357610d93614b66565b60009182526020909120600290910201905085610db461ffff821687612ef1565b9050610dc461ffff821686612ef1565b9050610dd461ffff821685612ef1565b825490915061ffff600160981b90910481169082161115610e075760405162461bcd60e51b815260040161081d90614d62565b8154610e1e90600160981b900461ffff1682612f04565b825461ffff60981b1916600160981b61ffff9283160217808455610e4b91600160381b9091041688612ef1565b825468ffff000000000000001916600160381b61ffff9283160217808455610e7c91600160481b9091041687612ef1565b82546affff0000000000000000001916600160481b61ffff9283160217808455610eaf91600160581b9091041685612ef1565b825461ffff60581b1916600160581b61ffff9283160217808455610edc91600160681b9091041686612ef1565b825461ffff91909116600160681b0261ffff60681b199091161790915550505050505050565b610a3d83838360405180602001604052806000815250611712565b6000546001600160a01b03163314610f475760405162461bcd60e51b815260040161081d90614af8565b601155565b600080610f6a8463ffffffff16601154612f1090919063ffffffff16565b90506002836002811115610f8057610f806140a7565b1415610f9c57601254610f94908290612f1c565b9150506108d7565b6000836002811115610fb057610fb06140a7565b1415610fc457601454610f94908290612f1c565b601354610fd2908290612f1c565b949350505050565b60008281526002602052604090205482906001600160a01b0316336001600160a01b03161461101b5760405162461bcd60e51b815260040161081d90614ce2565b6000838152600260208181526040808420546001600160a01b03168452600390915290912054849111156110615760405162461bcd60e51b815260040161081d90614dbb565b826000811161106f57600080fd5b846001818154811061108357611083614b66565b600091825260209091206002909102015460ff16156110a157600080fd5b6110b733600b546001600160a01b0316886128c6565b6110c085612f28565b6000878152600c6020908152604080832093909355600d90522080546001600160a01b031916331790556001805481908890811061110057611100614b66565b60009182526020909120600290910201805460ff1916911515919091179055505050505050565b6000818152600260205260408120546001600160a01b0316806108d75760405162461bcd60e51b815260040161081d90614e11565b6000546001600160a01b031633146111865760405162461bcd60e51b815260040161081d90614af8565b601255565b60006001600160a01b0382166111b35760405162461bcd60e51b815260040161081d90614e68565b506001600160a01b031660009081526003602052604090205490565b6000546001600160a01b031633146111f95760405162461bcd60e51b815260040161081d90614af8565b6112036000612f6e565b565b6000546001600160a01b0316331461122f5760405162461bcd60e51b815260040161081d90614af8565b60405133904780156108fc02916000818181858888f1935050505015801561125b573d6000803e3d6000fd5b50565b6000546001600160a01b031633146112885760405162461bcd60e51b815260040161081d90614af8565b601455565b600081600181815481106112a3576112a3614b66565b600091825260209091206002909102015460ff166112c057600080fd5b6000838152600d60205260409020546001600160a01b031691505b50919050565b6000546001600160a01b0316331461130b5760405162461bcd60e51b815260040161081d90614af8565b601355565b6060600880546108ec9061498b565b606060015482111561133057600080fd5b8161133b5760015491505b60008267ffffffffffffffff81111561135657611356614647565b60405190808252806020026020018201604052801561138f57816020015b61137c613d19565b8152602001906001900390816113745790505b506001549091506113a05792915050565b6001805460009182916113b3919061495a565b90505b6001546113c490869061495a565b81106116095760408051606081018252600083815260026020908152929020546001600160a01b031681526001805491928301918490811061140857611408614b66565b6000918252602091829020604080516101e0810182526002938402909201805460ff8082161515855261ffff61010080840482169887019890985263010000008304811694860194909452600160281b820484166060860152600160381b820484166080860152600160481b8204841660a0860152600160581b8204841660c0860152600160681b8204841660e0860152600160781b8204841696850196909652600160881b81048316610120850152600160981b810490921661014084015263ffffffff600160a81b83048116610160850152600160c81b830416610180840152919391926101a0850192600160e81b9092049091169081111561150f5761150f6140a7565b6002811115611520576115206140a7565b81526020016001820180546115349061498b565b80601f01602080910402602001604051908101604052809291908181526020018280546115609061498b565b80156115ad5780601f10611582576101008083540402835291602001916115ad565b820191906000526020600020905b81548152906001019060200180831161159057829003601f168201915b5050505050815250508152602001828152508383815181106115d1576115d1614b66565b602002602001018190525081806115e790614b7c565b925050848214156115f757611609565b8061160181614b97565b9150506113b6565b50909392505050565b60008181526002602052604090205481906001600160a01b0316336001600160a01b0316146116535760405162461bcd60e51b815260040161081d90614ce2565b6000828152600260208181526040808420546001600160a01b03168452600390915290912054839111156116995760405162461bcd60e51b815260040161081d90614dbb565b82600181815481106116ad576116ad614b66565b600091825260209091206002909102015460ff16156116cb57600080fd5b6001600160a01b0385166116f15760405162461bcd60e51b815260040161081d90614eb8565b6116fc3386866128c6565b5050505050565b61170e338383612fbe565b5050565b61171c338361281b565b6117385760405162461bcd60e51b815260040161081d90614bfc565b61174484848484613061565b50505050565b606060006001838154811061176157611761614b66565b6000918252602091829020604080516101e0810182526002938402909201805460ff8082161515855261ffff61010080840482169887019890985263010000008304811694860194909452600160281b820484166060860152600160381b820484166080860152600160481b8204841660a0860152600160581b8204841660c0860152600160681b8204841660e0860152600160781b8204841696850196909652600160881b81048316610120850152600160981b810490921661014084015263ffffffff600160a81b83048116610160850152600160c81b830416610180840152919391926101a0850192600160e81b90920490911690811115611868576118686140a7565b6002811115611879576118796140a7565b815260200160018201805461188d9061498b565b80601f01602080910402602001604051908101604052809291908181526020018280546118b99061498b565b80156119065780601f106118db57610100808354040283529160200191611906565b820191906000526020600020905b8154815290600101906020018083116118e957829003601f168201915b50505050508152505090506000611924826060015161ffff16613094565b9050600061193c83610160015163ffffffff16613094565b90506000611951846080015161ffff16613094565b905060006119668560a0015161ffff16613094565b9050600061197b8660e0015161ffff16613094565b905060006119908760c0015161ffff16613094565b90506000611a4d6119a08b613094565b896101c00151600560008c6101a0015160028111156119c1576119c16140a7565b60028111156119d2576119d26140a7565b8152602001908152602001600020600660008d6101a0015160028111156119fb576119fb6140a7565b6002811115611a0c57611a0c6140a7565b81526020019081526020016000208a8c8b8b8b8b604051602001611a399a99989796959493929190614f82565b604051602081830303815290604052613192565b9050600081604051602001611a629190615205565b60408051601f198184030181529190529b9a5050505050505050505050565b8060018181548110611a9557611a95614b66565b600091825260209091206002909102015460ff16611ab257600080fd5b6000828152600c60205260409020548290611acc906132e6565b341015611aeb5760405162461bcd60e51b815260040161081d9061527a565b6000838152600c6020526040812054611b03906132e6565b90506000611b11823461495a565b90508015611b4857604051339082156108fc029083906000818181858888f19350505050158015611b46573d6000803e3d6000fd5b505b600060018681548110611b5d57611b5d614b66565b60009182526020909120600290910201805460ff1916911515919091179055611b8633866127b4565b600b54611b9d906001600160a01b031633876128c6565b6000858152600d60205260408082205490516001600160a01b039091169184156108fc02918591818181858888f19350505050158015611be1573d6000803e3d6000fd5b50505060009283525050600c60209081526040808320839055600d909152902080546001600160a01b0319169055565b60008160018181548110611c2757611c27614b66565b600091825260209091206002909102015460ff16611c4457600080fd5b50506000908152600c602052604090205490565b60008481526002602052604090205484906001600160a01b0316336001600160a01b031614611c995760405162461bcd60e51b815260040161081d90614ce2565b8460018181548110611cad57611cad614b66565b600091825260209091206002909102015460ff1615611ccb57600080fd5b8260018181548110611cdf57611cdf614b66565b600091825260209091206002909102015460ff1615611cfd57600080fd5b60008481526002602052604090205484906001600160a01b0316331415611d365760405162461bcd60e51b815260040161081d906152ca565b600060018981548110611d4b57611d4b614b66565b90600052602060002090600202019050428160000160199054906101000a900463ffffffff1663ffffffff161115611d955760405162461bcd60e51b815260040161081d9061531e565b611d9e816132ff565b60165463ffffffff168815612035576000888152600f60205260409020546001600160a01b0316336001600160a01b031614611dec5760405162461bcd60e51b815260040161081d90615370565b6000600e8981548110611e0157611e01614b66565b60009182526020918290206040805160a08101825291909201805463ffffffff80821684526401000000008204169483019490945261ffff600160401b8504169282019290925291606083019060ff600160501b909104166001811115611e6a57611e6a6140a7565b6001811115611e7b57611e7b6140a7565b81528154602090910190600160581b900460ff166002811115611ea057611ea06140a7565b6002811115611eb157611eb16140a7565b9052508051845491925063ffffffff908116600160a81b909204161015611eea5760405162461bcd60e51b815260040161081d906153d1565b600081606001516001811115611f0257611f026140a7565b1415611f43576040810151835461ffff918216600160481b9091049091161015611f3e5760405162461bcd60e51b815260040161081d9061543b565b611f79565b6040810151835461ffff918216600160381b9091049091161015611f795760405162461bcd60e51b815260040161081d906154a5565b60018354600160e81b900460ff166002811115611f9857611f986140a7565b148015611fba5750600081606001516001811115611fb857611fb86140a7565b145b80612001575060008354600160e81b900460ff166002811115611fdf57611fdf6140a7565b1480156120015750600181606001516001811115611fff57611fff6140a7565b145b1561202b576120246002826020015163ffffffff1661334b90919063ffffffff16565b9150612033565b806020015191505b505b60006001888154811061204a5761204a614b66565b600091825260208220600290910201915060056120688460046154b5565b61207291906154fe565b905060006120848d86868d8787613357565b905080156120a3576120958d613544565b61209e8a6135e8565b6120b5565b6120ac8d6135e8565b6120b58a613544565b7fbf30fbcd321ef240818144cebd3d57345fa6d5d053a6778754a84a8478272f32816040516120e49190613f48565b60405180910390a150505050505050505050505050565b33600090815260046020526040902054600161ffff90911610156121315760405162461bcd60e51b815260040161081d9061557f565b61213c8383836129ef565b3360009081526004602052604090205461215b9061ffff166001612f04565b6004600033610d0b565b6000818152600260205260409020546060906108d7906001600160a01b0316610ab4565b6000546001600160a01b031633146121b35760405162461bcd60e51b815260040161081d90614af8565b6001600160a01b0381166121d95760405162461bcd60e51b815260040161081d906155d2565b61125b81612f6e565b6001600160a01b0381166000908152600360205260408120546060918167ffffffffffffffff81111561221757612217614647565b60405190808252806020026020018201604052801561225057816020015b61223d613d3c565b8152602001906001900390816122355790505b5090508161225f579392505050565b6000805b600154811015610c91576000818152600260205260409020546001600160a01b03878116911614156124a7576040518060400160405280600183815481106122ad576122ad614b66565b6000918252602091829020604080516101e0810182526002938402909201805460ff8082161515855261ffff61010080840482169887019890985263010000008304811694860194909452600160281b820484166060860152600160381b820484166080860152600160481b8204841660a0860152600160581b8204841660c0860152600160681b8204841660e0860152600160781b8204841696850196909652600160881b81048316610120850152600160981b810490921661014084015263ffffffff600160a81b83048116610160850152600160c81b830416610180840152919391926101a0850192600160e81b909204909116908111156123b4576123b46140a7565b60028111156123c5576123c56140a7565b81526020016001820180546123d99061498b565b80601f01602080910402602001604051908101604052809291908181526020018280546124059061498b565b80156124525780601f1061242757610100808354040283529160200191612452565b820191906000526020600020905b81548152906001019060200180831161243557829003601f168201915b50505050508152505081526020018281525083838151811061247657612476614b66565b6020026020010181905250818061248c90614b7c565b925050838061249a90614b97565b945050836124a757610c91565b806124b181614b7c565b915050612263565b8260018163ffffffff1610156124e15760405162461bcd60e51b815260040161081d90615631565b8260008160018111156124f6576124f66140a7565b148061251357506001816001811115612511576125116140a7565b145b61252f5760405162461bcd60e51b815260040161081d9061568f565b826000816002811115612544576125446140a7565b14806125615750600181600281111561255f5761255f6140a7565b145b8061257d5750600281600281111561257b5761257b6140a7565b145b6125995760405162461bcd60e51b815260040161081d9061568f565b6000808560028111156125ae576125ae6140a7565b14156125b8575060085b60018560028111156125cc576125cc6140a7565b14156125d6575060065b60028560028111156125ea576125ea6140a7565b14156125f4575060035b600e6040518060a001604052808963ffffffff1681526020016126178a89613656565b63ffffffff1681526020018361ffff16815260200188600181111561263e5761263e6140a7565b8152602001876002811115612655576126556140a7565b9052815460018181018455600093845260209384902083519201805494840151604085015161ffff16600160401b0269ffff00000000000000001963ffffffff9283166401000000000267ffffffffffffffff199098169290951691909117959095179283168517815560608401519394909392849260ff60501b199092166affffff0000000000000000199091161790600160501b9084908111156126fd576126fd6140a7565b021790555060808201518154829060ff60581b1916600160581b836002811115612729576127296140a7565b0217905550505087600f60006001600e80549050612747919061495a565b81526020808201929092526040908101600090812080546001600160a01b0319166001600160a01b03958616179055928b168352601090915290205461278e906001612f1c565b6001600160a01b0390981660009081526010602052604090209790975550505050505050565b600081815260096020908152604080832080546001600160a01b0319166001600160a01b038781169182179092556002909352818420549151859492909116917f8c5be1e5ebec7d5bd14f71427d1e84f3dd0314c0f7b2291e5b200ac8c7c3b92591a45050565b6000818152600260205260408120546001600160a01b031661284f5760405162461bcd60e51b815260040161081d906156e8565b6000828152600260205260409020546001600160a01b039081169084168114806128925750836001600160a01b03166128878461096f565b6001600160a01b0316145b80610fd257506001600160a01b038082166000908152600a602090815260408083209388168352929052205460ff16610fd2565b6000818152600260205260409020546001600160a01b038481169116146128ff5760405162461bcd60e51b815260040161081d9061573a565b6001600160a01b0382166129255760405162461bcd60e51b815260040161081d9061578b565b6129306000826127b4565b6001600160a01b0383166000908152600360205260409020546129549060016136d2565b6001600160a01b038085166000908152600360205260408082209390935590841681522054612984906001612f1c565b6001600160a01b038084166000818152600360209081526040808320959095558582526002905283812080546001600160a01b031916831790559251849391928716917fddf252ad1be2c89b69c2b068fc378daa952ba7f163c4a11628f55a4df523b3ef91a4505050565b828280612a0e5760405162461bcd60e51b815260040161081d906157ea565b826000816002811115612a2357612a236140a7565b1480612a4057506001816002811115612a3e57612a3e6140a7565b145b80612a5c57506002816002811115612a5a57612a5a6140a7565b145b612a785760405162461bcd60e51b815260040161081d9061584a565b85858080601f01602080910402602001604051908101604052809392919081815260200183838082843760009201829052509250612ab991503390506121e2565b90506000805b8251811015612b1457612af4838281518110612add57612add614b66565b6020026020010151600001516101c00151856136de565b15612b025760019150612b14565b80612b0c81614b7c565b915050612abf565b508015612b335760405162461bcd60e51b815260040161081d906158b4565b604080516101e08101825260008082526020820181905291810182905260646060820181905260016080830181905260a0830181905260c0830181905260e08301819052610100830184905261012083019190915261014082019290925261016081018290526101808101612bc8427f0000000000000000000000000000000000000000000000000000000000000000612f1c565b63ffffffff168152602001896002811115612be557612be56140a7565b81526020018b8b8080601f016020809104026020016040519081016040528093929190818152602001838380828437600081840152601f19601f82011690508083019250505050505050815250908060018154018082558091505060019003906000526020600020906002020160009091909190915060008201518160000160006101000a81548160ff02191690831515021790555060208201518160000160016101000a81548161ffff021916908361ffff16021790555060408201518160000160036101000a81548161ffff021916908361ffff16021790555060608201518160000160056101000a81548161ffff021916908361ffff16021790555060808201518160000160076101000a81548161ffff021916908361ffff16021790555060a08201518160000160096101000a81548161ffff021916908361ffff16021790555060c082015181600001600b6101000a81548161ffff021916908361ffff16021790555060e082015181600001600d6101000a81548161ffff021916908361ffff16021790555061010082015181600001600f6101000a81548161ffff021916908361ffff1602179055506101208201518160000160116101000a81548161ffff021916908361ffff1602179055506101408201518160000160136101000a81548161ffff021916908361ffff1602179055506101608201518160000160156101000a81548163ffffffff021916908363ffffffff1602179055506101808201518160000160196101000a81548163ffffffff021916908363ffffffff1602179055506101a082015181600001601d6101000a81548160ff02191690836002811115612e5757612e576140a7565b02179055506101c08201518051612e78916001840191602090910190613d4f565b50506001805460009250612e8c919061495a565b600081815260026020908152604080832080546001600160a01b0319163390811790915583526003909152902054909150612ec8906001612f1c565b33600081815260036020526040902091909155612ee59082613737565b50505050505050505050565b6000612efd82846158c4565b9392505050565b6000612efd82846158ed565b6000612efd8284615900565b6000612efd828461591a565b60006064612f5a61ffff7f00000000000000000000000000000000000000000000000000000000000000001684615900565b612f64919061592d565b6108d7908361591a565b600080546001600160a01b038381166001600160a01b0319831681178455604051919092169283917f8be0079c531659141344cd1fd0a4f28419497f9722a3daafe3b4186f6b6457e09190a35050565b816001600160a01b0316836001600160a01b03161415612ff05760405162461bcd60e51b815260040161081d90615969565b6001600160a01b038381166000818152600a602090815260408083209487168084529490915290819020805460ff1916851515179055517f17307eab39ab6107e8899845ad3d59bd9653f200f220920489ca2b5937696c3190613054908590613f48565b60405180910390a3505050565b61306c8484846128c6565b61307884848484613751565b6117445760405162461bcd60e51b815260040161081d906159c8565b6060816130b85750506040805180820190915260018152600360fc1b602082015290565b8160005b81156130e257806130cc81614b7c565b91506130db9050600a8361592d565b91506130bc565b60008167ffffffffffffffff8111156130fd576130fd614647565b6040519080825280601f01601f191660200182016040528015613127576020820181803683370190505b5090505b8415610fd25761313c60018361495a565b9150613149600a866159d8565b61315490603061591a565b60f81b81838151811061316957613169614b66565b60200101906001600160f81b031916908160001a90535061318b600a8661592d565b945061312b565b60608151600014156131b257505060408051602081019091526000815290565b6000604051806060016040528060408152602001615b9a60409139905060006003845160026131e1919061591a565b6131eb919061592d565b6131f6906004615900565b67ffffffffffffffff81111561320e5761320e614647565b6040519080825280601f01601f191660200182016040528015613238576020820181803683370190505b509050600182016020820185865187015b808210156132a4576003820191508151603f8160121c168501518453600184019350603f81600c1c168501518453600184019350603f8160061c168501518453600184019350603f8116850151845360018401935050613249565b50506003865106600181146132c057600281146132d3576132db565b603d6001830353603d60028303536132db565b603d60018303535b509195945050505050565b600060156132f5836014615900565b6108d7919061592d565b6133297f00000000000000000000000000000000000000000000000000000000000000004261591a565b815463ffffffff91909116600160c81b0263ffffffff60c81b19909116179055565b6000612efd82846154b5565b8454600090600160281b900461ffff1660028754600160e81b900460ff166002811115613386576133866140a7565b14156133e0576133a163ffffffff80831690600f9061384f16565b87549091506000906133c69063ffffffff600160a81b90910481169060059061334b16565b90506133dc63ffffffff80841690839061384f16565b9150505b8354600160281b900461ffff1660028554600160e81b900460ff16600281111561340c5761340c6140a7565b14156134665761342763ffffffff80831690600f9061384f16565b885490915060009061344c9063ffffffff600160a81b90910481169060059061334b16565b905061346263ffffffff80841690839061384f16565b9150505b600a61347382600b6154b5565b61347d91906154fe565b905060005b88546134ac908b908a90600160681b900461ffff16338a548c90600160581b900461ffff1661385b565b905061ffff811663ffffffff8316116134cb576001935050505061353a565b6134d961ffff8216836159f0565b86549092506135069088908790600160681b900461ffff16338d548f90600160581b900461ffff1661385b565b905061ffff811663ffffffff841611613525576000935050505061353a565b61353361ffff8216846159f0565b9250613482565b9695505050505050565b60006001828154811061355957613559614b66565b60009182526020909120600290910201805490915061358290610100900461ffff166001612ef1565b815462ffff00191661010061ffff92831602178083556135ac91600160781b909104166028612ef1565b815461ffff60781b1916600160781b61ffff928316810291909117808455600160881b810483169190049091161061170e5761170e818361396e565b6000600182815481106135fd576135fd614b66565b600091825260209091206002909102018054909150613628906301000000900461ffff166001612ef1565b815464ffff0000001916630100000061ffff92831602178083556135ac91600160781b909104166019612ef1565b6000600282600281111561366c5761366c6140a7565b141561368e5761368763ffffffff8085169060029061334b16565b90506108d7565b60008260028111156136a2576136a26140a7565b14156136bd5761368763ffffffff8085169060049061334b16565b612efd63ffffffff8085169060039061334b16565b6000612efd828461495a565b6000816040516020016136f19190615a07565b60405160208183030381529060405280519060200120836040516020016137189190615a07565b6040516020818303038152906040528051906020012014905092915050565b61170e828260405180602001604052806000815250613b01565b60006001600160a01b0384163b1561384457604051630a85bd0160e11b81526001600160a01b0385169063150b7a0290613795903390899088908890600401615a13565b6020604051808303816000875af19250505080156137d0575060408051601f3d908101601f191682019092526137cd91810190615a58565b60015b61382a573d8080156137fe576040519150601f19603f3d011682016040523d82523d6000602084013e613803565b606091505b5080516138225760405162461bcd60e51b815260040161081d906159c8565b805181602001fd5b6001600160e01b031916630a85bd0160e11b149050610fd2565b506001949350505050565b6000612efd8284615a79565b60006138678483613b34565b156138b05782877fcce4f0668cb0ecd051f3e42f34aaff29f7fc1d9554bcf8d825cb4960f15a9e776000806040516138a0929190615ab8565b60405180910390a350600061353a565b6138ba8486613b34565b1561392b5782877fcce4f0668cb0ecd051f3e42f34aaff29f7fc1d9554bcf8d825cb4960f15a9e776138f763ffffffff808b169060029061334b16565b6001604051613907929190615ad3565b60405180910390a361392463ffffffff8088169060029061334b16565b905061353a565b82877fcce4f0668cb0ecd051f3e42f34aaff29f7fc1d9554bcf8d825cb4960f15a9e7788600060405161395f929190615ad3565b60405180910390a3508461353a565b815461398690600160881b900461ffff166064612ef1565b825461ffff91909116600160881b0261ffff60881b19909116178083556139c09063ffffffff600160a81b90910481169060019061384f16565b825463ffffffff60a81b1916600160a81b63ffffffff92831602178084556139f891600160281b90910461ffff1690600a90612ef116565b825466ffff00000000001916600160281b61ffff9283160217808455613a2891600160981b909104166001612ef1565b825461ffff91909116600160981b0261ffff60981b1990911617808355613a629063ffffffff600160a81b909104811690600a90613bc116565b63ffffffff1661170e576000818152600260209081526040808320546001600160a01b0316808452600490925290912054613aa29061ffff166001612ef1565b6001600160a01b0382166000908152600460205260409020805461ffff191661ffff92909216919091179055613ad781613bcd565b15610a3d578254610a3d908290600160a81b900463ffffffff16613afa82613c1c565b60026124b9565b613b0b8383613c6b565b613b186000848484613751565b610a3d5760405162461bcd60e51b815260040161081d906159c8565b600080613b4661ffff84166002615900565b613b5190600561591a565b601554909150613b62906001612f1c565b6015819055604051600091613ba291606491613b849142918a91602001615b09565b60408051601f19818403018152919052805160209091012090613ccd565b9050818111613bb6576001925050506108d7565b506000949350505050565b6000612efd8284615b40565b601554600090613bde906001612f1c565b6015819055604051600091613c0091606491613b849142918891602001615b09565b905060288111613c135750600192915050565b50600092915050565b601554600090613c2d906001612f1c565b6015819055604051600091613c4f91606491613b849142918891602001615b09565b905060328111613c625750600092915050565b50600192915050565b6001600160a01b038216613c915760405162461bcd60e51b815260040161081d90615b89565b60405181906001600160a01b038416906000907fddf252ad1be2c89b69c2b068fc378daa952ba7f163c4a11628f55a4df523b3ef908290a45050565b6000612efd82846159d8565b6040805160e0810182526000918101828152606082018390526080820183905260a0820183905260c08201929092529081905b8152602001600081525090565b604051806060016040528060006001600160a01b03168152602001613d0c613dd3565b6040518060400160405280613d0c613dd3565b828054613d5b9061498b565b90600052602060002090601f016020900481019282613d7d5760008555613dc3565b82601f10613d9657805160ff1916838001178555613dc3565b82800160010185558215613dc3579182015b82811115613dc3578251825591602001919060010190613da8565b50613dcf929150613e4f565b5090565b604080516101e081018252600080825260208201819052918101829052606081018290526080810182905260a0810182905260c0810182905260e0810182905261010081018290526101208101829052610140810182905261016081018290526101808101829052906101a08201908152602001606081525090565b5b80821115613dcf5760008155600101613e50565b63ffffffff81165b811461125b57600080fd5b80356108d781613e64565b6002811061125b57600080fd5b80356108d781613e82565b6003811061125b57600080fd5b80356108d781613e9a565b600080600060608486031215613eca57613eca600080fd5b6000613ed68686613e77565b9350506020613ee786828701613e8f565b9250506040613ef886828701613ea7565b9150509250925092565b6001600160e01b03198116613e6c565b80356108d781613f02565b600060208284031215613f3257613f32600080fd5b6000610fd28484613f12565b8015155b82525050565b602081016108d78284613f3e565b60005b83811015613f71578181015183820152602001613f59565b838111156117445750506000910152565b6000613f8c825190565b808452602084019350613fa3818560208601613f56565b601f01601f19169290920192915050565b60208082528101612efd8184613f82565b80613e6c565b80356108d781613fc5565b600060208284031215613feb57613feb600080fd5b6000610fd28484613fcb565b60006001600160a01b0382166108d7565b613f4281613ff7565b602081016108d78284614008565b613e6c81613ff7565b80356108d78161401f565b6000806040838503121561404957614049600080fd5b60006140558585614028565b925050602061406685828601613fcb565b9150509250929050565b60006020828403121561408557614085600080fd5b6000610fd28484614028565b63ffffffff8116613f42565b61ffff8116613f42565b634e487b7160e01b600052602160045260246000fd5b6002811061125b5761125b6140a7565b806140d7816140bd565b919050565b60006108d7826140cd565b613f42816140dc565b6003811061125b5761125b6140a7565b806140d7816140f0565b60006108d782614100565b613f428161410a565b805160a083019061412f8482614091565b5060208201516141426020850182614091565b506040820151614155604085018261409d565b50606082015161416860608501826140e7565b5060808201516117446080850182614115565b80613f42565b805160c0830190614192848261411e565b50602082015161174460a085018261417b565b60006141b18383614181565b505060c00190565b60006141c3825190565b80845260209384019383018060005b838110156141f75781516141e688826141a5565b9750602083019250506001016141d2565b509495945050505050565b60208082528101612efd81846141b9565b60008060006060848603121561422b5761422b600080fd5b60006142378686614028565b935050602061424886828701614028565b9250506040613ef886828701613fcb565b60008083601f84011261426e5761426e600080fd5b50813567ffffffffffffffff81111561428957614289600080fd5b6020830191508360018202830111156142a4576142a4600080fd5b9250929050565b6000806000604084860312156142c3576142c3600080fd5b833567ffffffffffffffff8111156142dd576142dd600080fd5b6142e986828701614259565b93509350506020613ef886828701613ea7565b61ffff8116613e6c565b80356108d7816142fc565b600080600080600060a0868803121561432c5761432c600080fd5b60006143388888613fcb565b955050602061434988828901614306565b945050604061435a88828901614306565b935050606061436b88828901614306565b925050608061437c88828901614306565b9150509295509295909350565b6000806040838503121561439f5761439f600080fd5b60006143ab8585613e77565b925050602061406685828601613ea7565b602081016108d7828461417b565b600080604083850312156143e0576143e0600080fd5b60006140558585613fcb565b602081016108d7828461409d565b80516000906101e084019061440f8582613f3e565b506020830151614422602086018261409d565b506040830151614435604086018261409d565b506060830151614448606086018261409d565b50608083015161445b608086018261409d565b5060a083015161446e60a086018261409d565b5060c083015161448160c086018261409d565b5060e083015161449460e086018261409d565b506101008301516144a961010086018261409d565b506101208301516144be61012086018261409d565b506101408301516144d361014086018261409d565b506101608301516144e8610160860182614091565b506101808301516144fd610180860182614091565b506101a08301516145126101a0860182614115565b506101c08301518482036101c086015261452c8282613f82565b95945050505050565b805160009060608401906145498582614008565b506020830151848203602086015261456182826143fa565b9150506040830151614576604086018261417b565b509392505050565b6000612efd8383614535565b6000614594825190565b808452602084019350836020820285016145ae8560200190565b8060005b858110156145e357848403895281516145cb858261457e565b94506020830160209a909a01999250506001016145b2565b5091979650505050505050565b60208082528101612efd818461458a565b801515613e6c565b80356108d781614601565b6000806040838503121561462a5761462a600080fd5b60006146368585614028565b925050602061406685828601614609565b634e487b7160e01b600052604160045260246000fd5b601f19601f830116810181811067ffffffffffffffff8211171561468357614683614647565b6040525050565b600061469560405190565b90506140d7828261465d565b600067ffffffffffffffff8211156146bb576146bb614647565b601f19601f83011660200192915050565b82818337506000910152565b60006146eb6146e6846146a1565b61468a565b90508281526020810184848401111561470657614706600080fd5b6145768482856146cc565b600082601f83011261472557614725600080fd5b8135610fd28482602086016146d8565b6000806000806080858703121561474e5761474e600080fd5b600061475a8787614028565b945050602061476b87828801614028565b935050604061477c87828801613fcb565b925050606085013567ffffffffffffffff81111561479c5761479c600080fd5b6147a887828801614711565b91505092959194509250565b600080600080608085870312156147cd576147cd600080fd5b60006147d98787613fcb565b94505060206147ea87828801614609565b93505060406147fb87828801613fcb565b92505060606147a887828801613fcb565b6000806040838503121561482257614822600080fd5b600061482e8585614028565b925050602061406685828601614028565b805160408084526000919084019061485782826143fa565b9150506020830151614576602086018261417b565b6000612efd838361483f565b6000614882825190565b8084526020840193508360208202850161489c8560200190565b8060005b858110156145e357848403895281516148b9858261486c565b94506020830160209a909a01999250506001016148a0565b60208082528101612efd8184614878565b603281526000602082017f596f752073656e7420696e73756666696369656e742045544820666f7220666f8152717267696e67207468697320776561706f6e2160701b602082015291505b5060400190565b602080825281016108d7816148e2565b634e487b7160e01b600052601160045260246000fd5b6000825b92508282101561497057614970614944565b500390565b634e487b7160e01b600052602260045260246000fd5b60028104600182168061499f57607f821691505b602082108114156112db576112db614975565b602c81526000602082017f4552433732313a20617070726f76656420717565727920666f72206e6f6e657881526b34b9ba32b73a103a37b5b2b760a11b6020820152915061492d565b602080825281016108d7816149b2565b602181526000602082017f4552433732313a20617070726f76616c20746f2063757272656e74206f776e658152603960f91b6020820152915061492d565b602080825281016108d781614a0b565b603881526000602082017f4552433732313a20617070726f76652063616c6c6572206973206e6f74206f7781527f6e6572206e6f7220617070726f76656420666f7220616c6c00000000000000006020820152915061492d565b602080825281016108d781614a59565b60208082527f4f776e61626c653a2063616c6c6572206973206e6f7420746865206f776e6572910190815260005b5060200190565b602080825281016108d781614ac3565b603181526000602082017f43616e6e6f7420736574204e465420686f6c646572206164647265737320746f81527020746865207a65726f206164647265737360781b6020820152915061492d565b602080825281016108d781614b08565b634e487b7160e01b600052603260045260246000fd5b6000600019821415614b9057614b90614944565b5060010190565b600081614ba657614ba6614944565b506000190190565b603181526000602082017f4552433732313a207472616e736665722063616c6c6572206973206e6f74206f8152701ddb995c881b9bdc88185c1c1c9bdd9959607a1b6020820152915061492d565b602080825281016108d781614bae565b605c81526000602082017f596f7520616c7265616479206861766520666967687465727320696e20796f7581527f72204261727261636b732120456e74657220746865204172656e6120616e642060208201527f6561726e20796f757273656c66206d6f72652046696768746572732100000000604082015291505b5060600190565b602080825281016108d781614c0c565b602681526000602082017f596f7520617265206e6f7420746865206f776e6572206f66207468697320466981526567687465722160d01b6020820152915061492d565b602080825281016108d781614c9f565b604d81526000602082017f596f7520646f206e6f74206861766520656e6f75676820617661696c61626c6581527f207370656e6461626c6520706f696e747320696e206f7264657220746f20646f60208201526c207468697320616374696f6e2160981b60408201529150614c88565b602080825281016108d781614cf2565b602c81526000602082017f596f752063616e6e6f742073656c6c206f72206769667420796f7572206f6e6c81526b79206368617261637465722160a01b6020820152915061492d565b602080825281016108d781614d72565b602981526000602082017f4552433732313a206f776e657220717565727920666f72206e6f6e657869737481526832b73a103a37b5b2b760b91b6020820152915061492d565b602080825281016108d781614dcb565b602a81526000602082017f4552433732313a2062616c616e636520717565727920666f7220746865207a65815269726f206164647265737360b01b6020820152915061492d565b602080825281016108d781614e21565b602381526000602082017f43616e6e6f742067696674204e465420746f20746865207a65726f206164647281526265737360e81b6020820152915061492d565b602080825281016108d781614e78565b6000614ed2825190565b614ee0818560208601613f56565b9290920192915050565b60008154614ef78161498b565b600182168015614f0e5760018114614f1f57614f4f565b60ff19831686528186019350614f4f565b60008581526020902060005b83811015614f4757815488820152600190910190602001614f2b565b838801955050505b50505092915050565b7f7b2274726169745f74797065223a20224c75636b222c202276616c7565223a2081526000614af1565b737b226e616d65223a20225b46696768746572202360601b81526014016000614fab828d614ec8565b6302e9016960e51b81526004019150614fc4828c614ec8565b640103a3432960dd1b81526005019150614fde828b614eea565b7f222c20226465736372697074696f6e223a202254686973204e4654207265707281527f6573656e747320612043727970746f4172656e61332e3020466967687465722160208201526c1116101134b6b0b3b2911d101160991b6040820152604d01915061504c828a614eea565b7f222c202261747472696275746573223a205b7b2274726169745f74797065223a815272010113632bb32b6111610113b30b63ab2911d1606d1b6020820152603301915061509a8289614ec8565b611f4b60f21b81527f7b2274726169745f74797065223a20224865616c746820506f696e7473222c206002820152680113b30b63ab2911d160bd1b6022820152602b0191506150e98288614ec8565b611f4b60f21b81527f7b2274726169745f74797065223a2022537472656e677468222c202276616c75600282015263032911d160e51b602282015260260191506151338287614ec8565b611f4b60f21b81527f7b2274726169745f74797065223a20224167696c697479222c202276616c75656002820152620111d160ed1b6022820152602501915061517c8286614ec8565b611f4b60f21b8152600201915061519282614f58565b915061519e8285614ec8565b611f4b60f21b81527f7b2274726169745f74797065223a2022446578746572697479222c202276616c60028201526403ab2911d160dd1b602282015260270191506151e98284614ec8565b627d5d7d60e81b81526003019c9b505050505050505050505050565b7f646174613a6170706c69636174696f6e2f6a736f6e3b6261736536342c0000008152601d016000612efd8284614ec8565b602681526000602082017f596f752073656e7420696e73756666696369656e742045544820666f7220466981526567687465722160d01b6020820152915061492d565b602080825281016108d781615237565b602381526000602082017f596f752063616e6e6f742061747461636b20796f7572206f776e20466967687481526265722160e81b6020820152915061492d565b602080825281016108d78161528a565b602781526000602082017f596f75722066696768746572206973206e6f742079657420726561647920746f8152662066696768742160c81b6020820152915061492d565b602080825281016108d7816152da565b602581526000602082017f596f7520617265206e6f7420746865206f776e6572206f66207468697320576581526461706f6e2160d81b6020820152915061492d565b602080825281016108d78161532e565b603481526000602082017f596f752063616e6e6f7420757365207468697320776561706f6e2c20796f7572815273206c6576656c20697320746f6f20736d616c6c2160601b6020820152915061492d565b602080825281016108d781615380565b603f81526000602082017f596f752063616e6e6f7420757365207468697320776561706f6e2c20796f757281527f206167696c69747920736b696c6c20697320696e73756666696369656e7421006020820152915061492d565b602080825281016108d7816153e1565b604081526000602082017f596f752063616e6e6f7420757365207468697320776561706f6e2c20796f757281527f20737472656e67746820736b696c6c20697320696e73756666696369656e74216020820152915061492d565b602080825281016108d78161544b565b600063ffffffff8216915063ffffffff831692508163ffffffff04831182151516156154e3576154e3614944565b500290565b634e487b7160e01b600052601260045260246000fd5b600063ffffffff8216915063ffffffff83165b925082615520576155206154e8565b500490565b603981526000602082017f596f7520646f206e6f74206861766520616e7920617661696c61626c6520707581527f70696c732120466967687420746f206561726e206d6f726521000000000000006020820152915061492d565b602080825281016108d781615525565b602681526000602082017f4f776e61626c653a206e6577206f776e657220697320746865207a65726f206181526564647265737360d01b6020820152915061492d565b602080825281016108d78161558f565b603281526000602082017f546865206c6576656c20796f7520696e73657274656420666f7220796f757220815271576561706f6e20697320696e76616c69642160701b6020820152915061492d565b602080825281016108d7816155e2565b603181526000602082017f546865207479706520796f7520696e73657274656420666f7220796f757220578152706561706f6e20697320696e76616c69642160781b6020820152915061492d565b602080825281016108d781615641565b602c81526000602082017f4552433732313a206f70657261746f7220717565727920666f72206e6f6e657881526b34b9ba32b73a103a37b5b2b760a11b6020820152915061492d565b602080825281016108d78161569f565b602581526000602082017f4552433732313a207472616e736665722066726f6d20696e636f72726563742081526437bbb732b960d91b6020820152915061492d565b602080825281016108d7816156f8565b602481526000602082017f4552433732313a207472616e7366657220746f20746865207a65726f206164648152637265737360e01b6020820152915061492d565b602080825281016108d78161574a565b603281526000602082017f546865206e616d6520796f7520696e73657274656420666f7220796f7572204681527169676874657220697320696e76616c69642160701b6020820152915061492d565b602080825281016108d78161579b565b603381526000602082017f54686520636c61737320796f7520696e73657274656420666f7220796f7572208152724669676874657220697320696e76616c69642160681b6020820152915061492d565b602080825281016108d7816157fa565b603781526000602082017f546865206e616d6520796f7520696e73657274656420666f7220796f7572204681527f69676874657220697320616c72656164792075736564210000000000000000006020820152915061492d565b602080825281016108d78161585a565b600061ffff8216915061ffff831692508261ffff038211156158e8576158e8614944565b500190565b600061ffff8216915061ffff831661495e565b60008160001904831182151516156154e3576154e3614944565b600082198211156158e8576158e8614944565b600082615511565b601981526000602082017f4552433732313a20617070726f766520746f2063616c6c65720000000000000081529150614af1565b602080825281016108d781615935565b603281526000602082017f4552433732313a207472616e7366657220746f206e6f6e20455243373231526581527131b2b4bb32b91034b6b83632b6b2b73a32b960711b6020820152915061492d565b602080825281016108d781615979565b6000825b9250826159eb576159eb6154e8565b500690565b600063ffffffff8216915063ffffffff831661495e565b6000612efd8284614ec8565b60808101615a218287614008565b615a2e6020830186614008565b615a3b604083018561417b565b818103606083015261353a8184613f82565b80516108d781613f02565b600060208284031215615a6d57615a6d600080fd5b6000610fd28484615a4d565b600063ffffffff8216915063ffffffff831692508263ffffffff038211156158e8576158e8614944565b600061ffff82166108d7565b613f4281615aa3565b60408101615ac68285615aaf565b612efd6020830184613f3e565b60408101615ac6828561409d565b60006108d78260601b90565b60006108d782615ae1565b613f42615b0482613ff7565b615aed565b6000615b15828661417b565b602082019150615b258285615af8565b601482019150615b35828461417b565b506020019392505050565b600063ffffffff8216915063ffffffff83166159dc565b60208082527f4552433732313a206d696e7420746f20746865207a65726f206164647265737391019081526000614af1565b602080825281016108d781615b5756fe4142434445464748494a4b4c4d4e4f505152535455565758595a6162636465666768696a6b6c6d6e6f707172737475767778797a303132333435363738392b2fa2646970667358221220c1e54193e4bab30440bc63be3085668cea139c5a51e213dc2cb1f46a3f40a49664736f6c634300080a0033",
  "linkReferences": {},
  "deployedLinkReferences": {}
}