{
  "_format": "hh-sol-artifact-1",
  "contractName": "Arena",
  "sourceName": "contracts/Arena.sol",
  "abi": [
    {
      "anonymous": false,
      "inputs": [
        {
          "indexed": true,
          "internalType": "address",
          "name": "owner",
          "type": "address"
        },
        {
          "indexed": true,
          "internalType": "address",
          "name": "approved",
          "type": "address"
        },
        {
          "indexed": true,
          "internalType": "uint256",
          "name": "tokenId",
          "type": "uint256"
        }
      ],
      "name": "Approval",
      "type": "event"
    },
    {
      "anonymous": false,
      "inputs": [
        {
          "indexed": true,
          "internalType": "address",
          "name": "owner",
          "type": "address"
        },
        {
          "indexed": true,
          "internalType": "address",
          "name": "operator",
          "type": "address"
        },
        {
          "indexed": false,
          "internalType": "bool",
          "name": "approved",
          "type": "bool"
        }
      ],
      "name": "ApprovalForAll",
      "type": "event"
    },
    {
      "anonymous": false,
      "inputs": [
        {
          "indexed": true,
          "internalType": "uint256",
          "name": "attackerId",
          "type": "uint256"
        },
        {
          "indexed": true,
          "internalType": "uint256",
          "name": "targetId",
          "type": "uint256"
        },
        {
          "indexed": false,
          "internalType": "uint16",
          "name": "damage",
          "type": "uint16"
        },
        {
          "indexed": false,
          "internalType": "bool",
          "name": "wasCritical",
          "type": "bool"
        }
      ],
      "name": "ArenaEvent",
      "type": "event"
    },
    {
      "anonymous": false,
      "inputs": [
        {
          "indexed": true,
          "internalType": "address",
          "name": "previousOwner",
          "type": "address"
        },
        {
          "indexed": true,
          "internalType": "address",
          "name": "newOwner",
          "type": "address"
        }
      ],
      "name": "OwnershipTransferred",
      "type": "event"
    },
    {
      "anonymous": false,
      "inputs": [
        {
          "indexed": true,
          "internalType": "address",
          "name": "from",
          "type": "address"
        },
        {
          "indexed": true,
          "internalType": "address",
          "name": "to",
          "type": "address"
        },
        {
          "indexed": true,
          "internalType": "uint256",
          "name": "tokenId",
          "type": "uint256"
        }
      ],
      "name": "Transfer",
      "type": "event"
    },
    {
      "anonymous": false,
      "inputs": [
        {
          "indexed": false,
          "internalType": "bool",
          "name": "youWon",
          "type": "bool"
        }
      ],
      "name": "WhoWon",
      "type": "event"
    },
    {
      "inputs": [],
      "name": "_collectBalance",
      "outputs": [],
      "stateMutability": "nonpayable",
      "type": "function"
    },
    {
      "inputs": [],
      "name": "_getFightersCount",
      "outputs": [
        {
          "internalType": "uint256",
          "name": "",
          "type": "uint256"
        }
      ],
      "stateMutability": "view",
      "type": "function"
    },
    {
      "inputs": [
        {
          "internalType": "uint256",
          "name": "latest",
          "type": "uint256"
        }
      ],
      "name": "_getLatestFighters",
      "outputs": [
        {
          "components": [
            {
              "internalType": "address",
              "name": "owner",
              "type": "address"
            },
            {
              "components": [
                {
                  "internalType": "bool",
                  "name": "isForSale",
                  "type": "bool"
                },
                {
                  "internalType": "uint16",
                  "name": "winCount",
                  "type": "uint16"
                },
                {
                  "internalType": "uint16",
                  "name": "lossCount",
                  "type": "uint16"
                },
                {
                  "internalType": "uint16",
                  "name": "HP",
                  "type": "uint16"
                },
                {
                  "internalType": "uint16",
                  "name": "strength",
                  "type": "uint16"
                },
                {
                  "internalType": "uint16",
                  "name": "agility",
                  "type": "uint16"
                },
                {
                  "internalType": "uint16",
                  "name": "dexterity",
                  "type": "uint16"
                },
                {
                  "internalType": "uint16",
                  "name": "luck",
                  "type": "uint16"
                },
                {
                  "internalType": "uint16",
                  "name": "currentXP",
                  "type": "uint16"
                },
                {
                  "internalType": "uint16",
                  "name": "levelUpXP",
                  "type": "uint16"
                },
                {
                  "internalType": "uint16",
                  "name": "spendablePoints",
                  "type": "uint16"
                },
                {
                  "internalType": "uint32",
                  "name": "level",
                  "type": "uint32"
                },
                {
                  "internalType": "uint32",
                  "name": "readyTime",
                  "type": "uint32"
                },
                {
                  "internalType": "enum FighterClass",
                  "name": "class",
                  "type": "uint8"
                },
                {
                  "internalType": "string",
                  "name": "name",
                  "type": "string"
                }
              ],
              "internalType": "struct FighterFactory.Fighter",
              "name": "fighter",
              "type": "tuple"
            },
            {
              "internalType": "uint256",
              "name": "id",
              "type": "uint256"
            }
          ],
          "internalType": "struct FighterFactory.FighterDTO[]",
          "name": "",
          "type": "tuple[]"
        }
      ],
      "stateMutability": "view",
      "type": "function"
    },
    {
      "inputs": [],
      "name": "_getMyAvailablePupils",
      "outputs": [
        {
          "internalType": "uint256",
          "name": "",
          "type": "uint256"
        }
      ],
      "stateMutability": "view",
      "type": "function"
    },
    {
      "inputs": [
        {
          "internalType": "address",
          "name": "_owner",
          "type": "address"
        }
      ],
      "name": "_getUserFighters",
      "outputs": [
        {
          "components": [
            {
              "components": [
                {
                  "internalType": "bool",
                  "name": "isForSale",
                  "type": "bool"
                },
                {
                  "internalType": "uint16",
                  "name": "winCount",
                  "type": "uint16"
                },
                {
                  "internalType": "uint16",
                  "name": "lossCount",
                  "type": "uint16"
                },
                {
                  "internalType": "uint16",
                  "name": "HP",
                  "type": "uint16"
                },
                {
                  "internalType": "uint16",
                  "name": "strength",
                  "type": "uint16"
                },
                {
                  "internalType": "uint16",
                  "name": "agility",
                  "type": "uint16"
                },
                {
                  "internalType": "uint16",
                  "name": "dexterity",
                  "type": "uint16"
                },
                {
                  "internalType": "uint16",
                  "name": "luck",
                  "type": "uint16"
                },
                {
                  "internalType": "uint16",
                  "name": "currentXP",
                  "type": "uint16"
                },
                {
                  "internalType": "uint16",
                  "name": "levelUpXP",
                  "type": "uint16"
                },
                {
                  "internalType": "uint16",
                  "name": "spendablePoints",
                  "type": "uint16"
                },
                {
                  "internalType": "uint32",
                  "name": "level",
                  "type": "uint32"
                },
                {
                  "internalType": "uint32",
                  "name": "readyTime",
                  "type": "uint32"
                },
                {
                  "internalType": "enum FighterClass",
                  "name": "class",
                  "type": "uint8"
                },
                {
                  "internalType": "string",
                  "name": "name",
                  "type": "string"
                }
              ],
              "internalType": "struct FighterFactory.Fighter",
              "name": "fighter",
              "type": "tuple"
            },
            {
              "internalType": "uint256",
              "name": "id",
              "type": "uint256"
            }
          ],
          "internalType": "struct FighterFactory.FighterBarracksDTO[]",
          "name": "",
          "type": "tuple[]"
        }
      ],
      "stateMutability": "view",
      "type": "function"
    },
    {
      "inputs": [
        {
          "internalType": "address",
          "name": "_owner",
          "type": "address"
        }
      ],
      "name": "_getUserWeapons",
      "outputs": [
        {
          "components": [
            {
              "components": [
                {
                  "internalType": "uint32",
                  "name": "levelReq",
                  "type": "uint32"
                },
                {
                  "internalType": "uint32",
                  "name": "damage",
                  "type": "uint32"
                },
                {
                  "internalType": "uint16",
                  "name": "skillReq",
                  "type": "uint16"
                },
                {
                  "internalType": "enum WeaponType",
                  "name": "weapType",
                  "type": "uint8"
                },
                {
                  "internalType": "enum WeaponTier",
                  "name": "tier",
                  "type": "uint8"
                }
              ],
              "internalType": "struct WeaponFactory.Weapon",
              "name": "weapon",
              "type": "tuple"
            },
            {
              "internalType": "uint256",
              "name": "id",
              "type": "uint256"
            }
          ],
          "internalType": "struct WeaponFactory.WeaponDTO[]",
          "name": "",
          "type": "tuple[]"
        }
      ],
      "stateMutability": "view",
      "type": "function"
    },
    {
      "inputs": [
        {
          "internalType": "uint256",
          "name": "id",
          "type": "uint256"
        }
      ],
      "name": "_getWeaponByFighterId",
      "outputs": [
        {
          "components": [
            {
              "components": [
                {
                  "internalType": "uint32",
                  "name": "levelReq",
                  "type": "uint32"
                },
                {
                  "internalType": "uint32",
                  "name": "damage",
                  "type": "uint32"
                },
                {
                  "internalType": "uint16",
                  "name": "skillReq",
                  "type": "uint16"
                },
                {
                  "internalType": "enum WeaponType",
                  "name": "weapType",
                  "type": "uint8"
                },
                {
                  "internalType": "enum WeaponTier",
                  "name": "tier",
                  "type": "uint8"
                }
              ],
              "internalType": "struct WeaponFactory.Weapon",
              "name": "weapon",
              "type": "tuple"
            },
            {
              "internalType": "uint256",
              "name": "id",
              "type": "uint256"
            }
          ],
          "internalType": "struct WeaponFactory.WeaponDTO[]",
          "name": "",
          "type": "tuple[]"
        }
      ],
      "stateMutability": "view",
      "type": "function"
    },
    {
      "inputs": [
        {
          "internalType": "address",
          "name": "to",
          "type": "address"
        },
        {
          "internalType": "uint256",
          "name": "tokenId",
          "type": "uint256"
        }
      ],
      "name": "approve",
      "outputs": [],
      "stateMutability": "nonpayable",
      "type": "function"
    },
    {
      "inputs": [
        {
          "internalType": "uint256",
          "name": "_myFighterId",
          "type": "uint256"
        },
        {
          "internalType": "bool",
          "name": "_hasOwnerWeapon",
          "type": "bool"
        },
        {
          "internalType": "uint256",
          "name": "_myWeaponId",
          "type": "uint256"
        },
        {
          "internalType": "uint256",
          "name": "_targetFighterId",
          "type": "uint256"
        }
      ],
      "name": "attack",
      "outputs": [],
      "stateMutability": "nonpayable",
      "type": "function"
    },
    {
      "inputs": [
        {
          "internalType": "address",
          "name": "owner",
          "type": "address"
        }
      ],
      "name": "balanceOf",
      "outputs": [
        {
          "internalType": "uint256",
          "name": "",
          "type": "uint256"
        }
      ],
      "stateMutability": "view",
      "type": "function"
    },
    {
      "inputs": [
        {
          "internalType": "uint256",
          "name": "_fighterId",
          "type": "uint256"
        }
      ],
      "name": "buyFighter",
      "outputs": [],
      "stateMutability": "payable",
      "type": "function"
    },
    {
      "inputs": [
        {
          "internalType": "address",
          "name": "newAddr",
          "type": "address"
        }
      ],
      "name": "changeNFTHolderAccount",
      "outputs": [],
      "stateMutability": "nonpayable",
      "type": "function"
    },
    {
      "inputs": [
        {
          "internalType": "uint32",
          "name": "_level",
          "type": "uint32"
        },
        {
          "internalType": "enum WeaponTier",
          "name": "_tier",
          "type": "uint8"
        }
      ],
      "name": "computeWeaponPrice",
      "outputs": [
        {
          "internalType": "uint256",
          "name": "",
          "type": "uint256"
        }
      ],
      "stateMutability": "view",
      "type": "function"
    },
    {
      "inputs": [
        {
          "internalType": "string",
          "name": "_givenName",
          "type": "string"
        },
        {
          "internalType": "enum FighterClass",
          "name": "_class",
          "type": "uint8"
        }
      ],
      "name": "createFirstFighter",
      "outputs": [],
      "stateMutability": "nonpayable",
      "type": "function"
    },
    {
      "inputs": [],
      "name": "feePercent",
      "outputs": [
        {
          "internalType": "uint16",
          "name": "",
          "type": "uint16"
        }
      ],
      "stateMutability": "view",
      "type": "function"
    },
    {
      "inputs": [
        {
          "internalType": "address",
          "name": "_owner",
          "type": "address"
        }
      ],
      "name": "fetchAvailablePupils",
      "outputs": [
        {
          "internalType": "uint16",
          "name": "",
          "type": "uint16"
        }
      ],
      "stateMutability": "view",
      "type": "function"
    },
    {
      "inputs": [
        {
          "internalType": "uint256",
          "name": "tokenId",
          "type": "uint256"
        }
      ],
      "name": "getApproved",
      "outputs": [
        {
          "internalType": "address",
          "name": "",
          "type": "address"
        }
      ],
      "stateMutability": "view",
      "type": "function"
    },
    {
      "inputs": [
        {
          "internalType": "uint256",
          "name": "fighterId",
          "type": "uint256"
        }
      ],
      "name": "getFighterPrice",
      "outputs": [
        {
          "internalType": "uint256",
          "name": "",
          "type": "uint256"
        }
      ],
      "stateMutability": "view",
      "type": "function"
    },
    {
      "inputs": [
        {
          "internalType": "uint256",
          "name": "fighterId",
          "type": "uint256"
        }
      ],
      "name": "getFighterSeller",
      "outputs": [
        {
          "internalType": "address",
          "name": "",
          "type": "address"
        }
      ],
      "stateMutability": "view",
      "type": "function"
    },
    {
      "inputs": [
        {
          "internalType": "address",
          "name": "receiver",
          "type": "address"
        },
        {
          "internalType": "uint256",
          "name": "_myFighterId",
          "type": "uint256"
        }
      ],
      "name": "giftFighter",
      "outputs": [],
      "stateMutability": "nonpayable",
      "type": "function"
    },
    {
      "inputs": [
        {
          "internalType": "address",
          "name": "owner",
          "type": "address"
        },
        {
          "internalType": "address",
          "name": "operator",
          "type": "address"
        }
      ],
      "name": "isApprovedForAll",
      "outputs": [
        {
          "internalType": "bool",
          "name": "",
          "type": "bool"
        }
      ],
      "stateMutability": "view",
      "type": "function"
    },
    {
      "inputs": [],
      "name": "name",
      "outputs": [
        {
          "internalType": "string",
          "name": "",
          "type": "string"
        }
      ],
      "stateMutability": "view",
      "type": "function"
    },
    {
      "inputs": [],
      "name": "owner",
      "outputs": [
        {
          "internalType": "address",
          "name": "",
          "type": "address"
        }
      ],
      "stateMutability": "view",
      "type": "function"
    },
    {
      "inputs": [
        {
          "internalType": "uint256",
          "name": "tokenId",
          "type": "uint256"
        }
      ],
      "name": "ownerOf",
      "outputs": [
        {
          "internalType": "address",
          "name": "",
          "type": "address"
        }
      ],
      "stateMutability": "view",
      "type": "function"
    },
    {
      "inputs": [
        {
          "internalType": "uint32",
          "name": "_level",
          "type": "uint32"
        },
        {
          "internalType": "enum WeaponType",
          "name": "_type",
          "type": "uint8"
        },
        {
          "internalType": "enum WeaponTier",
          "name": "_tier",
          "type": "uint8"
        }
      ],
      "name": "purchaseWeapon",
      "outputs": [],
      "stateMutability": "payable",
      "type": "function"
    },
    {
      "inputs": [
        {
          "internalType": "uint256",
          "name": "_myFighterId",
          "type": "uint256"
        },
        {
          "internalType": "uint256",
          "name": "price",
          "type": "uint256"
        }
      ],
      "name": "putUpForSale",
      "outputs": [],
      "stateMutability": "nonpayable",
      "type": "function"
    },
    {
      "inputs": [
        {
          "internalType": "string",
          "name": "_name",
          "type": "string"
        },
        {
          "internalType": "enum FighterClass",
          "name": "_class",
          "type": "uint8"
        }
      ],
      "name": "redeemAvailablePupil",
      "outputs": [],
      "stateMutability": "nonpayable",
      "type": "function"
    },
    {
      "inputs": [],
      "name": "renounceOwnership",
      "outputs": [],
      "stateMutability": "nonpayable",
      "type": "function"
    },
    {
      "inputs": [
        {
          "internalType": "address",
          "name": "from",
          "type": "address"
        },
        {
          "internalType": "address",
          "name": "to",
          "type": "address"
        },
        {
          "internalType": "uint256",
          "name": "tokenId",
          "type": "uint256"
        }
      ],
      "name": "safeTransferFrom",
      "outputs": [],
      "stateMutability": "nonpayable",
      "type": "function"
    },
    {
      "inputs": [
        {
          "internalType": "address",
          "name": "from",
          "type": "address"
        },
        {
          "internalType": "address",
          "name": "to",
          "type": "address"
        },
        {
          "internalType": "uint256",
          "name": "tokenId",
          "type": "uint256"
        },
        {
          "internalType": "bytes",
          "name": "_data",
          "type": "bytes"
        }
      ],
      "name": "safeTransferFrom",
      "outputs": [],
      "stateMutability": "nonpayable",
      "type": "function"
    },
    {
      "inputs": [
        {
          "internalType": "uint256",
          "name": "_fee",
          "type": "uint256"
        }
      ],
      "name": "setATierPrice",
      "outputs": [],
      "stateMutability": "nonpayable",
      "type": "function"
    },
    {
      "inputs": [
        {
          "internalType": "address",
          "name": "operator",
          "type": "address"
        },
        {
          "internalType": "bool",
          "name": "approved",
          "type": "bool"
        }
      ],
      "name": "setApprovalForAll",
      "outputs": [],
      "stateMutability": "nonpayable",
      "type": "function"
    },
    {
      "inputs": [
        {
          "internalType": "uint256",
          "name": "_fee",
          "type": "uint256"
        }
      ],
      "name": "setBTierPrice",
      "outputs": [],
      "stateMutability": "nonpayable",
      "type": "function"
    },
    {
      "inputs": [
        {
          "internalType": "uint256",
          "name": "_fee",
          "type": "uint256"
        }
      ],
      "name": "setFeePerLevel",
      "outputs": [],
      "stateMutability": "nonpayable",
      "type": "function"
    },
    {
      "inputs": [
        {
          "internalType": "uint256",
          "name": "_fee",
          "type": "uint256"
        }
      ],
      "name": "setSTierPrice",
      "outputs": [],
      "stateMutability": "nonpayable",
      "type": "function"
    },
    {
      "inputs": [
        {
          "internalType": "uint256",
          "name": "_fighterId",
          "type": "uint256"
        },
        {
          "internalType": "uint16",
          "name": "_STR",
          "type": "uint16"
        },
        {
          "internalType": "uint16",
          "name": "_AGL",
          "type": "uint16"
        },
        {
          "internalType": "uint16",
          "name": "_LCK",
          "type": "uint16"
        },
        {
          "internalType": "uint16",
          "name": "_DEX",
          "type": "uint16"
        }
      ],
      "name": "spendAvailablePoints",
      "outputs": [],
      "stateMutability": "nonpayable",
      "type": "function"
    },
    {
      "inputs": [
        {
          "internalType": "bytes4",
          "name": "interfaceId",
          "type": "bytes4"
        }
      ],
      "name": "supportsInterface",
      "outputs": [
        {
          "internalType": "bool",
          "name": "",
          "type": "bool"
        }
      ],
      "stateMutability": "view",
      "type": "function"
    },
    {
      "inputs": [],
      "name": "symbol",
      "outputs": [
        {
          "internalType": "string",
          "name": "",
          "type": "string"
        }
      ],
      "stateMutability": "view",
      "type": "function"
    },
    {
      "inputs": [
        {
          "internalType": "uint256",
          "name": "_id",
          "type": "uint256"
        }
      ],
      "name": "tokenURI",
      "outputs": [
        {
          "internalType": "string",
          "name": "",
          "type": "string"
        }
      ],
      "stateMutability": "view",
      "type": "function"
    },
    {
      "inputs": [
        {
          "internalType": "address",
          "name": "from",
          "type": "address"
        },
        {
          "internalType": "address",
          "name": "to",
          "type": "address"
        },
        {
          "internalType": "uint256",
          "name": "tokenId",
          "type": "uint256"
        }
      ],
      "name": "transferFrom",
      "outputs": [],
      "stateMutability": "nonpayable",
      "type": "function"
    },
    {
      "inputs": [
        {
          "internalType": "address",
          "name": "newOwner",
          "type": "address"
        }
      ],
      "name": "transferOwnership",
      "outputs": [],
      "stateMutability": "nonpayable",
      "type": "function"
    },
    {
      "stateMutability": "payable",
      "type": "receive"
    }
  ],
  "bytecode": "0x603c608052610100604052601360c08190527f43727970746f4172656e6146696768746572730000000000000000000000000060e0908152620000469160079190620003ae565b50604080518082019091526007808252662334b3b43a32b960c91b60209092019182526200007791600891620003ae565b50600560a052600b80546001600160a01b03191673308bcae2716ead370abec327978528ff21981c4f1790556602aa1efb94e0006011556601c6bf526340006012556605543df729c000601355660aa87bee53800060145560006015556016805463ffffffff1916600f179055348015620000f157600080fd5b50620000fd336200035e565b6040805180820190915260078152662bb0b93934b7b960c91b60208083019182526000805260059052905162000155917f05b8ccbb9d4d8fb16ea74ce3c29a41f1b461fbdaff4714a0d9a8eb05499746bc91620003ae565b5060408051808201909152600781526653616d7572616960c81b60208083019182526001600052600590529051620001af917f1471eb6eb2c5e789fc3de43f8ce62938c7d1836ec861730447e2ada8fd81017b91620003ae565b5060408051808201909152600580825264111c9d5a5960da1b6020808401918252600260005291909152905162000208917f89832631fb3c3307a103ba2c84ab569c64d6182a18893dcd163f0f1c2090733a91620003ae565b5060408051808201909152601f81527f68747470733a2f2f692e696d6775722e636f6d2f79684a4f7a4e542e706e670060208083019182526000805260069052905162000277917f54cdd369e4e8a8515e52ca72ec816c2101831ad1f18bf44102ed171459c9b4f891620003ae565b5060408051808201909152601f81527f68747470733a2f2f692e696d6775722e636f6d2f74744575656d7a2e706e670060208083019182526001600052600690529051620002e7917f3e5fec24aa4dc4e5aee2e025e51e1392c72a2500577559fae9665c6d52bd6a3191620003ae565b5060408051808201909152601f81527f68747470733a2f2f692e696d6775722e636f6d2f6153393246617a2e706e67006020808301918252600260005260069052905162000357917f8819ef417987f8ae7a81f42cdfb18815282fe989326fbff903d13cf0e03ace2991620003ae565b506200049b565b600080546001600160a01b038381166001600160a01b0319831681178455604051919092169283917f8be0079c531659141344cd1fd0a4f28419497f9722a3daafe3b4186f6b6457e09190a35050565b828054620003bc906200046a565b90600052602060002090601f016020900481019282620003e057600085556200042b565b82601f10620003fb57805160ff19168380011785556200042b565b828001600101855582156200042b579182015b828111156200042b5782518255916020019190600101906200040e565b50620004399291506200043d565b5090565b5b808211156200043957600081556001016200043e565b634e487b7160e01b600052602260045260246000fd5b6002810460018216806200047f57607f821691505b6020821081141562000495576200049562000454565b50919050565b60805160a051615bfb620004cf600039600081816104e60152612f39015260008181612ba901526133090152615bfb6000f3fe60806040526004361061024a5760003560e01c80638b2144a311610139578063c87b56dd116100b6578063d5f5da3b1161007a578063d5f5da3b146106f7578063dc93267614610717578063e985e9c51461073d578063ecfa934814610786578063f2fde38b146107a6578063f9d7f171146107c657600080fd5b8063c87b56dd1461066f578063cb74c2a81461068f578063cbb5bbbf146106a4578063ccc72842146106b7578063cfb8c2ad146106d757600080fd5b806395d89b41116100fd57806395d89b41146105cd5780639b1f87e8146105e25780639c42a2071461060f578063a22cb4651461062f578063b88d4fde1461064f57600080fd5b80638b2144a3146105155780638da5cb5b146105355780638f2fd16c14610553578063927eeddc1461057357806395d67c91146105ad57600080fd5b806342842e0e116101c75780637011c9561161018b5780637011c9561461046a57806370a082311461048a578063715018a6146104aa57806379003507146104bf5780637fd6f15c146104d457600080fd5b806342842e0e146103bd57806345a90c82146103dd5780634ed442ca146103fd5780635e96c6941461042a5780636352211e1461044a57600080fd5b80630a424b721161020e5780630a424b7214610310578063208ea9291461033057806323b872dd1461035d57806334405f531461037d5780634162a3fd1461039d57600080fd5b80630146adb21461025657806301ffc9a71461026b57806306fdde03146102a1578063081812fc146102c3578063095ea7b3146102f057600080fd5b3661025157005b600080fd5b610269610264366004613e9e565b6107f3565b005b34801561027757600080fd5b5061028b610286366004613f09565b61088b565b6040516102989190613f34565b60405180910390f35b3480156102ad57600080fd5b506102b66108dd565b6040516102989190613fa0565b3480156102cf57600080fd5b506102e36102de366004613fc2565b61096f565b6040516102989190613ffd565b3480156102fc57600080fd5b5061026961030b36600461401f565b6109bf565b34801561031c57600080fd5b5061026961032b36600461405c565b610a42565b34801561033c57600080fd5b5061035061034b36600461405c565b610ab4565b60405161029891906141ee565b34801561036957600080fd5b506102696103783660046141ff565b610c9b565b34801561038957600080fd5b50610269610398366004614297565b610ccc565b3480156103a957600080fd5b506102696103b83660046142fd565b610d3d565b3480156103c957600080fd5b506102696103d83660046141ff565b610f02565b3480156103e957600080fd5b506102696103f8366004613fc2565b610f1d565b34801561040957600080fd5b5061041d610418366004614375565b610f4c565b60405161029891906143a8565b34801561043657600080fd5b506102696104453660046143b6565b610fda565b34801561045657600080fd5b506102e3610465366004613fc2565b611128565b34801561047657600080fd5b50610269610485366004613fc2565b61115d565b34801561049657600080fd5b5061041d6104a536600461405c565b61118c565b3480156104b657600080fd5b506102696111d0565b3480156104cb57600080fd5b50610269611206565b3480156104e057600080fd5b506105087f000000000000000000000000000000000000000000000000000000000000000081565b60405161029891906143d8565b34801561052157600080fd5b50610269610530366004613fc2565b61125f565b34801561054157600080fd5b506000546001600160a01b03166102e3565b34801561055f57600080fd5b506102e361056e366004613fc2565b61128e565b34801561057f57600080fd5b5061050861058e36600461405c565b6001600160a01b031660009081526004602052604090205461ffff1690565b3480156105b957600080fd5b506102696105c8366004613fc2565b6112e2565b3480156105d957600080fd5b506102b6611311565b3480156105ee57600080fd5b506106026105fd366004613fc2565b611320565b60405161029891906145dc565b34801561061b57600080fd5b5061026961062a36600461401f565b611613565b34801561063b57600080fd5b5061026961064a366004614600565b611705565b34801561065b57600080fd5b5061026961066a366004614721565b611714565b34801561067b57600080fd5b506102b661068a366004613fc2565b61174c565b34801561069b57600080fd5b5060015461041d565b6102696106b2366004613fc2565b611a83565b3480156106c357600080fd5b5061041d6106d2366004613fc2565b611c13565b3480156106e357600080fd5b506102696106f23660046147a0565b611c5a565b34801561070357600080fd5b50610269610712366004614297565b612100565b34801561072357600080fd5b503360009081526004602052604090205461ffff1661041d565b34801561074957600080fd5b5061028b6107583660046147f8565b6001600160a01b039182166000908152600a6020908152604080832093909416825291909152205460ff1690565b34801561079257600080fd5b506103506107a1366004613fc2565b61216a565b3480156107b257600080fd5b506102696107c136600461405c565b61218e565b3480156107d257600080fd5b506107e66107e136600461405c565b6121e7565b60405161029891906148bd565b6107fd8382610f4c565b803410156108265760405162461bcd60e51b815260040161081d90614920565b60405180910390fd5b60006108328584610f4c565b905060006108408234614946565b9050801561087757604051339082156108fc029083906000818181858888f19350505050158015610875573d6000803e3d6000fd5b505b610883338787876124be565b505050505050565b60006001600160e01b031982166380ac58cd60e01b14806108bc57506001600160e01b03198216635b5e139f60e01b145b806108d757506301ffc9a760e01b6001600160e01b03198316145b92915050565b6060600780546108ec90614977565b80601f016020809104026020016040519081016040528092919081815260200182805461091890614977565b80156109655780601f1061093a57610100808354040283529160200191610965565b820191906000526020600020905b81548152906001019060200180831161094857829003601f168201915b5050505050905090565b6000818152600260205260408120546001600160a01b03166109a35760405162461bcd60e51b815260040161081d906149e7565b506000908152600960205260409020546001600160a01b031690565b6000818152600260205260409020546001600160a01b039081169083168114156109fb5760405162461bcd60e51b815260040161081d90614a35565b336001600160a01b0382161480610a175750610a178133610758565b610a335760405162461bcd60e51b815260040161081d90614a9f565b610a3d83836127b9565b505050565b6000546001600160a01b03163314610a6c5760405162461bcd60e51b815260040161081d90614ae4565b6001600160a01b038116610a925760405162461bcd60e51b815260040161081d90614b42565b600b80546001600160a01b0319166001600160a01b0392909216919091179055565b6001600160a01b0381166000908152601060205260408120546060918167ffffffffffffffff811115610ae957610ae9614633565b604051908082528060200260200182016040528015610b2257816020015b610b0f613cc5565b815260200190600190039081610b075790505b50905081610b31579392505050565b6000805b600e54811015610c91576000818152600f60205260409020546001600160a01b0387811691161415610c7f576040518060400160405280600e8381548110610b7f57610b7f614b52565b60009182526020918290206040805160a08101825291909201805463ffffffff80821684526401000000008204169483019490945261ffff600160401b8504169282019290925291606083019060ff600160501b909104166001811115610be857610be8614093565b6001811115610bf957610bf9614093565b81528154602090910190600160581b900460ff166002811115610c1e57610c1e614093565b6002811115610c2f57610c2f614093565b81525050815260200182815250838381518110610c4e57610c4e614b52565b60200260200101819052508180610c6490614b68565b9250508380610c7290614b83565b94505083610c7f57610c91565b80610c8981614b68565b915050610b35565b5090949350505050565b610ca53382612820565b610cc15760405162461bcd60e51b815260040161081d90614be8565b610a3d8383836128cb565b3360009081526003602052604090205415610cf95760405162461bcd60e51b815260040161081d90614c7b565b610d048383836129f4565b6000600481335b6001600160a01b031681526020810191909152604001600020805461ffff191661ffff92909216919091179055505050565b60008581526002602052604090205485906001600160a01b0316336001600160a01b031614610d7e5760405162461bcd60e51b815260040161081d90614cce565b600060018781548110610d9357610d93614b52565b60009182526020909120600290910201905085610db461ffff821687612ef6565b9050610dc461ffff821686612ef6565b9050610dd461ffff821685612ef6565b825490915061ffff600160981b90910481169082161115610e075760405162461bcd60e51b815260040161081d90614d4e565b8154610e1e90600160981b900461ffff1682612f09565b825461ffff60981b1916600160981b61ffff9283160217808455610e4b91600160381b9091041688612ef6565b825468ffff000000000000001916600160381b61ffff9283160217808455610e7c91600160481b9091041687612ef6565b82546affff0000000000000000001916600160481b61ffff9283160217808455610eaf91600160581b9091041685612ef6565b825461ffff60581b1916600160581b61ffff9283160217808455610edc91600160681b9091041686612ef6565b825461ffff91909116600160681b0261ffff60681b199091161790915550505050505050565b610a3d83838360405180602001604052806000815250611714565b6000546001600160a01b03163314610f475760405162461bcd60e51b815260040161081d90614ae4565b601155565b600080610f6a8463ffffffff16601154612f1590919063ffffffff16565b90506002836002811115610f8057610f80614093565b1415610f9c57601254610f94908290612f21565b9150506108d7565b6000836002811115610fb057610fb0614093565b1415610fc457601454610f94908290612f21565b601354610fd2908290612f21565b949350505050565b60008281526002602052604090205482906001600160a01b0316336001600160a01b03161461101b5760405162461bcd60e51b815260040161081d90614cce565b6000838152600260209081526040808320546001600160a01b0316835260039091529020548390600111156110625760405162461bcd60e51b815260040161081d90614da7565b826000811161107057600080fd5b846001818154811061108457611084614b52565b600091825260209091206002909102015460ff16156110a257600080fd5b6110b833600b546001600160a01b0316886128cb565b6110c185612f2d565b6000878152600c6020908152604080832093909355600d90522080546001600160a01b031916331790556001805481908890811061110157611101614b52565b60009182526020909120600290910201805460ff1916911515919091179055505050505050565b6000818152600260205260408120546001600160a01b0316806108d75760405162461bcd60e51b815260040161081d90614dfd565b6000546001600160a01b031633146111875760405162461bcd60e51b815260040161081d90614ae4565b601255565b60006001600160a01b0382166111b45760405162461bcd60e51b815260040161081d90614e54565b506001600160a01b031660009081526003602052604090205490565b6000546001600160a01b031633146111fa5760405162461bcd60e51b815260040161081d90614ae4565b6112046000612f73565b565b6000546001600160a01b031633146112305760405162461bcd60e51b815260040161081d90614ae4565b60405133904780156108fc02916000818181858888f1935050505015801561125c573d6000803e3d6000fd5b50565b6000546001600160a01b031633146112895760405162461bcd60e51b815260040161081d90614ae4565b601455565b600081600181815481106112a4576112a4614b52565b600091825260209091206002909102015460ff166112c157600080fd5b6000838152600d60205260409020546001600160a01b031691505b50919050565b6000546001600160a01b0316331461130c5760405162461bcd60e51b815260040161081d90614ae4565b601355565b6060600880546108ec90614977565b606060015482111561133157600080fd5b8161133c5760015491505b60008267ffffffffffffffff81111561135757611357614633565b60405190808252806020026020018201604052801561139057816020015b61137d613d05565b8152602001906001900390816113755790505b506001549091506113a15792915050565b6001805460009182916113b49190614946565b90505b6001546113c5908690614946565b811061160a5760408051606081018252600083815260026020908152929020546001600160a01b031681526001805491928301918490811061140957611409614b52565b6000918252602091829020604080516101e0810182526002938402909201805460ff8082161515855261ffff61010080840482169887019890985263010000008304811694860194909452600160281b820484166060860152600160381b820484166080860152600160481b8204841660a0860152600160581b8204841660c0860152600160681b8204841660e0860152600160781b8204841696850196909652600160881b81048316610120850152600160981b810490921661014084015263ffffffff600160a81b83048116610160850152600160c81b830416610180840152919391926101a0850192600160e81b9092049091169081111561151057611510614093565b600281111561152157611521614093565b815260200160018201805461153590614977565b80601f016020809104026020016040519081016040528092919081815260200182805461156190614977565b80156115ae5780601f10611583576101008083540402835291602001916115ae565b820191906000526020600020905b81548152906001019060200180831161159157829003601f168201915b5050505050815250508152602001828152508383815181106115d2576115d2614b52565b602002602001018190525081806115e890614b68565b925050848214156115f85761160a565b8061160281614b83565b9150506113b7565b50909392505050565b60008181526002602052604090205481906001600160a01b0316336001600160a01b0316146116545760405162461bcd60e51b815260040161081d90614cce565b6000828152600260209081526040808320546001600160a01b03168352600390915290205482906001111561169b5760405162461bcd60e51b815260040161081d90614da7565b82600181815481106116af576116af614b52565b600091825260209091206002909102015460ff16156116cd57600080fd5b6001600160a01b0385166116f35760405162461bcd60e51b815260040161081d90614ea4565b6116fe3386866128cb565b5050505050565b611710338383612fc3565b5050565b61171e3383612820565b61173a5760405162461bcd60e51b815260040161081d90614be8565b61174684848484613066565b50505050565b606060006001838154811061176357611763614b52565b6000918252602091829020604080516101e0810182526002938402909201805460ff8082161515855261ffff61010080840482169887019890985263010000008304811694860194909452600160281b820484166060860152600160381b820484166080860152600160481b8204841660a0860152600160581b8204841660c0860152600160681b8204841660e0860152600160781b8204841696850196909652600160881b81048316610120850152600160981b810490921661014084015263ffffffff600160a81b83048116610160850152600160c81b830416610180840152919391926101a0850192600160e81b9092049091169081111561186a5761186a614093565b600281111561187b5761187b614093565b815260200160018201805461188f90614977565b80601f01602080910402602001604051908101604052809291908181526020018280546118bb90614977565b80156119085780601f106118dd57610100808354040283529160200191611908565b820191906000526020600020905b8154815290600101906020018083116118eb57829003601f168201915b50505050508152505090506000611926826060015161ffff16613099565b9050600061193e83610160015163ffffffff16613099565b90506000611953846080015161ffff16613099565b905060006119688560a0015161ffff16613099565b9050600061197d8660e0015161ffff16613099565b905060006119928760c0015161ffff16613099565b90506000611a4f6119a28b613099565b896101c00151600560008c6101a0015160028111156119c3576119c3614093565b60028111156119d4576119d4614093565b8152602001908152602001600020600660008d6101a0015160028111156119fd576119fd614093565b6002811115611a0e57611a0e614093565b81526020019081526020016000208a8c8b8b8b8b604051602001611a3b9a99989796959493929190614f6e565b604051602081830303815290604052613197565b9050600081604051602001611a6491906151f1565b60408051601f198184030181529190529b9a5050505050505050505050565b8060018181548110611a9757611a97614b52565b600091825260209091206002909102015460ff16611ab457600080fd5b6000828152600c60205260409020548290611ace906132eb565b341015611aed5760405162461bcd60e51b815260040161081d90615266565b6000838152600c6020526040812054611b05906132eb565b90506000611b138234614946565b90508015611b4a57604051339082156108fc029083906000818181858888f19350505050158015611b48573d6000803e3d6000fd5b505b600060018681548110611b5f57611b5f614b52565b60009182526020909120600290910201805460ff1916911515919091179055611b8833866127b9565b600b54611b9f906001600160a01b031633876128cb565b6000858152600d60205260408082205490516001600160a01b039091169184156108fc02918591818181858888f19350505050158015611be3573d6000803e3d6000fd5b50505060009283525050600c60209081526040808320839055600d909152902080546001600160a01b0319169055565b60008160018181548110611c2957611c29614b52565b600091825260209091206002909102015460ff16611c4657600080fd5b50506000908152600c602052604090205490565b60008481526002602052604090205484906001600160a01b0316336001600160a01b031614611c9b5760405162461bcd60e51b815260040161081d90614cce565b8460018181548110611caf57611caf614b52565b600091825260209091206002909102015460ff1615611ccd57600080fd5b8260018181548110611ce157611ce1614b52565b600091825260209091206002909102015460ff1615611cff57600080fd5b60008481526002602052604090205484906001600160a01b0316331415611d385760405162461bcd60e51b815260040161081d906152b6565b600060018981548110611d4d57611d4d614b52565b90600052602060002090600202019050428160000160199054906101000a900463ffffffff1663ffffffff161115611d975760405162461bcd60e51b815260040161081d9061530a565b611da081613304565b60165463ffffffff168815612037576000888152600f60205260409020546001600160a01b0316336001600160a01b031614611dee5760405162461bcd60e51b815260040161081d9061535c565b6000600e8981548110611e0357611e03614b52565b60009182526020918290206040805160a08101825291909201805463ffffffff80821684526401000000008204169483019490945261ffff600160401b8504169282019290925291606083019060ff600160501b909104166001811115611e6c57611e6c614093565b6001811115611e7d57611e7d614093565b81528154602090910190600160581b900460ff166002811115611ea257611ea2614093565b6002811115611eb357611eb3614093565b9052508051845491925063ffffffff908116600160a81b909204161015611eec5760405162461bcd60e51b815260040161081d906153bd565b600081606001516001811115611f0457611f04614093565b1415611f45576040810151835461ffff918216600160481b9091049091161015611f405760405162461bcd60e51b815260040161081d90615427565b611f7b565b6040810151835461ffff918216600160381b9091049091161015611f7b5760405162461bcd60e51b815260040161081d90615491565b60018354600160e81b900460ff166002811115611f9a57611f9a614093565b148015611fbc5750600081606001516001811115611fba57611fba614093565b145b80612003575060008354600160e81b900460ff166002811115611fe157611fe1614093565b148015612003575060018160600151600181111561200157612001614093565b145b1561202d576120266002826020015163ffffffff1661335090919063ffffffff16565b9150612035565b806020015191505b505b60006001888154811061204c5761204c614b52565b906000526020600020906002020190506000600383600261206d91906154a1565b61207791906154ea565b905060006120898d86868d878761335c565b905080156120a85761209a8d613530565b6120a38a6135d4565b6120ba565b6120b18d6135d4565b6120ba8a613530565b7fbf30fbcd321ef240818144cebd3d57345fa6d5d053a6778754a84a8478272f32816040516120e99190613f34565b60405180910390a150505050505050505050505050565b33600090815260046020526040902054600161ffff90911610156121365760405162461bcd60e51b815260040161081d9061556b565b6121418383836129f4565b336000908152600460205260409020546121609061ffff166001612f09565b6004600033610d0b565b6000818152600260205260409020546060906108d7906001600160a01b0316610ab4565b6000546001600160a01b031633146121b85760405162461bcd60e51b815260040161081d90614ae4565b6001600160a01b0381166121de5760405162461bcd60e51b815260040161081d906155be565b61125c81612f73565b6001600160a01b0381166000908152600360205260408120546060918167ffffffffffffffff81111561221c5761221c614633565b60405190808252806020026020018201604052801561225557816020015b612242613d28565b81526020019060019003908161223a5790505b50905081612264579392505050565b6000805b600154811015610c91576000818152600260205260409020546001600160a01b03878116911614156124ac576040518060400160405280600183815481106122b2576122b2614b52565b6000918252602091829020604080516101e0810182526002938402909201805460ff8082161515855261ffff61010080840482169887019890985263010000008304811694860194909452600160281b820484166060860152600160381b820484166080860152600160481b8204841660a0860152600160581b8204841660c0860152600160681b8204841660e0860152600160781b8204841696850196909652600160881b81048316610120850152600160981b810490921661014084015263ffffffff600160a81b83048116610160850152600160c81b830416610180840152919391926101a0850192600160e81b909204909116908111156123b9576123b9614093565b60028111156123ca576123ca614093565b81526020016001820180546123de90614977565b80601f016020809104026020016040519081016040528092919081815260200182805461240a90614977565b80156124575780601f1061242c57610100808354040283529160200191612457565b820191906000526020600020905b81548152906001019060200180831161243a57829003601f168201915b50505050508152505081526020018281525083838151811061247b5761247b614b52565b6020026020010181905250818061249190614b68565b925050838061249f90614b83565b945050836124ac57610c91565b806124b681614b68565b915050612268565b8260018163ffffffff1610156124e65760405162461bcd60e51b815260040161081d9061561d565b8260008160018111156124fb576124fb614093565b14806125185750600181600181111561251657612516614093565b145b6125345760405162461bcd60e51b815260040161081d9061567b565b82600081600281111561254957612549614093565b14806125665750600181600281111561256457612564614093565b145b806125825750600281600281111561258057612580614093565b145b61259e5760405162461bcd60e51b815260040161081d9061567b565b6000808560028111156125b3576125b3614093565b14156125bd575060085b60018560028111156125d1576125d1614093565b14156125db575060065b60028560028111156125ef576125ef614093565b14156125f9575060035b600e6040518060a001604052808963ffffffff16815260200161261c8a89613642565b63ffffffff1681526020018361ffff16815260200188600181111561264357612643614093565b815260200187600281111561265a5761265a614093565b9052815460018181018455600093845260209384902083519201805494840151604085015161ffff16600160401b0269ffff00000000000000001963ffffffff9283166401000000000267ffffffffffffffff199098169290951691909117959095179283168517815560608401519394909392849260ff60501b199092166affffff0000000000000000199091161790600160501b90849081111561270257612702614093565b021790555060808201518154829060ff60581b1916600160581b83600281111561272e5761272e614093565b0217905550505087600f60006001600e8054905061274c9190614946565b81526020808201929092526040908101600090812080546001600160a01b0319166001600160a01b03958616179055928b1683526010909152902054612793906001612f21565b6001600160a01b0390981660009081526010602052604090209790975550505050505050565b600081815260096020908152604080832080546001600160a01b0319166001600160a01b038781169182179092556002909352818420549151859492909116917f8c5be1e5ebec7d5bd14f71427d1e84f3dd0314c0f7b2291e5b200ac8c7c3b92591a45050565b6000818152600260205260408120546001600160a01b03166128545760405162461bcd60e51b815260040161081d906156d4565b6000828152600260205260409020546001600160a01b039081169084168114806128975750836001600160a01b031661288c8461096f565b6001600160a01b0316145b80610fd257506001600160a01b038082166000908152600a602090815260408083209388168352929052205460ff16610fd2565b6000818152600260205260409020546001600160a01b038481169116146129045760405162461bcd60e51b815260040161081d90615726565b6001600160a01b03821661292a5760405162461bcd60e51b815260040161081d90615777565b6129356000826127b9565b6001600160a01b0383166000908152600360205260409020546129599060016136be565b6001600160a01b038085166000908152600360205260408082209390935590841681522054612989906001612f21565b6001600160a01b038084166000818152600360209081526040808320959095558582526002905283812080546001600160a01b031916831790559251849391928716917fddf252ad1be2c89b69c2b068fc378daa952ba7f163c4a11628f55a4df523b3ef91a4505050565b828280612a135760405162461bcd60e51b815260040161081d906157d6565b826000816002811115612a2857612a28614093565b1480612a4557506001816002811115612a4357612a43614093565b145b80612a6157506002816002811115612a5f57612a5f614093565b145b612a7d5760405162461bcd60e51b815260040161081d90615836565b85858080601f01602080910402602001604051908101604052809392919081815260200183838082843760009201829052509250612abe91503390506121e7565b90506000805b8251811015612b1957612af9838281518110612ae257612ae2614b52565b6020026020010151600001516101c00151856136ca565b15612b075760019150612b19565b80612b1181614b68565b915050612ac4565b508015612b385760405162461bcd60e51b815260040161081d906158a0565b604080516101e08101825260008082526020820181905291810182905260646060820181905260016080830181905260a0830181905260c0830181905260e08301819052610100830184905261012083019190915261014082019290925261016081018290526101808101612bcd427f0000000000000000000000000000000000000000000000000000000000000000612f21565b63ffffffff168152602001896002811115612bea57612bea614093565b81526020018b8b8080601f016020809104026020016040519081016040528093929190818152602001838380828437600081840152601f19601f82011690508083019250505050505050815250908060018154018082558091505060019003906000526020600020906002020160009091909190915060008201518160000160006101000a81548160ff02191690831515021790555060208201518160000160016101000a81548161ffff021916908361ffff16021790555060408201518160000160036101000a81548161ffff021916908361ffff16021790555060608201518160000160056101000a81548161ffff021916908361ffff16021790555060808201518160000160076101000a81548161ffff021916908361ffff16021790555060a08201518160000160096101000a81548161ffff021916908361ffff16021790555060c082015181600001600b6101000a81548161ffff021916908361ffff16021790555060e082015181600001600d6101000a81548161ffff021916908361ffff16021790555061010082015181600001600f6101000a81548161ffff021916908361ffff1602179055506101208201518160000160116101000a81548161ffff021916908361ffff1602179055506101408201518160000160136101000a81548161ffff021916908361ffff1602179055506101608201518160000160156101000a81548163ffffffff021916908363ffffffff1602179055506101808201518160000160196101000a81548163ffffffff021916908363ffffffff1602179055506101a082015181600001601d6101000a81548160ff02191690836002811115612e5c57612e5c614093565b02179055506101c08201518051612e7d916001840191602090910190613d3b565b50506001805460009250612e919190614946565b600081815260026020908152604080832080546001600160a01b0319163390811790915583526003909152902054909150612ecd906001612f21565b33600081815260036020526040902091909155612eea9082613723565b50505050505050505050565b6000612f0282846158b0565b9392505050565b6000612f0282846158d9565b6000612f0282846158ec565b6000612f028284615906565b60006064612f5f61ffff7f000000000000000000000000000000000000000000000000000000000000000016846158ec565b612f699190615919565b6108d79083615906565b600080546001600160a01b038381166001600160a01b0319831681178455604051919092169283917f8be0079c531659141344cd1fd0a4f28419497f9722a3daafe3b4186f6b6457e09190a35050565b816001600160a01b0316836001600160a01b03161415612ff55760405162461bcd60e51b815260040161081d90615955565b6001600160a01b038381166000818152600a602090815260408083209487168084529490915290819020805460ff1916851515179055517f17307eab39ab6107e8899845ad3d59bd9653f200f220920489ca2b5937696c3190613059908590613f34565b60405180910390a3505050565b6130718484846128cb565b61307d8484848461373d565b6117465760405162461bcd60e51b815260040161081d906159b4565b6060816130bd5750506040805180820190915260018152600360fc1b602082015290565b8160005b81156130e757806130d181614b68565b91506130e09050600a83615919565b91506130c1565b60008167ffffffffffffffff81111561310257613102614633565b6040519080825280601f01601f19166020018201604052801561312c576020820181803683370190505b5090505b8415610fd257613141600183614946565b915061314e600a866159c4565b613159906030615906565b60f81b81838151811061316e5761316e614b52565b60200101906001600160f81b031916908160001a905350613190600a86615919565b9450613130565b60608151600014156131b757505060408051602081019091526000815290565b6000604051806060016040528060408152602001615b8660409139905060006003845160026131e69190615906565b6131f09190615919565b6131fb9060046158ec565b67ffffffffffffffff81111561321357613213614633565b6040519080825280601f01601f19166020018201604052801561323d576020820181803683370190505b509050600182016020820185865187015b808210156132a9576003820191508151603f8160121c168501518453600184019350603f81600c1c168501518453600184019350603f8160061c168501518453600184019350603f811685015184536001840193505061324e565b50506003865106600181146132c557600281146132d8576132e0565b603d6001830353603d60028303536132e0565b603d60018303535b509195945050505050565b600060156132fa8360146158ec565b6108d79190615919565b61332e7f000000000000000000000000000000000000000000000000000000000000000042615906565b815463ffffffff91909116600160c81b0263ffffffff60c81b19909116179055565b6000612f0282846154a1565b8454600090600160281b900461ffff1660028754600160e81b900460ff16600281111561338b5761338b614093565b14156133e5576133a663ffffffff80831690600f9061383b16565b87549091506000906133cb9063ffffffff600160a81b90910481169060059061335016565b90506133e163ffffffff80841690839061383b16565b9150505b8354600160281b900461ffff1660028554600160e81b900460ff16600281111561341157613411614093565b141561346b5761342c63ffffffff80831690600f9061383b16565b88549091506000906134519063ffffffff600160a81b90910481169060059061335016565b905061346763ffffffff80841690839061383b16565b9150505b60005b8854613498908b908a90600160681b900461ffff16338a548c90600160581b900461ffff16613847565b905061ffff811663ffffffff8316116134b75760019350505050613526565b6134c561ffff8216836159dc565b86549092506134f29088908790600160681b900461ffff16338d548f90600160581b900461ffff16613847565b905061ffff811663ffffffff8416116135115760009350505050613526565b61351f61ffff8216846159dc565b925061346e565b9695505050505050565b60006001828154811061354557613545614b52565b60009182526020909120600290910201805490915061356e90610100900461ffff166001612ef6565b815462ffff00191661010061ffff928316021780835561359891600160781b909104166028612ef6565b815461ffff60781b1916600160781b61ffff928316810291909117808455600160881b810483169190049091161061171057611710818361395a565b6000600182815481106135e9576135e9614b52565b600091825260209091206002909102018054909150613614906301000000900461ffff166001612ef6565b815464ffff0000001916630100000061ffff928316021780835561359891600160781b909104166019612ef6565b6000600282600281111561365857613658614093565b141561367a5761367363ffffffff8085169060029061335016565b90506108d7565b600082600281111561368e5761368e614093565b14156136a95761367363ffffffff8085169060049061335016565b612f0263ffffffff8085169060039061335016565b6000612f028284614946565b6000816040516020016136dd91906159f3565b604051602081830303815290604052805190602001208360405160200161370491906159f3565b6040516020818303038152906040528051906020012014905092915050565b611710828260405180602001604052806000815250613aed565b60006001600160a01b0384163b1561383057604051630a85bd0160e11b81526001600160a01b0385169063150b7a02906137819033908990889088906004016159ff565b6020604051808303816000875af19250505080156137bc575060408051601f3d908101601f191682019092526137b991810190615a44565b60015b613816573d8080156137ea576040519150601f19603f3d011682016040523d82523d6000602084013e6137ef565b606091505b50805161380e5760405162461bcd60e51b815260040161081d906159b4565b805181602001fd5b6001600160e01b031916630a85bd0160e11b149050610fd2565b506001949350505050565b6000612f028284615a65565b60006138538483613b20565b1561389c5782877fcce4f0668cb0ecd051f3e42f34aaff29f7fc1d9554bcf8d825cb4960f15a9e7760008060405161388c929190615aa4565b60405180910390a3506000613526565b6138a68486613b20565b156139175782877fcce4f0668cb0ecd051f3e42f34aaff29f7fc1d9554bcf8d825cb4960f15a9e776138e363ffffffff808b169060029061335016565b60016040516138f3929190615abf565b60405180910390a361391063ffffffff8088169060029061335016565b9050613526565b82877fcce4f0668cb0ecd051f3e42f34aaff29f7fc1d9554bcf8d825cb4960f15a9e7788600060405161394b929190615abf565b60405180910390a35084613526565b815461397290600160881b900461ffff166064612ef6565b825461ffff91909116600160881b0261ffff60881b19909116178083556139ac9063ffffffff600160a81b90910481169060019061383b16565b825463ffffffff60a81b1916600160a81b63ffffffff92831602178084556139e491600160281b90910461ffff1690600a90612ef616565b825466ffff00000000001916600160281b61ffff9283160217808455613a1491600160981b909104166001612ef6565b825461ffff91909116600160981b0261ffff60981b1990911617808355613a4e9063ffffffff600160a81b909104811690600a90613bad16565b63ffffffff16611710576000818152600260209081526040808320546001600160a01b0316808452600490925290912054613a8e9061ffff166001612ef6565b6001600160a01b0382166000908152600460205260409020805461ffff191661ffff92909216919091179055613ac381613bb9565b15610a3d578254610a3d908290600160a81b900463ffffffff16613ae682613c08565b60026124be565b613af78383613c57565b613b04600084848461373d565b610a3d5760405162461bcd60e51b815260040161081d906159b4565b600080613b3261ffff841660026158ec565b613b3d906005615906565b601554909150613b4e906001612f21565b6015819055604051600091613b8e91606491613b709142918a91602001615af5565b60408051601f19818403018152919052805160209091012090613cb9565b9050818111613ba2576001925050506108d7565b506000949350505050565b6000612f028284615b2c565b601554600090613bca906001612f21565b6015819055604051600091613bec91606491613b709142918891602001615af5565b905060288111613bff5750600192915050565b50600092915050565b601554600090613c19906001612f21565b6015819055604051600091613c3b91606491613b709142918891602001615af5565b905060328111613c4e5750600092915050565b50600192915050565b6001600160a01b038216613c7d5760405162461bcd60e51b815260040161081d90615b75565b60405181906001600160a01b038416906000907fddf252ad1be2c89b69c2b068fc378daa952ba7f163c4a11628f55a4df523b3ef908290a45050565b6000612f0282846159c4565b6040805160e0810182526000918101828152606082018390526080820183905260a0820183905260c08201929092529081905b8152602001600081525090565b604051806060016040528060006001600160a01b03168152602001613cf8613dbf565b6040518060400160405280613cf8613dbf565b828054613d4790614977565b90600052602060002090601f016020900481019282613d695760008555613daf565b82601f10613d8257805160ff1916838001178555613daf565b82800160010185558215613daf579182015b82811115613daf578251825591602001919060010190613d94565b50613dbb929150613e3b565b5090565b604080516101e081018252600080825260208201819052918101829052606081018290526080810182905260a0810182905260c0810182905260e0810182905261010081018290526101208101829052610140810182905261016081018290526101808101829052906101a08201908152602001606081525090565b5b80821115613dbb5760008155600101613e3c565b63ffffffff81165b811461125c57600080fd5b80356108d781613e50565b6002811061125c57600080fd5b80356108d781613e6e565b6003811061125c57600080fd5b80356108d781613e86565b600080600060608486031215613eb657613eb6600080fd5b6000613ec28686613e63565b9350506020613ed386828701613e7b565b9250506040613ee486828701613e93565b9150509250925092565b6001600160e01b03198116613e58565b80356108d781613eee565b600060208284031215613f1e57613f1e600080fd5b6000610fd28484613efe565b8015155b82525050565b602081016108d78284613f2a565b60005b83811015613f5d578181015183820152602001613f45565b838111156117465750506000910152565b6000613f78825190565b808452602084019350613f8f818560208601613f42565b601f01601f19169290920192915050565b60208082528101612f028184613f6e565b80613e58565b80356108d781613fb1565b600060208284031215613fd757613fd7600080fd5b6000610fd28484613fb7565b60006001600160a01b0382166108d7565b613f2e81613fe3565b602081016108d78284613ff4565b613e5881613fe3565b80356108d78161400b565b6000806040838503121561403557614035600080fd5b60006140418585614014565b925050602061405285828601613fb7565b9150509250929050565b60006020828403121561407157614071600080fd5b6000610fd28484614014565b63ffffffff8116613f2e565b61ffff8116613f2e565b634e487b7160e01b600052602160045260246000fd5b6002811061125c5761125c614093565b806140c3816140a9565b919050565b60006108d7826140b9565b613f2e816140c8565b6003811061125c5761125c614093565b806140c3816140dc565b60006108d7826140ec565b613f2e816140f6565b805160a083019061411b848261407d565b50602082015161412e602085018261407d565b5060408201516141416040850182614089565b50606082015161415460608501826140d3565b5060808201516117466080850182614101565b80613f2e565b805160c083019061417e848261410a565b50602082015161174660a0850182614167565b600061419d838361416d565b505060c00190565b60006141af825190565b80845260209384019383018060005b838110156141e35781516141d28882614191565b9750602083019250506001016141be565b509495945050505050565b60208082528101612f0281846141a5565b60008060006060848603121561421757614217600080fd5b60006142238686614014565b935050602061423486828701614014565b9250506040613ee486828701613fb7565b60008083601f84011261425a5761425a600080fd5b50813567ffffffffffffffff81111561427557614275600080fd5b60208301915083600182028301111561429057614290600080fd5b9250929050565b6000806000604084860312156142af576142af600080fd5b833567ffffffffffffffff8111156142c9576142c9600080fd5b6142d586828701614245565b93509350506020613ee486828701613e93565b61ffff8116613e58565b80356108d7816142e8565b600080600080600060a0868803121561431857614318600080fd5b60006143248888613fb7565b9550506020614335888289016142f2565b9450506040614346888289016142f2565b9350506060614357888289016142f2565b9250506080614368888289016142f2565b9150509295509295909350565b6000806040838503121561438b5761438b600080fd5b60006143978585613e63565b925050602061405285828601613e93565b602081016108d78284614167565b600080604083850312156143cc576143cc600080fd5b60006140418585613fb7565b602081016108d78284614089565b80516000906101e08401906143fb8582613f2a565b50602083015161440e6020860182614089565b5060408301516144216040860182614089565b5060608301516144346060860182614089565b5060808301516144476080860182614089565b5060a083015161445a60a0860182614089565b5060c083015161446d60c0860182614089565b5060e083015161448060e0860182614089565b50610100830151614495610100860182614089565b506101208301516144aa610120860182614089565b506101408301516144bf610140860182614089565b506101608301516144d461016086018261407d565b506101808301516144e961018086018261407d565b506101a08301516144fe6101a0860182614101565b506101c08301518482036101c08601526145188282613f6e565b95945050505050565b805160009060608401906145358582613ff4565b506020830151848203602086015261454d82826143e6565b91505060408301516145626040860182614167565b509392505050565b6000612f028383614521565b6000614580825190565b8084526020840193508360208202850161459a8560200190565b8060005b858110156145cf57848403895281516145b7858261456a565b94506020830160209a909a019992505060010161459e565b5091979650505050505050565b60208082528101612f028184614576565b801515613e58565b80356108d7816145ed565b6000806040838503121561461657614616600080fd5b60006146228585614014565b9250506020614052858286016145f5565b634e487b7160e01b600052604160045260246000fd5b601f19601f830116810181811067ffffffffffffffff8211171561466f5761466f614633565b6040525050565b600061468160405190565b90506140c38282614649565b600067ffffffffffffffff8211156146a7576146a7614633565b601f19601f83011660200192915050565b82818337506000910152565b60006146d76146d28461468d565b614676565b9050828152602081018484840111156146f2576146f2600080fd5b6145628482856146b8565b600082601f83011261471157614711600080fd5b8135610fd28482602086016146c4565b6000806000806080858703121561473a5761473a600080fd5b60006147468787614014565b945050602061475787828801614014565b935050604061476887828801613fb7565b925050606085013567ffffffffffffffff81111561478857614788600080fd5b614794878288016146fd565b91505092959194509250565b600080600080608085870312156147b9576147b9600080fd5b60006147c58787613fb7565b94505060206147d6878288016145f5565b93505060406147e787828801613fb7565b925050606061479487828801613fb7565b6000806040838503121561480e5761480e600080fd5b600061481a8585614014565b925050602061405285828601614014565b805160408084526000919084019061484382826143e6565b91505060208301516145626020860182614167565b6000612f02838361482b565b600061486e825190565b808452602084019350836020820285016148888560200190565b8060005b858110156145cf57848403895281516148a58582614858565b94506020830160209a909a019992505060010161488c565b60208082528101612f028184614864565b603281526000602082017f596f752073656e7420696e73756666696369656e742045544820666f7220666f8152717267696e67207468697320776561706f6e2160701b602082015291505b5060400190565b602080825281016108d7816148ce565b634e487b7160e01b600052601160045260246000fd5b6000825b92508282101561495c5761495c614930565b500390565b634e487b7160e01b600052602260045260246000fd5b60028104600182168061498b57607f821691505b602082108114156112dc576112dc614961565b602c81526000602082017f4552433732313a20617070726f76656420717565727920666f72206e6f6e657881526b34b9ba32b73a103a37b5b2b760a11b60208201529150614919565b602080825281016108d78161499e565b602181526000602082017f4552433732313a20617070726f76616c20746f2063757272656e74206f776e658152603960f91b60208201529150614919565b602080825281016108d7816149f7565b603881526000602082017f4552433732313a20617070726f76652063616c6c6572206973206e6f74206f7781527f6e6572206e6f7220617070726f76656420666f7220616c6c000000000000000060208201529150614919565b602080825281016108d781614a45565b60208082527f4f776e61626c653a2063616c6c6572206973206e6f7420746865206f776e6572910190815260005b5060200190565b602080825281016108d781614aaf565b603181526000602082017f43616e6e6f7420736574204e465420686f6c646572206164647265737320746f81527020746865207a65726f206164647265737360781b60208201529150614919565b602080825281016108d781614af4565b634e487b7160e01b600052603260045260246000fd5b6000600019821415614b7c57614b7c614930565b5060010190565b600081614b9257614b92614930565b506000190190565b603181526000602082017f4552433732313a207472616e736665722063616c6c6572206973206e6f74206f8152701ddb995c881b9bdc88185c1c1c9bdd9959607a1b60208201529150614919565b602080825281016108d781614b9a565b605c81526000602082017f596f7520616c7265616479206861766520666967687465727320696e20796f7581527f72204261727261636b732120456e74657220746865204172656e6120616e642060208201527f6561726e20796f757273656c66206d6f72652046696768746572732100000000604082015291505b5060600190565b602080825281016108d781614bf8565b602681526000602082017f596f7520617265206e6f7420746865206f776e6572206f66207468697320466981526567687465722160d01b60208201529150614919565b602080825281016108d781614c8b565b604d81526000602082017f596f7520646f206e6f74206861766520656e6f75676820617661696c61626c6581527f207370656e6461626c6520706f696e747320696e206f7264657220746f20646f60208201526c207468697320616374696f6e2160981b60408201529150614c74565b602080825281016108d781614cde565b602c81526000602082017f596f752063616e6e6f742073656c6c206f72206769667420796f7572206f6e6c81526b79206368617261637465722160a01b60208201529150614919565b602080825281016108d781614d5e565b602981526000602082017f4552433732313a206f776e657220717565727920666f72206e6f6e657869737481526832b73a103a37b5b2b760b91b60208201529150614919565b602080825281016108d781614db7565b602a81526000602082017f4552433732313a2062616c616e636520717565727920666f7220746865207a65815269726f206164647265737360b01b60208201529150614919565b602080825281016108d781614e0d565b602381526000602082017f43616e6e6f742067696674204e465420746f20746865207a65726f206164647281526265737360e81b60208201529150614919565b602080825281016108d781614e64565b6000614ebe825190565b614ecc818560208601613f42565b9290920192915050565b60008154614ee381614977565b600182168015614efa5760018114614f0b57614f3b565b60ff19831686528186019350614f3b565b60008581526020902060005b83811015614f3357815488820152600190910190602001614f17565b838801955050505b50505092915050565b7f7b2274726169745f74797065223a20224c75636b222c202276616c7565223a2081526000614add565b737b226e616d65223a20225b46696768746572202360601b81526014016000614f97828d614eb4565b6302e9016960e51b81526004019150614fb0828c614eb4565b640103a3432960dd1b81526005019150614fca828b614ed6565b7f222c20226465736372697074696f6e223a202254686973204e4654207265707281527f6573656e747320612043727970746f4172656e61332e3020466967687465722160208201526c1116101134b6b0b3b2911d101160991b6040820152604d019150615038828a614ed6565b7f222c202261747472696275746573223a205b7b2274726169745f74797065223a815272010113632bb32b6111610113b30b63ab2911d1606d1b602082015260330191506150868289614eb4565b611f4b60f21b81527f7b2274726169745f74797065223a20224865616c746820506f696e7473222c206002820152680113b30b63ab2911d160bd1b6022820152602b0191506150d58288614eb4565b611f4b60f21b81527f7b2274726169745f74797065223a2022537472656e677468222c202276616c75600282015263032911d160e51b6022820152602601915061511f8287614eb4565b611f4b60f21b81527f7b2274726169745f74797065223a20224167696c697479222c202276616c75656002820152620111d160ed1b602282015260250191506151688286614eb4565b611f4b60f21b8152600201915061517e82614f44565b915061518a8285614eb4565b611f4b60f21b81527f7b2274726169745f74797065223a2022446578746572697479222c202276616c60028201526403ab2911d160dd1b602282015260270191506151d58284614eb4565b627d5d7d60e81b81526003019c9b505050505050505050505050565b7f646174613a6170706c69636174696f6e2f6a736f6e3b6261736536342c0000008152601d016000612f028284614eb4565b602681526000602082017f596f752073656e7420696e73756666696369656e742045544820666f7220466981526567687465722160d01b60208201529150614919565b602080825281016108d781615223565b602381526000602082017f596f752063616e6e6f742061747461636b20796f7572206f776e20466967687481526265722160e81b60208201529150614919565b602080825281016108d781615276565b602781526000602082017f596f75722066696768746572206973206e6f742079657420726561647920746f8152662066696768742160c81b60208201529150614919565b602080825281016108d7816152c6565b602581526000602082017f596f7520617265206e6f7420746865206f776e6572206f66207468697320576581526461706f6e2160d81b60208201529150614919565b602080825281016108d78161531a565b603481526000602082017f596f752063616e6e6f7420757365207468697320776561706f6e2c20796f7572815273206c6576656c20697320746f6f20736d616c6c2160601b60208201529150614919565b602080825281016108d78161536c565b603f81526000602082017f596f752063616e6e6f7420757365207468697320776561706f6e2c20796f757281527f206167696c69747920736b696c6c20697320696e73756666696369656e74210060208201529150614919565b602080825281016108d7816153cd565b604081526000602082017f596f752063616e6e6f7420757365207468697320776561706f6e2c20796f757281527f20737472656e67746820736b696c6c20697320696e73756666696369656e742160208201529150614919565b602080825281016108d781615437565b600063ffffffff8216915063ffffffff831692508163ffffffff04831182151516156154cf576154cf614930565b500290565b634e487b7160e01b600052601260045260246000fd5b600063ffffffff8216915063ffffffff83165b92508261550c5761550c6154d4565b500490565b603981526000602082017f596f7520646f206e6f74206861766520616e7920617661696c61626c6520707581527f70696c732120466967687420746f206561726e206d6f7265210000000000000060208201529150614919565b602080825281016108d781615511565b602681526000602082017f4f776e61626c653a206e6577206f776e657220697320746865207a65726f206181526564647265737360d01b60208201529150614919565b602080825281016108d78161557b565b603281526000602082017f546865206c6576656c20796f7520696e73657274656420666f7220796f757220815271576561706f6e20697320696e76616c69642160701b60208201529150614919565b602080825281016108d7816155ce565b603181526000602082017f546865207479706520796f7520696e73657274656420666f7220796f757220578152706561706f6e20697320696e76616c69642160781b60208201529150614919565b602080825281016108d78161562d565b602c81526000602082017f4552433732313a206f70657261746f7220717565727920666f72206e6f6e657881526b34b9ba32b73a103a37b5b2b760a11b60208201529150614919565b602080825281016108d78161568b565b602581526000602082017f4552433732313a207472616e736665722066726f6d20696e636f72726563742081526437bbb732b960d91b60208201529150614919565b602080825281016108d7816156e4565b602481526000602082017f4552433732313a207472616e7366657220746f20746865207a65726f206164648152637265737360e01b60208201529150614919565b602080825281016108d781615736565b603281526000602082017f546865206e616d6520796f7520696e73657274656420666f7220796f7572204681527169676874657220697320696e76616c69642160701b60208201529150614919565b602080825281016108d781615787565b603381526000602082017f54686520636c61737320796f7520696e73657274656420666f7220796f7572208152724669676874657220697320696e76616c69642160681b60208201529150614919565b602080825281016108d7816157e6565b603781526000602082017f546865206e616d6520796f7520696e73657274656420666f7220796f7572204681527f69676874657220697320616c726561647920757365642100000000000000000060208201529150614919565b602080825281016108d781615846565b600061ffff8216915061ffff831692508261ffff038211156158d4576158d4614930565b500190565b600061ffff8216915061ffff831661494a565b60008160001904831182151516156154cf576154cf614930565b600082198211156158d4576158d4614930565b6000826154fd565b601981526000602082017f4552433732313a20617070726f766520746f2063616c6c65720000000000000081529150614add565b602080825281016108d781615921565b603281526000602082017f4552433732313a207472616e7366657220746f206e6f6e20455243373231526581527131b2b4bb32b91034b6b83632b6b2b73a32b960711b60208201529150614919565b602080825281016108d781615965565b6000825b9250826159d7576159d76154d4565b500690565b600063ffffffff8216915063ffffffff831661494a565b6000612f028284614eb4565b60808101615a0d8287613ff4565b615a1a6020830186613ff4565b615a276040830185614167565b81810360608301526135268184613f6e565b80516108d781613eee565b600060208284031215615a5957615a59600080fd5b6000610fd28484615a39565b600063ffffffff8216915063ffffffff831692508263ffffffff038211156158d4576158d4614930565b600061ffff82166108d7565b613f2e81615a8f565b60408101615ab28285615a9b565b612f026020830184613f2a565b60408101615ab28285614089565b60006108d78260601b90565b60006108d782615acd565b613f2e615af082613fe3565b615ad9565b6000615b018286614167565b602082019150615b118285615ae4565b601482019150615b218284614167565b506020019392505050565b600063ffffffff8216915063ffffffff83166159c8565b60208082527f4552433732313a206d696e7420746f20746865207a65726f206164647265737391019081526000614add565b602080825281016108d781615b4356fe4142434445464748494a4b4c4d4e4f505152535455565758595a6162636465666768696a6b6c6d6e6f707172737475767778797a303132333435363738392b2fa26469706673582212205b0b6af661ebdd48aaf6a6cd424ca1331a930ef707c702b74bcc5cdd61b72ef764736f6c634300080a0033",
  "linkReferences": {},
  "deployedLinkReferences": {}
}