{
  "_format": "hh-sol-artifact-1",
  "contractName": "Arena",
  "sourceName": "contracts/Arena.sol",
  "abi": [
    {
      "anonymous": false,
      "inputs": [
        {
          "indexed": true,
          "internalType": "address",
          "name": "owner",
          "type": "address"
        },
        {
          "indexed": true,
          "internalType": "address",
          "name": "approved",
          "type": "address"
        },
        {
          "indexed": true,
          "internalType": "uint256",
          "name": "tokenId",
          "type": "uint256"
        }
      ],
      "name": "Approval",
      "type": "event"
    },
    {
      "anonymous": false,
      "inputs": [
        {
          "indexed": true,
          "internalType": "address",
          "name": "owner",
          "type": "address"
        },
        {
          "indexed": true,
          "internalType": "address",
          "name": "operator",
          "type": "address"
        },
        {
          "indexed": false,
          "internalType": "bool",
          "name": "approved",
          "type": "bool"
        }
      ],
      "name": "ApprovalForAll",
      "type": "event"
    },
    {
      "anonymous": false,
      "inputs": [
        {
          "indexed": true,
          "internalType": "uint256",
          "name": "attackerId",
          "type": "uint256"
        },
        {
          "indexed": true,
          "internalType": "uint256",
          "name": "targetId",
          "type": "uint256"
        },
        {
          "indexed": false,
          "internalType": "uint16",
          "name": "damage",
          "type": "uint16"
        },
        {
          "indexed": false,
          "internalType": "bool",
          "name": "wasCritical",
          "type": "bool"
        }
      ],
      "name": "ArenaEvent",
      "type": "event"
    },
    {
      "anonymous": false,
      "inputs": [
        {
          "indexed": true,
          "internalType": "address",
          "name": "sender",
          "type": "address"
        },
        {
          "indexed": true,
          "internalType": "address",
          "name": "receiver",
          "type": "address"
        },
        {
          "indexed": false,
          "internalType": "uint256",
          "name": "fighterId",
          "type": "uint256"
        }
      ],
      "name": "Gift",
      "type": "event"
    },
    {
      "anonymous": false,
      "inputs": [
        {
          "indexed": true,
          "internalType": "address",
          "name": "previousOwner",
          "type": "address"
        },
        {
          "indexed": true,
          "internalType": "address",
          "name": "newOwner",
          "type": "address"
        }
      ],
      "name": "OwnershipTransferred",
      "type": "event"
    },
    {
      "anonymous": false,
      "inputs": [
        {
          "indexed": true,
          "internalType": "address",
          "name": "from",
          "type": "address"
        },
        {
          "indexed": true,
          "internalType": "address",
          "name": "to",
          "type": "address"
        },
        {
          "indexed": true,
          "internalType": "uint256",
          "name": "tokenId",
          "type": "uint256"
        }
      ],
      "name": "Transfer",
      "type": "event"
    },
    {
      "anonymous": false,
      "inputs": [
        {
          "indexed": false,
          "internalType": "bool",
          "name": "youWon",
          "type": "bool"
        }
      ],
      "name": "WhoWon",
      "type": "event"
    },
    {
      "inputs": [],
      "name": "_collectBalance",
      "outputs": [],
      "stateMutability": "nonpayable",
      "type": "function"
    },
    {
      "inputs": [
        {
          "internalType": "uint32",
          "name": "_level",
          "type": "uint32"
        },
        {
          "internalType": "enum WeaponTier",
          "name": "_tier",
          "type": "uint8"
        }
      ],
      "name": "_computeWeaponPrice",
      "outputs": [
        {
          "internalType": "uint256",
          "name": "",
          "type": "uint256"
        }
      ],
      "stateMutability": "pure",
      "type": "function"
    },
    {
      "inputs": [
        {
          "internalType": "string",
          "name": "_name",
          "type": "string"
        },
        {
          "internalType": "enum FighterClass",
          "name": "_class",
          "type": "uint8"
        }
      ],
      "name": "_createFirstFighter",
      "outputs": [],
      "stateMutability": "nonpayable",
      "type": "function"
    },
    {
      "inputs": [],
      "name": "_getFightersCount",
      "outputs": [
        {
          "internalType": "uint256",
          "name": "",
          "type": "uint256"
        }
      ],
      "stateMutability": "view",
      "type": "function"
    },
    {
      "inputs": [
        {
          "internalType": "uint256",
          "name": "latest",
          "type": "uint256"
        }
      ],
      "name": "_getLatestFighters",
      "outputs": [
        {
          "components": [
            {
              "internalType": "address",
              "name": "owner",
              "type": "address"
            },
            {
              "components": [
                {
                  "internalType": "bool",
                  "name": "isForSale",
                  "type": "bool"
                },
                {
                  "internalType": "uint16",
                  "name": "winCount",
                  "type": "uint16"
                },
                {
                  "internalType": "uint16",
                  "name": "lossCount",
                  "type": "uint16"
                },
                {
                  "internalType": "uint16",
                  "name": "HP",
                  "type": "uint16"
                },
                {
                  "internalType": "uint16",
                  "name": "strength",
                  "type": "uint16"
                },
                {
                  "internalType": "uint16",
                  "name": "agility",
                  "type": "uint16"
                },
                {
                  "internalType": "uint16",
                  "name": "dexterity",
                  "type": "uint16"
                },
                {
                  "internalType": "uint16",
                  "name": "luck",
                  "type": "uint16"
                },
                {
                  "internalType": "uint16",
                  "name": "currentXP",
                  "type": "uint16"
                },
                {
                  "internalType": "uint16",
                  "name": "levelUpXP",
                  "type": "uint16"
                },
                {
                  "internalType": "uint16",
                  "name": "spendablePoints",
                  "type": "uint16"
                },
                {
                  "internalType": "uint32",
                  "name": "level",
                  "type": "uint32"
                },
                {
                  "internalType": "uint32",
                  "name": "readyTime",
                  "type": "uint32"
                },
                {
                  "internalType": "enum FighterClass",
                  "name": "class",
                  "type": "uint8"
                },
                {
                  "internalType": "string",
                  "name": "name",
                  "type": "string"
                }
              ],
              "internalType": "struct FighterFactory.Fighter",
              "name": "fighter",
              "type": "tuple"
            },
            {
              "internalType": "uint256",
              "name": "id",
              "type": "uint256"
            }
          ],
          "internalType": "struct FighterFactory.FighterDTO[]",
          "name": "",
          "type": "tuple[]"
        }
      ],
      "stateMutability": "view",
      "type": "function"
    },
    {
      "inputs": [],
      "name": "_getMyAvailablePupils",
      "outputs": [
        {
          "internalType": "uint256",
          "name": "",
          "type": "uint256"
        }
      ],
      "stateMutability": "view",
      "type": "function"
    },
    {
      "inputs": [
        {
          "internalType": "address",
          "name": "_owner",
          "type": "address"
        }
      ],
      "name": "_getUserFighters",
      "outputs": [
        {
          "components": [
            {
              "components": [
                {
                  "internalType": "bool",
                  "name": "isForSale",
                  "type": "bool"
                },
                {
                  "internalType": "uint16",
                  "name": "winCount",
                  "type": "uint16"
                },
                {
                  "internalType": "uint16",
                  "name": "lossCount",
                  "type": "uint16"
                },
                {
                  "internalType": "uint16",
                  "name": "HP",
                  "type": "uint16"
                },
                {
                  "internalType": "uint16",
                  "name": "strength",
                  "type": "uint16"
                },
                {
                  "internalType": "uint16",
                  "name": "agility",
                  "type": "uint16"
                },
                {
                  "internalType": "uint16",
                  "name": "dexterity",
                  "type": "uint16"
                },
                {
                  "internalType": "uint16",
                  "name": "luck",
                  "type": "uint16"
                },
                {
                  "internalType": "uint16",
                  "name": "currentXP",
                  "type": "uint16"
                },
                {
                  "internalType": "uint16",
                  "name": "levelUpXP",
                  "type": "uint16"
                },
                {
                  "internalType": "uint16",
                  "name": "spendablePoints",
                  "type": "uint16"
                },
                {
                  "internalType": "uint32",
                  "name": "level",
                  "type": "uint32"
                },
                {
                  "internalType": "uint32",
                  "name": "readyTime",
                  "type": "uint32"
                },
                {
                  "internalType": "enum FighterClass",
                  "name": "class",
                  "type": "uint8"
                },
                {
                  "internalType": "string",
                  "name": "name",
                  "type": "string"
                }
              ],
              "internalType": "struct FighterFactory.Fighter",
              "name": "fighter",
              "type": "tuple"
            },
            {
              "internalType": "uint256",
              "name": "id",
              "type": "uint256"
            }
          ],
          "internalType": "struct FighterFactory.FighterBarracksDTO[]",
          "name": "",
          "type": "tuple[]"
        }
      ],
      "stateMutability": "view",
      "type": "function"
    },
    {
      "inputs": [
        {
          "internalType": "address",
          "name": "_owner",
          "type": "address"
        }
      ],
      "name": "_getUserWeapons",
      "outputs": [
        {
          "components": [
            {
              "components": [
                {
                  "internalType": "uint32",
                  "name": "levelReq",
                  "type": "uint32"
                },
                {
                  "internalType": "uint32",
                  "name": "damage",
                  "type": "uint32"
                },
                {
                  "internalType": "uint16",
                  "name": "skillReq",
                  "type": "uint16"
                },
                {
                  "internalType": "enum WeaponType",
                  "name": "weapType",
                  "type": "uint8"
                },
                {
                  "internalType": "enum WeaponTier",
                  "name": "tier",
                  "type": "uint8"
                }
              ],
              "internalType": "struct WeaponFactory.Weapon",
              "name": "weapon",
              "type": "tuple"
            },
            {
              "internalType": "uint256",
              "name": "id",
              "type": "uint256"
            }
          ],
          "internalType": "struct WeaponFactory.WeaponDTO[]",
          "name": "",
          "type": "tuple[]"
        }
      ],
      "stateMutability": "view",
      "type": "function"
    },
    {
      "inputs": [
        {
          "internalType": "uint256",
          "name": "id",
          "type": "uint256"
        }
      ],
      "name": "_getWeaponByFighterId",
      "outputs": [
        {
          "components": [
            {
              "components": [
                {
                  "internalType": "uint32",
                  "name": "levelReq",
                  "type": "uint32"
                },
                {
                  "internalType": "uint32",
                  "name": "damage",
                  "type": "uint32"
                },
                {
                  "internalType": "uint16",
                  "name": "skillReq",
                  "type": "uint16"
                },
                {
                  "internalType": "enum WeaponType",
                  "name": "weapType",
                  "type": "uint8"
                },
                {
                  "internalType": "enum WeaponTier",
                  "name": "tier",
                  "type": "uint8"
                }
              ],
              "internalType": "struct WeaponFactory.Weapon",
              "name": "weapon",
              "type": "tuple"
            },
            {
              "internalType": "uint256",
              "name": "id",
              "type": "uint256"
            }
          ],
          "internalType": "struct WeaponFactory.WeaponDTO[]",
          "name": "",
          "type": "tuple[]"
        }
      ],
      "stateMutability": "view",
      "type": "function"
    },
    {
      "inputs": [
        {
          "internalType": "uint32",
          "name": "_level",
          "type": "uint32"
        },
        {
          "internalType": "enum WeaponType",
          "name": "_type",
          "type": "uint8"
        },
        {
          "internalType": "enum WeaponTier",
          "name": "_tier",
          "type": "uint8"
        }
      ],
      "name": "_purchaseWeapon",
      "outputs": [],
      "stateMutability": "payable",
      "type": "function"
    },
    {
      "inputs": [
        {
          "internalType": "uint256",
          "name": "_fighterId",
          "type": "uint256"
        },
        {
          "internalType": "uint16",
          "name": "_STR",
          "type": "uint16"
        },
        {
          "internalType": "uint16",
          "name": "_AGL",
          "type": "uint16"
        },
        {
          "internalType": "uint16",
          "name": "_LCK",
          "type": "uint16"
        },
        {
          "internalType": "uint16",
          "name": "_DEX",
          "type": "uint16"
        }
      ],
      "name": "_spendAvailablePoints",
      "outputs": [],
      "stateMutability": "nonpayable",
      "type": "function"
    },
    {
      "inputs": [
        {
          "internalType": "address",
          "name": "to",
          "type": "address"
        },
        {
          "internalType": "uint256",
          "name": "tokenId",
          "type": "uint256"
        }
      ],
      "name": "approve",
      "outputs": [],
      "stateMutability": "nonpayable",
      "type": "function"
    },
    {
      "inputs": [
        {
          "internalType": "uint256",
          "name": "_myFighterId",
          "type": "uint256"
        },
        {
          "internalType": "bool",
          "name": "_hasOwnerWeapon",
          "type": "bool"
        },
        {
          "internalType": "uint256",
          "name": "_myWeaponId",
          "type": "uint256"
        },
        {
          "internalType": "uint256",
          "name": "_targetFighterId",
          "type": "uint256"
        },
        {
          "internalType": "bool",
          "name": "_hasTargetWeapon",
          "type": "bool"
        },
        {
          "internalType": "uint256",
          "name": "_targetWeaponId",
          "type": "uint256"
        }
      ],
      "name": "attack",
      "outputs": [],
      "stateMutability": "nonpayable",
      "type": "function"
    },
    {
      "inputs": [
        {
          "internalType": "address",
          "name": "owner",
          "type": "address"
        }
      ],
      "name": "balanceOf",
      "outputs": [
        {
          "internalType": "uint256",
          "name": "",
          "type": "uint256"
        }
      ],
      "stateMutability": "view",
      "type": "function"
    },
    {
      "inputs": [
        {
          "internalType": "uint256",
          "name": "_fighterId",
          "type": "uint256"
        }
      ],
      "name": "buyFighter",
      "outputs": [],
      "stateMutability": "payable",
      "type": "function"
    },
    {
      "inputs": [
        {
          "internalType": "address",
          "name": "newAddr",
          "type": "address"
        }
      ],
      "name": "changeNFTHolderAccount",
      "outputs": [],
      "stateMutability": "nonpayable",
      "type": "function"
    },
    {
      "inputs": [],
      "name": "feePercent",
      "outputs": [
        {
          "internalType": "uint16",
          "name": "",
          "type": "uint16"
        }
      ],
      "stateMutability": "view",
      "type": "function"
    },
    {
      "inputs": [
        {
          "internalType": "address",
          "name": "_owner",
          "type": "address"
        }
      ],
      "name": "fetchAvailablePupils",
      "outputs": [
        {
          "internalType": "uint16",
          "name": "",
          "type": "uint16"
        }
      ],
      "stateMutability": "view",
      "type": "function"
    },
    {
      "inputs": [
        {
          "internalType": "uint256",
          "name": "tokenId",
          "type": "uint256"
        }
      ],
      "name": "getApproved",
      "outputs": [
        {
          "internalType": "address",
          "name": "",
          "type": "address"
        }
      ],
      "stateMutability": "view",
      "type": "function"
    },
    {
      "inputs": [
        {
          "internalType": "uint256",
          "name": "fighterId",
          "type": "uint256"
        }
      ],
      "name": "getFighterPrice",
      "outputs": [
        {
          "internalType": "uint256",
          "name": "",
          "type": "uint256"
        }
      ],
      "stateMutability": "view",
      "type": "function"
    },
    {
      "inputs": [
        {
          "internalType": "uint256",
          "name": "fighterId",
          "type": "uint256"
        }
      ],
      "name": "getFighterSeller",
      "outputs": [
        {
          "internalType": "address",
          "name": "",
          "type": "address"
        }
      ],
      "stateMutability": "view",
      "type": "function"
    },
    {
      "inputs": [
        {
          "internalType": "address",
          "name": "receiver",
          "type": "address"
        },
        {
          "internalType": "uint256",
          "name": "_myFighterId",
          "type": "uint256"
        }
      ],
      "name": "giftFighter",
      "outputs": [],
      "stateMutability": "nonpayable",
      "type": "function"
    },
    {
      "inputs": [
        {
          "internalType": "address",
          "name": "owner",
          "type": "address"
        },
        {
          "internalType": "address",
          "name": "operator",
          "type": "address"
        }
      ],
      "name": "isApprovedForAll",
      "outputs": [
        {
          "internalType": "bool",
          "name": "",
          "type": "bool"
        }
      ],
      "stateMutability": "view",
      "type": "function"
    },
    {
      "inputs": [],
      "name": "name",
      "outputs": [
        {
          "internalType": "string",
          "name": "",
          "type": "string"
        }
      ],
      "stateMutability": "view",
      "type": "function"
    },
    {
      "inputs": [],
      "name": "owner",
      "outputs": [
        {
          "internalType": "address",
          "name": "",
          "type": "address"
        }
      ],
      "stateMutability": "view",
      "type": "function"
    },
    {
      "inputs": [
        {
          "internalType": "uint256",
          "name": "tokenId",
          "type": "uint256"
        }
      ],
      "name": "ownerOf",
      "outputs": [
        {
          "internalType": "address",
          "name": "",
          "type": "address"
        }
      ],
      "stateMutability": "view",
      "type": "function"
    },
    {
      "inputs": [
        {
          "internalType": "uint256",
          "name": "_myFighterId",
          "type": "uint256"
        },
        {
          "internalType": "uint256",
          "name": "price",
          "type": "uint256"
        }
      ],
      "name": "putUpForSale",
      "outputs": [],
      "stateMutability": "nonpayable",
      "type": "function"
    },
    {
      "inputs": [
        {
          "internalType": "string",
          "name": "_name",
          "type": "string"
        },
        {
          "internalType": "enum FighterClass",
          "name": "_class",
          "type": "uint8"
        }
      ],
      "name": "redeemAvailablePupil",
      "outputs": [],
      "stateMutability": "nonpayable",
      "type": "function"
    },
    {
      "inputs": [],
      "name": "renounceOwnership",
      "outputs": [],
      "stateMutability": "nonpayable",
      "type": "function"
    },
    {
      "inputs": [
        {
          "internalType": "address",
          "name": "from",
          "type": "address"
        },
        {
          "internalType": "address",
          "name": "to",
          "type": "address"
        },
        {
          "internalType": "uint256",
          "name": "tokenId",
          "type": "uint256"
        }
      ],
      "name": "safeTransferFrom",
      "outputs": [],
      "stateMutability": "nonpayable",
      "type": "function"
    },
    {
      "inputs": [
        {
          "internalType": "address",
          "name": "from",
          "type": "address"
        },
        {
          "internalType": "address",
          "name": "to",
          "type": "address"
        },
        {
          "internalType": "uint256",
          "name": "tokenId",
          "type": "uint256"
        },
        {
          "internalType": "bytes",
          "name": "_data",
          "type": "bytes"
        }
      ],
      "name": "safeTransferFrom",
      "outputs": [],
      "stateMutability": "nonpayable",
      "type": "function"
    },
    {
      "inputs": [
        {
          "internalType": "address",
          "name": "operator",
          "type": "address"
        },
        {
          "internalType": "bool",
          "name": "approved",
          "type": "bool"
        }
      ],
      "name": "setApprovalForAll",
      "outputs": [],
      "stateMutability": "nonpayable",
      "type": "function"
    },
    {
      "inputs": [
        {
          "internalType": "bytes4",
          "name": "interfaceId",
          "type": "bytes4"
        }
      ],
      "name": "supportsInterface",
      "outputs": [
        {
          "internalType": "bool",
          "name": "",
          "type": "bool"
        }
      ],
      "stateMutability": "view",
      "type": "function"
    },
    {
      "inputs": [],
      "name": "symbol",
      "outputs": [
        {
          "internalType": "string",
          "name": "",
          "type": "string"
        }
      ],
      "stateMutability": "view",
      "type": "function"
    },
    {
      "inputs": [
        {
          "internalType": "uint256",
          "name": "_id",
          "type": "uint256"
        }
      ],
      "name": "tokenURI",
      "outputs": [
        {
          "internalType": "string",
          "name": "",
          "type": "string"
        }
      ],
      "stateMutability": "view",
      "type": "function"
    },
    {
      "inputs": [
        {
          "internalType": "address",
          "name": "from",
          "type": "address"
        },
        {
          "internalType": "address",
          "name": "to",
          "type": "address"
        },
        {
          "internalType": "uint256",
          "name": "tokenId",
          "type": "uint256"
        }
      ],
      "name": "transferFrom",
      "outputs": [],
      "stateMutability": "nonpayable",
      "type": "function"
    },
    {
      "inputs": [
        {
          "internalType": "address",
          "name": "newOwner",
          "type": "address"
        }
      ],
      "name": "transferOwnership",
      "outputs": [],
      "stateMutability": "nonpayable",
      "type": "function"
    },
    {
      "stateMutability": "payable",
      "type": "receive"
    }
  ],
  "bytecode": "0x610140604052603c608052600560a052600d80546001600160a01b031916732b6a10c78c6374d4b43d2fc2295023b7455339511790556602aa1efb94e00060c0526601c6bf5263400060e0526605543df729c00061010052660aa87bee5380006101205260006013556014805463ffffffff1916600f1790553480156200008557600080fd5b506040518060400160405280601381526020017f43727970746f4172656e61466967687465727300000000000000000000000000815250604051806040016040528060078152602001662334b3b43a32b960c91b815250620000f6620000f06200038560201b60201c565b62000389565b81516200010b906001906020850190620003d9565b50805162000121906002906020840190620003d9565b50506040805180820190915260078152662bb0b93934b7b960c91b602080830191825260008052600b905290516200017d92507fdf7de25b7f1fd6d0b5205f0e18f1f35bd7b8d84cce336588d184533ce43a6f769190620003d9565b5060408051808201909152600781526653616d7572616960c81b60208083019182526001600052600b90529051620001d7917f72c6bfb7988af3a1efa6568f02a999bc52252641c659d85961ca3d372b57d5cf91620003d9565b50604080518082019091526005815264111c9d5a5960da1b60208083019182526002600052600b905290516200022f917fa50eece07c7db1631545c0069bd8f5f54d5935e215d59097edf258a44ba9163491620003d9565b5060408051808201909152601f81527f68747470733a2f2f692e696d6775722e636f6d2f79684a4f7a4e542e706e6700602080830191825260008052600c905290516200029e917f13649b2456f1b42fef0f0040b3aaeabcd21a76a0f3f5defd4f583839455116e891620003d9565b5060408051808201909152601f81527f68747470733a2f2f692e696d6775722e636f6d2f74744575656d7a2e706e670060208083019182526001600052600c905290516200030e917fd421a5181c571bba3f01190c922c3b2a896fc1d84e86c9f17ac10e67ebef8b5c91620003d9565b5060408051808201909152601f81527f68747470733a2f2f692e696d6775722e636f6d2f6153393246617a2e706e670060208083019182526002600052600c905290516200037e917f5d6016397a73f5e079297ac5a36fef17b4d9c3831618e63ab105738020ddd72091620003d9565b50620004c6565b3390565b600080546001600160a01b038381166001600160a01b0319831681178455604051919092169283917f8be0079c531659141344cd1fd0a4f28419497f9722a3daafe3b4186f6b6457e09190a35050565b828054620003e79062000495565b90600052602060002090601f0160209004810192826200040b576000855562000456565b82601f106200042657805160ff191683800117855562000456565b8280016001018555821562000456579182015b828111156200045657825182559160200191906001019062000439565b506200046492915062000468565b5090565b5b8082111562000464576000815560010162000469565b634e487b7160e01b600052602260045260246000fd5b600281046001821680620004aa57607f821691505b60208210811415620004c057620004c06200047f565b50919050565b60805160a05160c05160e0516101005161012051615ecc6200052460003960006121300152600061215a015260006120e4015260006120940152600081816104270152612c460152600081816127470152612f2c0152615ecc6000f3fe60806040526004361061021e5760003560e01c806395d89b4111610123578063cbb5bbbf116100ab578063ea9652551161006f578063ea96525514610671578063ecfa934814610691578063f2fde38b146106b1578063f9d7f171146106d1578063fbba44c6146106fe57600080fd5b8063cbb5bbbf146105d8578063ccc72842146105eb578063d5f5da3b1461060b578063dc9326761461062b578063e985e9c51461065157600080fd5b8063adec464a116100f2578063adec464a14610550578063b67340b514610570578063b88d4fde14610583578063c87b56dd146105a3578063cb74c2a8146105c357600080fd5b806395d89b41146104ce5780639b1f87e8146104e35780639c42a20714610510578063a22cb4651461053057600080fd5b80635e96c694116101a6578063790035071161017557806379003507146104005780637fd6f15c146104155780638da5cb5b146104565780638f2fd16c14610474578063927eeddc1461049457600080fd5b80635e96c6941461037e5780636352211e1461039e57806370a08231146103be578063715018a6146103eb57600080fd5b80630a424b72116101ed5780630a424b72146102d157806313c1bce1146102f1578063208ea9291461031157806323b872dd1461033e57806342842e0e1461035e57600080fd5b806301ffc9a71461022a57806306fdde0314610260578063081812fc14610282578063095ea7b3146102af57600080fd5b3661022557005b600080fd5b34801561023657600080fd5b5061024a6102453660046140e8565b61071e565b6040516102579190614113565b60405180910390f35b34801561026c57600080fd5b50610275610770565b604051610257919061417f565b34801561028e57600080fd5b506102a261029d3660046141a1565b610802565b60405161025791906141dc565b3480156102bb57600080fd5b506102cf6102ca3660046141fe565b61085b565b005b3480156102dd57600080fd5b506102cf6102ec36600461423b565b6108e1565b3480156102fd57600080fd5b506102cf61030c36600461426f565b610953565b34801561031d57600080fd5b5061033161032c36600461423b565b611080565b604051610257919061446a565b34801561034a57600080fd5b506102cf61035936600461447b565b611267565b34801561036a57600080fd5b506102cf61037936600461447b565b611298565b34801561038a57600080fd5b506102cf6103993660046144cb565b6112b3565b3480156103aa57600080fd5b506102a26103b93660046141a1565b611403565b3480156103ca57600080fd5b506103de6103d936600461423b565b611438565b60405161025791906144ed565b3480156103f757600080fd5b506102cf61147c565b34801561040c57600080fd5b506102cf6114b2565b34801561042157600080fd5b506104497f000000000000000000000000000000000000000000000000000000000000000081565b60405161025791906144fb565b34801561046257600080fd5b506000546001600160a01b03166102a2565b34801561048057600080fd5b506102a261048f3660046141a1565b61150b565b3480156104a057600080fd5b506104496104af36600461423b565b6001600160a01b03166000908152600a602052604090205461ffff1690565b3480156104da57600080fd5b5061027561155f565b3480156104ef57600080fd5b506105036104fe3660046141a1565b61156e565b60405161025791906146ff565b34801561051c57600080fd5b506102cf61052b3660046141fe565b611862565b34801561053c57600080fd5b506102cf61054b366004614710565b61199f565b34801561055c57600080fd5b506102cf61056b3660046147ad565b6119ae565b6102cf61057e36600461482d565b611a1f565b34801561058f57600080fd5b506102cf61059e366004614961565b611aae565b3480156105af57600080fd5b506102756105be3660046141a1565b611ae6565b3480156105cf57600080fd5b506007546103de565b6102cf6105e63660046141a1565b611e1d565b3480156105f757600080fd5b506103de6106063660046141a1565b611fad565b34801561061757600080fd5b506102cf6106263660046147ad565b611ff4565b34801561063757600080fd5b50336000908152600a602052604090205461ffff166103de565b34801561065d57600080fd5b5061024a61066c3660046149e0565b61205e565b34801561067d57600080fd5b506103de61068c366004614a13565b61208c565b34801561069d57600080fd5b506103316106ac3660046141a1565b612186565b3480156106bd57600080fd5b506102cf6106cc36600461423b565b6121aa565b3480156106dd57600080fd5b506106f16106ec36600461423b565b612203565b6040516102579190614ad8565b34801561070a57600080fd5b506102cf610719366004614afe565b6124da565b60006001600160e01b031982166380ac58cd60e01b148061074f57506001600160e01b03198216635b5e139f60e01b145b8061076a57506301ffc9a760e01b6001600160e01b03198316145b92915050565b60606001805461077f90614b8c565b80601f01602080910402602001604051908101604052809291908181526020018280546107ab90614b8c565b80156107f85780601f106107cd576101008083540402835291602001916107f8565b820191906000526020600020905b8154815290600101906020018083116107db57829003601f168201915b5050505050905090565b6000818152600360205260408120546001600160a01b031661083f5760405162461bcd60e51b815260040161083690614bff565b60405180910390fd5b506000908152600560205260409020546001600160a01b031690565b60006108668261269f565b9050806001600160a01b0316836001600160a01b0316141561089a5760405162461bcd60e51b815260040161083690614c4d565b336001600160a01b03821614806108b657506108b6813361205e565b6108d25760405162461bcd60e51b815260040161083690614cb7565b6108dc83836126d4565b505050565b6000546001600160a01b0316331461090b5760405162461bcd60e51b815260040161083690614cfc565b6001600160a01b0381166109315760405162461bcd60e51b815260040161083690614d5a565b600d80546001600160a01b0319166001600160a01b0392909216919091179055565b60008681526008602052604090205486906001600160a01b0316336001600160a01b0316146109945760405162461bcd60e51b815260040161083690614dad565b86600781815481106109a8576109a8614dbd565b600091825260209091206002909102015460ff16156109c657600080fd5b84600781815481106109da576109da614dbd565b600091825260209091206002909102015460ff16156109f857600080fd5b60008681526008602052604090205486906001600160a01b0316331415610a315760405162461bcd60e51b815260040161083690614e13565b600060078b81548110610a4657610a46614dbd565b90600052602060002090600202019050428160000160199054906101000a900463ffffffff1663ffffffff161115610a905760405162461bcd60e51b815260040161083690614e67565b610a9981612742565b60145463ffffffff168a15610d305760008a8152601160205260409020546001600160a01b0316336001600160a01b031614610ae75760405162461bcd60e51b815260040161083690614eb9565b600060108b81548110610afc57610afc614dbd565b60009182526020918290206040805160a08101825291909201805463ffffffff80821684526401000000008204169483019490945261ffff600160401b8504169282019290925291606083019060ff600160501b909104166001811115610b6557610b6561430f565b6001811115610b7657610b7661430f565b81528154602090910190600160581b900460ff166002811115610b9b57610b9b61430f565b6002811115610bac57610bac61430f565b9052508051845491925063ffffffff908116600160a81b909204161015610be55760405162461bcd60e51b815260040161083690614f1a565b600081606001516001811115610bfd57610bfd61430f565b1415610c3e576040810151835461ffff918216600160481b9091049091161015610c395760405162461bcd60e51b815260040161083690614f84565b610c74565b6040810151835461ffff918216600160381b9091049091161015610c745760405162461bcd60e51b815260040161083690614fee565b60018354600160e81b900460ff166002811115610c9357610c9361430f565b148015610cb55750600081606001516001811115610cb357610cb361430f565b145b80610cfc575060008354600160e81b900460ff166002811115610cda57610cda61430f565b148015610cfc5750600181606001516001811115610cfa57610cfa61430f565b145b15610d2657610d1f6002826020015163ffffffff1661278e90919063ffffffff16565b9150610d2e565b806020015191505b505b600060078a81548110610d4557610d45614dbd565b60009182526020909120601454600290920201915063ffffffff168915610ff7576000898152601160209081526040808320548e84526008909252909120546001600160a01b03908116911614610dae5760405162461bcd60e51b815260040161083690614eb9565b600060108a81548110610dc357610dc3614dbd565b60009182526020918290206040805160a08101825291909201805463ffffffff80821684526401000000008204169483019490945261ffff600160401b8504169282019290925291606083019060ff600160501b909104166001811115610e2c57610e2c61430f565b6001811115610e3d57610e3d61430f565b81528154602090910190600160581b900460ff166002811115610e6257610e6261430f565b6002811115610e7357610e7361430f565b9052508051845491925063ffffffff908116600160a81b909204161015610eac5760405162461bcd60e51b815260040161083690614f1a565b600081606001516001811115610ec457610ec461430f565b1415610f05576040810151835461ffff918216600160481b9091049091161015610f005760405162461bcd60e51b815260040161083690614f84565b610f3b565b6040810151835461ffff918216600160381b9091049091161015610f3b5760405162461bcd60e51b815260040161083690614fee565b60018354600160e81b900460ff166002811115610f5a57610f5a61430f565b148015610f7c5750600081606001516001811115610f7a57610f7a61430f565b145b80610fc3575060008354600160e81b900460ff166002811115610fa157610fa161430f565b148015610fc35750600181606001516001811115610fc157610fc161430f565b145b15610fed57610fe66002826020015163ffffffff1661278e90919063ffffffff16565b9150610ff5565b806020015191505b505b60006110078f86868f87876127a1565b90508015611026576110188f612975565b6110218c612a19565b611038565b61102f8f612a19565b6110388c612975565b7fbf30fbcd321ef240818144cebd3d57345fa6d5d053a6778754a84a8478272f32816040516110679190614113565b60405180910390a1505050505050505050505050505050565b6001600160a01b0381166000908152601260205260408120546060918167ffffffffffffffff8111156110b5576110b5614873565b6040519080825280602002602001820160405280156110ee57816020015b6110db613f3b565b8152602001906001900390816110d35790505b509050816110fd579392505050565b6000805b60105481101561125d576000818152601160205260409020546001600160a01b038781169116141561124b5760405180604001604052806010838154811061114b5761114b614dbd565b60009182526020918290206040805160a08101825291909201805463ffffffff80821684526401000000008204169483019490945261ffff600160401b8504169282019290925291606083019060ff600160501b9091041660018111156111b4576111b461430f565b60018111156111c5576111c561430f565b81528154602090910190600160581b900460ff1660028111156111ea576111ea61430f565b60028111156111fb576111fb61430f565b8152505081526020018281525083838151811061121a5761121a614dbd565b6020026020010181905250818061123090615014565b925050838061123e9061502f565b9450508361124b5761125d565b8061125581615014565b915050611101565b5090949350505050565b6112713382612a87565b61128d5760405162461bcd60e51b815260040161083690615094565b6108dc838383612b11565b6108dc83838360405180602001604052806000815250611aae565b60008281526008602052604090205482906001600160a01b0316336001600160a01b0316146112f45760405162461bcd60e51b815260040161083690614dad565b6000838152600860209081526040808320546001600160a01b03168352600990915290205483906001111561133b5760405162461bcd60e51b8152600401610836906150ed565b826000811161134957600080fd5b846007818154811061135d5761135d614dbd565b600091825260209091206002909102015460ff161561137b57600080fd5b61139133600d546001600160a01b031688612b11565b61139a85612c3a565b6000878152600e6020908152604080832093909355600f90522080546001600160a01b031916331790556007805460019190889081106113dc576113dc614dbd565b60009182526020909120600290910201805460ff1916911515919091179055505050505050565b6000818152600860205260408120546001600160a01b03168061076a5760405162461bcd60e51b815260040161083690615143565b60006001600160a01b0382166114605760405162461bcd60e51b81526004016108369061519a565b506001600160a01b031660009081526009602052604090205490565b6000546001600160a01b031633146114a65760405162461bcd60e51b815260040161083690614cfc565b6114b06000612c80565b565b6000546001600160a01b031633146114dc5760405162461bcd60e51b815260040161083690614cfc565b60405133904780156108fc02916000818181858888f19350505050158015611508573d6000803e3d6000fd5b50565b6000816007818154811061152157611521614dbd565b600091825260209091206002909102015460ff1661153e57600080fd5b6000838152600f60205260409020546001600160a01b031691505b50919050565b60606002805461077f90614b8c565b606060075482111561157f57600080fd5b8161158a5760075491505b60008267ffffffffffffffff8111156115a5576115a5614873565b6040519080825280602002602001820160405280156115de57816020015b6115cb613f7b565b8152602001906001900390816115c35790505b506007549091506115ef5792915050565b6007546000908190611603906001906151aa565b90505b6007546116149086906151aa565b81106118595760408051606081018252600083815260086020908152929020546001600160a01b031681526007805491928301918490811061165857611658614dbd565b6000918252602091829020604080516101e0810182526002938402909201805460ff8082161515855261ffff61010080840482169887019890985263010000008304811694860194909452600160281b820484166060860152600160381b820484166080860152600160481b8204841660a0860152600160581b8204841660c0860152600160681b8204841660e0860152600160781b8204841696850196909652600160881b81048316610120850152600160981b810490921661014084015263ffffffff600160a81b83048116610160850152600160c81b830416610180840152919391926101a0850192600160e81b9092049091169081111561175f5761175f61430f565b60028111156117705761177061430f565b815260200160018201805461178490614b8c565b80601f01602080910402602001604051908101604052809291908181526020018280546117b090614b8c565b80156117fd5780601f106117d2576101008083540402835291602001916117fd565b820191906000526020600020905b8154815290600101906020018083116117e057829003601f168201915b50505050508152505081526020018281525083838151811061182157611821614dbd565b6020026020010181905250818061183790615014565b9250508482141561184757611859565b806118518161502f565b915050611606565b50909392505050565b60008181526008602052604090205481906001600160a01b0316336001600160a01b0316146118a35760405162461bcd60e51b815260040161083690614dad565b6000828152600860209081526040808320546001600160a01b0316835260099091529020548290600111156118ea5760405162461bcd60e51b8152600401610836906150ed565b82600781815481106118fe576118fe614dbd565b600091825260209091206002909102015460ff161561191c57600080fd5b6001600160a01b0385166119425760405162461bcd60e51b815260040161083690615205565b61194d338686612b11565b6001600160a01b038516336001600160a01b03167fa64e36941fd6ccca91d7915b34e77bde711b5ec2338168949868a32e3e5dd1fc8660405161199091906144ed565b60405180910390a35050505050565b6119aa338383612cd0565b5050565b33600090815260096020526040902054156119db5760405162461bcd60e51b815260040161083690615298565b6119e6838383612d73565b6000600a81335b6001600160a01b031681526020810191909152604001600020805461ffff191661ffff92909216919091179055505050565b611a29838261208c565b80341015611a495760405162461bcd60e51b8152600401610836906152f7565b6000611a55858461208c565b90506000611a6382346151aa565b90508015611a9a57604051339082156108fc029083906000818181858888f19350505050158015611a98573d6000803e3d6000fd5b505b611aa63387878761327a565b505050505050565b611ab83383612a87565b611ad45760405162461bcd60e51b815260040161083690615094565b611ae084848484613575565b50505050565b6060600060078381548110611afd57611afd614dbd565b6000918252602091829020604080516101e0810182526002938402909201805460ff8082161515855261ffff61010080840482169887019890985263010000008304811694860194909452600160281b820484166060860152600160381b820484166080860152600160481b8204841660a0860152600160581b8204841660c0860152600160681b8204841660e0860152600160781b8204841696850196909652600160881b81048316610120850152600160981b810490921661014084015263ffffffff600160a81b83048116610160850152600160c81b830416610180840152919391926101a0850192600160e81b90920490911690811115611c0457611c0461430f565b6002811115611c1557611c1561430f565b8152602001600182018054611c2990614b8c565b80601f0160208091040260200160405190810160405280929190818152602001828054611c5590614b8c565b8015611ca25780601f10611c7757610100808354040283529160200191611ca2565b820191906000526020600020905b815481529060010190602001808311611c8557829003601f168201915b50505050508152505090506000611cc0826060015161ffff166135a8565b90506000611cd883610160015163ffffffff166135a8565b90506000611ced846080015161ffff166135a8565b90506000611d028560a0015161ffff166135a8565b90506000611d178660e0015161ffff166135a8565b90506000611d2c8760c0015161ffff166135a8565b90506000611de9611d3c8b6135a8565b896101c00151600b60008c6101a001516002811115611d5d57611d5d61430f565b6002811115611d6e57611d6e61430f565b8152602001908152602001600020600c60008d6101a001516002811115611d9757611d9761430f565b6002811115611da857611da861430f565b81526020019081526020016000208a8c8b8b8b8b604051602001611dd59a999897969594939291906153c1565b6040516020818303038152906040526136a6565b9050600081604051602001611dfe9190615644565b60408051601f198184030181529190529b9a5050505050505050505050565b8060078181548110611e3157611e31614dbd565b600091825260209091206002909102015460ff16611e4e57600080fd5b6000828152600e60205260409020548290611e68906137fa565b341015611e875760405162461bcd60e51b8152600401610836906156b9565b6000838152600e6020526040812054611e9f906137fa565b90506000611ead82346151aa565b90508015611ee457604051339082156108fc029083906000818181858888f19350505050158015611ee2573d6000803e3d6000fd5b505b600060078681548110611ef957611ef9614dbd565b60009182526020909120600290910201805460ff1916911515919091179055611f2233866126d4565b600d54611f39906001600160a01b03163387612b11565b6000858152600f60205260408082205490516001600160a01b039091169184156108fc02918591818181858888f19350505050158015611f7d573d6000803e3d6000fd5b50505060009283525050600e60209081526040808320839055600f909152902080546001600160a01b0319169055565b60008160078181548110611fc357611fc3614dbd565b600091825260209091206002909102015460ff16611fe057600080fd5b50506000908152600e602052604090205490565b336000908152600a6020526040902054600161ffff909116101561202a5760405162461bcd60e51b815260040161083690615723565b612035838383612d73565b336000908152600a60205260409020546120549061ffff166001613813565b600a6000336119ed565b6001600160a01b03918216600090815260066020908152604080832093909416825291909152205460ff1690565b6000806120c27f000000000000000000000000000000000000000000000000000000000000000063ffffffff8087169061381f16565b905060028360028111156120d8576120d861430f565b141561211057612108817f000000000000000000000000000000000000000000000000000000000000000061382b565b91505061076a565b60008360028111156121245761212461430f565b141561215457612108817f000000000000000000000000000000000000000000000000000000000000000061382b565b61217e817f000000000000000000000000000000000000000000000000000000000000000061382b565b949350505050565b60008181526008602052604090205460609061076a906001600160a01b0316611080565b6000546001600160a01b031633146121d45760405162461bcd60e51b815260040161083690614cfc565b6001600160a01b0381166121fa5760405162461bcd60e51b815260040161083690615776565b61150881612c80565b6001600160a01b0381166000908152600960205260408120546060918167ffffffffffffffff81111561223857612238614873565b60405190808252806020026020018201604052801561227157816020015b61225e613f9e565b8152602001906001900390816122565790505b50905081612280579392505050565b6000805b60075481101561125d576000818152600860205260409020546001600160a01b03878116911614156124c8576040518060400160405280600783815481106122ce576122ce614dbd565b6000918252602091829020604080516101e0810182526002938402909201805460ff8082161515855261ffff61010080840482169887019890985263010000008304811694860194909452600160281b820484166060860152600160381b820484166080860152600160481b8204841660a0860152600160581b8204841660c0860152600160681b8204841660e0860152600160781b8204841696850196909652600160881b81048316610120850152600160981b810490921661014084015263ffffffff600160a81b83048116610160850152600160c81b830416610180840152919391926101a0850192600160e81b909204909116908111156123d5576123d561430f565b60028111156123e6576123e661430f565b81526020016001820180546123fa90614b8c565b80601f016020809104026020016040519081016040528092919081815260200182805461242690614b8c565b80156124735780601f1061244857610100808354040283529160200191612473565b820191906000526020600020905b81548152906001019060200180831161245657829003601f168201915b50505050508152505081526020018281525083838151811061249757612497614dbd565b602002602001018190525081806124ad90615014565b92505083806124bb9061502f565b945050836124c85761125d565b806124d281615014565b915050612284565b60008581526008602052604090205485906001600160a01b0316336001600160a01b03161461251b5760405162461bcd60e51b815260040161083690614dad565b60006007878154811061253057612530614dbd565b6000918252602090912060029091020190508561255161ffff821687613837565b905061256161ffff821686613837565b905061257161ffff821685613837565b825490915061ffff600160981b909104811690821611156125a45760405162461bcd60e51b8152600401610836906157f6565b81546125bb90600160981b900461ffff1682613813565b825461ffff60981b1916600160981b61ffff92831602178084556125e891600160381b9091041688613837565b825468ffff000000000000001916600160381b61ffff928316021780845561261991600160481b9091041687613837565b82546affff0000000000000000001916600160481b61ffff928316021780845561264c91600160581b9091041685613837565b825461ffff60581b1916600160581b61ffff928316021780845561267991600160681b9091041686613837565b825461ffff91909116600160681b0261ffff60681b199091161790915550505050505050565b6000818152600360205260408120546001600160a01b03168061076a5760405162461bcd60e51b815260040161083690615143565b600081815260056020526040902080546001600160a01b0319166001600160a01b03841690811790915581906127098261269f565b6001600160a01b03167f8c5be1e5ebec7d5bd14f71427d1e84f3dd0314c0f7b2291e5b200ac8c7c3b92560405160405180910390a45050565b61276c7f000000000000000000000000000000000000000000000000000000000000000042615806565b815463ffffffff91909116600160c81b0263ffffffff60c81b19909116179055565b600061279a828461581e565b9392505050565b8454600090600160281b900461ffff1660028754600160e81b900460ff1660028111156127d0576127d061430f565b141561282a576127eb63ffffffff8083169060199061384316565b87549091506000906128109063ffffffff600160a81b90910481169060059061278e16565b905061282663ffffffff80841690839061384316565b9150505b8354600160281b900461ffff1660028554600160e81b900460ff1660028111156128565761285661430f565b14156128b05761287163ffffffff8083169060199061384316565b88549091506000906128969063ffffffff600160a81b90910481169060059061278e16565b90506128ac63ffffffff80841690839061384316565b9150505b60005b88546128dd908b908a90600160681b900461ffff16338a548c90600160581b900461ffff1661384f565b905061ffff811663ffffffff8316116128fc576001935050505061296b565b61290a61ffff821683615851565b86549092506129379088908790600160681b900461ffff16338d548f90600160581b900461ffff1661384f565b905061ffff811663ffffffff841611612956576000935050505061296b565b61296461ffff821684615851565b92506128b3565b9695505050505050565b60006007828154811061298a5761298a614dbd565b6000918252602090912060029091020180549091506129b390610100900461ffff166001613837565b815462ffff00191661010061ffff92831602178083556129dd91600160781b909104166028613837565b815461ffff60781b1916600160781b61ffff928316810291909117808455600160881b81048316919004909116106119aa576119aa8183613962565b600060078281548110612a2e57612a2e614dbd565b600091825260209091206002909102018054909150612a59906301000000900461ffff166001613837565b815464ffff0000001916630100000061ffff92831602178083556129dd91600160781b909104166019613837565b6000818152600360205260408120546001600160a01b0316612abb5760405162461bcd60e51b8152600401610836906158b1565b6000612ac68361269f565b9050806001600160a01b0316846001600160a01b03161480612b015750836001600160a01b0316612af684610802565b6001600160a01b0316145b8061217e575061217e818561205e565b6000818152600860205260409020546001600160a01b03848116911614612b4a5760405162461bcd60e51b815260040161083690615903565b6001600160a01b038216612b705760405162461bcd60e51b815260040161083690615954565b612b7b6000826126d4565b6001600160a01b038316600090815260096020526040902054612b9f906001613af5565b6001600160a01b038085166000908152600960205260408082209390935590841681522054612bcf90600161382b565b6001600160a01b038084166000818152600960209081526040808320959095558582526008905283812080546001600160a01b031916831790559251849391928716917fddf252ad1be2c89b69c2b068fc378daa952ba7f163c4a11628f55a4df523b3ef91a4505050565b60006064612c6c61ffff7f00000000000000000000000000000000000000000000000000000000000000001684615964565b612c769190615994565b61076a9083615806565b600080546001600160a01b038381166001600160a01b0319831681178455604051919092169283917f8be0079c531659141344cd1fd0a4f28419497f9722a3daafe3b4186f6b6457e09190a35050565b816001600160a01b0316836001600160a01b03161415612d025760405162461bcd60e51b8152600401610836906159dc565b6001600160a01b0383811660008181526006602090815260408083209487168084529490915290819020805460ff1916851515179055517f17307eab39ab6107e8899845ad3d59bd9653f200f220920489ca2b5937696c3190612d66908590614113565b60405180910390a3505050565b828280612d925760405162461bcd60e51b815260040161083690615a3b565b826000816002811115612da757612da761430f565b1480612dc457506001816002811115612dc257612dc261430f565b145b80612de057506002816002811115612dde57612dde61430f565b145b612dfc5760405162461bcd60e51b815260040161083690615a9b565b85858080601f01602080910402602001604051908101604052809392919081815260200183838082843760009201829052509250612e3d9150339050612203565b90506000805b8251811015612e9857612e78838281518110612e6157612e61614dbd565b6020026020010151600001516101c0015185613b01565b15612e865760019150612e98565b80612e9081615014565b915050612e43565b508015612eb75760405162461bcd60e51b815260040161083690615b05565b604080516101e08101825260008082526020820181905291810182905260646060820181905260016080830181905260a0830181905260c0830181905260e0830181905261010083018490526101208301919091526101408201929092526101608101919091526007906101808101612f50427f000000000000000000000000000000000000000000000000000000000000000061382b565b63ffffffff168152602001896002811115612f6d57612f6d61430f565b81526020018b8b8080601f016020809104026020016040519081016040528093929190818152602001838380828437600081840152601f19601f82011690508083019250505050505050815250908060018154018082558091505060019003906000526020600020906002020160009091909190915060008201518160000160006101000a81548160ff02191690831515021790555060208201518160000160016101000a81548161ffff021916908361ffff16021790555060408201518160000160036101000a81548161ffff021916908361ffff16021790555060608201518160000160056101000a81548161ffff021916908361ffff16021790555060808201518160000160076101000a81548161ffff021916908361ffff16021790555060a08201518160000160096101000a81548161ffff021916908361ffff16021790555060c082015181600001600b6101000a81548161ffff021916908361ffff16021790555060e082015181600001600d6101000a81548161ffff021916908361ffff16021790555061010082015181600001600f6101000a81548161ffff021916908361ffff1602179055506101208201518160000160116101000a81548161ffff021916908361ffff1602179055506101408201518160000160136101000a81548161ffff021916908361ffff1602179055506101608201518160000160156101000a81548163ffffffff021916908363ffffffff1602179055506101808201518160000160196101000a81548163ffffffff021916908363ffffffff1602179055506101a082015181600001601d6101000a81548160ff021916908360028111156131df576131df61430f565b02179055506101c08201518051613200916001840191602090910190613fb1565b505060075460009150613215906001906151aa565b600081815260086020908152604080832080546001600160a01b031916339081179091558352600990915290205490915061325190600161382b565b3360008181526009602052604090209190915561326e9082613b5a565b50505050505050505050565b8260018163ffffffff1610156132a25760405162461bcd60e51b815260040161083690615b64565b8260008160018111156132b7576132b761430f565b14806132d4575060018160018111156132d2576132d261430f565b145b6132f05760405162461bcd60e51b815260040161083690615bc2565b8260008160028111156133055761330561430f565b1480613322575060018160028111156133205761332061430f565b145b8061333e5750600281600281111561333c5761333c61430f565b145b61335a5760405162461bcd60e51b815260040161083690615bc2565b60008085600281111561336f5761336f61430f565b1415613379575060085b600185600281111561338d5761338d61430f565b1415613397575060065b60028560028111156133ab576133ab61430f565b14156133b5575060035b60106040518060a001604052808963ffffffff1681526020016133d88a89613b74565b63ffffffff1681526020018361ffff1681526020018860018111156133ff576133ff61430f565b81526020018760028111156134165761341661430f565b9052815460018181018455600093845260209384902083519201805494840151604085015161ffff16600160401b0269ffff00000000000000001963ffffffff9283166401000000000267ffffffffffffffff199098169290951691909117959095179283168517815560608401519394909392849260ff60501b199092166affffff0000000000000000199091161790600160501b9084908111156134be576134be61430f565b021790555060808201518154829060ff60581b1916600160581b8360028111156134ea576134ea61430f565b021790555050508760116000600160108054905061350891906151aa565b81526020808201929092526040908101600090812080546001600160a01b0319166001600160a01b03958616179055928b168352601290915290205461354f90600161382b565b6001600160a01b0390981660009081526012602052604090209790975550505050505050565b613580848484612b11565b61358c84848484613bf0565b611ae05760405162461bcd60e51b815260040161083690615c21565b6060816135cc5750506040805180820190915260018152600360fc1b602082015290565b8160005b81156135f657806135e081615014565b91506135ef9050600a83615994565b91506135d0565b60008167ffffffffffffffff81111561361157613611614873565b6040519080825280601f01601f19166020018201604052801561363b576020820181803683370190505b5090505b841561217e576136506001836151aa565b915061365d600a86615c31565b613668906030615806565b60f81b81838151811061367d5761367d614dbd565b60200101906001600160f81b031916908160001a90535061369f600a86615994565b945061363f565b60608151600014156136c657505060408051602081019091526000815290565b6000604051806060016040528060408152602001615e5760409139905060006003845160026136f59190615806565b6136ff9190615994565b61370a906004615964565b67ffffffffffffffff81111561372257613722614873565b6040519080825280601f01601f19166020018201604052801561374c576020820181803683370190505b509050600182016020820185865187015b808210156137b8576003820191508151603f8160121c168501518453600184019350603f81600c1c168501518453600184019350603f8160061c168501518453600184019350603f811685015184536001840193505061375d565b50506003865106600181146137d457600281146137e7576137ef565b603d6001830353603d60028303536137ef565b603d60018303535b509195945050505050565b60006015613809836014615964565b61076a9190615994565b600061279a8284615c49565b600061279a8284615964565b600061279a8284615806565b600061279a8284615c5c565b600061279a8284615c80565b600061385b8483613cee565b156138a45782877fcce4f0668cb0ecd051f3e42f34aaff29f7fc1d9554bcf8d825cb4960f15a9e77600080604051613894929190615cbf565b60405180910390a350600061296b565b6138ae8486613cee565b1561391f5782877fcce4f0668cb0ecd051f3e42f34aaff29f7fc1d9554bcf8d825cb4960f15a9e776138eb63ffffffff808b169060029061278e16565b60016040516138fb929190615cda565b60405180910390a361391863ffffffff8088169060029061278e16565b905061296b565b82877fcce4f0668cb0ecd051f3e42f34aaff29f7fc1d9554bcf8d825cb4960f15a9e77886000604051613953929190615cda565b60405180910390a3508461296b565b815461397a90600160881b900461ffff166064613837565b825461ffff91909116600160881b0261ffff60881b19909116178083556139b49063ffffffff600160a81b90910481169060019061384316565b825463ffffffff60a81b1916600160a81b63ffffffff92831602178084556139ec91600160281b90910461ffff1690600a9061383716565b825466ffff00000000001916600160281b61ffff9283160217808455613a1c91600160981b909104166001613837565b825461ffff91909116600160981b0261ffff60981b1990911617808355613a569063ffffffff600160a81b909104811690600a90613d7016565b63ffffffff166119aa576000818152600860209081526040808320546001600160a01b0316808452600a90925290912054613a969061ffff166001613837565b6001600160a01b0382166000908152600a60205260409020805461ffff191661ffff92909216919091179055613acb81613d7c565b156108dc5782546108dc908290600160a81b900463ffffffff16613aee82613dcb565b600261327a565b600061279a82846151aa565b600081604051602001613b149190615ce8565b6040516020818303038152906040528051906020012083604051602001613b3b9190615ce8565b6040516020818303038152906040528051906020012014905092915050565b6119aa828260405180602001604052806000815250613e1a565b60006002826002811115613b8a57613b8a61430f565b1415613bac57613ba563ffffffff8085169060029061278e16565b905061076a565b6000826002811115613bc057613bc061430f565b1415613bdb57613ba563ffffffff8085169060049061278e16565b61279a63ffffffff8085169060039061278e16565b60006001600160a01b0384163b15613ce357604051630a85bd0160e11b81526001600160a01b0385169063150b7a0290613c34903390899088908890600401615cf4565b6020604051808303816000875af1925050508015613c6f575060408051601f3d908101601f19168201909252613c6c91810190615d39565b60015b613cc9573d808015613c9d576040519150601f19603f3d011682016040523d82523d6000602084013e613ca2565b606091505b508051613cc15760405162461bcd60e51b815260040161083690615c21565b805181602001fd5b6001600160e01b031916630a85bd0160e11b14905061217e565b506001949350505050565b600080613d0061ffff84166005615806565b601354909150613d1190600161382b565b6013819055604051600091613d5191606491613d339142918a91602001615d82565b60408051601f19818403018152919052805160209091012090613e4d565b9050818111613d655760019250505061076a565b506000949350505050565b600061279a8284615db9565b601354600090613d8d90600161382b565b6013819055604051600091613daf91606491613d339142918891602001615d82565b905060288111613dc25750600192915050565b50600092915050565b601354600090613ddc90600161382b565b6013819055604051600091613dfe91606491613d339142918891602001615d82565b905060328111613e115750600092915050565b50600192915050565b613e248383613e59565b613e316000848484613bf0565b6108dc5760405162461bcd60e51b815260040161083690615c21565b600061279a8284615c31565b6001600160a01b038216613e7f5760405162461bcd60e51b815260040161083690615e02565b6000818152600360205260409020546001600160a01b031615613eb45760405162461bcd60e51b815260040161083690615e46565b6001600160a01b0382166000908152600460205260408120805460019290613edd908490615806565b909155505060008181526003602052604080822080546001600160a01b0319166001600160a01b03861690811790915590518392907fddf252ad1be2c89b69c2b068fc378daa952ba7f163c4a11628f55a4df523b3ef908290a45050565b6040805160e0810182526000918101828152606082018390526080820183905260a0820183905260c08201929092529081905b8152602001600081525090565b604051806060016040528060006001600160a01b03168152602001613f6e614035565b6040518060400160405280613f6e614035565b828054613fbd90614b8c565b90600052602060002090601f016020900481019282613fdf5760008555614025565b82601f10613ff857805160ff1916838001178555614025565b82800160010185558215614025579182015b8281111561402557825182559160200191906001019061400a565b506140319291506140b1565b5090565b604080516101e081018252600080825260208201819052918101829052606081018290526080810182905260a0810182905260c0810182905260e0810182905261010081018290526101208101829052610140810182905261016081018290526101808101829052906101a08201908152602001606081525090565b5b8082111561403157600081556001016140b2565b6001600160e01b031981165b811461150857600080fd5b803561076a816140c6565b6000602082840312156140fd576140fd600080fd5b600061217e84846140dd565b8015155b82525050565b6020810161076a8284614109565b60005b8381101561413c578181015183820152602001614124565b83811115611ae05750506000910152565b6000614157825190565b80845260208401935061416e818560208601614121565b601f01601f19169290920192915050565b6020808252810161279a818461414d565b806140d2565b803561076a81614190565b6000602082840312156141b6576141b6600080fd5b600061217e8484614196565b60006001600160a01b03821661076a565b61410d816141c2565b6020810161076a82846141d3565b6140d2816141c2565b803561076a816141ea565b6000806040838503121561421457614214600080fd5b600061422085856141f3565b925050602061423185828601614196565b9150509250929050565b60006020828403121561425057614250600080fd5b600061217e84846141f3565b8015156140d2565b803561076a8161425c565b60008060008060008060c0878903121561428b5761428b600080fd5b60006142978989614196565b96505060206142a889828a01614264565b95505060406142b989828a01614196565b94505060606142ca89828a01614196565b93505060806142db89828a01614264565b92505060a06142ec89828a01614196565b9150509295509295509295565b63ffffffff811661410d565b61ffff811661410d565b634e487b7160e01b600052602160045260246000fd5b600281106115085761150861430f565b8061433f81614325565b919050565b600061076a82614335565b61410d81614344565b600381106115085761150861430f565b8061433f81614358565b600061076a82614368565b61410d81614372565b805160a083019061439784826142f9565b5060208201516143aa60208501826142f9565b5060408201516143bd6040850182614305565b5060608201516143d0606085018261434f565b506080820151611ae0608085018261437d565b8061410d565b805160c08301906143fa8482614386565b506020820151611ae060a08501826143e3565b600061441983836143e9565b505060c00190565b600061442b825190565b80845260209384019383018060005b8381101561445f57815161444e888261440d565b97506020830192505060010161443a565b509495945050505050565b6020808252810161279a8184614421565b60008060006060848603121561449357614493600080fd5b600061449f86866141f3565b93505060206144b0868287016141f3565b92505060406144c186828701614196565b9150509250925092565b600080604083850312156144e1576144e1600080fd5b60006142208585614196565b6020810161076a82846143e3565b6020810161076a8284614305565b80516000906101e084019061451e8582614109565b5060208301516145316020860182614305565b5060408301516145446040860182614305565b5060608301516145576060860182614305565b50608083015161456a6080860182614305565b5060a083015161457d60a0860182614305565b5060c083015161459060c0860182614305565b5060e08301516145a360e0860182614305565b506101008301516145b8610100860182614305565b506101208301516145cd610120860182614305565b506101408301516145e2610140860182614305565b506101608301516145f76101608601826142f9565b5061018083015161460c6101808601826142f9565b506101a08301516146216101a086018261437d565b506101c08301518482036101c086015261463b828261414d565b95945050505050565b8051600090606084019061465885826141d3565b50602083015184820360208601526146708282614509565b915050604083015161468560408601826143e3565b509392505050565b600061279a8383614644565b60006146a3825190565b808452602084019350836020820285016146bd8560200190565b8060005b858110156146f257848403895281516146da858261468d565b94506020830160209a909a01999250506001016146c1565b5091979650505050505050565b6020808252810161279a8184614699565b6000806040838503121561472657614726600080fd5b600061473285856141f3565b925050602061423185828601614264565b60008083601f84011261475857614758600080fd5b50813567ffffffffffffffff81111561477357614773600080fd5b60208301915083600182028301111561478e5761478e600080fd5b9250929050565b6003811061150857600080fd5b803561076a81614795565b6000806000604084860312156147c5576147c5600080fd5b833567ffffffffffffffff8111156147df576147df600080fd5b6147eb86828701614743565b935093505060206144c1868287016147a2565b63ffffffff81166140d2565b803561076a816147fe565b6002811061150857600080fd5b803561076a81614815565b60008060006060848603121561484557614845600080fd5b6000614851868661480a565b935050602061486286828701614822565b92505060406144c1868287016147a2565b634e487b7160e01b600052604160045260246000fd5b601f19601f830116810181811067ffffffffffffffff821117156148af576148af614873565b6040525050565b60006148c160405190565b905061433f8282614889565b600067ffffffffffffffff8211156148e7576148e7614873565b601f19601f83011660200192915050565b82818337506000910152565b6000614917614912846148cd565b6148b6565b90508281526020810184848401111561493257614932600080fd5b6146858482856148f8565b600082601f83011261495157614951600080fd5b813561217e848260208601614904565b6000806000806080858703121561497a5761497a600080fd5b600061498687876141f3565b9450506020614997878288016141f3565b93505060406149a887828801614196565b925050606085013567ffffffffffffffff8111156149c8576149c8600080fd5b6149d48782880161493d565b91505092959194509250565b600080604083850312156149f6576149f6600080fd5b6000614a0285856141f3565b9250506020614231858286016141f3565b60008060408385031215614a2957614a29600080fd5b6000614a35858561480a565b9250506020614231858286016147a2565b8051604080845260009190840190614a5e8282614509565b915050602083015161468560208601826143e3565b600061279a8383614a46565b6000614a89825190565b80845260208401935083602082028501614aa38560200190565b8060005b858110156146f25784840389528151614ac08582614a73565b94506020830160209a909a0199925050600101614aa7565b6020808252810161279a8184614a7f565b61ffff81166140d2565b803561076a81614ae9565b600080600080600060a08688031215614b1957614b19600080fd5b6000614b258888614196565b9550506020614b3688828901614af3565b9450506040614b4788828901614af3565b9350506060614b5888828901614af3565b9250506080614b6988828901614af3565b9150509295509295909350565b634e487b7160e01b600052602260045260246000fd5b600281046001821680614ba057607f821691505b6020821081141561155957611559614b76565b602c81526000602082017f4552433732313a20617070726f76656420717565727920666f72206e6f6e657881526b34b9ba32b73a103a37b5b2b760a11b602082015291505b5060400190565b6020808252810161076a81614bb3565b602181526000602082017f4552433732313a20617070726f76616c20746f2063757272656e74206f776e658152603960f91b60208201529150614bf8565b6020808252810161076a81614c0f565b603881526000602082017f4552433732313a20617070726f76652063616c6c6572206973206e6f74206f7781527f6e6572206e6f7220617070726f76656420666f7220616c6c000000000000000060208201529150614bf8565b6020808252810161076a81614c5d565b60208082527f4f776e61626c653a2063616c6c6572206973206e6f7420746865206f776e6572910190815260005b5060200190565b6020808252810161076a81614cc7565b603181526000602082017f43616e6e6f7420736574204e465420686f6c646572206164647265737320746f81527020746865207a65726f206164647265737360781b60208201529150614bf8565b6020808252810161076a81614d0c565b602681526000602082017f596f7520617265206e6f7420746865206f776e6572206f66207468697320466981526567687465722160d01b60208201529150614bf8565b6020808252810161076a81614d6a565b634e487b7160e01b600052603260045260246000fd5b602381526000602082017f596f752063616e6e6f742061747461636b20796f7572206f776e20466967687481526265722160e81b60208201529150614bf8565b6020808252810161076a81614dd3565b602781526000602082017f596f75722066696768746572206973206e6f742079657420726561647920746f8152662066696768742160c81b60208201529150614bf8565b6020808252810161076a81614e23565b602581526000602082017f596f7520617265206e6f7420746865206f776e6572206f66207468697320576581526461706f6e2160d81b60208201529150614bf8565b6020808252810161076a81614e77565b603481526000602082017f596f752063616e6e6f7420757365207468697320776561706f6e2c20796f7572815273206c6576656c20697320746f6f20736d616c6c2160601b60208201529150614bf8565b6020808252810161076a81614ec9565b603f81526000602082017f596f752063616e6e6f7420757365207468697320776561706f6e2c20796f757281527f206167696c69747920736b696c6c20697320696e73756666696369656e74210060208201529150614bf8565b6020808252810161076a81614f2a565b604081526000602082017f596f752063616e6e6f7420757365207468697320776561706f6e2c20796f757281527f20737472656e67746820736b696c6c20697320696e73756666696369656e742160208201529150614bf8565b6020808252810161076a81614f94565b634e487b7160e01b600052601160045260246000fd5b600060001982141561502857615028614ffe565b5060010190565b60008161503e5761503e614ffe565b506000190190565b603181526000602082017f4552433732313a207472616e736665722063616c6c6572206973206e6f74206f8152701ddb995c881b9bdc88185c1c1c9bdd9959607a1b60208201529150614bf8565b6020808252810161076a81615046565b602c81526000602082017f596f752063616e6e6f742073656c6c206f72206769667420796f7572206f6e6c81526b79206368617261637465722160a01b60208201529150614bf8565b6020808252810161076a816150a4565b602981526000602082017f4552433732313a206f776e657220717565727920666f72206e6f6e657869737481526832b73a103a37b5b2b760b91b60208201529150614bf8565b6020808252810161076a816150fd565b602a81526000602082017f4552433732313a2062616c616e636520717565727920666f7220746865207a65815269726f206164647265737360b01b60208201529150614bf8565b6020808252810161076a81615153565b6000825b9250828210156151c0576151c0614ffe565b500390565b602381526000602082017f43616e6e6f742067696674204e465420746f20746865207a65726f206164647281526265737360e81b60208201529150614bf8565b6020808252810161076a816151c5565b605c81526000602082017f596f7520616c7265616479206861766520666967687465727320696e20796f7581527f72204261727261636b732120456e74657220746865204172656e6120616e642060208201527f6561726e20796f757273656c66206d6f72652046696768746572732100000000604082015291505b5060600190565b6020808252810161076a81615215565b603281526000602082017f596f752073656e7420696e73756666696369656e742045544820666f7220666f8152717267696e67207468697320776561706f6e2160701b60208201529150614bf8565b6020808252810161076a816152a8565b6000615311825190565b61531f818560208601614121565b9290920192915050565b6000815461533681614b8c565b60018216801561534d576001811461535e5761538e565b60ff1983168652818601935061538e565b60008581526020902060005b838110156153865781548882015260019091019060200161536a565b838801955050505b50505092915050565b7f7b2274726169745f74797065223a20224c75636b222c202276616c7565223a2081526000614cf5565b737b226e616d65223a20225b46696768746572202360601b815260140160006153ea828d615307565b6302e9016960e51b81526004019150615403828c615307565b640103a3432960dd1b8152600501915061541d828b615329565b7f222c20226465736372697074696f6e223a202254686973204e4654207265707281527f6573656e747320612043727970746f4172656e61332e3020466967687465722160208201526c1116101134b6b0b3b2911d101160991b6040820152604d01915061548b828a615329565b7f222c202261747472696275746573223a205b7b2274726169745f74797065223a815272010113632bb32b6111610113b30b63ab2911d1606d1b602082015260330191506154d98289615307565b611f4b60f21b81527f7b2274726169745f74797065223a20224865616c746820506f696e7473222c206002820152680113b30b63ab2911d160bd1b6022820152602b0191506155288288615307565b611f4b60f21b81527f7b2274726169745f74797065223a2022537472656e677468222c202276616c75600282015263032911d160e51b602282015260260191506155728287615307565b611f4b60f21b81527f7b2274726169745f74797065223a20224167696c697479222c202276616c75656002820152620111d160ed1b602282015260250191506155bb8286615307565b611f4b60f21b815260020191506155d182615397565b91506155dd8285615307565b611f4b60f21b81527f7b2274726169745f74797065223a2022446578746572697479222c202276616c60028201526403ab2911d160dd1b602282015260270191506156288284615307565b627d5d7d60e81b81526003019c9b505050505050505050505050565b7f646174613a6170706c69636174696f6e2f6a736f6e3b6261736536342c0000008152601d01600061279a8284615307565b602681526000602082017f596f752073656e7420696e73756666696369656e742045544820666f7220466981526567687465722160d01b60208201529150614bf8565b6020808252810161076a81615676565b603981526000602082017f596f7520646f206e6f74206861766520616e7920617661696c61626c6520707581527f70696c732120466967687420746f206561726e206d6f7265210000000000000060208201529150614bf8565b6020808252810161076a816156c9565b602681526000602082017f4f776e61626c653a206e6577206f776e657220697320746865207a65726f206181526564647265737360d01b60208201529150614bf8565b6020808252810161076a81615733565b604d81526000602082017f596f7520646f206e6f74206861766520656e6f75676820617661696c61626c6581527f207370656e6461626c6520706f696e747320696e206f7264657220746f20646f60208201526c207468697320616374696f6e2160981b60408201529150615291565b6020808252810161076a81615786565b6000821982111561581957615819614ffe565b500190565b600063ffffffff8216915063ffffffff831692508163ffffffff048311821515161561584c5761584c614ffe565b500290565b600063ffffffff8216915063ffffffff83166151ae565b602c81526000602082017f4552433732313a206f70657261746f7220717565727920666f72206e6f6e657881526b34b9ba32b73a103a37b5b2b760a11b60208201529150614bf8565b6020808252810161076a81615868565b602581526000602082017f4552433732313a207472616e736665722066726f6d20696e636f72726563742081526437bbb732b960d91b60208201529150614bf8565b6020808252810161076a816158c1565b602481526000602082017f4552433732313a207472616e7366657220746f20746865207a65726f206164648152637265737360e01b60208201529150614bf8565b6020808252810161076a81615913565b600081600019048311821515161561584c5761584c614ffe565b634e487b7160e01b600052601260045260246000fd5b6000826159a3576159a361597e565b500490565b601981526000602082017f4552433732313a20617070726f766520746f2063616c6c65720000000000000081529150614cf5565b6020808252810161076a816159a8565b603281526000602082017f546865206e616d6520796f7520696e73657274656420666f7220796f7572204681527169676874657220697320696e76616c69642160701b60208201529150614bf8565b6020808252810161076a816159ec565b603381526000602082017f54686520636c61737320796f7520696e73657274656420666f7220796f7572208152724669676874657220697320696e76616c69642160681b60208201529150614bf8565b6020808252810161076a81615a4b565b603781526000602082017f546865206e616d6520796f7520696e73657274656420666f7220796f7572204681527f69676874657220697320616c726561647920757365642100000000000000000060208201529150614bf8565b6020808252810161076a81615aab565b603281526000602082017f546865206c6576656c20796f7520696e73657274656420666f7220796f757220815271576561706f6e20697320696e76616c69642160701b60208201529150614bf8565b6020808252810161076a81615b15565b603181526000602082017f546865207479706520796f7520696e73657274656420666f7220796f757220578152706561706f6e20697320696e76616c69642160781b60208201529150614bf8565b6020808252810161076a81615b74565b603281526000602082017f4552433732313a207472616e7366657220746f206e6f6e20455243373231526581527131b2b4bb32b91034b6b83632b6b2b73a32b960711b60208201529150614bf8565b6020808252810161076a81615bd2565b6000825b925082615c4457615c4461597e565b500690565b600061ffff8216915061ffff83166151ae565b600061ffff8216915061ffff831692508261ffff0382111561581957615819614ffe565b600063ffffffff8216915063ffffffff831692508263ffffffff0382111561581957615819614ffe565b600061ffff821661076a565b61410d81615caa565b60408101615ccd8285615cb6565b61279a6020830184614109565b60408101615ccd8285614305565b600061279a8284615307565b60808101615d0282876141d3565b615d0f60208301866141d3565b615d1c60408301856143e3565b818103606083015261296b818461414d565b805161076a816140c6565b600060208284031215615d4e57615d4e600080fd5b600061217e8484615d2e565b600061076a8260601b90565b600061076a82615d5a565b61410d615d7d826141c2565b615d66565b6000615d8e82866143e3565b602082019150615d9e8285615d71565b601482019150615dae82846143e3565b506020019392505050565b600063ffffffff8216915063ffffffff8316615c35565b60208082527f4552433732313a206d696e7420746f20746865207a65726f206164647265737391019081526000614cf5565b6020808252810161076a81615dd0565b601c81526000602082017f4552433732313a20746f6b656e20616c7265616479206d696e7465640000000081529150614cf5565b6020808252810161076a81615e1256fe4142434445464748494a4b4c4d4e4f505152535455565758595a6162636465666768696a6b6c6d6e6f707172737475767778797a303132333435363738392b2fa26469706673582212202730e4dd3e6cf72fe29ea9531638d7197ad66dfe9d098d84052943c16dd5195b64736f6c634300080a0033",
  "linkReferences": {},
  "deployedLinkReferences": {}
}