{
  "_format": "hh-sol-artifact-1",
  "contractName": "Arena",
  "sourceName": "contracts/Arena.sol",
  "abi": [
    {
      "anonymous": false,
      "inputs": [
        {
          "indexed": true,
          "internalType": "address",
          "name": "owner",
          "type": "address"
        },
        {
          "indexed": true,
          "internalType": "address",
          "name": "approved",
          "type": "address"
        },
        {
          "indexed": true,
          "internalType": "uint256",
          "name": "tokenId",
          "type": "uint256"
        }
      ],
      "name": "Approval",
      "type": "event"
    },
    {
      "anonymous": false,
      "inputs": [
        {
          "indexed": true,
          "internalType": "address",
          "name": "owner",
          "type": "address"
        },
        {
          "indexed": true,
          "internalType": "address",
          "name": "operator",
          "type": "address"
        },
        {
          "indexed": false,
          "internalType": "bool",
          "name": "approved",
          "type": "bool"
        }
      ],
      "name": "ApprovalForAll",
      "type": "event"
    },
    {
      "anonymous": false,
      "inputs": [
        {
          "indexed": true,
          "internalType": "uint256",
          "name": "attackerId",
          "type": "uint256"
        },
        {
          "indexed": true,
          "internalType": "uint256",
          "name": "targetId",
          "type": "uint256"
        },
        {
          "indexed": false,
          "internalType": "uint16",
          "name": "damage",
          "type": "uint16"
        },
        {
          "indexed": false,
          "internalType": "bool",
          "name": "wasCritical",
          "type": "bool"
        }
      ],
      "name": "ArenaEvent",
      "type": "event"
    },
    {
      "anonymous": false,
      "inputs": [
        {
          "indexed": true,
          "internalType": "address",
          "name": "previousOwner",
          "type": "address"
        },
        {
          "indexed": true,
          "internalType": "address",
          "name": "newOwner",
          "type": "address"
        }
      ],
      "name": "OwnershipTransferred",
      "type": "event"
    },
    {
      "anonymous": false,
      "inputs": [
        {
          "indexed": true,
          "internalType": "address",
          "name": "from",
          "type": "address"
        },
        {
          "indexed": true,
          "internalType": "address",
          "name": "to",
          "type": "address"
        },
        {
          "indexed": true,
          "internalType": "uint256",
          "name": "tokenId",
          "type": "uint256"
        }
      ],
      "name": "Transfer",
      "type": "event"
    },
    {
      "anonymous": false,
      "inputs": [
        {
          "indexed": false,
          "internalType": "bool",
          "name": "youWon",
          "type": "bool"
        }
      ],
      "name": "WhoWon",
      "type": "event"
    },
    {
      "inputs": [],
      "name": "_collectMerchantBalance",
      "outputs": [],
      "stateMutability": "nonpayable",
      "type": "function"
    },
    {
      "inputs": [
        {
          "internalType": "uint32",
          "name": "_level",
          "type": "uint32"
        },
        {
          "internalType": "enum WeaponTier",
          "name": "_tier",
          "type": "uint8"
        }
      ],
      "name": "_computeWeaponPrice",
      "outputs": [
        {
          "internalType": "uint256",
          "name": "",
          "type": "uint256"
        }
      ],
      "stateMutability": "view",
      "type": "function"
    },
    {
      "inputs": [
        {
          "internalType": "string",
          "name": "_name",
          "type": "string"
        },
        {
          "internalType": "enum FighterClass",
          "name": "_class",
          "type": "uint8"
        }
      ],
      "name": "_createFirstFighter",
      "outputs": [],
      "stateMutability": "nonpayable",
      "type": "function"
    },
    {
      "inputs": [],
      "name": "_getFightersCount",
      "outputs": [
        {
          "internalType": "uint256",
          "name": "",
          "type": "uint256"
        }
      ],
      "stateMutability": "view",
      "type": "function"
    },
    {
      "inputs": [
        {
          "internalType": "uint256",
          "name": "latest",
          "type": "uint256"
        }
      ],
      "name": "_getLatestFighters",
      "outputs": [
        {
          "components": [
            {
              "internalType": "address",
              "name": "owner",
              "type": "address"
            },
            {
              "components": [
                {
                  "internalType": "uint16",
                  "name": "winCount",
                  "type": "uint16"
                },
                {
                  "internalType": "uint16",
                  "name": "lossCount",
                  "type": "uint16"
                },
                {
                  "internalType": "uint16",
                  "name": "HP",
                  "type": "uint16"
                },
                {
                  "internalType": "uint16",
                  "name": "strength",
                  "type": "uint16"
                },
                {
                  "internalType": "uint16",
                  "name": "agility",
                  "type": "uint16"
                },
                {
                  "internalType": "uint16",
                  "name": "dexterity",
                  "type": "uint16"
                },
                {
                  "internalType": "uint16",
                  "name": "luck",
                  "type": "uint16"
                },
                {
                  "internalType": "uint16",
                  "name": "currentXP",
                  "type": "uint16"
                },
                {
                  "internalType": "uint16",
                  "name": "levelUpXP",
                  "type": "uint16"
                },
                {
                  "internalType": "uint16",
                  "name": "spendablePoints",
                  "type": "uint16"
                },
                {
                  "internalType": "uint32",
                  "name": "level",
                  "type": "uint32"
                },
                {
                  "internalType": "uint32",
                  "name": "readyTime",
                  "type": "uint32"
                },
                {
                  "internalType": "enum FighterClass",
                  "name": "class",
                  "type": "uint8"
                },
                {
                  "internalType": "string",
                  "name": "name",
                  "type": "string"
                }
              ],
              "internalType": "struct FighterFactory.Fighter",
              "name": "fighter",
              "type": "tuple"
            },
            {
              "internalType": "uint256",
              "name": "id",
              "type": "uint256"
            }
          ],
          "internalType": "struct FighterFactory.FighterDTO[]",
          "name": "",
          "type": "tuple[]"
        }
      ],
      "stateMutability": "view",
      "type": "function"
    },
    {
      "inputs": [],
      "name": "_getMyAvailablePupils",
      "outputs": [
        {
          "internalType": "uint256",
          "name": "",
          "type": "uint256"
        }
      ],
      "stateMutability": "view",
      "type": "function"
    },
    {
      "inputs": [
        {
          "internalType": "address",
          "name": "_owner",
          "type": "address"
        }
      ],
      "name": "_getUserFighters",
      "outputs": [
        {
          "components": [
            {
              "components": [
                {
                  "internalType": "uint16",
                  "name": "winCount",
                  "type": "uint16"
                },
                {
                  "internalType": "uint16",
                  "name": "lossCount",
                  "type": "uint16"
                },
                {
                  "internalType": "uint16",
                  "name": "HP",
                  "type": "uint16"
                },
                {
                  "internalType": "uint16",
                  "name": "strength",
                  "type": "uint16"
                },
                {
                  "internalType": "uint16",
                  "name": "agility",
                  "type": "uint16"
                },
                {
                  "internalType": "uint16",
                  "name": "dexterity",
                  "type": "uint16"
                },
                {
                  "internalType": "uint16",
                  "name": "luck",
                  "type": "uint16"
                },
                {
                  "internalType": "uint16",
                  "name": "currentXP",
                  "type": "uint16"
                },
                {
                  "internalType": "uint16",
                  "name": "levelUpXP",
                  "type": "uint16"
                },
                {
                  "internalType": "uint16",
                  "name": "spendablePoints",
                  "type": "uint16"
                },
                {
                  "internalType": "uint32",
                  "name": "level",
                  "type": "uint32"
                },
                {
                  "internalType": "uint32",
                  "name": "readyTime",
                  "type": "uint32"
                },
                {
                  "internalType": "enum FighterClass",
                  "name": "class",
                  "type": "uint8"
                },
                {
                  "internalType": "string",
                  "name": "name",
                  "type": "string"
                }
              ],
              "internalType": "struct FighterFactory.Fighter",
              "name": "fighter",
              "type": "tuple"
            },
            {
              "internalType": "uint256",
              "name": "id",
              "type": "uint256"
            }
          ],
          "internalType": "struct FighterFactory.FighterBarracksDTO[]",
          "name": "",
          "type": "tuple[]"
        }
      ],
      "stateMutability": "view",
      "type": "function"
    },
    {
      "inputs": [
        {
          "internalType": "address",
          "name": "_owner",
          "type": "address"
        }
      ],
      "name": "_getUserWeapons",
      "outputs": [
        {
          "components": [
            {
              "components": [
                {
                  "internalType": "uint32",
                  "name": "levelReq",
                  "type": "uint32"
                },
                {
                  "internalType": "uint32",
                  "name": "damage",
                  "type": "uint32"
                },
                {
                  "internalType": "uint16",
                  "name": "skillReq",
                  "type": "uint16"
                },
                {
                  "internalType": "enum WeaponType",
                  "name": "weapType",
                  "type": "uint8"
                },
                {
                  "internalType": "enum WeaponTier",
                  "name": "tier",
                  "type": "uint8"
                }
              ],
              "internalType": "struct WeaponFactory.Weapon",
              "name": "weapon",
              "type": "tuple"
            },
            {
              "internalType": "uint256",
              "name": "id",
              "type": "uint256"
            }
          ],
          "internalType": "struct WeaponFactory.WeaponDTO[]",
          "name": "",
          "type": "tuple[]"
        }
      ],
      "stateMutability": "view",
      "type": "function"
    },
    {
      "inputs": [
        {
          "internalType": "uint256",
          "name": "id",
          "type": "uint256"
        }
      ],
      "name": "_getWeaponByFighterId",
      "outputs": [
        {
          "components": [
            {
              "components": [
                {
                  "internalType": "uint32",
                  "name": "levelReq",
                  "type": "uint32"
                },
                {
                  "internalType": "uint32",
                  "name": "damage",
                  "type": "uint32"
                },
                {
                  "internalType": "uint16",
                  "name": "skillReq",
                  "type": "uint16"
                },
                {
                  "internalType": "enum WeaponType",
                  "name": "weapType",
                  "type": "uint8"
                },
                {
                  "internalType": "enum WeaponTier",
                  "name": "tier",
                  "type": "uint8"
                }
              ],
              "internalType": "struct WeaponFactory.Weapon",
              "name": "weapon",
              "type": "tuple"
            },
            {
              "internalType": "uint256",
              "name": "id",
              "type": "uint256"
            }
          ],
          "internalType": "struct WeaponFactory.WeaponDTO[]",
          "name": "",
          "type": "tuple[]"
        }
      ],
      "stateMutability": "view",
      "type": "function"
    },
    {
      "inputs": [
        {
          "internalType": "uint32",
          "name": "_level",
          "type": "uint32"
        },
        {
          "internalType": "enum WeaponType",
          "name": "_type",
          "type": "uint8"
        },
        {
          "internalType": "enum WeaponTier",
          "name": "_tier",
          "type": "uint8"
        }
      ],
      "name": "_purchaseWeapon",
      "outputs": [],
      "stateMutability": "payable",
      "type": "function"
    },
    {
      "inputs": [
        {
          "internalType": "uint256",
          "name": "_fighterId",
          "type": "uint256"
        },
        {
          "internalType": "uint16",
          "name": "_STR",
          "type": "uint16"
        },
        {
          "internalType": "uint16",
          "name": "_AGL",
          "type": "uint16"
        },
        {
          "internalType": "uint16",
          "name": "_LCK",
          "type": "uint16"
        },
        {
          "internalType": "uint16",
          "name": "_DEX",
          "type": "uint16"
        }
      ],
      "name": "_spendAvailablePoints",
      "outputs": [],
      "stateMutability": "nonpayable",
      "type": "function"
    },
    {
      "inputs": [
        {
          "internalType": "address",
          "name": "to",
          "type": "address"
        },
        {
          "internalType": "uint256",
          "name": "tokenId",
          "type": "uint256"
        }
      ],
      "name": "approve",
      "outputs": [],
      "stateMutability": "nonpayable",
      "type": "function"
    },
    {
      "inputs": [
        {
          "internalType": "uint256",
          "name": "_myFighterId",
          "type": "uint256"
        },
        {
          "internalType": "bool",
          "name": "_hasOwnerWeapon",
          "type": "bool"
        },
        {
          "internalType": "uint256",
          "name": "_myWeaponId",
          "type": "uint256"
        },
        {
          "internalType": "uint256",
          "name": "_targetFighterId",
          "type": "uint256"
        },
        {
          "internalType": "bool",
          "name": "_hasTargetWeapon",
          "type": "bool"
        },
        {
          "internalType": "uint256",
          "name": "_targetWeaponId",
          "type": "uint256"
        }
      ],
      "name": "attack",
      "outputs": [],
      "stateMutability": "nonpayable",
      "type": "function"
    },
    {
      "inputs": [
        {
          "internalType": "address",
          "name": "owner",
          "type": "address"
        }
      ],
      "name": "balanceOf",
      "outputs": [
        {
          "internalType": "uint256",
          "name": "",
          "type": "uint256"
        }
      ],
      "stateMutability": "view",
      "type": "function"
    },
    {
      "inputs": [
        {
          "internalType": "address",
          "name": "_owner",
          "type": "address"
        }
      ],
      "name": "fetchAvailablePupils",
      "outputs": [
        {
          "internalType": "uint16",
          "name": "",
          "type": "uint16"
        }
      ],
      "stateMutability": "view",
      "type": "function"
    },
    {
      "inputs": [
        {
          "internalType": "uint256",
          "name": "tokenId",
          "type": "uint256"
        }
      ],
      "name": "getApproved",
      "outputs": [
        {
          "internalType": "address",
          "name": "",
          "type": "address"
        }
      ],
      "stateMutability": "view",
      "type": "function"
    },
    {
      "inputs": [
        {
          "internalType": "address",
          "name": "owner",
          "type": "address"
        },
        {
          "internalType": "address",
          "name": "operator",
          "type": "address"
        }
      ],
      "name": "isApprovedForAll",
      "outputs": [
        {
          "internalType": "bool",
          "name": "",
          "type": "bool"
        }
      ],
      "stateMutability": "view",
      "type": "function"
    },
    {
      "inputs": [],
      "name": "name",
      "outputs": [
        {
          "internalType": "string",
          "name": "",
          "type": "string"
        }
      ],
      "stateMutability": "view",
      "type": "function"
    },
    {
      "inputs": [],
      "name": "owner",
      "outputs": [
        {
          "internalType": "address",
          "name": "",
          "type": "address"
        }
      ],
      "stateMutability": "view",
      "type": "function"
    },
    {
      "inputs": [
        {
          "internalType": "uint256",
          "name": "tokenId",
          "type": "uint256"
        }
      ],
      "name": "ownerOf",
      "outputs": [
        {
          "internalType": "address",
          "name": "",
          "type": "address"
        }
      ],
      "stateMutability": "view",
      "type": "function"
    },
    {
      "inputs": [
        {
          "internalType": "string",
          "name": "_name",
          "type": "string"
        },
        {
          "internalType": "enum FighterClass",
          "name": "_class",
          "type": "uint8"
        }
      ],
      "name": "redeemAvailablePupil",
      "outputs": [],
      "stateMutability": "nonpayable",
      "type": "function"
    },
    {
      "inputs": [],
      "name": "renounceOwnership",
      "outputs": [],
      "stateMutability": "nonpayable",
      "type": "function"
    },
    {
      "inputs": [
        {
          "internalType": "address",
          "name": "from",
          "type": "address"
        },
        {
          "internalType": "address",
          "name": "to",
          "type": "address"
        },
        {
          "internalType": "uint256",
          "name": "tokenId",
          "type": "uint256"
        }
      ],
      "name": "safeTransferFrom",
      "outputs": [],
      "stateMutability": "nonpayable",
      "type": "function"
    },
    {
      "inputs": [
        {
          "internalType": "address",
          "name": "from",
          "type": "address"
        },
        {
          "internalType": "address",
          "name": "to",
          "type": "address"
        },
        {
          "internalType": "uint256",
          "name": "tokenId",
          "type": "uint256"
        },
        {
          "internalType": "bytes",
          "name": "_data",
          "type": "bytes"
        }
      ],
      "name": "safeTransferFrom",
      "outputs": [],
      "stateMutability": "nonpayable",
      "type": "function"
    },
    {
      "inputs": [
        {
          "internalType": "address",
          "name": "operator",
          "type": "address"
        },
        {
          "internalType": "bool",
          "name": "approved",
          "type": "bool"
        }
      ],
      "name": "setApprovalForAll",
      "outputs": [],
      "stateMutability": "nonpayable",
      "type": "function"
    },
    {
      "inputs": [
        {
          "internalType": "bytes4",
          "name": "interfaceId",
          "type": "bytes4"
        }
      ],
      "name": "supportsInterface",
      "outputs": [
        {
          "internalType": "bool",
          "name": "",
          "type": "bool"
        }
      ],
      "stateMutability": "view",
      "type": "function"
    },
    {
      "inputs": [],
      "name": "symbol",
      "outputs": [
        {
          "internalType": "string",
          "name": "",
          "type": "string"
        }
      ],
      "stateMutability": "view",
      "type": "function"
    },
    {
      "inputs": [
        {
          "internalType": "uint256",
          "name": "_id",
          "type": "uint256"
        }
      ],
      "name": "tokenURI",
      "outputs": [
        {
          "internalType": "string",
          "name": "",
          "type": "string"
        }
      ],
      "stateMutability": "view",
      "type": "function"
    },
    {
      "inputs": [
        {
          "internalType": "address",
          "name": "from",
          "type": "address"
        },
        {
          "internalType": "address",
          "name": "to",
          "type": "address"
        },
        {
          "internalType": "uint256",
          "name": "tokenId",
          "type": "uint256"
        }
      ],
      "name": "transferFrom",
      "outputs": [],
      "stateMutability": "nonpayable",
      "type": "function"
    },
    {
      "inputs": [
        {
          "internalType": "address",
          "name": "newOwner",
          "type": "address"
        }
      ],
      "name": "transferOwnership",
      "outputs": [],
      "stateMutability": "nonpayable",
      "type": "function"
    },
    {
      "stateMutability": "payable",
      "type": "receive"
    }
  ],
  "bytecode": "0x6080604052603c6007556602aa1efb94e0006011556601c6bf526340006012556605543df729c000601355660aa87bee53800060145560006015556016805463ffffffff1916600f1790553480156200005757600080fd5b506040518060400160405280601381526020017f43727970746f4172656e61466967687465727300000000000000000000000000815250604051806040016040528060078152602001662334b3b43a32b960c91b815250620000c8620000c26200035760201b60201c565b6200035b565b8151620000dd906001906020850190620003ab565b508051620000f3906002906020840190620003ab565b50506040805180820190915260078152662bb0b93934b7b960c91b602080830191825260008052600c905290516200014f92507f13649b2456f1b42fef0f0040b3aaeabcd21a76a0f3f5defd4f583839455116e89190620003ab565b5060408051808201909152600781526653616d7572616960c81b60208083019182526001600052600c90529051620001a9917fd421a5181c571bba3f01190c922c3b2a896fc1d84e86c9f17ac10e67ebef8b5c91620003ab565b50604080518082019091526005815264111c9d5a5960da1b60208083019182526002600052600c9052905162000201917f5d6016397a73f5e079297ac5a36fef17b4d9c3831618e63ab105738020ddd72091620003ab565b5060408051808201909152601f81527f68747470733a2f2f692e696d6775722e636f6d2f79684a4f7a4e542e706e6700602080830191825260008052600d9052905162000270917f81955a0a11e65eac625c29e8882660bae4e165a75d72780094acae8ece9a29ee91620003ab565b5060408051808201909152601f81527f68747470733a2f2f692e696d6775722e636f6d2f74744575656d7a2e706e670060208083019182526001600052600d90529051620002e0917ffd54ff1ed53f34a900b24c5ba64f85761163b5d82d98a47b9bd80e45466993c591620003ab565b5060408051808201909152601f81527f68747470733a2f2f692e696d6775722e636f6d2f6153393246617a2e706e670060208083019182526002600052600d9052905162000350917f10a81eed9d63d16face5e76357905348e6253d3394086026bb2bf2145d7cc24991620003ab565b5062000498565b3390565b600080546001600160a01b038381166001600160a01b0319831681178455604051919092169283917f8be0079c531659141344cd1fd0a4f28419497f9722a3daafe3b4186f6b6457e09190a35050565b828054620003b99062000467565b90600052602060002090601f016020900481019282620003dd576000855562000428565b82601f10620003f857805160ff191683800117855562000428565b8280016001018555821562000428579182015b82811115620004285782518255916020019190600101906200040b565b50620004369291506200043a565b5090565b5b808211156200043657600081556001016200043b565b634e487b7160e01b600052602260045260246000fd5b6002810460018216806200047c57607f821691505b6020821081141562000492576200049262000451565b50919050565b6154a280620004a86000396000f3fe6080604052600436106101d15760003560e01c80639b1f87e8116100f7578063d5f5da3b11610095578063ecfa934811610064578063ecfa93481461055d578063f2fde38b1461057d578063f9d7f1711461059d578063fbba44c6146105ca57600080fd5b8063d5f5da3b146104d7578063dc932676146104f7578063e985e9c51461051d578063ea9652551461053d57600080fd5b8063b67340b5116100d1578063b67340b51461046f578063b88d4fde14610482578063c87b56dd146104a2578063cb74c2a8146104c257600080fd5b80639b1f87e814610402578063a22cb4651461042f578063adec464a1461044f57600080fd5b806342842e0e1161016f578063715018a61161013e578063715018a6146103735780638da5cb5b14610388578063927eeddc146103a657806395d89b41146103ed57600080fd5b806342842e0e146102f15780636352211e146103115780636c691ab91461033157806370a082311461034657600080fd5b8063095ea7b3116101ab578063095ea7b31461026257806313c1bce114610284578063208ea929146102a457806323b872dd146102d157600080fd5b806301ffc9a7146101dd57806306fdde0314610213578063081812fc1461023557600080fd5b366101d857005b600080fd5b3480156101e957600080fd5b506101fd6101f8366004613849565b6105ea565b60405161020a9190613874565b60405180910390f35b34801561021f57600080fd5b5061022861063c565b60405161020a91906138e0565b34801561024157600080fd5b50610255610250366004613902565b6106ce565b60405161020a919061393d565b34801561026e57600080fd5b5061028261027d36600461395f565b610727565b005b34801561029057600080fd5b5061028261029f3660046139af565b6107ad565b3480156102b057600080fd5b506102c46102bf366004613a39565b610e72565b60405161020a9190613bcb565b3480156102dd57600080fd5b506102826102ec366004613bdc565b611058565b3480156102fd57600080fd5b5061028261030c366004613bdc565b611089565b34801561031d57600080fd5b5061025561032c366004613902565b6110a4565b34801561033d57600080fd5b506102826110d9565b34801561035257600080fd5b50610366610361366004613a39565b611132565b60405161020a9190613c2c565b34801561037f57600080fd5b50610282611176565b34801561039457600080fd5b506000546001600160a01b0316610255565b3480156103b257600080fd5b506103e06103c1366004613a39565b6001600160a01b03166000908152600b602052604090205461ffff1690565b60405161020a9190613c3a565b3480156103f957600080fd5b506102286111ac565b34801561040e57600080fd5b5061042261041d366004613902565b6111bb565b60405161020a9190613e29565b34801561043b57600080fd5b5061028261044a366004613e3a565b61149a565b34801561045b57600080fd5b5061028261046a366004613ed7565b6114a9565b61028261047d366004613f57565b61151a565b34801561048e57600080fd5b5061028261049d36600461408b565b6115a9565b3480156104ae57600080fd5b506102286104bd366004613902565b6115e1565b3480156104ce57600080fd5b50600854610366565b3480156104e357600080fd5b506102826104f2366004613ed7565b611903565b34801561050357600080fd5b50336000908152600b602052604090205461ffff16610366565b34801561052957600080fd5b506101fd61053836600461410a565b61196d565b34801561054957600080fd5b5061036661055836600461413d565b61199b565b34801561056957600080fd5b506102c4610578366004613902565b611a29565b34801561058957600080fd5b50610282610598366004613a39565b611a4d565b3480156105a957600080fd5b506105bd6105b8366004613a39565b611aa6565b60405161020a9190614202565b3480156105d657600080fd5b506102826105e5366004614228565b611d68565b60006001600160e01b031982166380ac58cd60e01b148061061b57506001600160e01b03198216635b5e139f60e01b145b8061063657506301ffc9a760e01b6001600160e01b03198316145b92915050565b60606001805461064b906142b6565b80601f0160208091040260200160405190810160405280929190818152602001828054610677906142b6565b80156106c45780601f10610699576101008083540402835291602001916106c4565b820191906000526020600020905b8154815290600101906020018083116106a757829003601f168201915b5050505050905090565b6000818152600360205260408120546001600160a01b031661070b5760405162461bcd60e51b81526004016107029061432f565b60405180910390fd5b506000908152600560205260409020546001600160a01b031690565b6000610732826110a4565b9050806001600160a01b0316836001600160a01b031614156107665760405162461bcd60e51b81526004016107029061437d565b336001600160a01b03821614806107825750610782813361196d565b61079e5760405162461bcd60e51b8152600401610702906143e7565b6107a88383611f26565b505050565b60008681526009602052604090205486906001600160a01b0316336001600160a01b0316146107ee5760405162461bcd60e51b81526004016107029061443a565b60008481526009602052604090205484906001600160a01b03163314156108275760405162461bcd60e51b81526004016107029061448a565b60006008898154811061083c5761083c61449a565b90600052602060002090600202019050428160000160189054906101000a900463ffffffff1663ffffffff1611156108865760405162461bcd60e51b8152600401610702906144f4565b61088f81611f94565b60165463ffffffff168815610b25576000888152600f60205260409020546001600160a01b0316336001600160a01b0316146108dd5760405162461bcd60e51b815260040161070290614546565b6000600e89815481106108f2576108f261449a565b60009182526020918290206040805160a08101825291909201805463ffffffff8082168452600160201b8204169483019490945261ffff600160401b8504169282019290925291606083019060ff600160501b90910416600181111561095a5761095a613a70565b600181111561096b5761096b613a70565b81528154602090910190600160581b900460ff16600281111561099057610990613a70565b60028111156109a1576109a1613a70565b9052508051845491925063ffffffff908116600160a01b9092041610156109da5760405162461bcd60e51b8152600401610702906145a7565b6000816060015160018111156109f2576109f2613a70565b1415610a33576040810151835461ffff918216600160401b9091049091161015610a2e5760405162461bcd60e51b815260040161070290614611565b610a69565b6040810151835461ffff918216600160301b9091049091161015610a695760405162461bcd60e51b81526004016107029061467b565b60018354600160e01b900460ff166002811115610a8857610a88613a70565b148015610aaa5750600081606001516001811115610aa857610aa8613a70565b145b80610af1575060008354600160e01b900460ff166002811115610acf57610acf613a70565b148015610af15750600181606001516001811115610aef57610aef613a70565b145b15610b1b57610b146002826020015163ffffffff16611fc390919063ffffffff16565b9150610b23565b806020015191505b505b600060088881548110610b3a57610b3a61449a565b60009182526020909120601654600290920201915063ffffffff168715610deb576000878152600f60209081526040808320548c84526009909252909120546001600160a01b03908116911614610ba35760405162461bcd60e51b815260040161070290614546565b6000600e8881548110610bb857610bb861449a565b60009182526020918290206040805160a08101825291909201805463ffffffff8082168452600160201b8204169483019490945261ffff600160401b8504169282019290925291606083019060ff600160501b909104166001811115610c2057610c20613a70565b6001811115610c3157610c31613a70565b81528154602090910190600160581b900460ff166002811115610c5657610c56613a70565b6002811115610c6757610c67613a70565b9052508051845491925063ffffffff908116600160a01b909204161015610ca05760405162461bcd60e51b8152600401610702906145a7565b600081606001516001811115610cb857610cb8613a70565b1415610cf9576040810151835461ffff918216600160401b9091049091161015610cf45760405162461bcd60e51b815260040161070290614611565b610d2f565b6040810151835461ffff918216600160301b9091049091161015610d2f5760405162461bcd60e51b81526004016107029061467b565b60018354600160e01b900460ff166002811115610d4e57610d4e613a70565b148015610d705750600081606001516001811115610d6e57610d6e613a70565b145b80610db7575060008354600160e01b900460ff166002811115610d9557610d95613a70565b148015610db75750600181606001516001811115610db557610db5613a70565b145b15610de157610dda6002826020015163ffffffff16611fc390919063ffffffff16565b9150610de9565b806020015191505b505b6000610dfb8d86868d8787611fd6565b90508015610e1a57610e0c8d6121aa565b610e158a612244565b610e2c565b610e238d612244565b610e2c8a6121aa565b7fbf30fbcd321ef240818144cebd3d57345fa6d5d053a6778754a84a8478272f3281604051610e5b9190613874565b60405180910390a150505050505050505050505050565b6001600160a01b0381166000908152601060205260408120546060918167ffffffffffffffff811115610ea757610ea7613f9d565b604051908082528060200260200182016040528015610ee057816020015b610ecd6136a4565b815260200190600190039081610ec55790505b50905081610eef579392505050565b6000805b600e5481101561104e576000818152600f60205260409020546001600160a01b038781169116141561103c576040518060400160405280600e8381548110610f3d57610f3d61449a565b60009182526020918290206040805160a08101825291909201805463ffffffff8082168452600160201b8204169483019490945261ffff600160401b8504169282019290925291606083019060ff600160501b909104166001811115610fa557610fa5613a70565b6001811115610fb657610fb6613a70565b81528154602090910190600160581b900460ff166002811115610fdb57610fdb613a70565b6002811115610fec57610fec613a70565b8152505081526020018281525083838151811061100b5761100b61449a565b60200260200101819052508180611021906146a1565b925050838061102f906146bc565b9450508361103c5761104e565b80611046816146a1565b915050610ef3565b5090949350505050565b61106233826122af565b61107e5760405162461bcd60e51b815260040161070290614721565b6107a8838383612339565b6107a8838383604051806020016040528060008152506115a9565b6000818152600360205260408120546001600160a01b0316806106365760405162461bcd60e51b815260040161070290614777565b6000546001600160a01b031633146111035760405162461bcd60e51b8152600401610702906147bc565b60405133904780156108fc02916000818181858888f1935050505015801561112f573d6000803e3d6000fd5b50565b60006001600160a01b03821661115a5760405162461bcd60e51b815260040161070290614813565b506001600160a01b031660009081526004602052604090205490565b6000546001600160a01b031633146111a05760405162461bcd60e51b8152600401610702906147bc565b6111aa600061245b565b565b60606002805461064b906142b6565b60606008548211156111cc57600080fd5b816111d75760085491505b60008267ffffffffffffffff8111156111f2576111f2613f9d565b60405190808252806020026020018201604052801561122b57816020015b6112186136e4565b8152602001906001900390816112105790505b5060085490915061123c5792915050565b600854600090819061125090600190614823565b90505b600854611261908690614823565b81106114915760408051606081018252600083815260096020908152929020546001600160a01b03168152600880549192830191849081106112a5576112a561449a565b6000918252602091829020604080516101c0810182526002938402909201805461ffff8082168552620100008204811696850196909652600160201b8104861692840192909252600160301b820485166060840152600160401b820485166080840152600160501b8204851660a0840152600160601b8204851660c0840152600160701b8204851660e0840152600160801b82048516610100840152600160901b820490941661012083015263ffffffff600160a01b82048116610140840152600160c01b82041661016083015290929161018084019160ff600160e01b909104169081111561139757611397613a70565b60028111156113a8576113a8613a70565b81526020016001820180546113bc906142b6565b80601f01602080910402602001604051908101604052809291908181526020018280546113e8906142b6565b80156114355780601f1061140a57610100808354040283529160200191611435565b820191906000526020600020905b81548152906001019060200180831161141857829003601f168201915b5050505050815250508152602001828152508383815181106114595761145961449a565b6020026020010181905250818061146f906146a1565b9250508482141561147f57611491565b80611489816146bc565b915050611253565b50909392505050565b6114a53383836124ab565b5050565b336000908152600a6020526040902054156114d65760405162461bcd60e51b8152600401610702906148c1565b6114e183838361254e565b6000600b81335b6001600160a01b031681526020810191909152604001600020805461ffff191661ffff92909216919091179055505050565b611524838261199b565b803410156115445760405162461bcd60e51b815260040161070290614920565b6000611550858461199b565b9050600061155e8234614823565b9050801561159557604051339082156108fc029083906000818181858888f19350505050158015611593573d6000803e3d6000fd5b505b6115a133878787612a0f565b505050505050565b6115b333836122af565b6115cf5760405162461bcd60e51b815260040161070290614721565b6115db84848484612d04565b50505050565b60606000600883815481106115f8576115f861449a565b6000918252602091829020604080516101c0810182526002938402909201805461ffff8082168552620100008204811696850196909652600160201b8104861692840192909252600160301b820485166060840152600160401b820485166080840152600160501b8204851660a0840152600160601b8204851660c0840152600160701b8204851660e0840152600160801b82048516610100840152600160901b820490941661012083015263ffffffff600160a01b82048116610140840152600160c01b82041661016083015290929161018084019160ff600160e01b90910416908111156116ea576116ea613a70565b60028111156116fb576116fb613a70565b815260200160018201805461170f906142b6565b80601f016020809104026020016040519081016040528092919081815260200182805461173b906142b6565b80156117885780601f1061175d57610100808354040283529160200191611788565b820191906000526020600020905b81548152906001019060200180831161176b57829003601f168201915b505050505081525050905060006117a6826040015161ffff16612d37565b905060006117be83610140015163ffffffff16612d37565b905060006117d3846060015161ffff16612d37565b905060006117e8856080015161ffff16612d37565b905060006117fd8660c0015161ffff16612d37565b905060006118128760a0015161ffff16612d37565b905060006118cf6118228b612d37565b896101a00151600c60008c6101800151600281111561184357611843613a70565b600281111561185457611854613a70565b8152602001908152602001600020600d60008d6101800151600281111561187d5761187d613a70565b600281111561188e5761188e613a70565b81526020019081526020016000208a8c8b8b8b8b6040516020016118bb9a999897969594939291906149ea565b604051602081830303815290604052612e35565b90506000816040516020016118e49190614c6d565b60408051601f198184030181529190529b9a5050505050505050505050565b336000908152600b6020526040902054600161ffff90911610156119395760405162461bcd60e51b815260040161070290614cf9565b61194483838361254e565b336000908152600b60205260409020546119639061ffff166001612f89565b600b6000336114e8565b6001600160a01b03918216600090815260066020908152604080832093909416825291909152205460ff1690565b6000806119b98463ffffffff16601154612f9590919063ffffffff16565b905060028360028111156119cf576119cf613a70565b14156119eb576012546119e3908290612fa1565b915050610636565b60008360028111156119ff576119ff613a70565b1415611a13576014546119e3908290612fa1565b601354611a21908290612fa1565b949350505050565b600081815260096020526040902054606090610636906001600160a01b0316610e72565b6000546001600160a01b03163314611a775760405162461bcd60e51b8152600401610702906147bc565b6001600160a01b038116611a9d5760405162461bcd60e51b815260040161070290614d4c565b61112f8161245b565b6001600160a01b0381166000908152600a60205260408120546060918167ffffffffffffffff811115611adb57611adb613f9d565b604051908082528060200260200182016040528015611b1457816020015b611b01613707565b815260200190600190039081611af95790505b50905081611b23579392505050565b6000805b60085481101561104e576000818152600960205260409020546001600160a01b0387811691161415611d5657604051806040016040528060088381548110611b7157611b7161449a565b6000918252602091829020604080516101c0810182526002938402909201805461ffff8082168552620100008204811696850196909652600160201b8104861692840192909252600160301b820485166060840152600160401b820485166080840152600160501b8204851660a0840152600160601b8204851660c0840152600160701b8204851660e0840152600160801b82048516610100840152600160901b820490941661012083015263ffffffff600160a01b82048116610140840152600160c01b82041661016083015290929161018084019160ff600160e01b9091041690811115611c6357611c63613a70565b6002811115611c7457611c74613a70565b8152602001600182018054611c88906142b6565b80601f0160208091040260200160405190810160405280929190818152602001828054611cb4906142b6565b8015611d015780601f10611cd657610100808354040283529160200191611d01565b820191906000526020600020905b815481529060010190602001808311611ce457829003601f168201915b505050505081525050815260200182815250838381518110611d2557611d2561449a565b60200260200101819052508180611d3b906146a1565b9250508380611d49906146bc565b94505083611d565761104e565b80611d60816146a1565b915050611b27565b60008581526009602052604090205485906001600160a01b0316336001600160a01b031614611da95760405162461bcd60e51b81526004016107029061443a565b600060088781548110611dbe57611dbe61449a565b60009182526020909120600290910201905085611ddf61ffff821687612fad565b9050611def61ffff821686612fad565b9050611dff61ffff821685612fad565b825490915061ffff600160901b90910481169082161115611e325760405162461bcd60e51b815260040161070290614dcc565b8154611e4990600160901b900461ffff1682612f89565b825461ffff60901b1916600160901b61ffff9283160217808455611e7691600160301b9091041688612fad565b825467ffff0000000000001916600160301b61ffff9283160217808455611ea691600160401b9091041687612fad565b825461ffff60401b1916600160401b61ffff9283160217808455611ed391600160501b9091041685612fad565b825461ffff60501b1916600160501b61ffff9283160217808455611f0091600160601b9091041686612fad565b825461ffff91909116600160601b0261ffff60601b199091161790915550505050505050565b600081815260056020526040902080546001600160a01b0319166001600160a01b0384169081179091558190611f5b826110a4565b6001600160a01b03167f8c5be1e5ebec7d5bd14f71427d1e84f3dd0314c0f7b2291e5b200ac8c7c3b92560405160405180910390a45050565b600754611fa19042614ddc565b815463ffffffff91909116600160c01b0263ffffffff60c01b19909116179055565b6000611fcf8284614df4565b9392505050565b8454600090600160201b900461ffff1660028754600160e01b900460ff16600281111561200557612005613a70565b141561205f5761202063ffffffff80831690601990612fb916565b87549091506000906120459063ffffffff600160a01b909104811690600590611fc316565b905061205b63ffffffff808416908390612fb916565b9150505b8354600160201b900461ffff1660028554600160e01b900460ff16600281111561208b5761208b613a70565b14156120e5576120a663ffffffff80831690601990612fb916565b88549091506000906120cb9063ffffffff600160a01b909104811690600590611fc316565b90506120e163ffffffff808416908390612fb916565b9150505b60005b8854612112908b908a90600160601b900461ffff16338a548c90600160501b900461ffff16612fc5565b905061ffff811663ffffffff83161161213157600193505050506121a0565b61213f61ffff821683614e27565b865490925061216c9088908790600160601b900461ffff16338d548f90600160501b900461ffff16612fc5565b905061ffff811663ffffffff84161161218b57600093505050506121a0565b61219961ffff821684614e27565b92506120e8565b9695505050505050565b6000600882815481106121bf576121bf61449a565b6000918252602090912060029091020180549091506121e39061ffff166001612fad565b815461ffff191661ffff9182161780835561220891600160701b909104166028612fad565b815461ffff60701b1916600160701b61ffff928316810291909117808455600160801b81048316919004909116106114a5576114a581836130d8565b6000600882815481106122595761225961449a565b6000918252602090912060029091020180549091506122839062010000900461ffff166001612fad565b815463ffff000019166201000061ffff928316021780835561220891600160701b909104166019612fad565b6000818152600360205260408120546001600160a01b03166122e35760405162461bcd60e51b815260040161070290614e87565b60006122ee836110a4565b9050806001600160a01b0316846001600160a01b031614806123295750836001600160a01b031661231e846106ce565b6001600160a01b0316145b80611a215750611a21818561196d565b826001600160a01b031661234c826110a4565b6001600160a01b0316146123725760405162461bcd60e51b815260040161070290614ed9565b6001600160a01b0382166123985760405162461bcd60e51b815260040161070290614f2a565b6123a3600082611f26565b6001600160a01b03831660009081526004602052604081208054600192906123cc908490614823565b90915550506001600160a01b03821660009081526004602052604081208054600192906123fa908490614ddc565b909155505060008181526003602052604080822080546001600160a01b0319166001600160a01b0386811691821790925591518493918716917fddf252ad1be2c89b69c2b068fc378daa952ba7f163c4a11628f55a4df523b3ef91a4505050565b600080546001600160a01b038381166001600160a01b0319831681178455604051919092169283917f8be0079c531659141344cd1fd0a4f28419497f9722a3daafe3b4186f6b6457e09190a35050565b816001600160a01b0316836001600160a01b031614156124dd5760405162461bcd60e51b815260040161070290614f6e565b6001600160a01b0383811660008181526006602090815260408083209487168084529490915290819020805460ff1916851515179055517f17307eab39ab6107e8899845ad3d59bd9653f200f220920489ca2b5937696c3190612541908590613874565b60405180910390a3505050565b82828061256d5760405162461bcd60e51b815260040161070290614fcd565b82600081600281111561258257612582613a70565b148061259f5750600181600281111561259d5761259d613a70565b145b806125bb575060028160028111156125b9576125b9613a70565b145b6125d75760405162461bcd60e51b81526004016107029061502d565b85858080601f016020809104026020016040519081016040528093929190818152602001838380828437600092018290525092506126189150339050611aa6565b90506000805b82518110156126735761265383828151811061263c5761263c61449a565b6020026020010151600001516101a001518561326a565b156126615760019150612673565b8061266b816146a1565b91505061261e565b5080156126925760405162461bcd60e51b815260040161070290615097565b604080516101c08101825260008082526020820181905260649282018390526001606083018190526080830181905260a0830181905260c0830181905260e0830182905261010083019390935261012082015261014081019190915260075460089190610160820190612706904290612fa1565b63ffffffff16815260200189600281111561272357612723613a70565b81526020018b8b8080601f016020809104026020016040519081016040528093929190818152602001838380828437600081840152601f19601f82011690508083019250505050505050815250908060018154018082558091505060019003906000526020600020906002020160009091909190915060008201518160000160006101000a81548161ffff021916908361ffff16021790555060208201518160000160026101000a81548161ffff021916908361ffff16021790555060408201518160000160046101000a81548161ffff021916908361ffff16021790555060608201518160000160066101000a81548161ffff021916908361ffff16021790555060808201518160000160086101000a81548161ffff021916908361ffff16021790555060a082015181600001600a6101000a81548161ffff021916908361ffff16021790555060c082015181600001600c6101000a81548161ffff021916908361ffff16021790555060e082015181600001600e6101000a81548161ffff021916908361ffff1602179055506101008201518160000160106101000a81548161ffff021916908361ffff1602179055506101208201518160000160126101000a81548161ffff021916908361ffff1602179055506101408201518160000160146101000a81548163ffffffff021916908363ffffffff1602179055506101608201518160000160186101000a81548163ffffffff021916908363ffffffff16021790555061018082015181600001601c6101000a81548160ff0219169083600281111561297457612974613a70565b02179055506101a0820151805161299591600184019160209091019061371a565b5050600854600091506129aa90600190614823565b600081815260096020908152604080832080546001600160a01b031916339081179091558352600a9091529020549091506129e6906001612fa1565b336000818152600a6020526040902091909155612a0390826132c3565b50505050505050505050565b8260018163ffffffff161015612a375760405162461bcd60e51b8152600401610702906150f6565b826000816001811115612a4c57612a4c613a70565b1480612a6957506001816001811115612a6757612a67613a70565b145b612a855760405162461bcd60e51b815260040161070290615154565b826000816002811115612a9a57612a9a613a70565b1480612ab757506001816002811115612ab557612ab5613a70565b145b80612ad357506002816002811115612ad157612ad1613a70565b145b612aef5760405162461bcd60e51b815260040161070290615154565b600080856002811115612b0457612b04613a70565b1415612b0e575060085b6001856002811115612b2257612b22613a70565b1415612b2c575060065b6002856002811115612b4057612b40613a70565b1415612b4a575060035b600e6040518060a001604052808963ffffffff168152602001612b6d8a896132dd565b63ffffffff1681526020018361ffff168152602001886001811115612b9457612b94613a70565b8152602001876002811115612bab57612bab613a70565b9052815460018181018455600093845260209384902083519201805494840151604085015161ffff16600160401b0261ffff60401b1963ffffffff928316600160201b0267ffffffffffffffff199098169290951691909117959095179283168517815560608401519394909392849260ff60501b199092166affffff0000000000000000199091161790600160501b908490811115612c4d57612c4d613a70565b021790555060808201518154829060ff60581b1916600160581b836002811115612c7957612c79613a70565b0217905550505087600f60006001600e80549050612c979190614823565b81526020808201929092526040908101600090812080546001600160a01b0319166001600160a01b03958616179055928b1683526010909152902054612cde906001612fa1565b6001600160a01b0390981660009081526010602052604090209790975550505050505050565b612d0f848484612339565b612d1b84848484613359565b6115db5760405162461bcd60e51b8152600401610702906151b3565b606081612d5b5750506040805180820190915260018152600360fc1b602082015290565b8160005b8115612d855780612d6f816146a1565b9150612d7e9050600a836151d9565b9150612d5f565b60008167ffffffffffffffff811115612da057612da0613f9d565b6040519080825280601f01601f191660200182016040528015612dca576020820181803683370190505b5090505b8415611a2157612ddf600183614823565b9150612dec600a866151ed565b612df7906030614ddc565b60f81b818381518110612e0c57612e0c61449a565b60200101906001600160f81b031916908160001a905350612e2e600a866151d9565b9450612dce565b6060815160001415612e5557505060408051602081019091526000815290565b600060405180606001604052806040815260200161542d6040913990506000600384516002612e849190614ddc565b612e8e91906151d9565b612e99906004615205565b67ffffffffffffffff811115612eb157612eb1613f9d565b6040519080825280601f01601f191660200182016040528015612edb576020820181803683370190505b509050600182016020820185865187015b80821015612f47576003820191508151603f8160121c168501518453600184019350603f81600c1c168501518453600184019350603f8160061c168501518453600184019350603f8116850151845360018401935050612eec565b5050600386510660018114612f635760028114612f7657612f7e565b603d6001830353603d6002830353612f7e565b603d60018303535b509195945050505050565b6000611fcf828461521f565b6000611fcf8284615205565b6000611fcf8284614ddc565b6000611fcf8284615232565b6000611fcf8284615256565b6000612fd18483613457565b1561301a5782877fcce4f0668cb0ecd051f3e42f34aaff29f7fc1d9554bcf8d825cb4960f15a9e7760008060405161300a929190615295565b60405180910390a35060006121a0565b6130248486613457565b156130955782877fcce4f0668cb0ecd051f3e42f34aaff29f7fc1d9554bcf8d825cb4960f15a9e7761306163ffffffff808b1690600290611fc316565b60016040516130719291906152b0565b60405180910390a361308e63ffffffff80881690600290611fc316565b90506121a0565b82877fcce4f0668cb0ecd051f3e42f34aaff29f7fc1d9554bcf8d825cb4960f15a9e778860006040516130c99291906152b0565b60405180910390a350846121a0565b81546130f090600160801b900461ffff166064612fad565b825461ffff91909116600160801b0261ffff60801b199091161780835561312a9063ffffffff600160a01b909104811690600190612fb916565b825463ffffffff60a01b1916600160a01b63ffffffff928316021780845561316291600160201b90910461ffff1690600a90612fad16565b825465ffff000000001916600160201b61ffff928316021780845561319191600160901b909104166001612fad565b825461ffff91909116600160901b0261ffff60901b19909116178083556131cb9063ffffffff600160a01b909104811690600a906134d916565b63ffffffff166114a5576000818152600960209081526040808320546001600160a01b0316808452600b9092529091205461320b9061ffff166001612fad565b6001600160a01b0382166000908152600b60205260409020805461ffff191661ffff92909216919091179055613240816134e5565b156107a85782546107a8908290600160a01b900463ffffffff1661326382613534565b6002612a0f565b60008160405160200161327d91906152be565b60405160208183030381529060405280519060200120836040516020016132a491906152be565b6040516020818303038152906040528051906020012014905092915050565b6114a5828260405180602001604052806000815250613583565b600060028260028111156132f3576132f3613a70565b14156133155761330e63ffffffff80851690600290611fc316565b9050610636565b600082600281111561332957613329613a70565b14156133445761330e63ffffffff80851690600490611fc316565b611fcf63ffffffff80851690600390611fc316565b60006001600160a01b0384163b1561344c57604051630a85bd0160e11b81526001600160a01b0385169063150b7a029061339d9033908990889088906004016152ca565b6020604051808303816000875af19250505080156133d8575060408051601f3d908101601f191682019092526133d59181019061530f565b60015b613432573d808015613406576040519150601f19603f3d011682016040523d82523d6000602084013e61340b565b606091505b50805161342a5760405162461bcd60e51b8152600401610702906151b3565b805181602001fd5b6001600160e01b031916630a85bd0160e11b149050611a21565b506001949350505050565b60008061346961ffff84166005614ddc565b60155490915061347a906001612fa1565b60158190556040516000916134ba9160649161349c9142918a91602001615358565b60408051601f198184030181529190528051602090910120906135b6565b90508181116134ce57600192505050610636565b506000949350505050565b6000611fcf828461538f565b6015546000906134f6906001612fa1565b60158190556040516000916135189160649161349c9142918891602001615358565b90506028811161352b5750600192915050565b50600092915050565b601554600090613545906001612fa1565b60158190556040516000916135679160649161349c9142918891602001615358565b90506032811161357a5750600092915050565b50600192915050565b61358d83836135c2565b61359a6000848484613359565b6107a85760405162461bcd60e51b8152600401610702906151b3565b6000611fcf82846151ed565b6001600160a01b0382166135e85760405162461bcd60e51b8152600401610702906153d8565b6000818152600360205260409020546001600160a01b03161561361d5760405162461bcd60e51b81526004016107029061541c565b6001600160a01b0382166000908152600460205260408120805460019290613646908490614ddc565b909155505060008181526003602052604080822080546001600160a01b0319166001600160a01b03861690811790915590518392907fddf252ad1be2c89b69c2b068fc378daa952ba7f163c4a11628f55a4df523b3ef908290a45050565b6040805160e0810182526000918101828152606082018390526080820183905260a0820183905260c08201929092529081905b8152602001600081525090565b604051806060016040528060006001600160a01b031681526020016136d761379e565b60405180604001604052806136d761379e565b828054613726906142b6565b90600052602060002090601f016020900481019282613748576000855561378e565b82601f1061376157805160ff191683800117855561378e565b8280016001018555821561378e579182015b8281111561378e578251825591602001919060010190613773565b5061379a929150613812565b5090565b604080516101c081018252600080825260208201819052918101829052606081018290526080810182905260a0810182905260c0810182905260e081018290526101008101829052610120810182905261014081018290526101608101829052906101808201908152602001606081525090565b5b8082111561379a5760008155600101613813565b6001600160e01b031981165b811461112f57600080fd5b803561063681613827565b60006020828403121561385e5761385e600080fd5b6000611a21848461383e565b8015155b82525050565b60208101610636828461386a565b60005b8381101561389d578181015183820152602001613885565b838111156115db5750506000910152565b60006138b8825190565b8084526020840193506138cf818560208601613882565b601f01601f19169290920192915050565b60208082528101611fcf81846138ae565b80613833565b8035610636816138f1565b60006020828403121561391757613917600080fd5b6000611a2184846138f7565b60006001600160a01b038216610636565b61386e81613923565b602081016106368284613934565b61383381613923565b80356106368161394b565b6000806040838503121561397557613975600080fd5b60006139818585613954565b9250506020613992858286016138f7565b9150509250929050565b801515613833565b80356106368161399c565b60008060008060008060c087890312156139cb576139cb600080fd5b60006139d789896138f7565b96505060206139e889828a016139a4565b95505060406139f989828a016138f7565b9450506060613a0a89828a016138f7565b9350506080613a1b89828a016139a4565b92505060a0613a2c89828a016138f7565b9150509295509295509295565b600060208284031215613a4e57613a4e600080fd5b6000611a218484613954565b63ffffffff811661386e565b61ffff811661386e565b634e487b7160e01b600052602160045260246000fd5b6002811061112f5761112f613a70565b80613aa081613a86565b919050565b600061063682613a96565b61386e81613aa5565b6003811061112f5761112f613a70565b80613aa081613ab9565b600061063682613ac9565b61386e81613ad3565b805160a0830190613af88482613a5a565b506020820151613b0b6020850182613a5a565b506040820151613b1e6040850182613a66565b506060820151613b316060850182613ab0565b5060808201516115db6080850182613ade565b8061386e565b805160c0830190613b5b8482613ae7565b5060208201516115db60a0850182613b44565b6000613b7a8383613b4a565b505060c00190565b6000613b8c825190565b80845260209384019383018060005b83811015613bc0578151613baf8882613b6e565b975060208301925050600101613b9b565b509495945050505050565b60208082528101611fcf8184613b82565b600080600060608486031215613bf457613bf4600080fd5b6000613c008686613954565b9350506020613c1186828701613954565b9250506040613c22868287016138f7565b9150509250925092565b602081016106368284613b44565b602081016106368284613a66565b80516000906101c0840190613c5d8582613a66565b506020830151613c706020860182613a66565b506040830151613c836040860182613a66565b506060830151613c966060860182613a66565b506080830151613ca96080860182613a66565b5060a0830151613cbc60a0860182613a66565b5060c0830151613ccf60c0860182613a66565b5060e0830151613ce260e0860182613a66565b50610100830151613cf7610100860182613a66565b50610120830151613d0c610120860182613a66565b50610140830151613d21610140860182613a5a565b50610160830151613d36610160860182613a5a565b50610180830151613d4b610180860182613ade565b506101a08301518482036101a0860152613d6582826138ae565b95945050505050565b80516000906060840190613d828582613934565b5060208301518482036020860152613d9a8282613c48565b9150506040830151613daf6040860182613b44565b509392505050565b6000611fcf8383613d6e565b6000613dcd825190565b80845260208401935083602082028501613de78560200190565b8060005b85811015613e1c5784840389528151613e048582613db7565b94506020830160209a909a0199925050600101613deb565b5091979650505050505050565b60208082528101611fcf8184613dc3565b60008060408385031215613e5057613e50600080fd5b6000613e5c8585613954565b9250506020613992858286016139a4565b60008083601f840112613e8257613e82600080fd5b50813567ffffffffffffffff811115613e9d57613e9d600080fd5b602083019150836001820283011115613eb857613eb8600080fd5b9250929050565b6003811061112f57600080fd5b803561063681613ebf565b600080600060408486031215613eef57613eef600080fd5b833567ffffffffffffffff811115613f0957613f09600080fd5b613f1586828701613e6d565b93509350506020613c2286828701613ecc565b63ffffffff8116613833565b803561063681613f28565b6002811061112f57600080fd5b803561063681613f3f565b600080600060608486031215613f6f57613f6f600080fd5b6000613f7b8686613f34565b9350506020613f8c86828701613f4c565b9250506040613c2286828701613ecc565b634e487b7160e01b600052604160045260246000fd5b601f19601f830116810181811067ffffffffffffffff82111715613fd957613fd9613f9d565b6040525050565b6000613feb60405190565b9050613aa08282613fb3565b600067ffffffffffffffff82111561401157614011613f9d565b601f19601f83011660200192915050565b82818337506000910152565b600061404161403c84613ff7565b613fe0565b90508281526020810184848401111561405c5761405c600080fd5b613daf848285614022565b600082601f83011261407b5761407b600080fd5b8135611a2184826020860161402e565b600080600080608085870312156140a4576140a4600080fd5b60006140b08787613954565b94505060206140c187828801613954565b93505060406140d2878288016138f7565b925050606085013567ffffffffffffffff8111156140f2576140f2600080fd5b6140fe87828801614067565b91505092959194509250565b6000806040838503121561412057614120600080fd5b600061412c8585613954565b925050602061399285828601613954565b6000806040838503121561415357614153600080fd5b600061415f8585613f34565b925050602061399285828601613ecc565b80516040808452600091908401906141888282613c48565b9150506020830151613daf6020860182613b44565b6000611fcf8383614170565b60006141b3825190565b808452602084019350836020820285016141cd8560200190565b8060005b85811015613e1c57848403895281516141ea858261419d565b94506020830160209a909a01999250506001016141d1565b60208082528101611fcf81846141a9565b61ffff8116613833565b803561063681614213565b600080600080600060a0868803121561424357614243600080fd5b600061424f88886138f7565b95505060206142608882890161421d565b94505060406142718882890161421d565b93505060606142828882890161421d565b92505060806142938882890161421d565b9150509295509295909350565b634e487b7160e01b600052602260045260246000fd5b6002810460018216806142ca57607f821691505b602082108114156142dd576142dd6142a0565b50919050565b602c81526000602082017f4552433732313a20617070726f76656420717565727920666f72206e6f6e657881526b34b9ba32b73a103a37b5b2b760a11b602082015291505b5060400190565b60208082528101610636816142e3565b602181526000602082017f4552433732313a20617070726f76616c20746f2063757272656e74206f776e658152603960f91b60208201529150614328565b602080825281016106368161433f565b603881526000602082017f4552433732313a20617070726f76652063616c6c6572206973206e6f74206f7781527f6e6572206e6f7220617070726f76656420666f7220616c6c000000000000000060208201529150614328565b602080825281016106368161438d565b602681526000602082017f596f7520617265206e6f7420746865206f776e6572206f66207468697320466981526567687465722160d01b60208201529150614328565b60208082528101610636816143f7565b602381526000602082017f596f752063616e6e6f742061747461636b20796f7572206f776e20466967687481526265722160e81b60208201529150614328565b602080825281016106368161444a565b634e487b7160e01b600052603260045260246000fd5b602781526000602082017f596f75722066696768746572206973206e6f742079657420726561647920746f8152662066696768742160c81b60208201529150614328565b60208082528101610636816144b0565b602581526000602082017f596f7520617265206e6f7420746865206f776e6572206f66207468697320576581526461706f6e2160d81b60208201529150614328565b6020808252810161063681614504565b603481526000602082017f596f752063616e6e6f7420757365207468697320776561706f6e2c20796f7572815273206c6576656c20697320746f6f20736d616c6c2160601b60208201529150614328565b6020808252810161063681614556565b603f81526000602082017f596f752063616e6e6f7420757365207468697320776561706f6e2c20796f757281527f206167696c69747920736b696c6c20697320696e73756666696369656e74210060208201529150614328565b60208082528101610636816145b7565b604081526000602082017f596f752063616e6e6f7420757365207468697320776561706f6e2c20796f757281527f20737472656e67746820736b696c6c20697320696e73756666696369656e742160208201529150614328565b6020808252810161063681614621565b634e487b7160e01b600052601160045260246000fd5b60006000198214156146b5576146b561468b565b5060010190565b6000816146cb576146cb61468b565b506000190190565b603181526000602082017f4552433732313a207472616e736665722063616c6c6572206973206e6f74206f8152701ddb995c881b9bdc88185c1c1c9bdd9959607a1b60208201529150614328565b60208082528101610636816146d3565b602981526000602082017f4552433732313a206f776e657220717565727920666f72206e6f6e657869737481526832b73a103a37b5b2b760b91b60208201529150614328565b6020808252810161063681614731565b60208082527f4f776e61626c653a2063616c6c6572206973206e6f7420746865206f776e6572910190815260005b5060200190565b6020808252810161063681614787565b602a81526000602082017f4552433732313a2062616c616e636520717565727920666f7220746865207a65815269726f206164647265737360b01b60208201529150614328565b60208082528101610636816147cc565b6000825b9250828210156148395761483961468b565b500390565b605c81526000602082017f596f7520616c7265616479206861766520666967687465727320696e20796f7581527f72204261727261636b732120456e74657220746865204172656e6120616e642060208201527f6561726e20796f757273656c66206d6f72652046696768746572732100000000604082015291505b5060600190565b602080825281016106368161483e565b603281526000602082017f596f752073656e7420696e73756666696369656e742045544820666f7220666f8152717267696e67207468697320776561706f6e2160701b60208201529150614328565b60208082528101610636816148d1565b600061493a825190565b614948818560208601613882565b9290920192915050565b6000815461495f816142b6565b6001821680156149765760018114614987576149b7565b60ff198316865281860193506149b7565b60008581526020902060005b838110156149af57815488820152600190910190602001614993565b838801955050505b50505092915050565b7f7b2274726169745f74797065223a20224c75636b222c202276616c7565223a20815260006147b5565b737b226e616d65223a20225b46696768746572202360601b81526014016000614a13828d614930565b6302e9016960e51b81526004019150614a2c828c614930565b640103a3432960dd1b81526005019150614a46828b614952565b7f222c20226465736372697074696f6e223a202254686973204e4654207265707281527f6573656e747320612043727970746f4172656e61332e3020466967687465722160208201526c1116101134b6b0b3b2911d101160991b6040820152604d019150614ab4828a614952565b7f222c202261747472696275746573223a205b7b2274726169745f74797065223a815272010113632bb32b6111610113b30b63ab2911d1606d1b60208201526033019150614b028289614930565b611f4b60f21b81527f7b2274726169745f74797065223a20224865616c746820506f696e7473222c206002820152680113b30b63ab2911d160bd1b6022820152602b019150614b518288614930565b611f4b60f21b81527f7b2274726169745f74797065223a2022537472656e677468222c202276616c75600282015263032911d160e51b60228201526026019150614b9b8287614930565b611f4b60f21b81527f7b2274726169745f74797065223a20224167696c697479222c202276616c75656002820152620111d160ed1b60228201526025019150614be48286614930565b611f4b60f21b81526002019150614bfa826149c0565b9150614c068285614930565b611f4b60f21b81527f7b2274726169745f74797065223a2022446578746572697479222c202276616c60028201526403ab2911d160dd1b60228201526027019150614c518284614930565b627d5d7d60e81b81526003019c9b505050505050505050505050565b7f646174613a6170706c69636174696f6e2f6a736f6e3b6261736536342c0000008152601d016000611fcf8284614930565b603981526000602082017f596f7520646f206e6f74206861766520616e7920617661696c61626c6520707581527f70696c732120466967687420746f206561726e206d6f7265210000000000000060208201529150614328565b6020808252810161063681614c9f565b602681526000602082017f4f776e61626c653a206e6577206f776e657220697320746865207a65726f206181526564647265737360d01b60208201529150614328565b6020808252810161063681614d09565b604d81526000602082017f596f7520646f206e6f74206861766520656e6f75676820617661696c61626c6581527f207370656e6461626c6520706f696e747320696e206f7264657220746f20646f60208201526c207468697320616374696f6e2160981b604082015291506148ba565b6020808252810161063681614d5c565b60008219821115614def57614def61468b565b500190565b600063ffffffff8216915063ffffffff831692508163ffffffff0483118215151615614e2257614e2261468b565b500290565b600063ffffffff8216915063ffffffff8316614827565b602c81526000602082017f4552433732313a206f70657261746f7220717565727920666f72206e6f6e657881526b34b9ba32b73a103a37b5b2b760a11b60208201529150614328565b6020808252810161063681614e3e565b602581526000602082017f4552433732313a207472616e736665722066726f6d20696e636f72726563742081526437bbb732b960d91b60208201529150614328565b6020808252810161063681614e97565b602481526000602082017f4552433732313a207472616e7366657220746f20746865207a65726f206164648152637265737360e01b60208201529150614328565b6020808252810161063681614ee9565b601981526000602082017f4552433732313a20617070726f766520746f2063616c6c657200000000000000815291506147b5565b6020808252810161063681614f3a565b603281526000602082017f546865206e616d6520796f7520696e73657274656420666f7220796f7572204681527169676874657220697320696e76616c69642160701b60208201529150614328565b6020808252810161063681614f7e565b603381526000602082017f54686520636c61737320796f7520696e73657274656420666f7220796f7572208152724669676874657220697320696e76616c69642160681b60208201529150614328565b6020808252810161063681614fdd565b603781526000602082017f546865206e616d6520796f7520696e73657274656420666f7220796f7572204681527f69676874657220697320616c726561647920757365642100000000000000000060208201529150614328565b602080825281016106368161503d565b603281526000602082017f546865206c6576656c20796f7520696e73657274656420666f7220796f757220815271576561706f6e20697320696e76616c69642160701b60208201529150614328565b60208082528101610636816150a7565b603181526000602082017f546865207479706520796f7520696e73657274656420666f7220796f757220578152706561706f6e20697320696e76616c69642160781b60208201529150614328565b6020808252810161063681615106565b603281526000602082017f4552433732313a207472616e7366657220746f206e6f6e20455243373231526581527131b2b4bb32b91034b6b83632b6b2b73a32b960711b60208201529150614328565b6020808252810161063681615164565b634e487b7160e01b600052601260045260246000fd5b6000826151e8576151e86151c3565b500490565b6000825b925082615200576152006151c3565b500690565b6000816000190483118215151615614e2257614e2261468b565b600061ffff8216915061ffff8316614827565b600061ffff8216915061ffff831692508261ffff03821115614def57614def61468b565b600063ffffffff8216915063ffffffff831692508263ffffffff03821115614def57614def61468b565b600061ffff8216610636565b61386e81615280565b604081016152a3828561528c565b611fcf602083018461386a565b604081016152a38285613a66565b6000611fcf8284614930565b608081016152d88287613934565b6152e56020830186613934565b6152f26040830185613b44565b81810360608301526121a081846138ae565b805161063681613827565b60006020828403121561532457615324600080fd5b6000611a218484615304565b60006106368260601b90565b600061063682615330565b61386e61535382613923565b61533c565b60006153648286613b44565b6020820191506153748285615347565b6014820191506153848284613b44565b506020019392505050565b600063ffffffff8216915063ffffffff83166151f1565b60208082527f4552433732313a206d696e7420746f20746865207a65726f2061646472657373910190815260006147b5565b60208082528101610636816153a6565b601c81526000602082017f4552433732313a20746f6b656e20616c7265616479206d696e74656400000000815291506147b5565b60208082528101610636816153e856fe4142434445464748494a4b4c4d4e4f505152535455565758595a6162636465666768696a6b6c6d6e6f707172737475767778797a303132333435363738392b2fa26469706673582212203f2499d7824718417db3eef893a687356c7db43ce5341abdec2cc57f647e0fc664736f6c634300080a0033",
  "linkReferences": {},
  "deployedLinkReferences": {}
}