{
  "_format": "hh-sol-artifact-1",
  "contractName": "Arena",
  "sourceName": "contracts/Arena.sol",
  "abi": [
    {
      "anonymous": false,
      "inputs": [
        {
          "indexed": true,
          "internalType": "uint256",
          "name": "attackerId",
          "type": "uint256"
        },
        {
          "indexed": true,
          "internalType": "uint256",
          "name": "targetId",
          "type": "uint256"
        },
        {
          "indexed": false,
          "internalType": "uint16",
          "name": "damage",
          "type": "uint16"
        },
        {
          "indexed": false,
          "internalType": "bool",
          "name": "wasCritical",
          "type": "bool"
        }
      ],
      "name": "ArenaEvent",
      "type": "event"
    },
    {
      "anonymous": false,
      "inputs": [
        {
          "indexed": true,
          "internalType": "address",
          "name": "previousOwner",
          "type": "address"
        },
        {
          "indexed": true,
          "internalType": "address",
          "name": "newOwner",
          "type": "address"
        }
      ],
      "name": "OwnershipTransferred",
      "type": "event"
    },
    {
      "anonymous": false,
      "inputs": [
        {
          "indexed": false,
          "internalType": "bool",
          "name": "youWon",
          "type": "bool"
        }
      ],
      "name": "WhoWon",
      "type": "event"
    },
    {
      "inputs": [],
      "name": "_collectMerchantBalance",
      "outputs": [],
      "stateMutability": "nonpayable",
      "type": "function"
    },
    {
      "inputs": [
        {
          "internalType": "uint32",
          "name": "_level",
          "type": "uint32"
        },
        {
          "internalType": "enum WeaponTier",
          "name": "_tier",
          "type": "uint8"
        }
      ],
      "name": "_computeWeaponPrice",
      "outputs": [
        {
          "internalType": "uint256",
          "name": "",
          "type": "uint256"
        }
      ],
      "stateMutability": "view",
      "type": "function"
    },
    {
      "inputs": [
        {
          "internalType": "string",
          "name": "_name",
          "type": "string"
        },
        {
          "internalType": "enum FighterClass",
          "name": "_class",
          "type": "uint8"
        }
      ],
      "name": "_createFirstFighter",
      "outputs": [],
      "stateMutability": "nonpayable",
      "type": "function"
    },
    {
      "inputs": [],
      "name": "_getFightersCount",
      "outputs": [
        {
          "internalType": "uint256",
          "name": "",
          "type": "uint256"
        }
      ],
      "stateMutability": "view",
      "type": "function"
    },
    {
      "inputs": [
        {
          "internalType": "uint256",
          "name": "latest",
          "type": "uint256"
        }
      ],
      "name": "_getLatestFighters",
      "outputs": [
        {
          "components": [
            {
              "internalType": "address",
              "name": "owner",
              "type": "address"
            },
            {
              "components": [
                {
                  "internalType": "uint16",
                  "name": "winCount",
                  "type": "uint16"
                },
                {
                  "internalType": "uint16",
                  "name": "lossCount",
                  "type": "uint16"
                },
                {
                  "internalType": "uint16",
                  "name": "HP",
                  "type": "uint16"
                },
                {
                  "internalType": "uint16",
                  "name": "strength",
                  "type": "uint16"
                },
                {
                  "internalType": "uint16",
                  "name": "agility",
                  "type": "uint16"
                },
                {
                  "internalType": "uint16",
                  "name": "dexterity",
                  "type": "uint16"
                },
                {
                  "internalType": "uint16",
                  "name": "luck",
                  "type": "uint16"
                },
                {
                  "internalType": "uint16",
                  "name": "currentXP",
                  "type": "uint16"
                },
                {
                  "internalType": "uint16",
                  "name": "levelUpXP",
                  "type": "uint16"
                },
                {
                  "internalType": "uint16",
                  "name": "spendablePoints",
                  "type": "uint16"
                },
                {
                  "internalType": "uint32",
                  "name": "level",
                  "type": "uint32"
                },
                {
                  "internalType": "uint32",
                  "name": "readyTime",
                  "type": "uint32"
                },
                {
                  "internalType": "enum FighterClass",
                  "name": "class",
                  "type": "uint8"
                },
                {
                  "internalType": "string",
                  "name": "name",
                  "type": "string"
                }
              ],
              "internalType": "struct FighterFactory.Fighter",
              "name": "fighter",
              "type": "tuple"
            },
            {
              "internalType": "uint256",
              "name": "id",
              "type": "uint256"
            }
          ],
          "internalType": "struct FighterFactory.FighterDTO[]",
          "name": "",
          "type": "tuple[]"
        }
      ],
      "stateMutability": "view",
      "type": "function"
    },
    {
      "inputs": [],
      "name": "_getMyAvailablePupils",
      "outputs": [
        {
          "internalType": "uint256",
          "name": "",
          "type": "uint256"
        }
      ],
      "stateMutability": "view",
      "type": "function"
    },
    {
      "inputs": [
        {
          "internalType": "address",
          "name": "_owner",
          "type": "address"
        }
      ],
      "name": "_getUserFighters",
      "outputs": [
        {
          "components": [
            {
              "components": [
                {
                  "internalType": "uint16",
                  "name": "winCount",
                  "type": "uint16"
                },
                {
                  "internalType": "uint16",
                  "name": "lossCount",
                  "type": "uint16"
                },
                {
                  "internalType": "uint16",
                  "name": "HP",
                  "type": "uint16"
                },
                {
                  "internalType": "uint16",
                  "name": "strength",
                  "type": "uint16"
                },
                {
                  "internalType": "uint16",
                  "name": "agility",
                  "type": "uint16"
                },
                {
                  "internalType": "uint16",
                  "name": "dexterity",
                  "type": "uint16"
                },
                {
                  "internalType": "uint16",
                  "name": "luck",
                  "type": "uint16"
                },
                {
                  "internalType": "uint16",
                  "name": "currentXP",
                  "type": "uint16"
                },
                {
                  "internalType": "uint16",
                  "name": "levelUpXP",
                  "type": "uint16"
                },
                {
                  "internalType": "uint16",
                  "name": "spendablePoints",
                  "type": "uint16"
                },
                {
                  "internalType": "uint32",
                  "name": "level",
                  "type": "uint32"
                },
                {
                  "internalType": "uint32",
                  "name": "readyTime",
                  "type": "uint32"
                },
                {
                  "internalType": "enum FighterClass",
                  "name": "class",
                  "type": "uint8"
                },
                {
                  "internalType": "string",
                  "name": "name",
                  "type": "string"
                }
              ],
              "internalType": "struct FighterFactory.Fighter",
              "name": "fighter",
              "type": "tuple"
            },
            {
              "internalType": "uint256",
              "name": "id",
              "type": "uint256"
            }
          ],
          "internalType": "struct FighterFactory.FighterBarracksDTO[]",
          "name": "",
          "type": "tuple[]"
        }
      ],
      "stateMutability": "view",
      "type": "function"
    },
    {
      "inputs": [
        {
          "internalType": "address",
          "name": "_owner",
          "type": "address"
        }
      ],
      "name": "_getUserWeapons",
      "outputs": [
        {
          "components": [
            {
              "components": [
                {
                  "internalType": "uint32",
                  "name": "levelReq",
                  "type": "uint32"
                },
                {
                  "internalType": "uint32",
                  "name": "damage",
                  "type": "uint32"
                },
                {
                  "internalType": "uint16",
                  "name": "skillReq",
                  "type": "uint16"
                },
                {
                  "internalType": "enum WeaponType",
                  "name": "weapType",
                  "type": "uint8"
                },
                {
                  "internalType": "enum WeaponTier",
                  "name": "tier",
                  "type": "uint8"
                }
              ],
              "internalType": "struct WeaponFactory.Weapon",
              "name": "weapon",
              "type": "tuple"
            },
            {
              "internalType": "uint256",
              "name": "id",
              "type": "uint256"
            }
          ],
          "internalType": "struct WeaponFactory.WeaponDTO[]",
          "name": "",
          "type": "tuple[]"
        }
      ],
      "stateMutability": "view",
      "type": "function"
    },
    {
      "inputs": [
        {
          "internalType": "uint256",
          "name": "id",
          "type": "uint256"
        }
      ],
      "name": "_getWeaponByFighterId",
      "outputs": [
        {
          "components": [
            {
              "components": [
                {
                  "internalType": "uint32",
                  "name": "levelReq",
                  "type": "uint32"
                },
                {
                  "internalType": "uint32",
                  "name": "damage",
                  "type": "uint32"
                },
                {
                  "internalType": "uint16",
                  "name": "skillReq",
                  "type": "uint16"
                },
                {
                  "internalType": "enum WeaponType",
                  "name": "weapType",
                  "type": "uint8"
                },
                {
                  "internalType": "enum WeaponTier",
                  "name": "tier",
                  "type": "uint8"
                }
              ],
              "internalType": "struct WeaponFactory.Weapon",
              "name": "weapon",
              "type": "tuple"
            },
            {
              "internalType": "uint256",
              "name": "id",
              "type": "uint256"
            }
          ],
          "internalType": "struct WeaponFactory.WeaponDTO[]",
          "name": "",
          "type": "tuple[]"
        }
      ],
      "stateMutability": "view",
      "type": "function"
    },
    {
      "inputs": [
        {
          "internalType": "uint32",
          "name": "_level",
          "type": "uint32"
        },
        {
          "internalType": "enum WeaponType",
          "name": "_type",
          "type": "uint8"
        },
        {
          "internalType": "enum WeaponTier",
          "name": "_tier",
          "type": "uint8"
        }
      ],
      "name": "_purchaseWeapon",
      "outputs": [],
      "stateMutability": "payable",
      "type": "function"
    },
    {
      "inputs": [
        {
          "internalType": "uint256",
          "name": "_fighterId",
          "type": "uint256"
        },
        {
          "internalType": "uint16",
          "name": "_STR",
          "type": "uint16"
        },
        {
          "internalType": "uint16",
          "name": "_AGL",
          "type": "uint16"
        },
        {
          "internalType": "uint16",
          "name": "_LCK",
          "type": "uint16"
        },
        {
          "internalType": "uint16",
          "name": "_DEX",
          "type": "uint16"
        }
      ],
      "name": "_spendAvailablePoints",
      "outputs": [],
      "stateMutability": "nonpayable",
      "type": "function"
    },
    {
      "inputs": [
        {
          "internalType": "uint256",
          "name": "_myFighterId",
          "type": "uint256"
        },
        {
          "internalType": "bool",
          "name": "_hasOwnerWeapon",
          "type": "bool"
        },
        {
          "internalType": "uint256",
          "name": "_myWeaponId",
          "type": "uint256"
        },
        {
          "internalType": "uint256",
          "name": "_targetFighterId",
          "type": "uint256"
        },
        {
          "internalType": "bool",
          "name": "_hasTargetWeapon",
          "type": "bool"
        },
        {
          "internalType": "uint256",
          "name": "_targetWeaponId",
          "type": "uint256"
        }
      ],
      "name": "attack",
      "outputs": [],
      "stateMutability": "nonpayable",
      "type": "function"
    },
    {
      "inputs": [],
      "name": "owner",
      "outputs": [
        {
          "internalType": "address",
          "name": "",
          "type": "address"
        }
      ],
      "stateMutability": "view",
      "type": "function"
    },
    {
      "inputs": [
        {
          "internalType": "string",
          "name": "_name",
          "type": "string"
        },
        {
          "internalType": "enum FighterClass",
          "name": "_class",
          "type": "uint8"
        }
      ],
      "name": "redeemAvailablePupil",
      "outputs": [],
      "stateMutability": "nonpayable",
      "type": "function"
    },
    {
      "inputs": [],
      "name": "renounceOwnership",
      "outputs": [],
      "stateMutability": "nonpayable",
      "type": "function"
    },
    {
      "inputs": [
        {
          "internalType": "address",
          "name": "newOwner",
          "type": "address"
        }
      ],
      "name": "transferOwnership",
      "outputs": [],
      "stateMutability": "nonpayable",
      "type": "function"
    },
    {
      "stateMutability": "payable",
      "type": "receive"
    }
  ],
  "bytecode": "0x6080604052603c6001556602aa1efb94e0006009556601c6bf52634000600a556605543df729c000600b55660aa87bee538000600c556000600d55600f600e60006101000a81548163ffffffff021916908363ffffffff1602179055503480156200006957600080fd5b506200008a6200007e6200009060201b60201c565b6200009860201b60201c565b6200015c565b600033905090565b60008060009054906101000a900473ffffffffffffffffffffffffffffffffffffffff169050816000806101000a81548173ffffffffffffffffffffffffffffffffffffffff021916908373ffffffffffffffffffffffffffffffffffffffff1602179055508173ffffffffffffffffffffffffffffffffffffffff168173ffffffffffffffffffffffffffffffffffffffff167f8be0079c531659141344cd1fd0a4f28419497f9722a3daafe3b4186f6b6457e060405160405180910390a35050565b615986806200016c6000396000f3fe6080604052600436106100f75760003560e01c8063cb74c2a81161008a578063ecfa934811610059578063ecfa934814610300578063f2fde38b1461033d578063f9d7f17114610366578063fbba44c6146103a3576100fe565b8063cb74c2a814610244578063d5f5da3b1461026f578063dc93267614610298578063ea965255146102c3576100fe565b80638da5cb5b116100c65780638da5cb5b146101975780639b1f87e8146101c2578063adec464a146101ff578063b67340b514610228576100fe565b806313c1bce114610103578063208ea9291461012c5780636c691ab914610169578063715018a614610180576100fe565b366100fe57005b600080fd5b34801561010f57600080fd5b5061012a60048036038101906101259190613dd7565b6103cc565b005b34801561013857600080fd5b50610153600480360381019061014e9190613ec2565b610f15565b604051610160919061413f565b60405180910390f35b34801561017557600080fd5b5061017e6111c6565b005b34801561018c57600080fd5b50610195611292565b005b3480156101a357600080fd5b506101ac61131a565b6040516101b99190614170565b60405180910390f35b3480156101ce57600080fd5b506101e960048036038101906101e4919061418b565b611343565b6040516101f691906144e8565b60405180910390f35b34801561020b57600080fd5b5061022660048036038101906102219190614594565b611756565b005b610242600480360381019061023d919061466a565b611851565b005b34801561025057600080fd5b5061025961192f565b60405161026691906146cc565b60405180910390f35b34801561027b57600080fd5b5061029660048036038101906102919190614594565b61193c565b005b3480156102a457600080fd5b506102ad6119ec565b6040516102ba91906146cc565b60405180910390f35b3480156102cf57600080fd5b506102ea60048036038101906102e591906146e7565b611a4c565b6040516102f791906146cc565b60405180910390f35b34801561030c57600080fd5b506103276004803603810190610322919061418b565b611b1e565b604051610334919061413f565b60405180910390f35b34801561034957600080fd5b50610364600480360381019061035f9190613ec2565b611b63565b005b34801561037257600080fd5b5061038d60048036038101906103889190613ec2565b611c5b565b60405161039a9190614826565b60405180910390f35b3480156103af57600080fd5b506103ca60048036038101906103c59190614874565b612088565b005b856003600082815260200190815260200160002060009054906101000a900473ffffffffffffffffffffffffffffffffffffffff1673ffffffffffffffffffffffffffffffffffffffff1661041f612371565b73ffffffffffffffffffffffffffffffffffffffff1614610475576040517f08c379a000000000000000000000000000000000000000000000000000000000815260040161046c90614972565b60405180910390fd5b8361047e612371565b73ffffffffffffffffffffffffffffffffffffffff166003600083815260200190815260200160002060009054906101000a900473ffffffffffffffffffffffffffffffffffffffff1673ffffffffffffffffffffffffffffffffffffffff16141561051f576040517f08c379a000000000000000000000000000000000000000000000000000000000815260040161051690614a04565b60405180910390fd5b60006002898154811061053557610534614a24565b5b90600052602060002090600202019050428160000160189054906101000a900463ffffffff1663ffffffff1611156105a2576040517f08c379a000000000000000000000000000000000000000000000000000000000815260040161059990614ac5565b60405180910390fd5b6105ab81612379565b6000600e60009054906101000a900463ffffffff16905088156109f3576007600089815260200190815260200160002060009054906101000a900473ffffffffffffffffffffffffffffffffffffffff1673ffffffffffffffffffffffffffffffffffffffff1661061a612371565b73ffffffffffffffffffffffffffffffffffffffff1614610670576040517f08c379a000000000000000000000000000000000000000000000000000000000815260040161066790614b57565b60405180910390fd5b60006006898154811061068657610685614a24565b5b906000526020600020016040518060a00160405290816000820160009054906101000a900463ffffffff1663ffffffff1663ffffffff1681526020016000820160049054906101000a900463ffffffff1663ffffffff1663ffffffff1681526020016000820160089054906101000a900461ffff1661ffff1661ffff16815260200160008201600a9054906101000a900460ff16600181111561072c5761072b613f57565b5b600181111561073e5761073d613f57565b5b815260200160008201600b9054906101000a900460ff16600281111561076757610766613f57565b5b600281111561077957610778613f57565b5b815250509050806000015163ffffffff168360000160149054906101000a900463ffffffff1663ffffffff1610156107e6576040517f08c379a00000000000000000000000000000000000000000000000000000000081526004016107dd90614be9565b60405180910390fd5b600060018111156107fa576107f9613f57565b5b8160600151600181111561081157610810613f57565b5b141561087d57806040015161ffff168360000160089054906101000a900461ffff1661ffff161015610878576040517f08c379a000000000000000000000000000000000000000000000000000000000815260040161086f90614c7b565b60405180910390fd5b6108df565b806040015161ffff168360000160069054906101000a900461ffff1661ffff1610156108de576040517f08c379a00000000000000000000000000000000000000000000000000000000081526004016108d590614d0d565b60405180910390fd5b5b600160028111156108f3576108f2613f57565b5b83600001601c9054906101000a900460ff16600281111561091757610916613f57565b5b14801561094c57506000600181111561093357610932613f57565b5b8160600151600181111561094a57610949613f57565b5b145b806109bf57506000600281111561096657610965613f57565b5b83600001601c9054906101000a900460ff16600281111561098a57610989613f57565b5b1480156109be57506001808111156109a5576109a4613f57565b5b816060015160018111156109bc576109bb613f57565b5b145b5b156109e9576109e26002826020015163ffffffff166123ac90919063ffffffff16565b91506109f1565b806020015191505b505b600060028881548110610a0957610a08614a24565b5b906000526020600020906002020190506000600e60009054906101000a900463ffffffff1690508715610e8d576007600088815260200190815260200160002060009054906101000a900473ffffffffffffffffffffffffffffffffffffffff1673ffffffffffffffffffffffffffffffffffffffff16600360008b815260200190815260200160002060009054906101000a900473ffffffffffffffffffffffffffffffffffffffff1673ffffffffffffffffffffffffffffffffffffffff1614610b0a576040517f08c379a0000000000000000000000000000000000000000000000000000000008152600401610b0190614b57565b60405180910390fd5b600060068881548110610b2057610b1f614a24565b5b906000526020600020016040518060a00160405290816000820160009054906101000a900463ffffffff1663ffffffff1663ffffffff1681526020016000820160049054906101000a900463ffffffff1663ffffffff1663ffffffff1681526020016000820160089054906101000a900461ffff1661ffff1661ffff16815260200160008201600a9054906101000a900460ff166001811115610bc657610bc5613f57565b5b6001811115610bd857610bd7613f57565b5b815260200160008201600b9054906101000a900460ff166002811115610c0157610c00613f57565b5b6002811115610c1357610c12613f57565b5b815250509050806000015163ffffffff168360000160149054906101000a900463ffffffff1663ffffffff161015610c80576040517f08c379a0000000000000000000000000000000000000000000000000000000008152600401610c7790614be9565b60405180910390fd5b60006001811115610c9457610c93613f57565b5b81606001516001811115610cab57610caa613f57565b5b1415610d1757806040015161ffff168360000160089054906101000a900461ffff1661ffff161015610d12576040517f08c379a0000000000000000000000000000000000000000000000000000000008152600401610d0990614c7b565b60405180910390fd5b610d79565b806040015161ffff168360000160069054906101000a900461ffff1661ffff161015610d78576040517f08c379a0000000000000000000000000000000000000000000000000000000008152600401610d6f90614d0d565b60405180910390fd5b5b60016002811115610d8d57610d8c613f57565b5b83600001601c9054906101000a900460ff166002811115610db157610db0613f57565b5b148015610de6575060006001811115610dcd57610dcc613f57565b5b81606001516001811115610de457610de3613f57565b5b145b80610e59575060006002811115610e0057610dff613f57565b5b83600001601c9054906101000a900460ff166002811115610e2457610e23613f57565b5b148015610e585750600180811115610e3f57610e3e613f57565b5b81606001516001811115610e5657610e55613f57565b5b145b5b15610e8357610e7c6002826020015163ffffffff166123ac90919063ffffffff16565b9350610e8b565b806020015193505b505b6000610e9d8d86868d87876123c2565b90508015610ebc57610eae8d612674565b610eb78a61276c565b610ecf565b610ec58d61276c565b610ece8a612674565b5b7fbf30fbcd321ef240818144cebd3d57345fa6d5d053a6778754a84a8478272f3281604051610efe9190614d3c565b60405180910390a150505050505050505050505050565b60606000600860008473ffffffffffffffffffffffffffffffffffffffff1673ffffffffffffffffffffffffffffffffffffffff16815260200190815260200160002054905060008167ffffffffffffffff811115610f7757610f76614d57565b5b604051908082528060200260200182016040528015610fb057816020015b610f9d613b27565b815260200190600190039081610f955790505b5090506000821415610fc65780925050506111c1565b6000805b6006805490508110156111b9578573ffffffffffffffffffffffffffffffffffffffff166007600083815260200190815260200160002060009054906101000a900473ffffffffffffffffffffffffffffffffffffffff1673ffffffffffffffffffffffffffffffffffffffff1614156111a65760405180604001604052806006838154811061105d5761105c614a24565b5b906000526020600020016040518060a00160405290816000820160009054906101000a900463ffffffff1663ffffffff1663ffffffff1681526020016000820160049054906101000a900463ffffffff1663ffffffff1663ffffffff1681526020016000820160089054906101000a900461ffff1661ffff1661ffff16815260200160008201600a9054906101000a900460ff16600181111561110357611102613f57565b5b600181111561111557611114613f57565b5b815260200160008201600b9054906101000a900460ff16600281111561113e5761113d613f57565b5b60028111156111505761114f613f57565b5b815250508152602001828152508383815181106111705761116f614a24565b5b6020026020010181905250818061118690614db5565b925050838061119490614dfe565b94505060008414156111a5576111b9565b5b80806111b190614db5565b915050610fca565b508193505050505b919050565b6111ce612371565b73ffffffffffffffffffffffffffffffffffffffff166111ec61131a565b73ffffffffffffffffffffffffffffffffffffffff1614611242576040517f08c379a000000000000000000000000000000000000000000000000000000000815260040161123990614e74565b60405180910390fd5b61124a612371565b73ffffffffffffffffffffffffffffffffffffffff166108fc479081150290604051600060405180830381858888f1935050505015801561128f573d6000803e3d6000fd5b50565b61129a612371565b73ffffffffffffffffffffffffffffffffffffffff166112b861131a565b73ffffffffffffffffffffffffffffffffffffffff161461130e576040517f08c379a000000000000000000000000000000000000000000000000000000000815260040161130590614e74565b60405180910390fd5b6113186000612864565b565b60008060009054906101000a900473ffffffffffffffffffffffffffffffffffffffff16905090565b60606000821015801561135b57506002805490508211155b61136457600080fd5b60008214156113765760028054905091505b60008267ffffffffffffffff81111561139257611391614d57565b5b6040519080825280602002602001820160405280156113cb57816020015b6113b8613b47565b8152602001906001900390816113b05790505b509050600060028054905014156113e55780915050611751565b60008060016002805490506113fa9190614e94565b90505b8460028054905061140e9190614e94565b811061174a5760405180606001604052806003600084815260200190815260200160002060009054906101000a900473ffffffffffffffffffffffffffffffffffffffff1673ffffffffffffffffffffffffffffffffffffffff1681526020016002838154811061148257611481614a24565b5b9060005260206000209060020201604051806101c00160405290816000820160009054906101000a900461ffff1661ffff1661ffff1681526020016000820160029054906101000a900461ffff1661ffff1661ffff1681526020016000820160049054906101000a900461ffff1661ffff1661ffff1681526020016000820160069054906101000a900461ffff1661ffff1661ffff1681526020016000820160089054906101000a900461ffff1661ffff1661ffff16815260200160008201600a9054906101000a900461ffff1661ffff1661ffff16815260200160008201600c9054906101000a900461ffff1661ffff1661ffff16815260200160008201600e9054906101000a900461ffff1661ffff1661ffff1681526020016000820160109054906101000a900461ffff1661ffff1661ffff1681526020016000820160129054906101000a900461ffff1661ffff1661ffff1681526020016000820160149054906101000a900463ffffffff1663ffffffff1663ffffffff1681526020016000820160189054906101000a900463ffffffff1663ffffffff1663ffffffff16815260200160008201601c9054906101000a900460ff16600281111561164d5761164c613f57565b5b600281111561165f5761165e613f57565b5b815260200160018201805461167390614ef7565b80601f016020809104026020016040519081016040528092919081815260200182805461169f90614ef7565b80156116ec5780601f106116c1576101008083540402835291602001916116ec565b820191906000526020600020905b8154815290600101906020018083116116cf57829003601f168201915b50505050508152505081526020018281525083838151811061171157611710614a24565b5b6020026020010181905250818061172790614db5565b925050848214156117375761174a565b808061174290614dfe565b9150506113fd565b5081925050505b919050565b600060046000611764612371565b73ffffffffffffffffffffffffffffffffffffffff1673ffffffffffffffffffffffffffffffffffffffff16815260200190815260200160002054146117df576040517f08c379a00000000000000000000000000000000000000000000000000000000081526004016117d690614fc1565b60405180910390fd5b6117ea838383612928565b6000600560006117f8612371565b73ffffffffffffffffffffffffffffffffffffffff1673ffffffffffffffffffffffffffffffffffffffff16815260200190815260200160002060006101000a81548161ffff021916908361ffff160217905550505050565b61185b8382611a4c565b8034101561189e576040517f08c379a000000000000000000000000000000000000000000000000000000000815260040161189590615053565b60405180910390fd5b60006118aa8584611a4c565b9050600081346118ba9190614e94565b90506000811115611914576118cd612371565b73ffffffffffffffffffffffffffffffffffffffff166108fc829081150290604051600060405180830381858888f19350505050158015611912573d6000803e3d6000fd5b505b61192761191f612371565b878787612f7e565b505050505050565b6000600280549050905090565b600161ffff166005600061194e612371565b73ffffffffffffffffffffffffffffffffffffffff1673ffffffffffffffffffffffffffffffffffffffff16815260200190815260200160002060009054906101000a900461ffff1661ffff1610156119dc576040517f08c379a00000000000000000000000000000000000000000000000000000000081526004016119d3906150e5565b60405180910390fd5b6119e7838383612928565b505050565b6000600560006119fa612371565b73ffffffffffffffffffffffffffffffffffffffff1673ffffffffffffffffffffffffffffffffffffffff16815260200190815260200160002060009054906101000a900461ffff1661ffff16905090565b600080611a6a8463ffffffff1660095461341b90919063ffffffff16565b9050600280811115611a7f57611a7e613f57565b5b836002811115611a9257611a91613f57565b5b1415611ab557611aad600a548261343190919063ffffffff16565b915050611b18565b60006002811115611ac957611ac8613f57565b5b836002811115611adc57611adb613f57565b5b1415611aff57611af7600c548261343190919063ffffffff16565b915050611b18565b611b14600b548261343190919063ffffffff16565b9150505b92915050565b6060611b5c6003600084815260200190815260200160002060009054906101000a900473ffffffffffffffffffffffffffffffffffffffff16610f15565b9050919050565b611b6b612371565b73ffffffffffffffffffffffffffffffffffffffff16611b8961131a565b73ffffffffffffffffffffffffffffffffffffffff1614611bdf576040517f08c379a0000000000000000000000000000000000000000000000000000000008152600401611bd690614e74565b60405180910390fd5b600073ffffffffffffffffffffffffffffffffffffffff168173ffffffffffffffffffffffffffffffffffffffff161415611c4f576040517f08c379a0000000000000000000000000000000000000000000000000000000008152600401611c4690615177565b60405180910390fd5b611c5881612864565b50565b60606000600460008473ffffffffffffffffffffffffffffffffffffffff1673ffffffffffffffffffffffffffffffffffffffff16815260200190815260200160002054905060008167ffffffffffffffff811115611cbd57611cbc614d57565b5b604051908082528060200260200182016040528015611cf657816020015b611ce3613b84565b815260200190600190039081611cdb5790505b5090506000821415611d0c578092505050612083565b6000805b60028054905081101561207b578573ffffffffffffffffffffffffffffffffffffffff166003600083815260200190815260200160002060009054906101000a900473ffffffffffffffffffffffffffffffffffffffff1673ffffffffffffffffffffffffffffffffffffffff16141561206857604051806040016040528060028381548110611da357611da2614a24565b5b9060005260206000209060020201604051806101c00160405290816000820160009054906101000a900461ffff1661ffff1661ffff1681526020016000820160029054906101000a900461ffff1661ffff1661ffff1681526020016000820160049054906101000a900461ffff1661ffff1661ffff1681526020016000820160069054906101000a900461ffff1661ffff1661ffff1681526020016000820160089054906101000a900461ffff1661ffff1661ffff16815260200160008201600a9054906101000a900461ffff1661ffff1661ffff16815260200160008201600c9054906101000a900461ffff1661ffff1661ffff16815260200160008201600e9054906101000a900461ffff1661ffff1661ffff1681526020016000820160109054906101000a900461ffff1661ffff1661ffff1681526020016000820160129054906101000a900461ffff1661ffff1661ffff1681526020016000820160149054906101000a900463ffffffff1663ffffffff1663ffffffff1681526020016000820160189054906101000a900463ffffffff1663ffffffff1663ffffffff16815260200160008201601c9054906101000a900460ff166002811115611f6e57611f6d613f57565b5b6002811115611f8057611f7f613f57565b5b8152602001600182018054611f9490614ef7565b80601f0160208091040260200160405190810160405280929190818152602001828054611fc090614ef7565b801561200d5780601f10611fe25761010080835404028352916020019161200d565b820191906000526020600020905b815481529060010190602001808311611ff057829003601f168201915b50505050508152505081526020018281525083838151811061203257612031614a24565b5b6020026020010181905250818061204890614db5565b925050838061205690614dfe565b94505060008414156120675761207b565b5b808061207390614db5565b915050611d10565b508193505050505b919050565b846003600082815260200190815260200160002060009054906101000a900473ffffffffffffffffffffffffffffffffffffffff1673ffffffffffffffffffffffffffffffffffffffff166120db612371565b73ffffffffffffffffffffffffffffffffffffffff1614612131576040517f08c379a000000000000000000000000000000000000000000000000000000000815260040161212890614972565b60405180910390fd5b60006002878154811061214757612146614a24565b5b906000526020600020906002020190506000869050612173868261ffff1661344790919063ffffffff16565b905061218c858261ffff1661344790919063ffffffff16565b90506121a5848261ffff1661344790919063ffffffff16565b90508160000160129054906101000a900461ffff1661ffff168161ffff161115612204576040517f08c379a00000000000000000000000000000000000000000000000000000000081526004016121fb9061522f565b60405180910390fd5b61222d818360000160129054906101000a900461ffff1661ffff1661345d90919063ffffffff16565b8260000160126101000a81548161ffff021916908361ffff160217905550612274878360000160069054906101000a900461ffff1661ffff1661344790919063ffffffff16565b8260000160066101000a81548161ffff021916908361ffff1602179055506122bb868360000160089054906101000a900461ffff1661ffff1661344790919063ffffffff16565b8260000160086101000a81548161ffff021916908361ffff1602179055506123028483600001600a9054906101000a900461ffff1661ffff1661344790919063ffffffff16565b82600001600a6101000a81548161ffff021916908361ffff1602179055506123498583600001600c9054906101000a900461ffff1661ffff1661344790919063ffffffff16565b82600001600c6101000a81548161ffff021916908361ffff1602179055505050505050505050565b600033905090565b60015442612387919061524f565b8160000160186101000a81548163ffffffff021916908363ffffffff16021790555050565b600081836123ba91906152a5565b905092915050565b6000808660000160049054906101000a900461ffff1661ffff1690506002808111156123f1576123f0613f57565b5b87600001601c9054906101000a900460ff16600281111561241557612414613f57565b5b14156124865761243560198263ffffffff1661347390919063ffffffff16565b9050600061246760058960000160149054906101000a900463ffffffff1663ffffffff166123ac90919063ffffffff16565b9050612482818363ffffffff1661347390919063ffffffff16565b9150505b60008460000160049054906101000a900461ffff1661ffff1690506002808111156124b4576124b3613f57565b5b85600001601c9054906101000a900460ff1660028111156124d8576124d7613f57565b5b1415612549576124f860198263ffffffff1661347390919063ffffffff16565b9050600061252a60058a60000160149054906101000a900463ffffffff1663ffffffff166123ac90919063ffffffff16565b9050612545818363ffffffff1661347390919063ffffffff16565b9150505b60005b6001156126385761258c8a898b600001600c9054906101000a900461ffff16612573612371565b8b8b600001600a9054906101000a900461ffff16613489565b90508061ffff1663ffffffff168263ffffffff16116125b1576001935050505061266a565b8061ffff16826125c191906152e3565b91506125fc878688600001600c9054906101000a900461ffff166125e3612371565b8e8e600001600a9054906101000a900461ffff16613489565b90508061ffff1663ffffffff168363ffffffff1611612621576000935050505061266a565b8061ffff168361263191906152e3565b925061254c565b60008363ffffffff16111580612655575060008263ffffffff1611155b61266257612661615317565b5b600093505050505b9695505050505050565b60006002828154811061268a57612689614a24565b5b906000526020600020906002020190506126c460018260000160009054906101000a900461ffff1661ffff1661344790919063ffffffff16565b8160000160006101000a81548161ffff021916908361ffff16021790555061270c602882600001600e9054906101000a900461ffff1661ffff1661344790919063ffffffff16565b81600001600e6101000a81548161ffff021916908361ffff1602179055508060000160109054906101000a900461ffff1661ffff1681600001600e9054906101000a900461ffff1661ffff16106127685761276781836135ae565b5b5050565b60006002828154811061278257612781614a24565b5b906000526020600020906002020190506127bc60018260000160029054906101000a900461ffff1661ffff1661344790919063ffffffff16565b8160000160026101000a81548161ffff021916908361ffff160217905550612804601982600001600e9054906101000a900461ffff1661ffff1661344790919063ffffffff16565b81600001600e6101000a81548161ffff021916908361ffff1602179055508060000160109054906101000a900461ffff1661ffff1681600001600e9054906101000a900461ffff1661ffff16106128605761285f81836135ae565b5b5050565b60008060009054906101000a900473ffffffffffffffffffffffffffffffffffffffff169050816000806101000a81548173ffffffffffffffffffffffffffffffffffffffff021916908373ffffffffffffffffffffffffffffffffffffffff1602179055508173ffffffffffffffffffffffffffffffffffffffff168173ffffffffffffffffffffffffffffffffffffffff167f8be0079c531659141344cd1fd0a4f28419497f9722a3daafe3b4186f6b6457e060405160405180910390a35050565b82826000828290501415612971576040517f08c379a0000000000000000000000000000000000000000000000000000000008152600401612968906153b8565b60405180910390fd5b826000600281111561298657612985613f57565b5b81600281111561299957612998613f57565b5b14806129c95750600160028111156129b4576129b3613f57565b5b8160028111156129c7576129c6613f57565b5b145b806129f757506002808111156129e2576129e1613f57565b5b8160028111156129f5576129f4613f57565b5b145b612a36576040517f08c379a0000000000000000000000000000000000000000000000000000000008152600401612a2d9061544a565b60405180910390fd5b85858080601f016020809104026020016040519081016040528093929190818152602001838380828437600081840152601f19601f820116905080830192505050505050506000612a8d612a88612371565b611c5b565b90506000805b8251811015612aea57612ac9838281518110612ab257612ab1614a24565b5b6020026020010151600001516101a0015185613846565b15612ad75760019150612aea565b8080612ae290614db5565b915050612a93565b508015612b2c576040517f08c379a0000000000000000000000000000000000000000000000000000000008152600401612b23906154dc565b60405180910390fd5b6002604051806101c00160405280600061ffff168152602001600061ffff168152602001606461ffff168152602001600161ffff168152602001600161ffff168152602001600161ffff168152602001600161ffff168152602001600061ffff168152602001606461ffff168152602001600061ffff168152602001600163ffffffff168152602001612bca6001544261343190919063ffffffff16565b63ffffffff168152602001896002811115612be857612be7613f57565b5b81526020018b8b8080601f016020809104026020016040519081016040528093929190818152602001838380828437600081840152601f19601f82011690508083019250505050505050815250908060018154018082558091505060019003906000526020600020906002020160009091909190915060008201518160000160006101000a81548161ffff021916908361ffff16021790555060208201518160000160026101000a81548161ffff021916908361ffff16021790555060408201518160000160046101000a81548161ffff021916908361ffff16021790555060608201518160000160066101000a81548161ffff021916908361ffff16021790555060808201518160000160086101000a81548161ffff021916908361ffff16021790555060a082015181600001600a6101000a81548161ffff021916908361ffff16021790555060c082015181600001600c6101000a81548161ffff021916908361ffff16021790555060e082015181600001600e6101000a81548161ffff021916908361ffff1602179055506101008201518160000160106101000a81548161ffff021916908361ffff1602179055506101208201518160000160126101000a81548161ffff021916908361ffff1602179055506101408201518160000160146101000a81548163ffffffff021916908363ffffffff1602179055506101608201518160000160186101000a81548163ffffffff021916908363ffffffff16021790555061018082015181600001601c6101000a81548160ff02191690836002811115612e3a57612e39613f57565b5b02179055506101a0820151816001019080519060200190612e5c929190613ba4565b50505060006001600280549050612e739190614e94565b9050612e7d612371565b6003600083815260200190815260200160002060006101000a81548173ffffffffffffffffffffffffffffffffffffffff021916908373ffffffffffffffffffffffffffffffffffffffff160217905550612f28600160046000612edf612371565b73ffffffffffffffffffffffffffffffffffffffff1673ffffffffffffffffffffffffffffffffffffffff1681526020019081526020016000205461343190919063ffffffff16565b60046000612f34612371565b73ffffffffffffffffffffffffffffffffffffffff1673ffffffffffffffffffffffffffffffffffffffff1681526020019081526020016000208190555050505050505050505050565b8260018163ffffffff161015612fc9576040517f08c379a0000000000000000000000000000000000000000000000000000000008152600401612fc09061556e565b60405180910390fd5b8260006001811115612fde57612fdd613f57565b5b816001811115612ff157612ff0613f57565b5b1480613020575060018081111561300b5761300a613f57565b5b81600181111561301e5761301d613f57565b5b145b61305f576040517f08c379a000000000000000000000000000000000000000000000000000000000815260040161305690615600565b60405180910390fd5b826000600281111561307457613073613f57565b5b81600281111561308757613086613f57565b5b14806130b75750600160028111156130a2576130a1613f57565b5b8160028111156130b5576130b4613f57565b5b145b806130e557506002808111156130d0576130cf613f57565b5b8160028111156130e3576130e2613f57565b5b145b613124576040517f08c379a000000000000000000000000000000000000000000000000000000000815260040161311b90615600565b60405180910390fd5b600080600281111561313957613138613f57565b5b85600281111561314c5761314b613f57565b5b141561315757600890505b6001600281111561316b5761316a613f57565b5b85600281111561317e5761317d613f57565b5b141561318957600690505b60028081111561319c5761319b613f57565b5b8560028111156131af576131ae613f57565b5b14156131ba57600390505b60066040518060a001604052808963ffffffff1681526020016131dd8a8961389f565b63ffffffff1681526020018361ffff16815260200188600181111561320557613204613f57565b5b815260200187600281111561321d5761321c613f57565b5b8152509080600181540180825580915050600190039060005260206000200160009091909190915060008201518160000160006101000a81548163ffffffff021916908363ffffffff16021790555060208201518160000160046101000a81548163ffffffff021916908363ffffffff16021790555060408201518160000160086101000a81548161ffff021916908361ffff160217905550606082015181600001600a6101000a81548160ff021916908360018111156132e1576132e0613f57565b5b0217905550608082015181600001600b6101000a81548160ff0219169083600281111561331157613310613f57565b5b021790555050508760076000600160068054905061332f9190614e94565b815260200190815260200160002060006101000a81548173ffffffffffffffffffffffffffffffffffffffff021916908373ffffffffffffffffffffffffffffffffffffffff1602179055506133ce6001600860008b73ffffffffffffffffffffffffffffffffffffffff1673ffffffffffffffffffffffffffffffffffffffff1681526020019081526020016000205461343190919063ffffffff16565b600860008a73ffffffffffffffffffffffffffffffffffffffff1673ffffffffffffffffffffffffffffffffffffffff168152602001908152602001600020819055505050505050505050565b600081836134299190615620565b905092915050565b6000818361343f919061524f565b905092915050565b60008183613455919061567a565b905092915050565b6000818361346b91906156b2565b905092915050565b6000818361348191906156e6565b905092915050565b6000613495848361395f565b156134df5782877fcce4f0668cb0ecd051f3e42f34aaff29f7fc1d9554bcf8d825cb4960f15a9e776000806040516134ce929190615765565b60405180910390a3600090506135a4565b6134e9848661395f565b156135645782877fcce4f0668cb0ecd051f3e42f34aaff29f7fc1d9554bcf8d825cb4960f15a9e7761352b60028a63ffffffff166123ac90919063ffffffff16565b600160405161353b92919061579d565b60405180910390a361355d60028763ffffffff166123ac90919063ffffffff16565b90506135a4565b82877fcce4f0668cb0ecd051f3e42f34aaff29f7fc1d9554bcf8d825cb4960f15a9e7788600060405161359892919061579d565b60405180910390a38590505b9695505050505050565b6135d860648360000160109054906101000a900461ffff1661ffff1661344790919063ffffffff16565b8260000160106101000a81548161ffff021916908361ffff16021790555061362460018360000160149054906101000a900463ffffffff1663ffffffff1661347390919063ffffffff16565b8260000160146101000a81548163ffffffff021916908363ffffffff160217905550613670600a8360000160049054906101000a900461ffff1661ffff1661344790919063ffffffff16565b8260000160046101000a81548161ffff021916908361ffff1602179055506136b860018360000160129054906101000a900461ffff1661ffff1661344790919063ffffffff16565b8260000160126101000a81548161ffff021916908361ffff1602179055506000613706600a8460000160149054906101000a900463ffffffff1663ffffffff166139f790919063ffffffff16565b63ffffffff1614156138425760006003600083815260200190815260200160002060009054906101000a900473ffffffffffffffffffffffffffffffffffffffff1690506137af6001600560008473ffffffffffffffffffffffffffffffffffffffff1673ffffffffffffffffffffffffffffffffffffffff16815260200190815260200160002060009054906101000a900461ffff1661ffff1661344790919063ffffffff16565b600560008373ffffffffffffffffffffffffffffffffffffffff1673ffffffffffffffffffffffffffffffffffffffff16815260200190815260200160002060006101000a81548161ffff021916908361ffff16021790555061381181613a0d565b156138405761383f818460000160149054906101000a900463ffffffff1661383884613a8f565b6002612f7e565b5b505b5050565b6000816040516020016138599190615802565b60405160208183030381529060405280519060200120836040516020016138809190615802565b6040516020818303038152906040528051906020012014905092915050565b60006002808111156138b4576138b3613f57565b5b8260028111156138c7576138c6613f57565b5b14156138ee576138e760028463ffffffff166123ac90919063ffffffff16565b9050613959565b6000600281111561390257613901613f57565b5b82600281111561391557613914613f57565b5b141561393c5761393560048463ffffffff166123ac90919063ffffffff16565b9050613959565b61395660038463ffffffff166123ac90919063ffffffff16565b90505b92915050565b60008060058361ffff16613973919061524f565b905061398b6001600d5461343190919063ffffffff16565b600d8190555060006139d660644287600d546040516020016139af93929190615882565b6040516020818303038152906040528051906020012060001c613b1190919063ffffffff16565b90508181116139ea576001925050506139f1565b6000925050505b92915050565b60008183613a0591906158ee565b905092915050565b6000613a256001600d5461343190919063ffffffff16565b600d819055506000613a7060644285600d54604051602001613a4993929190615882565b6040516020818303038152906040528051906020012060001c613b1190919063ffffffff16565b905060288111613a84576001915050613a8a565b60009150505b919050565b6000613aa76001600d5461343190919063ffffffff16565b600d819055506000613af260644285600d54604051602001613acb93929190615882565b6040516020818303038152906040528051906020012060001c613b1190919063ffffffff16565b905060328111613b06576000915050613b0c565b60019150505b919050565b60008183613b1f919061591f565b905092915050565b6040518060400160405280613b3a613c2a565b8152602001600081525090565b6040518060600160405280600073ffffffffffffffffffffffffffffffffffffffff168152602001613b77613c8d565b8152602001600081525090565b6040518060400160405280613b97613c8d565b8152602001600081525090565b828054613bb090614ef7565b90600052602060002090601f016020900481019282613bd25760008555613c19565b82601f10613beb57805160ff1916838001178555613c19565b82800160010185558215613c19579182015b82811115613c18578251825591602001919060010190613bfd565b5b509050613c269190613d42565b5090565b6040518060a00160405280600063ffffffff168152602001600063ffffffff168152602001600061ffff16815260200160006001811115613c6e57613c6d613f57565b5b815260200160006002811115613c8757613c86613f57565b5b81525090565b604051806101c00160405280600061ffff168152602001600061ffff168152602001600061ffff168152602001600061ffff168152602001600061ffff168152602001600061ffff168152602001600061ffff168152602001600061ffff168152602001600061ffff168152602001600061ffff168152602001600063ffffffff168152602001600063ffffffff16815260200160006002811115613d3557613d34613f57565b5b8152602001606081525090565b5b80821115613d5b576000816000905550600101613d43565b5090565b600080fd5b600080fd5b6000819050919050565b613d7c81613d69565b8114613d8757600080fd5b50565b600081359050613d9981613d73565b92915050565b60008115159050919050565b613db481613d9f565b8114613dbf57600080fd5b50565b600081359050613dd181613dab565b92915050565b60008060008060008060c08789031215613df457613df3613d5f565b5b6000613e0289828a01613d8a565b9650506020613e1389828a01613dc2565b9550506040613e2489828a01613d8a565b9450506060613e3589828a01613d8a565b9350506080613e4689828a01613dc2565b92505060a0613e5789828a01613d8a565b9150509295509295509295565b600073ffffffffffffffffffffffffffffffffffffffff82169050919050565b6000613e8f82613e64565b9050919050565b613e9f81613e84565b8114613eaa57600080fd5b50565b600081359050613ebc81613e96565b92915050565b600060208284031215613ed857613ed7613d5f565b5b6000613ee684828501613ead565b91505092915050565b600081519050919050565b600082825260208201905092915050565b6000819050602082019050919050565b600063ffffffff82169050919050565b613f3481613f1b565b82525050565b600061ffff82169050919050565b613f5181613f3a565b82525050565b7f4e487b7100000000000000000000000000000000000000000000000000000000600052602160045260246000fd5b60028110613f9757613f96613f57565b5b50565b6000819050613fa882613f86565b919050565b6000613fb882613f9a565b9050919050565b613fc881613fad565b82525050565b60038110613fdf57613fde613f57565b5b50565b6000819050613ff082613fce565b919050565b600061400082613fe2565b9050919050565b61401081613ff5565b82525050565b60a08201600082015161402c6000850182613f2b565b50602082015161403f6020850182613f2b565b5060408201516140526040850182613f48565b5060608201516140656060850182613fbf565b5060808201516140786080850182614007565b50505050565b61408781613d69565b82525050565b60c0820160008201516140a36000850182614016565b5060208201516140b660a085018261407e565b50505050565b60006140c8838361408d565b60c08301905092915050565b6000602082019050919050565b60006140ec82613eef565b6140f68185613efa565b935061410183613f0b565b8060005b8381101561413257815161411988826140bc565b9750614124836140d4565b925050600181019050614105565b5085935050505092915050565b6000602082019050818103600083015261415981846140e1565b905092915050565b61416a81613e84565b82525050565b60006020820190506141856000830184614161565b92915050565b6000602082840312156141a1576141a0613d5f565b5b60006141af84828501613d8a565b91505092915050565b600081519050919050565b600082825260208201905092915050565b6000819050602082019050919050565b6141ed81613e84565b82525050565b6003811061420457614203613f57565b5b50565b6000819050614215826141f3565b919050565b600061422582614207565b9050919050565b6142358161421a565b82525050565b600081519050919050565b600082825260208201905092915050565b60005b8381101561427557808201518184015260208101905061425a565b83811115614284576000848401525b50505050565b6000601f19601f8301169050919050565b60006142a68261423b565b6142b08185614246565b93506142c0818560208601614257565b6142c98161428a565b840191505092915050565b60006101c0830160008301516142ed6000860182613f48565b5060208301516143006020860182613f48565b5060408301516143136040860182613f48565b5060608301516143266060860182613f48565b5060808301516143396080860182613f48565b5060a083015161434c60a0860182613f48565b5060c083015161435f60c0860182613f48565b5060e083015161437260e0860182613f48565b50610100830151614387610100860182613f48565b5061012083015161439c610120860182613f48565b506101408301516143b1610140860182613f2b565b506101608301516143c6610160860182613f2b565b506101808301516143db61018086018261422c565b506101a08301518482036101a08601526143f5828261429b565b9150508091505092915050565b600060608301600083015161441a60008601826141e4565b506020830151848203602086015261443282826142d4565b9150506040830151614447604086018261407e565b508091505092915050565b600061445e8383614402565b905092915050565b6000602082019050919050565b600061447e826141b8565b61448881856141c3565b93508360208202850161449a856141d4565b8060005b858110156144d657848403895281516144b78582614452565b94506144c283614466565b925060208a0199505060018101905061449e565b50829750879550505050505092915050565b600060208201905081810360008301526145028184614473565b905092915050565b600080fd5b600080fd5b600080fd5b60008083601f84011261452f5761452e61450a565b5b8235905067ffffffffffffffff81111561454c5761454b61450f565b5b60208301915083600182028301111561456857614567614514565b5b9250929050565b6003811061457c57600080fd5b50565b60008135905061458e8161456f565b92915050565b6000806000604084860312156145ad576145ac613d5f565b5b600084013567ffffffffffffffff8111156145cb576145ca613d64565b5b6145d786828701614519565b935093505060206145ea8682870161457f565b9150509250925092565b6145fd81613f1b565b811461460857600080fd5b50565b60008135905061461a816145f4565b92915050565b6002811061462d57600080fd5b50565b60008135905061463f81614620565b92915050565b6003811061465257600080fd5b50565b60008135905061466481614645565b92915050565b60008060006060848603121561468357614682613d5f565b5b60006146918682870161460b565b93505060206146a286828701614630565b92505060406146b386828701614655565b9150509250925092565b6146c681613d69565b82525050565b60006020820190506146e160008301846146bd565b92915050565b600080604083850312156146fe576146fd613d5f565b5b600061470c8582860161460b565b925050602061471d85828601614655565b9150509250929050565b600081519050919050565b600082825260208201905092915050565b6000819050602082019050919050565b6000604083016000830151848203600086015261477082826142d4565b9150506020830151614785602086018261407e565b508091505092915050565b600061479c8383614753565b905092915050565b6000602082019050919050565b60006147bc82614727565b6147c68185614732565b9350836020820285016147d885614743565b8060005b8581101561481457848403895281516147f58582614790565b9450614800836147a4565b925060208a019950506001810190506147dc565b50829750879550505050505092915050565b6000602082019050818103600083015261484081846147b1565b905092915050565b61485181613f3a565b811461485c57600080fd5b50565b60008135905061486e81614848565b92915050565b600080600080600060a086880312156148905761488f613d5f565b5b600061489e88828901613d8a565b95505060206148af8882890161485f565b94505060406148c08882890161485f565b93505060606148d18882890161485f565b92505060806148e28882890161485f565b9150509295509295909350565b600082825260208201905092915050565b7f596f7520617265206e6f7420746865206f776e6572206f66207468697320466960008201527f6768746572210000000000000000000000000000000000000000000000000000602082015250565b600061495c6026836148ef565b915061496782614900565b604082019050919050565b6000602082019050818103600083015261498b8161494f565b9050919050565b7f596f752063616e6e6f742061747461636b20796f7572206f776e20466967687460008201527f6572210000000000000000000000000000000000000000000000000000000000602082015250565b60006149ee6023836148ef565b91506149f982614992565b604082019050919050565b60006020820190508181036000830152614a1d816149e1565b9050919050565b7f4e487b7100000000000000000000000000000000000000000000000000000000600052603260045260246000fd5b7f596f75722066696768746572206973206e6f742079657420726561647920746f60008201527f2066696768742100000000000000000000000000000000000000000000000000602082015250565b6000614aaf6027836148ef565b9150614aba82614a53565b604082019050919050565b60006020820190508181036000830152614ade81614aa2565b9050919050565b7f596f7520617265206e6f7420746865206f776e6572206f66207468697320576560008201527f61706f6e21000000000000000000000000000000000000000000000000000000602082015250565b6000614b416025836148ef565b9150614b4c82614ae5565b604082019050919050565b60006020820190508181036000830152614b7081614b34565b9050919050565b7f596f752063616e6e6f7420757365207468697320776561706f6e2c20796f757260008201527f206c6576656c20697320746f6f20736d616c6c21000000000000000000000000602082015250565b6000614bd36034836148ef565b9150614bde82614b77565b604082019050919050565b60006020820190508181036000830152614c0281614bc6565b9050919050565b7f596f752063616e6e6f7420757365207468697320776561706f6e2c20796f757260008201527f206167696c69747920736b696c6c20697320696e73756666696369656e742100602082015250565b6000614c65603f836148ef565b9150614c7082614c09565b604082019050919050565b60006020820190508181036000830152614c9481614c58565b9050919050565b7f596f752063616e6e6f7420757365207468697320776561706f6e2c20796f757260008201527f20737472656e67746820736b696c6c20697320696e73756666696369656e7421602082015250565b6000614cf76040836148ef565b9150614d0282614c9b565b604082019050919050565b60006020820190508181036000830152614d2681614cea565b9050919050565b614d3681613d9f565b82525050565b6000602082019050614d516000830184614d2d565b92915050565b7f4e487b7100000000000000000000000000000000000000000000000000000000600052604160045260246000fd5b7f4e487b7100000000000000000000000000000000000000000000000000000000600052601160045260246000fd5b6000614dc082613d69565b91507fffffffffffffffffffffffffffffffffffffffffffffffffffffffffffffffff821415614df357614df2614d86565b5b600182019050919050565b6000614e0982613d69565b91506000821415614e1d57614e1c614d86565b5b600182039050919050565b7f4f776e61626c653a2063616c6c6572206973206e6f7420746865206f776e6572600082015250565b6000614e5e6020836148ef565b9150614e6982614e28565b602082019050919050565b60006020820190508181036000830152614e8d81614e51565b9050919050565b6000614e9f82613d69565b9150614eaa83613d69565b925082821015614ebd57614ebc614d86565b5b828203905092915050565b7f4e487b7100000000000000000000000000000000000000000000000000000000600052602260045260246000fd5b60006002820490506001821680614f0f57607f821691505b60208210811415614f2357614f22614ec8565b5b50919050565b7f596f7520616c7265616479206861766520666967687465727320696e20796f7560008201527f72204261727261636b732120456e74657220746865204172656e6120616e642060208201527f6561726e20796f757273656c66206d6f72652046696768746572732100000000604082015250565b6000614fab605c836148ef565b9150614fb682614f29565b606082019050919050565b60006020820190508181036000830152614fda81614f9e565b9050919050565b7f596f752073656e7420696e73756666696369656e742045544820666f7220666f60008201527f7267696e67207468697320776561706f6e210000000000000000000000000000602082015250565b600061503d6032836148ef565b915061504882614fe1565b604082019050919050565b6000602082019050818103600083015261506c81615030565b9050919050565b7f596f7520646f206e6f74206861766520616e7920617661696c61626c6520707560008201527f70696c732120466967687420746f206561726e206d6f72652100000000000000602082015250565b60006150cf6039836148ef565b91506150da82615073565b604082019050919050565b600060208201905081810360008301526150fe816150c2565b9050919050565b7f4f776e61626c653a206e6577206f776e657220697320746865207a65726f206160008201527f6464726573730000000000000000000000000000000000000000000000000000602082015250565b60006151616026836148ef565b915061516c82615105565b604082019050919050565b6000602082019050818103600083015261519081615154565b9050919050565b7f596f7520646f206e6f74206861766520656e6f75676820617661696c61626c6560008201527f207370656e6461626c6520706f696e747320696e206f7264657220746f20646f60208201527f207468697320616374696f6e2100000000000000000000000000000000000000604082015250565b6000615219604d836148ef565b915061522482615197565b606082019050919050565b600060208201905081810360008301526152488161520c565b9050919050565b600061525a82613d69565b915061526583613d69565b9250827fffffffffffffffffffffffffffffffffffffffffffffffffffffffffffffffff0382111561529a57615299614d86565b5b828201905092915050565b60006152b082613f1b565b91506152bb83613f1b565b92508163ffffffff04831182151516156152d8576152d7614d86565b5b828202905092915050565b60006152ee82613f1b565b91506152f983613f1b565b92508282101561530c5761530b614d86565b5b828203905092915050565b7f4e487b7100000000000000000000000000000000000000000000000000000000600052600160045260246000fd5b7f546865206e616d6520796f7520696e73657274656420666f7220796f7572204660008201527f69676874657220697320696e76616c6964210000000000000000000000000000602082015250565b60006153a26032836148ef565b91506153ad82615346565b604082019050919050565b600060208201905081810360008301526153d181615395565b9050919050565b7f54686520636c61737320796f7520696e73657274656420666f7220796f75722060008201527f4669676874657220697320696e76616c69642100000000000000000000000000602082015250565b60006154346033836148ef565b915061543f826153d8565b604082019050919050565b6000602082019050818103600083015261546381615427565b9050919050565b7f546865206e616d6520796f7520696e73657274656420666f7220796f7572204660008201527f69676874657220697320616c7265616479207573656421000000000000000000602082015250565b60006154c66037836148ef565b91506154d18261546a565b604082019050919050565b600060208201905081810360008301526154f5816154b9565b9050919050565b7f546865206c6576656c20796f7520696e73657274656420666f7220796f75722060008201527f576561706f6e20697320696e76616c6964210000000000000000000000000000602082015250565b60006155586032836148ef565b9150615563826154fc565b604082019050919050565b600060208201905081810360008301526155878161554b565b9050919050565b7f546865207479706520796f7520696e73657274656420666f7220796f7572205760008201527f6561706f6e20697320696e76616c696421000000000000000000000000000000602082015250565b60006155ea6031836148ef565b91506155f58261558e565b604082019050919050565b60006020820190508181036000830152615619816155dd565b9050919050565b600061562b82613d69565b915061563683613d69565b9250817fffffffffffffffffffffffffffffffffffffffffffffffffffffffffffffffff048311821515161561566f5761566e614d86565b5b828202905092915050565b600061568582613f3a565b915061569083613f3a565b92508261ffff038211156156a7576156a6614d86565b5b828201905092915050565b60006156bd82613f3a565b91506156c883613f3a565b9250828210156156db576156da614d86565b5b828203905092915050565b60006156f182613f1b565b91506156fc83613f1b565b92508263ffffffff0382111561571557615714614d86565b5b828201905092915050565b6000819050919050565b6000819050919050565b600061574f61574a61574584615720565b61572a565b613f3a565b9050919050565b61575f81615734565b82525050565b600060408201905061577a6000830185615756565b6157876020830184614d2d565b9392505050565b61579781613f3a565b82525050565b60006040820190506157b2600083018561578e565b6157bf6020830184614d2d565b9392505050565b600081905092915050565b60006157dc8261423b565b6157e681856157c6565b93506157f6818560208601614257565b80840191505092915050565b600061580e82846157d1565b915081905092915050565b6000819050919050565b61583461582f82613d69565b615819565b82525050565b60008160601b9050919050565b60006158528261583a565b9050919050565b600061586482615847565b9050919050565b61587c61587782613e84565b615859565b82525050565b600061588e8286615823565b60208201915061589e828561586b565b6014820191506158ae8284615823565b602082019150819050949350505050565b7f4e487b7100000000000000000000000000000000000000000000000000000000600052601260045260246000fd5b60006158f982613f1b565b915061590483613f1b565b925082615914576159136158bf565b5b828206905092915050565b600061592a82613d69565b915061593583613d69565b925082615945576159446158bf565b5b82820690509291505056fea2646970667358221220cbd70c69619f840dcef7f728c2225227205e27844157c77df2434c251427715f64736f6c634300080a0033",
  "linkReferences": {},
  "deployedLinkReferences": {}
}