{
  "_format": "hh-sol-artifact-1",
  "contractName": "Arena",
  "sourceName": "contracts/Arena.sol",
  "abi": [
    {
      "anonymous": false,
      "inputs": [
        {
          "indexed": true,
          "internalType": "address",
          "name": "owner",
          "type": "address"
        },
        {
          "indexed": true,
          "internalType": "address",
          "name": "approved",
          "type": "address"
        },
        {
          "indexed": true,
          "internalType": "uint256",
          "name": "tokenId",
          "type": "uint256"
        }
      ],
      "name": "Approval",
      "type": "event"
    },
    {
      "anonymous": false,
      "inputs": [
        {
          "indexed": true,
          "internalType": "address",
          "name": "owner",
          "type": "address"
        },
        {
          "indexed": true,
          "internalType": "address",
          "name": "operator",
          "type": "address"
        },
        {
          "indexed": false,
          "internalType": "bool",
          "name": "approved",
          "type": "bool"
        }
      ],
      "name": "ApprovalForAll",
      "type": "event"
    },
    {
      "anonymous": false,
      "inputs": [
        {
          "indexed": true,
          "internalType": "uint256",
          "name": "attackerId",
          "type": "uint256"
        },
        {
          "indexed": true,
          "internalType": "uint256",
          "name": "targetId",
          "type": "uint256"
        },
        {
          "indexed": false,
          "internalType": "uint16",
          "name": "damage",
          "type": "uint16"
        },
        {
          "indexed": false,
          "internalType": "bool",
          "name": "wasCritical",
          "type": "bool"
        }
      ],
      "name": "ArenaEvent",
      "type": "event"
    },
    {
      "anonymous": false,
      "inputs": [
        {
          "indexed": true,
          "internalType": "address",
          "name": "previousOwner",
          "type": "address"
        },
        {
          "indexed": true,
          "internalType": "address",
          "name": "newOwner",
          "type": "address"
        }
      ],
      "name": "OwnershipTransferred",
      "type": "event"
    },
    {
      "anonymous": false,
      "inputs": [
        {
          "indexed": true,
          "internalType": "address",
          "name": "from",
          "type": "address"
        },
        {
          "indexed": true,
          "internalType": "address",
          "name": "to",
          "type": "address"
        },
        {
          "indexed": true,
          "internalType": "uint256",
          "name": "tokenId",
          "type": "uint256"
        }
      ],
      "name": "Transfer",
      "type": "event"
    },
    {
      "anonymous": false,
      "inputs": [
        {
          "indexed": false,
          "internalType": "bool",
          "name": "youWon",
          "type": "bool"
        }
      ],
      "name": "WhoWon",
      "type": "event"
    },
    {
      "inputs": [],
      "name": "_collectBalance",
      "outputs": [],
      "stateMutability": "nonpayable",
      "type": "function"
    },
    {
      "inputs": [
        {
          "internalType": "uint32",
          "name": "_level",
          "type": "uint32"
        },
        {
          "internalType": "enum WeaponTier",
          "name": "_tier",
          "type": "uint8"
        }
      ],
      "name": "_computeWeaponPrice",
      "outputs": [
        {
          "internalType": "uint256",
          "name": "",
          "type": "uint256"
        }
      ],
      "stateMutability": "view",
      "type": "function"
    },
    {
      "inputs": [
        {
          "internalType": "string",
          "name": "_givenName",
          "type": "string"
        },
        {
          "internalType": "enum FighterClass",
          "name": "_class",
          "type": "uint8"
        }
      ],
      "name": "_createFirstFighter",
      "outputs": [],
      "stateMutability": "nonpayable",
      "type": "function"
    },
    {
      "inputs": [],
      "name": "_getFightersCount",
      "outputs": [
        {
          "internalType": "uint256",
          "name": "",
          "type": "uint256"
        }
      ],
      "stateMutability": "view",
      "type": "function"
    },
    {
      "inputs": [
        {
          "internalType": "uint256",
          "name": "latest",
          "type": "uint256"
        }
      ],
      "name": "_getLatestFighters",
      "outputs": [
        {
          "components": [
            {
              "internalType": "address",
              "name": "owner",
              "type": "address"
            },
            {
              "components": [
                {
                  "internalType": "bool",
                  "name": "isForSale",
                  "type": "bool"
                },
                {
                  "internalType": "uint16",
                  "name": "winCount",
                  "type": "uint16"
                },
                {
                  "internalType": "uint16",
                  "name": "lossCount",
                  "type": "uint16"
                },
                {
                  "internalType": "uint16",
                  "name": "HP",
                  "type": "uint16"
                },
                {
                  "internalType": "uint16",
                  "name": "strength",
                  "type": "uint16"
                },
                {
                  "internalType": "uint16",
                  "name": "agility",
                  "type": "uint16"
                },
                {
                  "internalType": "uint16",
                  "name": "dexterity",
                  "type": "uint16"
                },
                {
                  "internalType": "uint16",
                  "name": "luck",
                  "type": "uint16"
                },
                {
                  "internalType": "uint16",
                  "name": "currentXP",
                  "type": "uint16"
                },
                {
                  "internalType": "uint16",
                  "name": "levelUpXP",
                  "type": "uint16"
                },
                {
                  "internalType": "uint16",
                  "name": "spendablePoints",
                  "type": "uint16"
                },
                {
                  "internalType": "uint32",
                  "name": "level",
                  "type": "uint32"
                },
                {
                  "internalType": "uint32",
                  "name": "readyTime",
                  "type": "uint32"
                },
                {
                  "internalType": "enum FighterClass",
                  "name": "class",
                  "type": "uint8"
                },
                {
                  "internalType": "string",
                  "name": "name",
                  "type": "string"
                }
              ],
              "internalType": "struct FighterFactory.Fighter",
              "name": "fighter",
              "type": "tuple"
            },
            {
              "internalType": "uint256",
              "name": "id",
              "type": "uint256"
            }
          ],
          "internalType": "struct FighterFactory.FighterDTO[]",
          "name": "",
          "type": "tuple[]"
        }
      ],
      "stateMutability": "view",
      "type": "function"
    },
    {
      "inputs": [],
      "name": "_getMyAvailablePupils",
      "outputs": [
        {
          "internalType": "uint256",
          "name": "",
          "type": "uint256"
        }
      ],
      "stateMutability": "view",
      "type": "function"
    },
    {
      "inputs": [
        {
          "internalType": "address",
          "name": "_owner",
          "type": "address"
        }
      ],
      "name": "_getUserFighters",
      "outputs": [
        {
          "components": [
            {
              "components": [
                {
                  "internalType": "bool",
                  "name": "isForSale",
                  "type": "bool"
                },
                {
                  "internalType": "uint16",
                  "name": "winCount",
                  "type": "uint16"
                },
                {
                  "internalType": "uint16",
                  "name": "lossCount",
                  "type": "uint16"
                },
                {
                  "internalType": "uint16",
                  "name": "HP",
                  "type": "uint16"
                },
                {
                  "internalType": "uint16",
                  "name": "strength",
                  "type": "uint16"
                },
                {
                  "internalType": "uint16",
                  "name": "agility",
                  "type": "uint16"
                },
                {
                  "internalType": "uint16",
                  "name": "dexterity",
                  "type": "uint16"
                },
                {
                  "internalType": "uint16",
                  "name": "luck",
                  "type": "uint16"
                },
                {
                  "internalType": "uint16",
                  "name": "currentXP",
                  "type": "uint16"
                },
                {
                  "internalType": "uint16",
                  "name": "levelUpXP",
                  "type": "uint16"
                },
                {
                  "internalType": "uint16",
                  "name": "spendablePoints",
                  "type": "uint16"
                },
                {
                  "internalType": "uint32",
                  "name": "level",
                  "type": "uint32"
                },
                {
                  "internalType": "uint32",
                  "name": "readyTime",
                  "type": "uint32"
                },
                {
                  "internalType": "enum FighterClass",
                  "name": "class",
                  "type": "uint8"
                },
                {
                  "internalType": "string",
                  "name": "name",
                  "type": "string"
                }
              ],
              "internalType": "struct FighterFactory.Fighter",
              "name": "fighter",
              "type": "tuple"
            },
            {
              "internalType": "uint256",
              "name": "id",
              "type": "uint256"
            }
          ],
          "internalType": "struct FighterFactory.FighterBarracksDTO[]",
          "name": "",
          "type": "tuple[]"
        }
      ],
      "stateMutability": "view",
      "type": "function"
    },
    {
      "inputs": [
        {
          "internalType": "address",
          "name": "_owner",
          "type": "address"
        }
      ],
      "name": "_getUserWeapons",
      "outputs": [
        {
          "components": [
            {
              "components": [
                {
                  "internalType": "uint32",
                  "name": "levelReq",
                  "type": "uint32"
                },
                {
                  "internalType": "uint32",
                  "name": "damage",
                  "type": "uint32"
                },
                {
                  "internalType": "uint16",
                  "name": "skillReq",
                  "type": "uint16"
                },
                {
                  "internalType": "enum WeaponType",
                  "name": "weapType",
                  "type": "uint8"
                },
                {
                  "internalType": "enum WeaponTier",
                  "name": "tier",
                  "type": "uint8"
                }
              ],
              "internalType": "struct WeaponFactory.Weapon",
              "name": "weapon",
              "type": "tuple"
            },
            {
              "internalType": "uint256",
              "name": "id",
              "type": "uint256"
            }
          ],
          "internalType": "struct WeaponFactory.WeaponDTO[]",
          "name": "",
          "type": "tuple[]"
        }
      ],
      "stateMutability": "view",
      "type": "function"
    },
    {
      "inputs": [
        {
          "internalType": "uint256",
          "name": "id",
          "type": "uint256"
        }
      ],
      "name": "_getWeaponByFighterId",
      "outputs": [
        {
          "components": [
            {
              "components": [
                {
                  "internalType": "uint32",
                  "name": "levelReq",
                  "type": "uint32"
                },
                {
                  "internalType": "uint32",
                  "name": "damage",
                  "type": "uint32"
                },
                {
                  "internalType": "uint16",
                  "name": "skillReq",
                  "type": "uint16"
                },
                {
                  "internalType": "enum WeaponType",
                  "name": "weapType",
                  "type": "uint8"
                },
                {
                  "internalType": "enum WeaponTier",
                  "name": "tier",
                  "type": "uint8"
                }
              ],
              "internalType": "struct WeaponFactory.Weapon",
              "name": "weapon",
              "type": "tuple"
            },
            {
              "internalType": "uint256",
              "name": "id",
              "type": "uint256"
            }
          ],
          "internalType": "struct WeaponFactory.WeaponDTO[]",
          "name": "",
          "type": "tuple[]"
        }
      ],
      "stateMutability": "view",
      "type": "function"
    },
    {
      "inputs": [
        {
          "internalType": "uint32",
          "name": "_level",
          "type": "uint32"
        },
        {
          "internalType": "enum WeaponType",
          "name": "_type",
          "type": "uint8"
        },
        {
          "internalType": "enum WeaponTier",
          "name": "_tier",
          "type": "uint8"
        }
      ],
      "name": "_purchaseWeapon",
      "outputs": [],
      "stateMutability": "payable",
      "type": "function"
    },
    {
      "inputs": [
        {
          "internalType": "uint256",
          "name": "_fighterId",
          "type": "uint256"
        },
        {
          "internalType": "uint16",
          "name": "_STR",
          "type": "uint16"
        },
        {
          "internalType": "uint16",
          "name": "_AGL",
          "type": "uint16"
        },
        {
          "internalType": "uint16",
          "name": "_LCK",
          "type": "uint16"
        },
        {
          "internalType": "uint16",
          "name": "_DEX",
          "type": "uint16"
        }
      ],
      "name": "_spendAvailablePoints",
      "outputs": [],
      "stateMutability": "nonpayable",
      "type": "function"
    },
    {
      "inputs": [
        {
          "internalType": "address",
          "name": "to",
          "type": "address"
        },
        {
          "internalType": "uint256",
          "name": "tokenId",
          "type": "uint256"
        }
      ],
      "name": "approve",
      "outputs": [],
      "stateMutability": "nonpayable",
      "type": "function"
    },
    {
      "inputs": [
        {
          "internalType": "uint256",
          "name": "_myFighterId",
          "type": "uint256"
        },
        {
          "internalType": "bool",
          "name": "_hasOwnerWeapon",
          "type": "bool"
        },
        {
          "internalType": "uint256",
          "name": "_myWeaponId",
          "type": "uint256"
        },
        {
          "internalType": "uint256",
          "name": "_targetFighterId",
          "type": "uint256"
        }
      ],
      "name": "attack",
      "outputs": [],
      "stateMutability": "nonpayable",
      "type": "function"
    },
    {
      "inputs": [
        {
          "internalType": "address",
          "name": "owner",
          "type": "address"
        }
      ],
      "name": "balanceOf",
      "outputs": [
        {
          "internalType": "uint256",
          "name": "",
          "type": "uint256"
        }
      ],
      "stateMutability": "view",
      "type": "function"
    },
    {
      "inputs": [
        {
          "internalType": "uint256",
          "name": "_fighterId",
          "type": "uint256"
        }
      ],
      "name": "buyFighter",
      "outputs": [],
      "stateMutability": "payable",
      "type": "function"
    },
    {
      "inputs": [
        {
          "internalType": "address",
          "name": "newAddr",
          "type": "address"
        }
      ],
      "name": "changeNFTHolderAccount",
      "outputs": [],
      "stateMutability": "nonpayable",
      "type": "function"
    },
    {
      "inputs": [],
      "name": "feePercent",
      "outputs": [
        {
          "internalType": "uint16",
          "name": "",
          "type": "uint16"
        }
      ],
      "stateMutability": "view",
      "type": "function"
    },
    {
      "inputs": [
        {
          "internalType": "address",
          "name": "_owner",
          "type": "address"
        }
      ],
      "name": "fetchAvailablePupils",
      "outputs": [
        {
          "internalType": "uint16",
          "name": "",
          "type": "uint16"
        }
      ],
      "stateMutability": "view",
      "type": "function"
    },
    {
      "inputs": [
        {
          "internalType": "uint256",
          "name": "tokenId",
          "type": "uint256"
        }
      ],
      "name": "getApproved",
      "outputs": [
        {
          "internalType": "address",
          "name": "",
          "type": "address"
        }
      ],
      "stateMutability": "view",
      "type": "function"
    },
    {
      "inputs": [
        {
          "internalType": "uint256",
          "name": "fighterId",
          "type": "uint256"
        }
      ],
      "name": "getFighterPrice",
      "outputs": [
        {
          "internalType": "uint256",
          "name": "",
          "type": "uint256"
        }
      ],
      "stateMutability": "view",
      "type": "function"
    },
    {
      "inputs": [
        {
          "internalType": "uint256",
          "name": "fighterId",
          "type": "uint256"
        }
      ],
      "name": "getFighterSeller",
      "outputs": [
        {
          "internalType": "address",
          "name": "",
          "type": "address"
        }
      ],
      "stateMutability": "view",
      "type": "function"
    },
    {
      "inputs": [
        {
          "internalType": "address",
          "name": "receiver",
          "type": "address"
        },
        {
          "internalType": "uint256",
          "name": "_myFighterId",
          "type": "uint256"
        }
      ],
      "name": "giftFighter",
      "outputs": [],
      "stateMutability": "nonpayable",
      "type": "function"
    },
    {
      "inputs": [
        {
          "internalType": "address",
          "name": "owner",
          "type": "address"
        },
        {
          "internalType": "address",
          "name": "operator",
          "type": "address"
        }
      ],
      "name": "isApprovedForAll",
      "outputs": [
        {
          "internalType": "bool",
          "name": "",
          "type": "bool"
        }
      ],
      "stateMutability": "view",
      "type": "function"
    },
    {
      "inputs": [],
      "name": "name",
      "outputs": [
        {
          "internalType": "string",
          "name": "",
          "type": "string"
        }
      ],
      "stateMutability": "view",
      "type": "function"
    },
    {
      "inputs": [],
      "name": "owner",
      "outputs": [
        {
          "internalType": "address",
          "name": "",
          "type": "address"
        }
      ],
      "stateMutability": "view",
      "type": "function"
    },
    {
      "inputs": [
        {
          "internalType": "uint256",
          "name": "tokenId",
          "type": "uint256"
        }
      ],
      "name": "ownerOf",
      "outputs": [
        {
          "internalType": "address",
          "name": "",
          "type": "address"
        }
      ],
      "stateMutability": "view",
      "type": "function"
    },
    {
      "inputs": [
        {
          "internalType": "uint256",
          "name": "_myFighterId",
          "type": "uint256"
        },
        {
          "internalType": "uint256",
          "name": "price",
          "type": "uint256"
        }
      ],
      "name": "putUpForSale",
      "outputs": [],
      "stateMutability": "nonpayable",
      "type": "function"
    },
    {
      "inputs": [
        {
          "internalType": "string",
          "name": "_name",
          "type": "string"
        },
        {
          "internalType": "enum FighterClass",
          "name": "_class",
          "type": "uint8"
        }
      ],
      "name": "redeemAvailablePupil",
      "outputs": [],
      "stateMutability": "nonpayable",
      "type": "function"
    },
    {
      "inputs": [],
      "name": "renounceOwnership",
      "outputs": [],
      "stateMutability": "nonpayable",
      "type": "function"
    },
    {
      "inputs": [
        {
          "internalType": "address",
          "name": "from",
          "type": "address"
        },
        {
          "internalType": "address",
          "name": "to",
          "type": "address"
        },
        {
          "internalType": "uint256",
          "name": "tokenId",
          "type": "uint256"
        }
      ],
      "name": "safeTransferFrom",
      "outputs": [],
      "stateMutability": "nonpayable",
      "type": "function"
    },
    {
      "inputs": [
        {
          "internalType": "address",
          "name": "from",
          "type": "address"
        },
        {
          "internalType": "address",
          "name": "to",
          "type": "address"
        },
        {
          "internalType": "uint256",
          "name": "tokenId",
          "type": "uint256"
        },
        {
          "internalType": "bytes",
          "name": "_data",
          "type": "bytes"
        }
      ],
      "name": "safeTransferFrom",
      "outputs": [],
      "stateMutability": "nonpayable",
      "type": "function"
    },
    {
      "inputs": [
        {
          "internalType": "uint256",
          "name": "_fee",
          "type": "uint256"
        }
      ],
      "name": "setATierPrice",
      "outputs": [],
      "stateMutability": "nonpayable",
      "type": "function"
    },
    {
      "inputs": [
        {
          "internalType": "address",
          "name": "operator",
          "type": "address"
        },
        {
          "internalType": "bool",
          "name": "approved",
          "type": "bool"
        }
      ],
      "name": "setApprovalForAll",
      "outputs": [],
      "stateMutability": "nonpayable",
      "type": "function"
    },
    {
      "inputs": [
        {
          "internalType": "uint256",
          "name": "_fee",
          "type": "uint256"
        }
      ],
      "name": "setBTierPrice",
      "outputs": [],
      "stateMutability": "nonpayable",
      "type": "function"
    },
    {
      "inputs": [
        {
          "internalType": "uint256",
          "name": "_fee",
          "type": "uint256"
        }
      ],
      "name": "setFeePerLevel",
      "outputs": [],
      "stateMutability": "nonpayable",
      "type": "function"
    },
    {
      "inputs": [
        {
          "internalType": "uint256",
          "name": "_fee",
          "type": "uint256"
        }
      ],
      "name": "setSTierPrice",
      "outputs": [],
      "stateMutability": "nonpayable",
      "type": "function"
    },
    {
      "inputs": [
        {
          "internalType": "bytes4",
          "name": "interfaceId",
          "type": "bytes4"
        }
      ],
      "name": "supportsInterface",
      "outputs": [
        {
          "internalType": "bool",
          "name": "",
          "type": "bool"
        }
      ],
      "stateMutability": "view",
      "type": "function"
    },
    {
      "inputs": [],
      "name": "symbol",
      "outputs": [
        {
          "internalType": "string",
          "name": "",
          "type": "string"
        }
      ],
      "stateMutability": "view",
      "type": "function"
    },
    {
      "inputs": [
        {
          "internalType": "uint256",
          "name": "_id",
          "type": "uint256"
        }
      ],
      "name": "tokenURI",
      "outputs": [
        {
          "internalType": "string",
          "name": "",
          "type": "string"
        }
      ],
      "stateMutability": "view",
      "type": "function"
    },
    {
      "inputs": [
        {
          "internalType": "address",
          "name": "from",
          "type": "address"
        },
        {
          "internalType": "address",
          "name": "to",
          "type": "address"
        },
        {
          "internalType": "uint256",
          "name": "tokenId",
          "type": "uint256"
        }
      ],
      "name": "transferFrom",
      "outputs": [],
      "stateMutability": "nonpayable",
      "type": "function"
    },
    {
      "inputs": [
        {
          "internalType": "address",
          "name": "newOwner",
          "type": "address"
        }
      ],
      "name": "transferOwnership",
      "outputs": [],
      "stateMutability": "nonpayable",
      "type": "function"
    },
    {
      "stateMutability": "payable",
      "type": "receive"
    }
  ],
  "bytecode": "0x603c608052610100604052601360c08190527f43727970746f4172656e6146696768746572730000000000000000000000000060e0908152620000469160079190620003ae565b50604080518082019091526007808252662334b3b43a32b960c91b60209092019182526200007791600891620003ae565b50600560a052600b80546001600160a01b031916732b6a10c78c6374d4b43d2fc2295023b7455339511790556602aa1efb94e0006011556601c6bf526340006012556605543df729c000601355660aa87bee53800060145560006015556016805463ffffffff1916600f179055348015620000f157600080fd5b50620000fd336200035e565b6040805180820190915260078152662bb0b93934b7b960c91b60208083019182526000805260059052905162000155917f05b8ccbb9d4d8fb16ea74ce3c29a41f1b461fbdaff4714a0d9a8eb05499746bc91620003ae565b5060408051808201909152600781526653616d7572616960c81b60208083019182526001600052600590529051620001af917f1471eb6eb2c5e789fc3de43f8ce62938c7d1836ec861730447e2ada8fd81017b91620003ae565b5060408051808201909152600580825264111c9d5a5960da1b6020808401918252600260005291909152905162000208917f89832631fb3c3307a103ba2c84ab569c64d6182a18893dcd163f0f1c2090733a91620003ae565b5060408051808201909152601f81527f68747470733a2f2f692e696d6775722e636f6d2f79684a4f7a4e542e706e670060208083019182526000805260069052905162000277917f54cdd369e4e8a8515e52ca72ec816c2101831ad1f18bf44102ed171459c9b4f891620003ae565b5060408051808201909152601f81527f68747470733a2f2f692e696d6775722e636f6d2f74744575656d7a2e706e670060208083019182526001600052600690529051620002e7917f3e5fec24aa4dc4e5aee2e025e51e1392c72a2500577559fae9665c6d52bd6a3191620003ae565b5060408051808201909152601f81527f68747470733a2f2f692e696d6775722e636f6d2f6153393246617a2e706e67006020808301918252600260005260069052905162000357917f8819ef417987f8ae7a81f42cdfb18815282fe989326fbff903d13cf0e03ace2991620003ae565b506200049b565b600080546001600160a01b038381166001600160a01b0319831681178455604051919092169283917f8be0079c531659141344cd1fd0a4f28419497f9722a3daafe3b4186f6b6457e09190a35050565b828054620003bc906200046a565b90600052602060002090601f016020900481019282620003e057600085556200042b565b82601f10620003fb57805160ff19168380011785556200042b565b828001600101855582156200042b579182015b828111156200042b5782518255916020019190600101906200040e565b50620004399291506200043d565b5090565b5b808211156200043957600081556001016200043e565b634e487b7160e01b600052602260045260246000fd5b6002810460018216806200047f57607f821691505b6020821081141562000495576200049562000454565b50919050565b60805160a051615bdc620004cf6000396000818161047301526126e60152600081816129c801526132b30152615bdc6000f3fe60806040526004361061024a5760003560e01c806395d67c9111610139578063cbb5bbbf116100b6578063e985e9c51161007a578063e985e9c5146106fd578063ea9652551461071d578063ecfa93481461073d578063f2fde38b1461075d578063f9d7f1711461077d578063fbba44c6146107aa57600080fd5b8063cbb5bbbf14610664578063ccc7284214610677578063cfb8c2ad14610697578063d5f5da3b146106b7578063dc932676146106d757600080fd5b8063adec464a116100fd578063adec464a146105dc578063b67340b5146105fc578063b88d4fde1461060f578063c87b56dd1461062f578063cb74c2a81461064f57600080fd5b806395d67c911461053a57806395d89b411461055a5780639b1f87e81461056f5780639c42a2071461059c578063a22cb465146105bc57600080fd5b80636352211e116101c75780637fd6f15c1161018b5780637fd6f15c146104615780638b2144a3146104a25780638da5cb5b146104c25780638f2fd16c146104e0578063927eeddc1461050057600080fd5b80636352211e146103ca5780637011c956146103ea57806370a082311461040a578063715018a614610437578063790035071461044c57600080fd5b8063208ea9291161020e578063208ea9291461031d57806323b872dd1461034a57806342842e0e1461036a57806345a90c821461038a5780635e96c694146103aa57600080fd5b806301ffc9a71461025657806306fdde031461028c578063081812fc146102ae578063095ea7b3146102db5780630a424b72146102fd57600080fd5b3661025157005b600080fd5b34801561026257600080fd5b50610276610271366004613e53565b6107ca565b6040516102839190613e7e565b60405180910390f35b34801561029857600080fd5b506102a161081c565b6040516102839190613eea565b3480156102ba57600080fd5b506102ce6102c9366004613f0c565b6108ae565b6040516102839190613f47565b3480156102e757600080fd5b506102fb6102f6366004613f69565b610907565b005b34801561030957600080fd5b506102fb610318366004613fa6565b61098a565b34801561032957600080fd5b5061033d610338366004613fa6565b6109fc565b6040516102839190614138565b34801561035657600080fd5b506102fb610365366004614149565b610be3565b34801561037657600080fd5b506102fb610385366004614149565b610c14565b34801561039657600080fd5b506102fb6103a5366004613f0c565b610c2f565b3480156103b657600080fd5b506102fb6103c5366004614199565b610c5e565b3480156103d657600080fd5b506102ce6103e5366004613f0c565b610dac565b3480156103f657600080fd5b506102fb610405366004613f0c565b610de1565b34801561041657600080fd5b5061042a610425366004613fa6565b610e10565b60405161028391906141bb565b34801561044357600080fd5b506102fb610e54565b34801561045857600080fd5b506102fb610e8a565b34801561046d57600080fd5b506104957f000000000000000000000000000000000000000000000000000000000000000081565b60405161028391906141c9565b3480156104ae57600080fd5b506102fb6104bd366004613f0c565b610ee3565b3480156104ce57600080fd5b506000546001600160a01b03166102ce565b3480156104ec57600080fd5b506102ce6104fb366004613f0c565b610f12565b34801561050c57600080fd5b5061049561051b366004613fa6565b6001600160a01b031660009081526004602052604090205461ffff1690565b34801561054657600080fd5b506102fb610555366004613f0c565b610f66565b34801561056657600080fd5b506102a1610f95565b34801561057b57600080fd5b5061058f61058a366004613f0c565b610fa4565b60405161028391906143cd565b3480156105a857600080fd5b506102fb6105b7366004613f69565b611297565b3480156105c857600080fd5b506102fb6105d73660046143f1565b611389565b3480156105e857600080fd5b506102fb6105f736600461448e565b611398565b6102fb61060a36600461450e565b611409565b34801561061b57600080fd5b506102fb61062a366004614642565b611498565b34801561063b57600080fd5b506102a161064a366004613f0c565b6114d0565b34801561065b57600080fd5b5060015461042a565b6102fb610672366004613f0c565b611807565b34801561068357600080fd5b5061042a610692366004613f0c565b611997565b3480156106a357600080fd5b506102fb6106b23660046146c1565b6119de565b3480156106c357600080fd5b506102fb6106d236600461448e565b611e84565b3480156106e357600080fd5b503360009081526004602052604090205461ffff1661042a565b34801561070957600080fd5b50610276610718366004614719565b611eee565b34801561072957600080fd5b5061042a61073836600461474c565b611f1c565b34801561074957600080fd5b5061033d610758366004613f0c565b611faa565b34801561076957600080fd5b506102fb610778366004613fa6565b611fce565b34801561078957600080fd5b5061079d610798366004613fa6565b612027565b6040516102839190614811565b3480156107b657600080fd5b506102fb6107c5366004614837565b6122fe565b60006001600160e01b031982166380ac58cd60e01b14806107fb57506001600160e01b03198216635b5e139f60e01b145b8061081657506301ffc9a760e01b6001600160e01b03198316145b92915050565b60606007805461082b906148c5565b80601f0160208091040260200160405190810160405280929190818152602001828054610857906148c5565b80156108a45780601f10610879576101008083540402835291602001916108a4565b820191906000526020600020905b81548152906001019060200180831161088757829003601f168201915b5050505050905090565b6000818152600260205260408120546001600160a01b03166108eb5760405162461bcd60e51b81526004016108e290614938565b60405180910390fd5b506000908152600960205260409020546001600160a01b031690565b6000818152600260205260409020546001600160a01b039081169083168114156109435760405162461bcd60e51b81526004016108e290614986565b336001600160a01b038216148061095f575061095f8133611eee565b61097b5760405162461bcd60e51b81526004016108e2906149f0565b61098583836124c3565b505050565b6000546001600160a01b031633146109b45760405162461bcd60e51b81526004016108e290614a35565b6001600160a01b0381166109da5760405162461bcd60e51b81526004016108e290614a93565b600b80546001600160a01b0319166001600160a01b0392909216919091179055565b6001600160a01b0381166000908152601060205260408120546060918167ffffffffffffffff811115610a3157610a31614554565b604051908082528060200260200182016040528015610a6a57816020015b610a57613ca6565b815260200190600190039081610a4f5790505b50905081610a79579392505050565b6000805b600e54811015610bd9576000818152600f60205260409020546001600160a01b0387811691161415610bc7576040518060400160405280600e8381548110610ac757610ac7614aa3565b60009182526020918290206040805160a08101825291909201805463ffffffff80821684526401000000008204169483019490945261ffff600160401b8504169282019290925291606083019060ff600160501b909104166001811115610b3057610b30613fdd565b6001811115610b4157610b41613fdd565b81528154602090910190600160581b900460ff166002811115610b6657610b66613fdd565b6002811115610b7757610b77613fdd565b81525050815260200182815250838381518110610b9657610b96614aa3565b60200260200101819052508180610bac90614acf565b9250508380610bba90614aea565b94505083610bc757610bd9565b80610bd181614acf565b915050610a7d565b5090949350505050565b610bed338261252a565b610c095760405162461bcd60e51b81526004016108e290614b4f565b6109858383836125b1565b61098583838360405180602001604052806000815250611498565b6000546001600160a01b03163314610c595760405162461bcd60e51b81526004016108e290614a35565b601155565b60008281526002602052604090205482906001600160a01b0316336001600160a01b031614610c9f5760405162461bcd60e51b81526004016108e290614ba2565b6000838152600260209081526040808320546001600160a01b031683526003909152902054839060011115610ce65760405162461bcd60e51b81526004016108e290614bfb565b8260008111610cf457600080fd5b8460018181548110610d0857610d08614aa3565b600091825260209091206002909102015460ff1615610d2657600080fd5b610d3c33600b546001600160a01b0316886125b1565b610d45856126da565b6000878152600c6020908152604080832093909355600d90522080546001600160a01b0319163317905560018054819088908110610d8557610d85614aa3565b60009182526020909120600290910201805460ff1916911515919091179055505050505050565b6000818152600260205260408120546001600160a01b0316806108165760405162461bcd60e51b81526004016108e290614c51565b6000546001600160a01b03163314610e0b5760405162461bcd60e51b81526004016108e290614a35565b601255565b60006001600160a01b038216610e385760405162461bcd60e51b81526004016108e290614ca8565b506001600160a01b031660009081526003602052604090205490565b6000546001600160a01b03163314610e7e5760405162461bcd60e51b81526004016108e290614a35565b610e886000612720565b565b6000546001600160a01b03163314610eb45760405162461bcd60e51b81526004016108e290614a35565b60405133904780156108fc02916000818181858888f19350505050158015610ee0573d6000803e3d6000fd5b50565b6000546001600160a01b03163314610f0d5760405162461bcd60e51b81526004016108e290614a35565b601455565b60008160018181548110610f2857610f28614aa3565b600091825260209091206002909102015460ff16610f4557600080fd5b6000838152600d60205260409020546001600160a01b031691505b50919050565b6000546001600160a01b03163314610f905760405162461bcd60e51b81526004016108e290614a35565b601355565b60606008805461082b906148c5565b6060600154821115610fb557600080fd5b81610fc05760015491505b60008267ffffffffffffffff811115610fdb57610fdb614554565b60405190808252806020026020018201604052801561101457816020015b611001613ce6565b815260200190600190039081610ff95790505b506001549091506110255792915050565b6001805460009182916110389190614cb8565b90505b600154611049908690614cb8565b811061128e5760408051606081018252600083815260026020908152929020546001600160a01b031681526001805491928301918490811061108d5761108d614aa3565b6000918252602091829020604080516101e0810182526002938402909201805460ff8082161515855261ffff61010080840482169887019890985263010000008304811694860194909452600160281b820484166060860152600160381b820484166080860152600160481b8204841660a0860152600160581b8204841660c0860152600160681b8204841660e0860152600160781b8204841696850196909652600160881b81048316610120850152600160981b810490921661014084015263ffffffff600160a81b83048116610160850152600160c81b830416610180840152919391926101a0850192600160e81b9092049091169081111561119457611194613fdd565b60028111156111a5576111a5613fdd565b81526020016001820180546111b9906148c5565b80601f01602080910402602001604051908101604052809291908181526020018280546111e5906148c5565b80156112325780601f1061120757610100808354040283529160200191611232565b820191906000526020600020905b81548152906001019060200180831161121557829003601f168201915b50505050508152505081526020018281525083838151811061125657611256614aa3565b6020026020010181905250818061126c90614acf565b9250508482141561127c5761128e565b8061128681614aea565b91505061103b565b50909392505050565b60008181526002602052604090205481906001600160a01b0316336001600160a01b0316146112d85760405162461bcd60e51b81526004016108e290614ba2565b6000828152600260209081526040808320546001600160a01b03168352600390915290205482906001111561131f5760405162461bcd60e51b81526004016108e290614bfb565b826001818154811061133357611333614aa3565b600091825260209091206002909102015460ff161561135157600080fd5b6001600160a01b0385166113775760405162461bcd60e51b81526004016108e290614d13565b6113823386866125b1565b5050505050565b611394338383612770565b5050565b33600090815260036020526040902054156113c55760405162461bcd60e51b81526004016108e290614da6565b6113d0838383612813565b6000600481335b6001600160a01b031681526020810191909152604001600020805461ffff191661ffff92909216919091179055505050565b6114138382611f1c565b803410156114335760405162461bcd60e51b81526004016108e290614e05565b600061143f8584611f1c565b9050600061144d8234614cb8565b9050801561148457604051339082156108fc029083906000818181858888f19350505050158015611482573d6000803e3d6000fd5b505b61149033878787612d15565b505050505050565b6114a2338361252a565b6114be5760405162461bcd60e51b81526004016108e290614b4f565b6114ca84848484613010565b50505050565b60606000600183815481106114e7576114e7614aa3565b6000918252602091829020604080516101e0810182526002938402909201805460ff8082161515855261ffff61010080840482169887019890985263010000008304811694860194909452600160281b820484166060860152600160381b820484166080860152600160481b8204841660a0860152600160581b8204841660c0860152600160681b8204841660e0860152600160781b8204841696850196909652600160881b81048316610120850152600160981b810490921661014084015263ffffffff600160a81b83048116610160850152600160c81b830416610180840152919391926101a0850192600160e81b909204909116908111156115ee576115ee613fdd565b60028111156115ff576115ff613fdd565b8152602001600182018054611613906148c5565b80601f016020809104026020016040519081016040528092919081815260200182805461163f906148c5565b801561168c5780601f106116615761010080835404028352916020019161168c565b820191906000526020600020905b81548152906001019060200180831161166f57829003601f168201915b505050505081525050905060006116aa826060015161ffff16613043565b905060006116c283610160015163ffffffff16613043565b905060006116d7846080015161ffff16613043565b905060006116ec8560a0015161ffff16613043565b905060006117018660e0015161ffff16613043565b905060006117168760c0015161ffff16613043565b905060006117d36117268b613043565b896101c00151600560008c6101a00151600281111561174757611747613fdd565b600281111561175857611758613fdd565b8152602001908152602001600020600660008d6101a00151600281111561178157611781613fdd565b600281111561179257611792613fdd565b81526020019081526020016000208a8c8b8b8b8b6040516020016117bf9a99989796959493929190614ecf565b604051602081830303815290604052613141565b90506000816040516020016117e89190615152565b60408051601f198184030181529190529b9a5050505050505050505050565b806001818154811061181b5761181b614aa3565b600091825260209091206002909102015460ff1661183857600080fd5b6000828152600c6020526040902054829061185290613295565b3410156118715760405162461bcd60e51b81526004016108e2906151c7565b6000838152600c602052604081205461188990613295565b905060006118978234614cb8565b905080156118ce57604051339082156108fc029083906000818181858888f193505050501580156118cc573d6000803e3d6000fd5b505b6000600186815481106118e3576118e3614aa3565b60009182526020909120600290910201805460ff191691151591909117905561190c33866124c3565b600b54611923906001600160a01b031633876125b1565b6000858152600d60205260408082205490516001600160a01b039091169184156108fc02918591818181858888f19350505050158015611967573d6000803e3d6000fd5b50505060009283525050600c60209081526040808320839055600d909152902080546001600160a01b0319169055565b600081600181815481106119ad576119ad614aa3565b600091825260209091206002909102015460ff166119ca57600080fd5b50506000908152600c602052604090205490565b60008481526002602052604090205484906001600160a01b0316336001600160a01b031614611a1f5760405162461bcd60e51b81526004016108e290614ba2565b8460018181548110611a3357611a33614aa3565b600091825260209091206002909102015460ff1615611a5157600080fd5b8260018181548110611a6557611a65614aa3565b600091825260209091206002909102015460ff1615611a8357600080fd5b60008481526002602052604090205484906001600160a01b0316331415611abc5760405162461bcd60e51b81526004016108e290615217565b600060018981548110611ad157611ad1614aa3565b90600052602060002090600202019050428160000160199054906101000a900463ffffffff1663ffffffff161115611b1b5760405162461bcd60e51b81526004016108e29061526b565b611b24816132ae565b60165463ffffffff168815611dbb576000888152600f60205260409020546001600160a01b0316336001600160a01b031614611b725760405162461bcd60e51b81526004016108e2906152bd565b6000600e8981548110611b8757611b87614aa3565b60009182526020918290206040805160a08101825291909201805463ffffffff80821684526401000000008204169483019490945261ffff600160401b8504169282019290925291606083019060ff600160501b909104166001811115611bf057611bf0613fdd565b6001811115611c0157611c01613fdd565b81528154602090910190600160581b900460ff166002811115611c2657611c26613fdd565b6002811115611c3757611c37613fdd565b9052508051845491925063ffffffff908116600160a81b909204161015611c705760405162461bcd60e51b81526004016108e29061531e565b600081606001516001811115611c8857611c88613fdd565b1415611cc9576040810151835461ffff918216600160481b9091049091161015611cc45760405162461bcd60e51b81526004016108e290615388565b611cff565b6040810151835461ffff918216600160381b9091049091161015611cff5760405162461bcd60e51b81526004016108e2906153f2565b60018354600160e81b900460ff166002811115611d1e57611d1e613fdd565b148015611d405750600081606001516001811115611d3e57611d3e613fdd565b145b80611d87575060008354600160e81b900460ff166002811115611d6557611d65613fdd565b148015611d875750600181606001516001811115611d8557611d85613fdd565b145b15611db157611daa6002826020015163ffffffff166132fa90919063ffffffff16565b9150611db9565b806020015191505b505b600060018881548110611dd057611dd0614aa3565b9060005260206000209060020201905060006003836002611df19190615402565b611dfb919061544b565b90506000611e0d8d86868d878761330d565b90508015611e2c57611e1e8d6134e1565b611e278a613585565b611e3e565b611e358d613585565b611e3e8a6134e1565b7fbf30fbcd321ef240818144cebd3d57345fa6d5d053a6778754a84a8478272f3281604051611e6d9190613e7e565b60405180910390a150505050505050505050505050565b33600090815260046020526040902054600161ffff9091161015611eba5760405162461bcd60e51b81526004016108e2906154cc565b611ec5838383612813565b33600090815260046020526040902054611ee49061ffff1660016135f3565b60046000336113d7565b6001600160a01b039182166000908152600a6020908152604080832093909416825291909152205460ff1690565b600080611f3a8463ffffffff166011546135ff90919063ffffffff16565b90506002836002811115611f5057611f50613fdd565b1415611f6c57601254611f6490829061360b565b915050610816565b6000836002811115611f8057611f80613fdd565b1415611f9457601454611f6490829061360b565b601354611fa290829061360b565b949350505050565b600081815260026020526040902054606090610816906001600160a01b03166109fc565b6000546001600160a01b03163314611ff85760405162461bcd60e51b81526004016108e290614a35565b6001600160a01b03811661201e5760405162461bcd60e51b81526004016108e29061551f565b610ee081612720565b6001600160a01b0381166000908152600360205260408120546060918167ffffffffffffffff81111561205c5761205c614554565b60405190808252806020026020018201604052801561209557816020015b612082613d09565b81526020019060019003908161207a5790505b509050816120a4579392505050565b6000805b600154811015610bd9576000818152600260205260409020546001600160a01b03878116911614156122ec576040518060400160405280600183815481106120f2576120f2614aa3565b6000918252602091829020604080516101e0810182526002938402909201805460ff8082161515855261ffff61010080840482169887019890985263010000008304811694860194909452600160281b820484166060860152600160381b820484166080860152600160481b8204841660a0860152600160581b8204841660c0860152600160681b8204841660e0860152600160781b8204841696850196909652600160881b81048316610120850152600160981b810490921661014084015263ffffffff600160a81b83048116610160850152600160c81b830416610180840152919391926101a0850192600160e81b909204909116908111156121f9576121f9613fdd565b600281111561220a5761220a613fdd565b815260200160018201805461221e906148c5565b80601f016020809104026020016040519081016040528092919081815260200182805461224a906148c5565b80156122975780601f1061226c57610100808354040283529160200191612297565b820191906000526020600020905b81548152906001019060200180831161227a57829003601f168201915b5050505050815250508152602001828152508383815181106122bb576122bb614aa3565b602002602001018190525081806122d190614acf565b92505083806122df90614aea565b945050836122ec57610bd9565b806122f681614acf565b9150506120a8565b60008581526002602052604090205485906001600160a01b0316336001600160a01b03161461233f5760405162461bcd60e51b81526004016108e290614ba2565b60006001878154811061235457612354614aa3565b6000918252602090912060029091020190508561237561ffff821687613617565b905061238561ffff821686613617565b905061239561ffff821685613617565b825490915061ffff600160981b909104811690821611156123c85760405162461bcd60e51b81526004016108e29061559f565b81546123df90600160981b900461ffff16826135f3565b825461ffff60981b1916600160981b61ffff928316021780845561240c91600160381b9091041688613617565b825468ffff000000000000001916600160381b61ffff928316021780845561243d91600160481b9091041687613617565b82546affff0000000000000000001916600160481b61ffff928316021780845561247091600160581b9091041685613617565b825461ffff60581b1916600160581b61ffff928316021780845561249d91600160681b9091041686613617565b825461ffff91909116600160681b0261ffff60681b199091161790915550505050505050565b600081815260096020908152604080832080546001600160a01b0319166001600160a01b038781169182179092556002909352818420549151859492909116917f8c5be1e5ebec7d5bd14f71427d1e84f3dd0314c0f7b2291e5b200ac8c7c3b92591a45050565b6000818152600260205260408120546001600160a01b031661255e5760405162461bcd60e51b81526004016108e2906155f8565b6000828152600260205260409020546001600160a01b039081169084168114806125a15750836001600160a01b0316612596846108ae565b6001600160a01b0316145b80611fa25750611fa28185611eee565b6000818152600260205260409020546001600160a01b038481169116146125ea5760405162461bcd60e51b81526004016108e29061564a565b6001600160a01b0382166126105760405162461bcd60e51b81526004016108e29061569b565b61261b6000826124c3565b6001600160a01b03831660009081526003602052604090205461263f906001613623565b6001600160a01b03808516600090815260036020526040808220939093559084168152205461266f90600161360b565b6001600160a01b038084166000818152600360209081526040808320959095558582526002905283812080546001600160a01b031916831790559251849391928716917fddf252ad1be2c89b69c2b068fc378daa952ba7f163c4a11628f55a4df523b3ef91a4505050565b6000606461270c61ffff7f000000000000000000000000000000000000000000000000000000000000000016846156ab565b61271691906156c5565b61081690836156cd565b600080546001600160a01b038381166001600160a01b0319831681178455604051919092169283917f8be0079c531659141344cd1fd0a4f28419497f9722a3daafe3b4186f6b6457e09190a35050565b816001600160a01b0316836001600160a01b031614156127a25760405162461bcd60e51b81526004016108e290615719565b6001600160a01b038381166000818152600a602090815260408083209487168084529490915290819020805460ff1916851515179055517f17307eab39ab6107e8899845ad3d59bd9653f200f220920489ca2b5937696c3190612806908590613e7e565b60405180910390a3505050565b8282806128325760405162461bcd60e51b81526004016108e290615778565b82600081600281111561284757612847613fdd565b14806128645750600181600281111561286257612862613fdd565b145b806128805750600281600281111561287e5761287e613fdd565b145b61289c5760405162461bcd60e51b81526004016108e2906157d8565b85858080601f016020809104026020016040519081016040528093929190818152602001838380828437600092018290525092506128dd9150339050612027565b90506000805b82518110156129385761291883828151811061290157612901614aa3565b6020026020010151600001516101c001518561362f565b156129265760019150612938565b8061293081614acf565b9150506128e3565b5080156129575760405162461bcd60e51b81526004016108e290615842565b604080516101e08101825260008082526020820181905291810182905260646060820181905260016080830181905260a0830181905260c0830181905260e083018190526101008301849052610120830191909152610140820192909252610160810182905261018081016129ec427f000000000000000000000000000000000000000000000000000000000000000061360b565b63ffffffff168152602001896002811115612a0957612a09613fdd565b81526020018b8b8080601f016020809104026020016040519081016040528093929190818152602001838380828437600081840152601f19601f82011690508083019250505050505050815250908060018154018082558091505060019003906000526020600020906002020160009091909190915060008201518160000160006101000a81548160ff02191690831515021790555060208201518160000160016101000a81548161ffff021916908361ffff16021790555060408201518160000160036101000a81548161ffff021916908361ffff16021790555060608201518160000160056101000a81548161ffff021916908361ffff16021790555060808201518160000160076101000a81548161ffff021916908361ffff16021790555060a08201518160000160096101000a81548161ffff021916908361ffff16021790555060c082015181600001600b6101000a81548161ffff021916908361ffff16021790555060e082015181600001600d6101000a81548161ffff021916908361ffff16021790555061010082015181600001600f6101000a81548161ffff021916908361ffff1602179055506101208201518160000160116101000a81548161ffff021916908361ffff1602179055506101408201518160000160136101000a81548161ffff021916908361ffff1602179055506101608201518160000160156101000a81548163ffffffff021916908363ffffffff1602179055506101808201518160000160196101000a81548163ffffffff021916908363ffffffff1602179055506101a082015181600001601d6101000a81548160ff02191690836002811115612c7b57612c7b613fdd565b02179055506101c08201518051612c9c916001840191602090910190613d1c565b50506001805460009250612cb09190614cb8565b600081815260026020908152604080832080546001600160a01b0319163390811790915583526003909152902054909150612cec90600161360b565b33600081815260036020526040902091909155612d099082613688565b50505050505050505050565b8260018163ffffffff161015612d3d5760405162461bcd60e51b81526004016108e2906158a1565b826000816001811115612d5257612d52613fdd565b1480612d6f57506001816001811115612d6d57612d6d613fdd565b145b612d8b5760405162461bcd60e51b81526004016108e2906158ff565b826000816002811115612da057612da0613fdd565b1480612dbd57506001816002811115612dbb57612dbb613fdd565b145b80612dd957506002816002811115612dd757612dd7613fdd565b145b612df55760405162461bcd60e51b81526004016108e2906158ff565b600080856002811115612e0a57612e0a613fdd565b1415612e14575060085b6001856002811115612e2857612e28613fdd565b1415612e32575060065b6002856002811115612e4657612e46613fdd565b1415612e50575060035b600e6040518060a001604052808963ffffffff168152602001612e738a896136a2565b63ffffffff1681526020018361ffff168152602001886001811115612e9a57612e9a613fdd565b8152602001876002811115612eb157612eb1613fdd565b9052815460018181018455600093845260209384902083519201805494840151604085015161ffff16600160401b0269ffff00000000000000001963ffffffff9283166401000000000267ffffffffffffffff199098169290951691909117959095179283168517815560608401519394909392849260ff60501b199092166affffff0000000000000000199091161790600160501b908490811115612f5957612f59613fdd565b021790555060808201518154829060ff60581b1916600160581b836002811115612f8557612f85613fdd565b0217905550505087600f60006001600e80549050612fa39190614cb8565b81526020808201929092526040908101600090812080546001600160a01b0319166001600160a01b03958616179055928b1683526010909152902054612fea90600161360b565b6001600160a01b0390981660009081526010602052604090209790975550505050505050565b61301b8484846125b1565b6130278484848461371e565b6114ca5760405162461bcd60e51b81526004016108e29061595e565b6060816130675750506040805180820190915260018152600360fc1b602082015290565b8160005b8115613091578061307b81614acf565b915061308a9050600a836156c5565b915061306b565b60008167ffffffffffffffff8111156130ac576130ac614554565b6040519080825280601f01601f1916602001820160405280156130d6576020820181803683370190505b5090505b8415611fa2576130eb600183614cb8565b91506130f8600a8661596e565b6131039060306156cd565b60f81b81838151811061311857613118614aa3565b60200101906001600160f81b031916908160001a90535061313a600a866156c5565b94506130da565b606081516000141561316157505060408051602081019091526000815290565b6000604051806060016040528060408152602001615b67604091399050600060038451600261319091906156cd565b61319a91906156c5565b6131a59060046156ab565b67ffffffffffffffff8111156131bd576131bd614554565b6040519080825280601f01601f1916602001820160405280156131e7576020820181803683370190505b509050600182016020820185865187015b80821015613253576003820191508151603f8160121c168501518453600184019350603f81600c1c168501518453600184019350603f8160061c168501518453600184019350603f81168501518453600184019350506131f8565b505060038651066001811461326f57600281146132825761328a565b603d6001830353603d600283035361328a565b603d60018303535b509195945050505050565b600060156132a48360146156ab565b61081691906156c5565b6132d87f0000000000000000000000000000000000000000000000000000000000000000426156cd565b815463ffffffff91909116600160c81b0263ffffffff60c81b19909116179055565b60006133068284615402565b9392505050565b8454600090600160281b900461ffff1660028754600160e81b900460ff16600281111561333c5761333c613fdd565b14156133965761335763ffffffff80831690600f9061381c16565b875490915060009061337c9063ffffffff600160a81b9091048116906005906132fa16565b905061339263ffffffff80841690839061381c16565b9150505b8354600160281b900461ffff1660028554600160e81b900460ff1660028111156133c2576133c2613fdd565b141561341c576133dd63ffffffff80831690600f9061381c16565b88549091506000906134029063ffffffff600160a81b9091048116906005906132fa16565b905061341863ffffffff80841690839061381c16565b9150505b60005b8854613449908b908a90600160681b900461ffff16338a548c90600160581b900461ffff16613828565b905061ffff811663ffffffff83161161346857600193505050506134d7565b61347661ffff821683615986565b86549092506134a39088908790600160681b900461ffff16338d548f90600160581b900461ffff16613828565b905061ffff811663ffffffff8416116134c257600093505050506134d7565b6134d061ffff821684615986565b925061341f565b9695505050505050565b6000600182815481106134f6576134f6614aa3565b60009182526020909120600290910201805490915061351f90610100900461ffff166001613617565b815462ffff00191661010061ffff928316021780835561354991600160781b909104166028613617565b815461ffff60781b1916600160781b61ffff928316810291909117808455600160881b810483169190049091161061139457611394818361393b565b60006001828154811061359a5761359a614aa3565b6000918252602090912060029091020180549091506135c5906301000000900461ffff166001613617565b815464ffff0000001916630100000061ffff928316021780835561354991600160781b909104166019613617565b6000613306828461599d565b600061330682846156ab565b600061330682846156cd565b600061330682846159b0565b60006133068284614cb8565b60008160405160200161364291906159d4565b604051602081830303815290604052805190602001208360405160200161366991906159d4565b6040516020818303038152906040528051906020012014905092915050565b611394828260405180602001604052806000815250613ace565b600060028260028111156136b8576136b8613fdd565b14156136da576136d363ffffffff808516906002906132fa16565b9050610816565b60008260028111156136ee576136ee613fdd565b1415613709576136d363ffffffff808516906004906132fa16565b61330663ffffffff808516906003906132fa16565b60006001600160a01b0384163b1561381157604051630a85bd0160e11b81526001600160a01b0385169063150b7a02906137629033908990889088906004016159e0565b6020604051808303816000875af192505050801561379d575060408051601f3d908101601f1916820190925261379a91810190615a25565b60015b6137f7573d8080156137cb576040519150601f19603f3d011682016040523d82523d6000602084013e6137d0565b606091505b5080516137ef5760405162461bcd60e51b81526004016108e29061595e565b805181602001fd5b6001600160e01b031916630a85bd0160e11b149050611fa2565b506001949350505050565b60006133068284615a46565b60006138348483613b01565b1561387d5782877fcce4f0668cb0ecd051f3e42f34aaff29f7fc1d9554bcf8d825cb4960f15a9e7760008060405161386d929190615a85565b60405180910390a35060006134d7565b6138878486613b01565b156138f85782877fcce4f0668cb0ecd051f3e42f34aaff29f7fc1d9554bcf8d825cb4960f15a9e776138c463ffffffff808b16906002906132fa16565b60016040516138d4929190615aa0565b60405180910390a36138f163ffffffff808816906002906132fa16565b90506134d7565b82877fcce4f0668cb0ecd051f3e42f34aaff29f7fc1d9554bcf8d825cb4960f15a9e7788600060405161392c929190615aa0565b60405180910390a350846134d7565b815461395390600160881b900461ffff166064613617565b825461ffff91909116600160881b0261ffff60881b199091161780835561398d9063ffffffff600160a81b90910481169060019061381c16565b825463ffffffff60a81b1916600160a81b63ffffffff92831602178084556139c591600160281b90910461ffff1690600a9061361716565b825466ffff00000000001916600160281b61ffff92831602178084556139f591600160981b909104166001613617565b825461ffff91909116600160981b0261ffff60981b1990911617808355613a2f9063ffffffff600160a81b909104811690600a90613b8e16565b63ffffffff16611394576000818152600260209081526040808320546001600160a01b0316808452600490925290912054613a6f9061ffff166001613617565b6001600160a01b0382166000908152600460205260409020805461ffff191661ffff92909216919091179055613aa481613b9a565b15610985578254610985908290600160a81b900463ffffffff16613ac782613be9565b6002612d15565b613ad88383613c38565b613ae5600084848461371e565b6109855760405162461bcd60e51b81526004016108e29061595e565b600080613b1361ffff841660026156ab565b613b1e9060056156cd565b601554909150613b2f90600161360b565b6015819055604051600091613b6f91606491613b519142918a91602001615ad6565b60408051601f19818403018152919052805160209091012090613c9a565b9050818111613b8357600192505050610816565b506000949350505050565b60006133068284615b0d565b601554600090613bab90600161360b565b6015819055604051600091613bcd91606491613b519142918891602001615ad6565b905060288111613be05750600192915050565b50600092915050565b601554600090613bfa90600161360b565b6015819055604051600091613c1c91606491613b519142918891602001615ad6565b905060328111613c2f5750600092915050565b50600192915050565b6001600160a01b038216613c5e5760405162461bcd60e51b81526004016108e290615b56565b60405181906001600160a01b038416906000907fddf252ad1be2c89b69c2b068fc378daa952ba7f163c4a11628f55a4df523b3ef908290a45050565b6000613306828461596e565b6040805160e0810182526000918101828152606082018390526080820183905260a0820183905260c08201929092529081905b8152602001600081525090565b604051806060016040528060006001600160a01b03168152602001613cd9613da0565b6040518060400160405280613cd9613da0565b828054613d28906148c5565b90600052602060002090601f016020900481019282613d4a5760008555613d90565b82601f10613d6357805160ff1916838001178555613d90565b82800160010185558215613d90579182015b82811115613d90578251825591602001919060010190613d75565b50613d9c929150613e1c565b5090565b604080516101e081018252600080825260208201819052918101829052606081018290526080810182905260a0810182905260c0810182905260e0810182905261010081018290526101208101829052610140810182905261016081018290526101808101829052906101a08201908152602001606081525090565b5b80821115613d9c5760008155600101613e1d565b6001600160e01b031981165b8114610ee057600080fd5b803561081681613e31565b600060208284031215613e6857613e68600080fd5b6000611fa28484613e48565b8015155b82525050565b602081016108168284613e74565b60005b83811015613ea7578181015183820152602001613e8f565b838111156114ca5750506000910152565b6000613ec2825190565b808452602084019350613ed9818560208601613e8c565b601f01601f19169290920192915050565b602080825281016133068184613eb8565b80613e3d565b803561081681613efb565b600060208284031215613f2157613f21600080fd5b6000611fa28484613f01565b60006001600160a01b038216610816565b613e7881613f2d565b602081016108168284613f3e565b613e3d81613f2d565b803561081681613f55565b60008060408385031215613f7f57613f7f600080fd5b6000613f8b8585613f5e565b9250506020613f9c85828601613f01565b9150509250929050565b600060208284031215613fbb57613fbb600080fd5b6000611fa28484613f5e565b63ffffffff8116613e78565b61ffff8116613e78565b634e487b7160e01b600052602160045260246000fd5b60028110610ee057610ee0613fdd565b8061400d81613ff3565b919050565b600061081682614003565b613e7881614012565b60038110610ee057610ee0613fdd565b8061400d81614026565b600061081682614036565b613e7881614040565b805160a08301906140658482613fc7565b5060208201516140786020850182613fc7565b50604082015161408b6040850182613fd3565b50606082015161409e606085018261401d565b5060808201516114ca608085018261404b565b80613e78565b805160c08301906140c88482614054565b5060208201516114ca60a08501826140b1565b60006140e783836140b7565b505060c00190565b60006140f9825190565b80845260209384019383018060005b8381101561412d57815161411c88826140db565b975060208301925050600101614108565b509495945050505050565b6020808252810161330681846140ef565b60008060006060848603121561416157614161600080fd5b600061416d8686613f5e565b935050602061417e86828701613f5e565b925050604061418f86828701613f01565b9150509250925092565b600080604083850312156141af576141af600080fd5b6000613f8b8585613f01565b6020810161081682846140b1565b602081016108168284613fd3565b80516000906101e08401906141ec8582613e74565b5060208301516141ff6020860182613fd3565b5060408301516142126040860182613fd3565b5060608301516142256060860182613fd3565b5060808301516142386080860182613fd3565b5060a083015161424b60a0860182613fd3565b5060c083015161425e60c0860182613fd3565b5060e083015161427160e0860182613fd3565b50610100830151614286610100860182613fd3565b5061012083015161429b610120860182613fd3565b506101408301516142b0610140860182613fd3565b506101608301516142c5610160860182613fc7565b506101808301516142da610180860182613fc7565b506101a08301516142ef6101a086018261404b565b506101c08301518482036101c08601526143098282613eb8565b95945050505050565b805160009060608401906143268582613f3e565b506020830151848203602086015261433e82826141d7565b915050604083015161435360408601826140b1565b509392505050565b60006133068383614312565b6000614371825190565b8084526020840193508360208202850161438b8560200190565b8060005b858110156143c057848403895281516143a8858261435b565b94506020830160209a909a019992505060010161438f565b5091979650505050505050565b602080825281016133068184614367565b801515613e3d565b8035610816816143de565b6000806040838503121561440757614407600080fd5b60006144138585613f5e565b9250506020613f9c858286016143e6565b60008083601f84011261443957614439600080fd5b50813567ffffffffffffffff81111561445457614454600080fd5b60208301915083600182028301111561446f5761446f600080fd5b9250929050565b60038110610ee057600080fd5b803561081681614476565b6000806000604084860312156144a6576144a6600080fd5b833567ffffffffffffffff8111156144c0576144c0600080fd5b6144cc86828701614424565b9350935050602061418f86828701614483565b63ffffffff8116613e3d565b8035610816816144df565b60028110610ee057600080fd5b8035610816816144f6565b60008060006060848603121561452657614526600080fd5b600061453286866144eb565b935050602061454386828701614503565b925050604061418f86828701614483565b634e487b7160e01b600052604160045260246000fd5b601f19601f830116810181811067ffffffffffffffff8211171561459057614590614554565b6040525050565b60006145a260405190565b905061400d828261456a565b600067ffffffffffffffff8211156145c8576145c8614554565b601f19601f83011660200192915050565b82818337506000910152565b60006145f86145f3846145ae565b614597565b90508281526020810184848401111561461357614613600080fd5b6143538482856145d9565b600082601f83011261463257614632600080fd5b8135611fa28482602086016145e5565b6000806000806080858703121561465b5761465b600080fd5b60006146678787613f5e565b945050602061467887828801613f5e565b935050604061468987828801613f01565b925050606085013567ffffffffffffffff8111156146a9576146a9600080fd5b6146b58782880161461e565b91505092959194509250565b600080600080608085870312156146da576146da600080fd5b60006146e68787613f01565b94505060206146f7878288016143e6565b935050604061470887828801613f01565b92505060606146b587828801613f01565b6000806040838503121561472f5761472f600080fd5b600061473b8585613f5e565b9250506020613f9c85828601613f5e565b6000806040838503121561476257614762600080fd5b600061476e85856144eb565b9250506020613f9c85828601614483565b805160408084526000919084019061479782826141d7565b915050602083015161435360208601826140b1565b6000613306838361477f565b60006147c2825190565b808452602084019350836020820285016147dc8560200190565b8060005b858110156143c057848403895281516147f985826147ac565b94506020830160209a909a01999250506001016147e0565b6020808252810161330681846147b8565b61ffff8116613e3d565b803561081681614822565b600080600080600060a0868803121561485257614852600080fd5b600061485e8888613f01565b955050602061486f8882890161482c565b94505060406148808882890161482c565b93505060606148918882890161482c565b92505060806148a28882890161482c565b9150509295509295909350565b634e487b7160e01b600052602260045260246000fd5b6002810460018216806148d957607f821691505b60208210811415610f6057610f606148af565b602c81526000602082017f4552433732313a20617070726f76656420717565727920666f72206e6f6e657881526b34b9ba32b73a103a37b5b2b760a11b602082015291505b5060400190565b60208082528101610816816148ec565b602181526000602082017f4552433732313a20617070726f76616c20746f2063757272656e74206f776e658152603960f91b60208201529150614931565b6020808252810161081681614948565b603881526000602082017f4552433732313a20617070726f76652063616c6c6572206973206e6f74206f7781527f6e6572206e6f7220617070726f76656420666f7220616c6c000000000000000060208201529150614931565b6020808252810161081681614996565b60208082527f4f776e61626c653a2063616c6c6572206973206e6f7420746865206f776e6572910190815260005b5060200190565b6020808252810161081681614a00565b603181526000602082017f43616e6e6f7420736574204e465420686f6c646572206164647265737320746f81527020746865207a65726f206164647265737360781b60208201529150614931565b6020808252810161081681614a45565b634e487b7160e01b600052603260045260246000fd5b634e487b7160e01b600052601160045260246000fd5b6000600019821415614ae357614ae3614ab9565b5060010190565b600081614af957614af9614ab9565b506000190190565b603181526000602082017f4552433732313a207472616e736665722063616c6c6572206973206e6f74206f8152701ddb995c881b9bdc88185c1c1c9bdd9959607a1b60208201529150614931565b6020808252810161081681614b01565b602681526000602082017f596f7520617265206e6f7420746865206f776e6572206f66207468697320466981526567687465722160d01b60208201529150614931565b6020808252810161081681614b5f565b602c81526000602082017f596f752063616e6e6f742073656c6c206f72206769667420796f7572206f6e6c81526b79206368617261637465722160a01b60208201529150614931565b6020808252810161081681614bb2565b602981526000602082017f4552433732313a206f776e657220717565727920666f72206e6f6e657869737481526832b73a103a37b5b2b760b91b60208201529150614931565b6020808252810161081681614c0b565b602a81526000602082017f4552433732313a2062616c616e636520717565727920666f7220746865207a65815269726f206164647265737360b01b60208201529150614931565b6020808252810161081681614c61565b6000825b925082821015614cce57614cce614ab9565b500390565b602381526000602082017f43616e6e6f742067696674204e465420746f20746865207a65726f206164647281526265737360e81b60208201529150614931565b6020808252810161081681614cd3565b605c81526000602082017f596f7520616c7265616479206861766520666967687465727320696e20796f7581527f72204261727261636b732120456e74657220746865204172656e6120616e642060208201527f6561726e20796f757273656c66206d6f72652046696768746572732100000000604082015291505b5060600190565b6020808252810161081681614d23565b603281526000602082017f596f752073656e7420696e73756666696369656e742045544820666f7220666f8152717267696e67207468697320776561706f6e2160701b60208201529150614931565b6020808252810161081681614db6565b6000614e1f825190565b614e2d818560208601613e8c565b9290920192915050565b60008154614e44816148c5565b600182168015614e5b5760018114614e6c57614e9c565b60ff19831686528186019350614e9c565b60008581526020902060005b83811015614e9457815488820152600190910190602001614e78565b838801955050505b50505092915050565b7f7b2274726169745f74797065223a20224c75636b222c202276616c7565223a2081526000614a2e565b737b226e616d65223a20225b46696768746572202360601b81526014016000614ef8828d614e15565b6302e9016960e51b81526004019150614f11828c614e15565b640103a3432960dd1b81526005019150614f2b828b614e37565b7f222c20226465736372697074696f6e223a202254686973204e4654207265707281527f6573656e747320612043727970746f4172656e61332e3020466967687465722160208201526c1116101134b6b0b3b2911d101160991b6040820152604d019150614f99828a614e37565b7f222c202261747472696275746573223a205b7b2274726169745f74797065223a815272010113632bb32b6111610113b30b63ab2911d1606d1b60208201526033019150614fe78289614e15565b611f4b60f21b81527f7b2274726169745f74797065223a20224865616c746820506f696e7473222c206002820152680113b30b63ab2911d160bd1b6022820152602b0191506150368288614e15565b611f4b60f21b81527f7b2274726169745f74797065223a2022537472656e677468222c202276616c75600282015263032911d160e51b602282015260260191506150808287614e15565b611f4b60f21b81527f7b2274726169745f74797065223a20224167696c697479222c202276616c75656002820152620111d160ed1b602282015260250191506150c98286614e15565b611f4b60f21b815260020191506150df82614ea5565b91506150eb8285614e15565b611f4b60f21b81527f7b2274726169745f74797065223a2022446578746572697479222c202276616c60028201526403ab2911d160dd1b602282015260270191506151368284614e15565b627d5d7d60e81b81526003019c9b505050505050505050505050565b7f646174613a6170706c69636174696f6e2f6a736f6e3b6261736536342c0000008152601d0160006133068284614e15565b602681526000602082017f596f752073656e7420696e73756666696369656e742045544820666f7220466981526567687465722160d01b60208201529150614931565b6020808252810161081681615184565b602381526000602082017f596f752063616e6e6f742061747461636b20796f7572206f776e20466967687481526265722160e81b60208201529150614931565b60208082528101610816816151d7565b602781526000602082017f596f75722066696768746572206973206e6f742079657420726561647920746f8152662066696768742160c81b60208201529150614931565b6020808252810161081681615227565b602581526000602082017f596f7520617265206e6f7420746865206f776e6572206f66207468697320576581526461706f6e2160d81b60208201529150614931565b602080825281016108168161527b565b603481526000602082017f596f752063616e6e6f7420757365207468697320776561706f6e2c20796f7572815273206c6576656c20697320746f6f20736d616c6c2160601b60208201529150614931565b60208082528101610816816152cd565b603f81526000602082017f596f752063616e6e6f7420757365207468697320776561706f6e2c20796f757281527f206167696c69747920736b696c6c20697320696e73756666696369656e74210060208201529150614931565b602080825281016108168161532e565b604081526000602082017f596f752063616e6e6f7420757365207468697320776561706f6e2c20796f757281527f20737472656e67746820736b696c6c20697320696e73756666696369656e742160208201529150614931565b6020808252810161081681615398565b600063ffffffff8216915063ffffffff831692508163ffffffff048311821515161561543057615430614ab9565b500290565b634e487b7160e01b600052601260045260246000fd5b600063ffffffff8216915063ffffffff83165b92508261546d5761546d615435565b500490565b603981526000602082017f596f7520646f206e6f74206861766520616e7920617661696c61626c6520707581527f70696c732120466967687420746f206561726e206d6f7265210000000000000060208201529150614931565b6020808252810161081681615472565b602681526000602082017f4f776e61626c653a206e6577206f776e657220697320746865207a65726f206181526564647265737360d01b60208201529150614931565b60208082528101610816816154dc565b604d81526000602082017f596f7520646f206e6f74206861766520656e6f75676820617661696c61626c6581527f207370656e6461626c6520706f696e747320696e206f7264657220746f20646f60208201526c207468697320616374696f6e2160981b60408201529150614d9f565b602080825281016108168161552f565b602c81526000602082017f4552433732313a206f70657261746f7220717565727920666f72206e6f6e657881526b34b9ba32b73a103a37b5b2b760a11b60208201529150614931565b60208082528101610816816155af565b602581526000602082017f4552433732313a207472616e736665722066726f6d20696e636f72726563742081526437bbb732b960d91b60208201529150614931565b6020808252810161081681615608565b602481526000602082017f4552433732313a207472616e7366657220746f20746865207a65726f206164648152637265737360e01b60208201529150614931565b602080825281016108168161565a565b600081600019048311821515161561543057615430614ab9565b60008261545e565b600082198211156156e0576156e0614ab9565b500190565b601981526000602082017f4552433732313a20617070726f766520746f2063616c6c65720000000000000081529150614a2e565b60208082528101610816816156e5565b603281526000602082017f546865206e616d6520796f7520696e73657274656420666f7220796f7572204681527169676874657220697320696e76616c69642160701b60208201529150614931565b6020808252810161081681615729565b603381526000602082017f54686520636c61737320796f7520696e73657274656420666f7220796f7572208152724669676874657220697320696e76616c69642160681b60208201529150614931565b6020808252810161081681615788565b603781526000602082017f546865206e616d6520796f7520696e73657274656420666f7220796f7572204681527f69676874657220697320616c726561647920757365642100000000000000000060208201529150614931565b60208082528101610816816157e8565b603281526000602082017f546865206c6576656c20796f7520696e73657274656420666f7220796f757220815271576561706f6e20697320696e76616c69642160701b60208201529150614931565b6020808252810161081681615852565b603181526000602082017f546865207479706520796f7520696e73657274656420666f7220796f757220578152706561706f6e20697320696e76616c69642160781b60208201529150614931565b60208082528101610816816158b1565b603281526000602082017f4552433732313a207472616e7366657220746f206e6f6e20455243373231526581527131b2b4bb32b91034b6b83632b6b2b73a32b960711b60208201529150614931565b602080825281016108168161590f565b6000825b92508261598157615981615435565b500690565b600063ffffffff8216915063ffffffff8316614cbc565b600061ffff8216915061ffff8316614cbc565b600061ffff8216915061ffff831692508261ffff038211156156e0576156e0614ab9565b60006133068284614e15565b608081016159ee8287613f3e565b6159fb6020830186613f3e565b615a0860408301856140b1565b81810360608301526134d78184613eb8565b805161081681613e31565b600060208284031215615a3a57615a3a600080fd5b6000611fa28484615a1a565b600063ffffffff8216915063ffffffff831692508263ffffffff038211156156e0576156e0614ab9565b600061ffff8216610816565b613e7881615a70565b60408101615a938285615a7c565b6133066020830184613e74565b60408101615a938285613fd3565b60006108168260601b90565b600061081682615aae565b613e78615ad182613f2d565b615aba565b6000615ae282866140b1565b602082019150615af28285615ac5565b601482019150615b0282846140b1565b506020019392505050565b600063ffffffff8216915063ffffffff8316615972565b60208082527f4552433732313a206d696e7420746f20746865207a65726f206164647265737391019081526000614a2e565b6020808252810161081681615b2456fe4142434445464748494a4b4c4d4e4f505152535455565758595a6162636465666768696a6b6c6d6e6f707172737475767778797a303132333435363738392b2fa2646970667358221220f93354f427f895bcab7af46a81b965990a22d5b5407037e6f3d6a5f5bc718b6e64736f6c634300080a0033",
  "linkReferences": {},
  "deployedLinkReferences": {}
}