{
  "_format": "hh-sol-artifact-1",
  "contractName": "Arena",
  "sourceName": "contracts/Arena.sol",
  "abi": [
    {
      "anonymous": false,
      "inputs": [
        {
          "indexed": true,
          "internalType": "address",
          "name": "owner",
          "type": "address"
        },
        {
          "indexed": true,
          "internalType": "address",
          "name": "approved",
          "type": "address"
        },
        {
          "indexed": true,
          "internalType": "uint256",
          "name": "tokenId",
          "type": "uint256"
        }
      ],
      "name": "Approval",
      "type": "event"
    },
    {
      "anonymous": false,
      "inputs": [
        {
          "indexed": true,
          "internalType": "address",
          "name": "owner",
          "type": "address"
        },
        {
          "indexed": true,
          "internalType": "address",
          "name": "operator",
          "type": "address"
        },
        {
          "indexed": false,
          "internalType": "bool",
          "name": "approved",
          "type": "bool"
        }
      ],
      "name": "ApprovalForAll",
      "type": "event"
    },
    {
      "anonymous": false,
      "inputs": [
        {
          "indexed": true,
          "internalType": "uint256",
          "name": "attackerId",
          "type": "uint256"
        },
        {
          "indexed": true,
          "internalType": "uint256",
          "name": "targetId",
          "type": "uint256"
        },
        {
          "indexed": false,
          "internalType": "uint16",
          "name": "damage",
          "type": "uint16"
        },
        {
          "indexed": false,
          "internalType": "bool",
          "name": "wasCritical",
          "type": "bool"
        }
      ],
      "name": "ArenaEvent",
      "type": "event"
    },
    {
      "anonymous": false,
      "inputs": [
        {
          "indexed": true,
          "internalType": "address",
          "name": "previousOwner",
          "type": "address"
        },
        {
          "indexed": true,
          "internalType": "address",
          "name": "newOwner",
          "type": "address"
        }
      ],
      "name": "OwnershipTransferred",
      "type": "event"
    },
    {
      "anonymous": false,
      "inputs": [
        {
          "indexed": true,
          "internalType": "address",
          "name": "from",
          "type": "address"
        },
        {
          "indexed": true,
          "internalType": "address",
          "name": "to",
          "type": "address"
        },
        {
          "indexed": true,
          "internalType": "uint256",
          "name": "tokenId",
          "type": "uint256"
        }
      ],
      "name": "Transfer",
      "type": "event"
    },
    {
      "anonymous": false,
      "inputs": [
        {
          "indexed": false,
          "internalType": "bool",
          "name": "youWon",
          "type": "bool"
        }
      ],
      "name": "WhoWon",
      "type": "event"
    },
    {
      "inputs": [],
      "name": "_collectBalance",
      "outputs": [],
      "stateMutability": "nonpayable",
      "type": "function"
    },
    {
      "inputs": [
        {
          "internalType": "uint32",
          "name": "_level",
          "type": "uint32"
        },
        {
          "internalType": "enum WeaponTier",
          "name": "_tier",
          "type": "uint8"
        }
      ],
      "name": "_computeWeaponPrice",
      "outputs": [
        {
          "internalType": "uint256",
          "name": "",
          "type": "uint256"
        }
      ],
      "stateMutability": "pure",
      "type": "function"
    },
    {
      "inputs": [
        {
          "internalType": "string",
          "name": "_givenName",
          "type": "string"
        },
        {
          "internalType": "enum FighterClass",
          "name": "_class",
          "type": "uint8"
        }
      ],
      "name": "_createFirstFighter",
      "outputs": [],
      "stateMutability": "nonpayable",
      "type": "function"
    },
    {
      "inputs": [],
      "name": "_getFightersCount",
      "outputs": [
        {
          "internalType": "uint256",
          "name": "",
          "type": "uint256"
        }
      ],
      "stateMutability": "view",
      "type": "function"
    },
    {
      "inputs": [
        {
          "internalType": "uint256",
          "name": "latest",
          "type": "uint256"
        }
      ],
      "name": "_getLatestFighters",
      "outputs": [
        {
          "components": [
            {
              "internalType": "address",
              "name": "owner",
              "type": "address"
            },
            {
              "components": [
                {
                  "internalType": "bool",
                  "name": "isForSale",
                  "type": "bool"
                },
                {
                  "internalType": "uint16",
                  "name": "winCount",
                  "type": "uint16"
                },
                {
                  "internalType": "uint16",
                  "name": "lossCount",
                  "type": "uint16"
                },
                {
                  "internalType": "uint16",
                  "name": "HP",
                  "type": "uint16"
                },
                {
                  "internalType": "uint16",
                  "name": "strength",
                  "type": "uint16"
                },
                {
                  "internalType": "uint16",
                  "name": "agility",
                  "type": "uint16"
                },
                {
                  "internalType": "uint16",
                  "name": "dexterity",
                  "type": "uint16"
                },
                {
                  "internalType": "uint16",
                  "name": "luck",
                  "type": "uint16"
                },
                {
                  "internalType": "uint16",
                  "name": "currentXP",
                  "type": "uint16"
                },
                {
                  "internalType": "uint16",
                  "name": "levelUpXP",
                  "type": "uint16"
                },
                {
                  "internalType": "uint16",
                  "name": "spendablePoints",
                  "type": "uint16"
                },
                {
                  "internalType": "uint32",
                  "name": "level",
                  "type": "uint32"
                },
                {
                  "internalType": "uint32",
                  "name": "readyTime",
                  "type": "uint32"
                },
                {
                  "internalType": "enum FighterClass",
                  "name": "class",
                  "type": "uint8"
                },
                {
                  "internalType": "string",
                  "name": "name",
                  "type": "string"
                }
              ],
              "internalType": "struct FighterFactory.Fighter",
              "name": "fighter",
              "type": "tuple"
            },
            {
              "internalType": "uint256",
              "name": "id",
              "type": "uint256"
            }
          ],
          "internalType": "struct FighterFactory.FighterDTO[]",
          "name": "",
          "type": "tuple[]"
        }
      ],
      "stateMutability": "view",
      "type": "function"
    },
    {
      "inputs": [],
      "name": "_getMyAvailablePupils",
      "outputs": [
        {
          "internalType": "uint256",
          "name": "",
          "type": "uint256"
        }
      ],
      "stateMutability": "view",
      "type": "function"
    },
    {
      "inputs": [
        {
          "internalType": "address",
          "name": "_owner",
          "type": "address"
        }
      ],
      "name": "_getUserFighters",
      "outputs": [
        {
          "components": [
            {
              "components": [
                {
                  "internalType": "bool",
                  "name": "isForSale",
                  "type": "bool"
                },
                {
                  "internalType": "uint16",
                  "name": "winCount",
                  "type": "uint16"
                },
                {
                  "internalType": "uint16",
                  "name": "lossCount",
                  "type": "uint16"
                },
                {
                  "internalType": "uint16",
                  "name": "HP",
                  "type": "uint16"
                },
                {
                  "internalType": "uint16",
                  "name": "strength",
                  "type": "uint16"
                },
                {
                  "internalType": "uint16",
                  "name": "agility",
                  "type": "uint16"
                },
                {
                  "internalType": "uint16",
                  "name": "dexterity",
                  "type": "uint16"
                },
                {
                  "internalType": "uint16",
                  "name": "luck",
                  "type": "uint16"
                },
                {
                  "internalType": "uint16",
                  "name": "currentXP",
                  "type": "uint16"
                },
                {
                  "internalType": "uint16",
                  "name": "levelUpXP",
                  "type": "uint16"
                },
                {
                  "internalType": "uint16",
                  "name": "spendablePoints",
                  "type": "uint16"
                },
                {
                  "internalType": "uint32",
                  "name": "level",
                  "type": "uint32"
                },
                {
                  "internalType": "uint32",
                  "name": "readyTime",
                  "type": "uint32"
                },
                {
                  "internalType": "enum FighterClass",
                  "name": "class",
                  "type": "uint8"
                },
                {
                  "internalType": "string",
                  "name": "name",
                  "type": "string"
                }
              ],
              "internalType": "struct FighterFactory.Fighter",
              "name": "fighter",
              "type": "tuple"
            },
            {
              "internalType": "uint256",
              "name": "id",
              "type": "uint256"
            }
          ],
          "internalType": "struct FighterFactory.FighterBarracksDTO[]",
          "name": "",
          "type": "tuple[]"
        }
      ],
      "stateMutability": "view",
      "type": "function"
    },
    {
      "inputs": [
        {
          "internalType": "address",
          "name": "_owner",
          "type": "address"
        }
      ],
      "name": "_getUserWeapons",
      "outputs": [
        {
          "components": [
            {
              "components": [
                {
                  "internalType": "uint32",
                  "name": "levelReq",
                  "type": "uint32"
                },
                {
                  "internalType": "uint32",
                  "name": "damage",
                  "type": "uint32"
                },
                {
                  "internalType": "uint16",
                  "name": "skillReq",
                  "type": "uint16"
                },
                {
                  "internalType": "enum WeaponType",
                  "name": "weapType",
                  "type": "uint8"
                },
                {
                  "internalType": "enum WeaponTier",
                  "name": "tier",
                  "type": "uint8"
                }
              ],
              "internalType": "struct WeaponFactory.Weapon",
              "name": "weapon",
              "type": "tuple"
            },
            {
              "internalType": "uint256",
              "name": "id",
              "type": "uint256"
            }
          ],
          "internalType": "struct WeaponFactory.WeaponDTO[]",
          "name": "",
          "type": "tuple[]"
        }
      ],
      "stateMutability": "view",
      "type": "function"
    },
    {
      "inputs": [
        {
          "internalType": "uint256",
          "name": "id",
          "type": "uint256"
        }
      ],
      "name": "_getWeaponByFighterId",
      "outputs": [
        {
          "components": [
            {
              "components": [
                {
                  "internalType": "uint32",
                  "name": "levelReq",
                  "type": "uint32"
                },
                {
                  "internalType": "uint32",
                  "name": "damage",
                  "type": "uint32"
                },
                {
                  "internalType": "uint16",
                  "name": "skillReq",
                  "type": "uint16"
                },
                {
                  "internalType": "enum WeaponType",
                  "name": "weapType",
                  "type": "uint8"
                },
                {
                  "internalType": "enum WeaponTier",
                  "name": "tier",
                  "type": "uint8"
                }
              ],
              "internalType": "struct WeaponFactory.Weapon",
              "name": "weapon",
              "type": "tuple"
            },
            {
              "internalType": "uint256",
              "name": "id",
              "type": "uint256"
            }
          ],
          "internalType": "struct WeaponFactory.WeaponDTO[]",
          "name": "",
          "type": "tuple[]"
        }
      ],
      "stateMutability": "view",
      "type": "function"
    },
    {
      "inputs": [
        {
          "internalType": "uint32",
          "name": "_level",
          "type": "uint32"
        },
        {
          "internalType": "enum WeaponType",
          "name": "_type",
          "type": "uint8"
        },
        {
          "internalType": "enum WeaponTier",
          "name": "_tier",
          "type": "uint8"
        }
      ],
      "name": "_purchaseWeapon",
      "outputs": [],
      "stateMutability": "payable",
      "type": "function"
    },
    {
      "inputs": [
        {
          "internalType": "uint256",
          "name": "_fighterId",
          "type": "uint256"
        },
        {
          "internalType": "uint16",
          "name": "_STR",
          "type": "uint16"
        },
        {
          "internalType": "uint16",
          "name": "_AGL",
          "type": "uint16"
        },
        {
          "internalType": "uint16",
          "name": "_LCK",
          "type": "uint16"
        },
        {
          "internalType": "uint16",
          "name": "_DEX",
          "type": "uint16"
        }
      ],
      "name": "_spendAvailablePoints",
      "outputs": [],
      "stateMutability": "nonpayable",
      "type": "function"
    },
    {
      "inputs": [
        {
          "internalType": "address",
          "name": "to",
          "type": "address"
        },
        {
          "internalType": "uint256",
          "name": "tokenId",
          "type": "uint256"
        }
      ],
      "name": "approve",
      "outputs": [],
      "stateMutability": "nonpayable",
      "type": "function"
    },
    {
      "inputs": [
        {
          "internalType": "uint256",
          "name": "_myFighterId",
          "type": "uint256"
        },
        {
          "internalType": "bool",
          "name": "_hasOwnerWeapon",
          "type": "bool"
        },
        {
          "internalType": "uint256",
          "name": "_myWeaponId",
          "type": "uint256"
        },
        {
          "internalType": "uint256",
          "name": "_targetFighterId",
          "type": "uint256"
        },
        {
          "internalType": "bool",
          "name": "_hasTargetWeapon",
          "type": "bool"
        },
        {
          "internalType": "uint256",
          "name": "_targetWeaponId",
          "type": "uint256"
        }
      ],
      "name": "attack",
      "outputs": [],
      "stateMutability": "nonpayable",
      "type": "function"
    },
    {
      "inputs": [
        {
          "internalType": "address",
          "name": "owner",
          "type": "address"
        }
      ],
      "name": "balanceOf",
      "outputs": [
        {
          "internalType": "uint256",
          "name": "",
          "type": "uint256"
        }
      ],
      "stateMutability": "view",
      "type": "function"
    },
    {
      "inputs": [
        {
          "internalType": "uint256",
          "name": "_fighterId",
          "type": "uint256"
        }
      ],
      "name": "buyFighter",
      "outputs": [],
      "stateMutability": "payable",
      "type": "function"
    },
    {
      "inputs": [
        {
          "internalType": "address",
          "name": "newAddr",
          "type": "address"
        }
      ],
      "name": "changeNFTHolderAccount",
      "outputs": [],
      "stateMutability": "nonpayable",
      "type": "function"
    },
    {
      "inputs": [],
      "name": "feePercent",
      "outputs": [
        {
          "internalType": "uint16",
          "name": "",
          "type": "uint16"
        }
      ],
      "stateMutability": "view",
      "type": "function"
    },
    {
      "inputs": [
        {
          "internalType": "address",
          "name": "_owner",
          "type": "address"
        }
      ],
      "name": "fetchAvailablePupils",
      "outputs": [
        {
          "internalType": "uint16",
          "name": "",
          "type": "uint16"
        }
      ],
      "stateMutability": "view",
      "type": "function"
    },
    {
      "inputs": [
        {
          "internalType": "uint256",
          "name": "tokenId",
          "type": "uint256"
        }
      ],
      "name": "getApproved",
      "outputs": [
        {
          "internalType": "address",
          "name": "",
          "type": "address"
        }
      ],
      "stateMutability": "view",
      "type": "function"
    },
    {
      "inputs": [
        {
          "internalType": "uint256",
          "name": "fighterId",
          "type": "uint256"
        }
      ],
      "name": "getFighterPrice",
      "outputs": [
        {
          "internalType": "uint256",
          "name": "",
          "type": "uint256"
        }
      ],
      "stateMutability": "view",
      "type": "function"
    },
    {
      "inputs": [
        {
          "internalType": "uint256",
          "name": "fighterId",
          "type": "uint256"
        }
      ],
      "name": "getFighterSeller",
      "outputs": [
        {
          "internalType": "address",
          "name": "",
          "type": "address"
        }
      ],
      "stateMutability": "view",
      "type": "function"
    },
    {
      "inputs": [
        {
          "internalType": "address",
          "name": "receiver",
          "type": "address"
        },
        {
          "internalType": "uint256",
          "name": "_myFighterId",
          "type": "uint256"
        }
      ],
      "name": "giftFighter",
      "outputs": [],
      "stateMutability": "nonpayable",
      "type": "function"
    },
    {
      "inputs": [
        {
          "internalType": "address",
          "name": "owner",
          "type": "address"
        },
        {
          "internalType": "address",
          "name": "operator",
          "type": "address"
        }
      ],
      "name": "isApprovedForAll",
      "outputs": [
        {
          "internalType": "bool",
          "name": "",
          "type": "bool"
        }
      ],
      "stateMutability": "view",
      "type": "function"
    },
    {
      "inputs": [],
      "name": "name",
      "outputs": [
        {
          "internalType": "string",
          "name": "",
          "type": "string"
        }
      ],
      "stateMutability": "view",
      "type": "function"
    },
    {
      "inputs": [],
      "name": "owner",
      "outputs": [
        {
          "internalType": "address",
          "name": "",
          "type": "address"
        }
      ],
      "stateMutability": "view",
      "type": "function"
    },
    {
      "inputs": [
        {
          "internalType": "uint256",
          "name": "tokenId",
          "type": "uint256"
        }
      ],
      "name": "ownerOf",
      "outputs": [
        {
          "internalType": "address",
          "name": "",
          "type": "address"
        }
      ],
      "stateMutability": "view",
      "type": "function"
    },
    {
      "inputs": [
        {
          "internalType": "uint256",
          "name": "_myFighterId",
          "type": "uint256"
        },
        {
          "internalType": "uint256",
          "name": "price",
          "type": "uint256"
        }
      ],
      "name": "putUpForSale",
      "outputs": [],
      "stateMutability": "nonpayable",
      "type": "function"
    },
    {
      "inputs": [
        {
          "internalType": "string",
          "name": "_name",
          "type": "string"
        },
        {
          "internalType": "enum FighterClass",
          "name": "_class",
          "type": "uint8"
        }
      ],
      "name": "redeemAvailablePupil",
      "outputs": [],
      "stateMutability": "nonpayable",
      "type": "function"
    },
    {
      "inputs": [],
      "name": "renounceOwnership",
      "outputs": [],
      "stateMutability": "nonpayable",
      "type": "function"
    },
    {
      "inputs": [
        {
          "internalType": "address",
          "name": "from",
          "type": "address"
        },
        {
          "internalType": "address",
          "name": "to",
          "type": "address"
        },
        {
          "internalType": "uint256",
          "name": "tokenId",
          "type": "uint256"
        }
      ],
      "name": "safeTransferFrom",
      "outputs": [],
      "stateMutability": "nonpayable",
      "type": "function"
    },
    {
      "inputs": [
        {
          "internalType": "address",
          "name": "from",
          "type": "address"
        },
        {
          "internalType": "address",
          "name": "to",
          "type": "address"
        },
        {
          "internalType": "uint256",
          "name": "tokenId",
          "type": "uint256"
        },
        {
          "internalType": "bytes",
          "name": "_data",
          "type": "bytes"
        }
      ],
      "name": "safeTransferFrom",
      "outputs": [],
      "stateMutability": "nonpayable",
      "type": "function"
    },
    {
      "inputs": [
        {
          "internalType": "address",
          "name": "operator",
          "type": "address"
        },
        {
          "internalType": "bool",
          "name": "approved",
          "type": "bool"
        }
      ],
      "name": "setApprovalForAll",
      "outputs": [],
      "stateMutability": "nonpayable",
      "type": "function"
    },
    {
      "inputs": [
        {
          "internalType": "bytes4",
          "name": "interfaceId",
          "type": "bytes4"
        }
      ],
      "name": "supportsInterface",
      "outputs": [
        {
          "internalType": "bool",
          "name": "",
          "type": "bool"
        }
      ],
      "stateMutability": "view",
      "type": "function"
    },
    {
      "inputs": [],
      "name": "symbol",
      "outputs": [
        {
          "internalType": "string",
          "name": "",
          "type": "string"
        }
      ],
      "stateMutability": "view",
      "type": "function"
    },
    {
      "inputs": [
        {
          "internalType": "uint256",
          "name": "_id",
          "type": "uint256"
        }
      ],
      "name": "tokenURI",
      "outputs": [
        {
          "internalType": "string",
          "name": "",
          "type": "string"
        }
      ],
      "stateMutability": "view",
      "type": "function"
    },
    {
      "inputs": [
        {
          "internalType": "address",
          "name": "from",
          "type": "address"
        },
        {
          "internalType": "address",
          "name": "to",
          "type": "address"
        },
        {
          "internalType": "uint256",
          "name": "tokenId",
          "type": "uint256"
        }
      ],
      "name": "transferFrom",
      "outputs": [],
      "stateMutability": "nonpayable",
      "type": "function"
    },
    {
      "inputs": [
        {
          "internalType": "address",
          "name": "newOwner",
          "type": "address"
        }
      ],
      "name": "transferOwnership",
      "outputs": [],
      "stateMutability": "nonpayable",
      "type": "function"
    },
    {
      "stateMutability": "payable",
      "type": "receive"
    }
  ],
  "bytecode": "0x603c60805261018060405260136101408190527f43727970746f4172656e61466967687465727300000000000000000000000000610160908152620000489160079190620003b2565b50604080518082019091526007808252662334b3b43a32b960c91b60209092019182526200007991600891620003b2565b50600560a052600b80546001600160a01b031916732b6a10c78c6374d4b43d2fc2295023b7455339511790556602aa1efb94e00060c0526601c6bf5263400060e0526605543df729c00061010052660aa87bee5380006101205260006011556012805463ffffffff1916600f179055348015620000f557600080fd5b50620001013362000362565b6040805180820190915260078152662bb0b93934b7b960c91b60208083019182526000805260059052905162000159917f05b8ccbb9d4d8fb16ea74ce3c29a41f1b461fbdaff4714a0d9a8eb05499746bc91620003b2565b5060408051808201909152600781526653616d7572616960c81b60208083019182526001600052600590529051620001b3917f1471eb6eb2c5e789fc3de43f8ce62938c7d1836ec861730447e2ada8fd81017b91620003b2565b5060408051808201909152600580825264111c9d5a5960da1b602080840191825260026000529190915290516200020c917f89832631fb3c3307a103ba2c84ab569c64d6182a18893dcd163f0f1c2090733a91620003b2565b5060408051808201909152601f81527f68747470733a2f2f692e696d6775722e636f6d2f79684a4f7a4e542e706e67006020808301918252600080526006905290516200027b917f54cdd369e4e8a8515e52ca72ec816c2101831ad1f18bf44102ed171459c9b4f891620003b2565b5060408051808201909152601f81527f68747470733a2f2f692e696d6775722e636f6d2f74744575656d7a2e706e670060208083019182526001600052600690529051620002eb917f3e5fec24aa4dc4e5aee2e025e51e1392c72a2500577559fae9665c6d52bd6a3191620003b2565b5060408051808201909152601f81527f68747470733a2f2f692e696d6775722e636f6d2f6153393246617a2e706e6700602080830191825260026000526006905290516200035b917f8819ef417987f8ae7a81f42cdfb18815282fe989326fbff903d13cf0e03ace2991620003b2565b506200049f565b600080546001600160a01b038381166001600160a01b0319831681178455604051919092169283917f8be0079c531659141344cd1fd0a4f28419497f9722a3daafe3b4186f6b6457e09190a35050565b828054620003c0906200046e565b90600052602060002090601f016020900481019282620003e457600085556200042f565b82601f10620003ff57805160ff19168380011785556200042f565b828001600101855582156200042f579182015b828111156200042f57825182559160200191906001019062000412565b506200043d92915062000441565b5090565b5b808211156200043d576000815560010162000442565b634e487b7160e01b600052602260045260246000fd5b6002810460018216806200048357607f821691505b6020821081141562000499576200049962000458565b50919050565b60805160a05160c05160e0516101005161012051615d73620004fd60003960006120df0152600061210901526000612093015260006120430152600081816104270152612bb60152600081816126ba0152612e980152615d736000f3fe60806040526004361061021e5760003560e01c806395d89b4111610123578063cbb5bbbf116100ab578063ea9652551161006f578063ea96525514610671578063ecfa934814610691578063f2fde38b146106b1578063f9d7f171146106d1578063fbba44c6146106fe57600080fd5b8063cbb5bbbf146105d8578063ccc72842146105eb578063d5f5da3b1461060b578063dc9326761461062b578063e985e9c51461065157600080fd5b8063adec464a116100f2578063adec464a14610550578063b67340b514610570578063b88d4fde14610583578063c87b56dd146105a3578063cb74c2a8146105c357600080fd5b806395d89b41146104ce5780639b1f87e8146104e35780639c42a20714610510578063a22cb4651461053057600080fd5b80635e96c694116101a6578063790035071161017557806379003507146104005780637fd6f15c146104155780638da5cb5b146104565780638f2fd16c14610474578063927eeddc1461049457600080fd5b80635e96c6941461037e5780636352211e1461039e57806370a08231146103be578063715018a6146103eb57600080fd5b80630a424b72116101ed5780630a424b72146102d157806313c1bce1146102f1578063208ea9291461031157806323b872dd1461033e57806342842e0e1461035e57600080fd5b806301ffc9a71461022a57806306fdde0314610260578063081812fc14610282578063095ea7b3146102af57600080fd5b3661022557005b600080fd5b34801561023657600080fd5b5061024a610245366004613fd3565b61071e565b6040516102579190613ffe565b60405180910390f35b34801561026c57600080fd5b50610275610770565b604051610257919061406a565b34801561028e57600080fd5b506102a261029d36600461408c565b610802565b60405161025791906140c7565b3480156102bb57600080fd5b506102cf6102ca3660046140e9565b61085b565b005b3480156102dd57600080fd5b506102cf6102ec366004614126565b6108de565b3480156102fd57600080fd5b506102cf61030c36600461415a565b610950565b34801561031d57600080fd5b5061033161032c366004614126565b61107d565b6040516102579190614355565b34801561034a57600080fd5b506102cf610359366004614366565b611264565b34801561036a57600080fd5b506102cf610379366004614366565b611295565b34801561038a57600080fd5b506102cf6103993660046143b6565b6112b0565b3480156103aa57600080fd5b506102a26103b936600461408c565b6113fe565b3480156103ca57600080fd5b506103de6103d9366004614126565b611433565b60405161025791906143d8565b3480156103f757600080fd5b506102cf611477565b34801561040c57600080fd5b506102cf6114ad565b34801561042157600080fd5b506104497f000000000000000000000000000000000000000000000000000000000000000081565b60405161025791906143e6565b34801561046257600080fd5b506000546001600160a01b03166102a2565b34801561048057600080fd5b506102a261048f36600461408c565b611506565b3480156104a057600080fd5b506104496104af366004614126565b6001600160a01b031660009081526004602052604090205461ffff1690565b3480156104da57600080fd5b5061027561155a565b3480156104ef57600080fd5b506105036104fe36600461408c565b611569565b60405161025791906145ea565b34801561051c57600080fd5b506102cf61052b3660046140e9565b61185c565b34801561053c57600080fd5b506102cf61054b3660046145fb565b61194e565b34801561055c57600080fd5b506102cf61056b366004614698565b61195d565b6102cf61057e366004614718565b6119ce565b34801561058f57600080fd5b506102cf61059e36600461484c565b611a5d565b3480156105af57600080fd5b506102756105be36600461408c565b611a95565b3480156105cf57600080fd5b506001546103de565b6102cf6105e636600461408c565b611dcc565b3480156105f757600080fd5b506103de61060636600461408c565b611f5c565b34801561061757600080fd5b506102cf610626366004614698565b611fa3565b34801561063757600080fd5b503360009081526004602052604090205461ffff166103de565b34801561065d57600080fd5b5061024a61066c3660046148cb565b61200d565b34801561067d57600080fd5b506103de61068c3660046148fe565b61203b565b34801561069d57600080fd5b506103316106ac36600461408c565b612135565b3480156106bd57600080fd5b506102cf6106cc366004614126565b612159565b3480156106dd57600080fd5b506106f16106ec366004614126565b6121b2565b60405161025791906149c3565b34801561070a57600080fd5b506102cf6107193660046149e9565b612489565b60006001600160e01b031982166380ac58cd60e01b148061074f57506001600160e01b03198216635b5e139f60e01b145b8061076a57506301ffc9a760e01b6001600160e01b03198316145b92915050565b60606007805461077f90614a77565b80601f01602080910402602001604051908101604052809291908181526020018280546107ab90614a77565b80156107f85780601f106107cd576101008083540402835291602001916107f8565b820191906000526020600020905b8154815290600101906020018083116107db57829003601f168201915b5050505050905090565b6000818152600260205260408120546001600160a01b031661083f5760405162461bcd60e51b815260040161083690614aea565b60405180910390fd5b506000908152600960205260409020546001600160a01b031690565b6000818152600260205260409020546001600160a01b039081169083168114156108975760405162461bcd60e51b815260040161083690614b38565b336001600160a01b03821614806108b357506108b3813361200d565b6108cf5760405162461bcd60e51b815260040161083690614ba2565b6108d9838361264e565b505050565b6000546001600160a01b031633146109085760405162461bcd60e51b815260040161083690614be7565b6001600160a01b03811661092e5760405162461bcd60e51b815260040161083690614c45565b600b80546001600160a01b0319166001600160a01b0392909216919091179055565b60008681526002602052604090205486906001600160a01b0316336001600160a01b0316146109915760405162461bcd60e51b815260040161083690614c98565b86600181815481106109a5576109a5614ca8565b600091825260209091206002909102015460ff16156109c357600080fd5b84600181815481106109d7576109d7614ca8565b600091825260209091206002909102015460ff16156109f557600080fd5b60008681526002602052604090205486906001600160a01b0316331415610a2e5760405162461bcd60e51b815260040161083690614cfe565b600060018b81548110610a4357610a43614ca8565b90600052602060002090600202019050428160000160199054906101000a900463ffffffff1663ffffffff161115610a8d5760405162461bcd60e51b815260040161083690614d52565b610a96816126b5565b60125463ffffffff168a15610d2d5760008a8152600f60205260409020546001600160a01b0316336001600160a01b031614610ae45760405162461bcd60e51b815260040161083690614da4565b6000600e8b81548110610af957610af9614ca8565b60009182526020918290206040805160a08101825291909201805463ffffffff80821684526401000000008204169483019490945261ffff600160401b8504169282019290925291606083019060ff600160501b909104166001811115610b6257610b626141fa565b6001811115610b7357610b736141fa565b81528154602090910190600160581b900460ff166002811115610b9857610b986141fa565b6002811115610ba957610ba96141fa565b9052508051845491925063ffffffff908116600160a81b909204161015610be25760405162461bcd60e51b815260040161083690614e05565b600081606001516001811115610bfa57610bfa6141fa565b1415610c3b576040810151835461ffff918216600160481b9091049091161015610c365760405162461bcd60e51b815260040161083690614e6f565b610c71565b6040810151835461ffff918216600160381b9091049091161015610c715760405162461bcd60e51b815260040161083690614ed9565b60018354600160e81b900460ff166002811115610c9057610c906141fa565b148015610cb25750600081606001516001811115610cb057610cb06141fa565b145b80610cf9575060008354600160e81b900460ff166002811115610cd757610cd76141fa565b148015610cf95750600181606001516001811115610cf757610cf76141fa565b145b15610d2357610d1c6002826020015163ffffffff1661270190919063ffffffff16565b9150610d2b565b806020015191505b505b600060018a81548110610d4257610d42614ca8565b60009182526020909120601254600290920201915063ffffffff168915610ff4576000898152600f60209081526040808320548e84526002909252909120546001600160a01b03908116911614610dab5760405162461bcd60e51b815260040161083690614da4565b6000600e8a81548110610dc057610dc0614ca8565b60009182526020918290206040805160a08101825291909201805463ffffffff80821684526401000000008204169483019490945261ffff600160401b8504169282019290925291606083019060ff600160501b909104166001811115610e2957610e296141fa565b6001811115610e3a57610e3a6141fa565b81528154602090910190600160581b900460ff166002811115610e5f57610e5f6141fa565b6002811115610e7057610e706141fa565b9052508051845491925063ffffffff908116600160a81b909204161015610ea95760405162461bcd60e51b815260040161083690614e05565b600081606001516001811115610ec157610ec16141fa565b1415610f02576040810151835461ffff918216600160481b9091049091161015610efd5760405162461bcd60e51b815260040161083690614e6f565b610f38565b6040810151835461ffff918216600160381b9091049091161015610f385760405162461bcd60e51b815260040161083690614ed9565b60018354600160e81b900460ff166002811115610f5757610f576141fa565b148015610f795750600081606001516001811115610f7757610f776141fa565b145b80610fc0575060008354600160e81b900460ff166002811115610f9e57610f9e6141fa565b148015610fc05750600181606001516001811115610fbe57610fbe6141fa565b145b15610fea57610fe36002826020015163ffffffff1661270190919063ffffffff16565b9150610ff2565b806020015191505b505b60006110048f86868f8787612714565b90508015611023576110158f6128e8565b61101e8c61298c565b611035565b61102c8f61298c565b6110358c6128e8565b7fbf30fbcd321ef240818144cebd3d57345fa6d5d053a6778754a84a8478272f32816040516110649190613ffe565b60405180910390a1505050505050505050505050505050565b6001600160a01b0381166000908152601060205260408120546060918167ffffffffffffffff8111156110b2576110b261475e565b6040519080825280602002602001820160405280156110eb57816020015b6110d8613e26565b8152602001906001900390816110d05790505b509050816110fa579392505050565b6000805b600e5481101561125a576000818152600f60205260409020546001600160a01b0387811691161415611248576040518060400160405280600e838154811061114857611148614ca8565b60009182526020918290206040805160a08101825291909201805463ffffffff80821684526401000000008204169483019490945261ffff600160401b8504169282019290925291606083019060ff600160501b9091041660018111156111b1576111b16141fa565b60018111156111c2576111c26141fa565b81528154602090910190600160581b900460ff1660028111156111e7576111e76141fa565b60028111156111f8576111f86141fa565b8152505081526020018281525083838151811061121757611217614ca8565b6020026020010181905250818061122d90614eff565b925050838061123b90614f1a565b945050836112485761125a565b8061125281614eff565b9150506110fe565b5090949350505050565b61126e33826129fa565b61128a5760405162461bcd60e51b815260040161083690614f7f565b6108d9838383612a81565b6108d983838360405180602001604052806000815250611a5d565b60008281526002602052604090205482906001600160a01b0316336001600160a01b0316146112f15760405162461bcd60e51b815260040161083690614c98565b6000838152600260209081526040808320546001600160a01b0316835260039091529020548390600111156113385760405162461bcd60e51b815260040161083690614fd8565b826000811161134657600080fd5b846001818154811061135a5761135a614ca8565b600091825260209091206002909102015460ff161561137857600080fd5b61138e33600b546001600160a01b031688612a81565b61139785612baa565b6000878152600c6020908152604080832093909355600d90522080546001600160a01b03191633179055600180548190889081106113d7576113d7614ca8565b60009182526020909120600290910201805460ff1916911515919091179055505050505050565b6000818152600260205260408120546001600160a01b03168061076a5760405162461bcd60e51b81526004016108369061502e565b60006001600160a01b03821661145b5760405162461bcd60e51b815260040161083690615085565b506001600160a01b031660009081526003602052604090205490565b6000546001600160a01b031633146114a15760405162461bcd60e51b815260040161083690614be7565b6114ab6000612bf0565b565b6000546001600160a01b031633146114d75760405162461bcd60e51b815260040161083690614be7565b60405133904780156108fc02916000818181858888f19350505050158015611503573d6000803e3d6000fd5b50565b6000816001818154811061151c5761151c614ca8565b600091825260209091206002909102015460ff1661153957600080fd5b6000838152600d60205260409020546001600160a01b031691505b50919050565b60606008805461077f90614a77565b606060015482111561157a57600080fd5b816115855760015491505b60008267ffffffffffffffff8111156115a0576115a061475e565b6040519080825280602002602001820160405280156115d957816020015b6115c6613e66565b8152602001906001900390816115be5790505b506001549091506115ea5792915050565b6001805460009182916115fd9190615095565b90505b60015461160e908690615095565b81106118535760408051606081018252600083815260026020908152929020546001600160a01b031681526001805491928301918490811061165257611652614ca8565b6000918252602091829020604080516101e0810182526002938402909201805460ff8082161515855261ffff61010080840482169887019890985263010000008304811694860194909452600160281b820484166060860152600160381b820484166080860152600160481b8204841660a0860152600160581b8204841660c0860152600160681b8204841660e0860152600160781b8204841696850196909652600160881b81048316610120850152600160981b810490921661014084015263ffffffff600160a81b83048116610160850152600160c81b830416610180840152919391926101a0850192600160e81b90920490911690811115611759576117596141fa565b600281111561176a5761176a6141fa565b815260200160018201805461177e90614a77565b80601f01602080910402602001604051908101604052809291908181526020018280546117aa90614a77565b80156117f75780601f106117cc576101008083540402835291602001916117f7565b820191906000526020600020905b8154815290600101906020018083116117da57829003601f168201915b50505050508152505081526020018281525083838151811061181b5761181b614ca8565b6020026020010181905250818061183190614eff565b9250508482141561184157611853565b8061184b81614f1a565b915050611600565b50909392505050565b60008181526002602052604090205481906001600160a01b0316336001600160a01b03161461189d5760405162461bcd60e51b815260040161083690614c98565b6000828152600260209081526040808320546001600160a01b0316835260039091529020548290600111156118e45760405162461bcd60e51b815260040161083690614fd8565b82600181815481106118f8576118f8614ca8565b600091825260209091206002909102015460ff161561191657600080fd5b6001600160a01b03851661193c5760405162461bcd60e51b8152600401610836906150f0565b611947338686612a81565b5050505050565b611959338383612c40565b5050565b336000908152600360205260409020541561198a5760405162461bcd60e51b815260040161083690615183565b611995838383612ce3565b6000600481335b6001600160a01b031681526020810191909152604001600020805461ffff191661ffff92909216919091179055505050565b6119d8838261203b565b803410156119f85760405162461bcd60e51b8152600401610836906151e2565b6000611a04858461203b565b90506000611a128234615095565b90508015611a4957604051339082156108fc029083906000818181858888f19350505050158015611a47573d6000803e3d6000fd5b505b611a55338787876131e5565b505050505050565b611a6733836129fa565b611a835760405162461bcd60e51b815260040161083690614f7f565b611a8f848484846134e0565b50505050565b6060600060018381548110611aac57611aac614ca8565b6000918252602091829020604080516101e0810182526002938402909201805460ff8082161515855261ffff61010080840482169887019890985263010000008304811694860194909452600160281b820484166060860152600160381b820484166080860152600160481b8204841660a0860152600160581b8204841660c0860152600160681b8204841660e0860152600160781b8204841696850196909652600160881b81048316610120850152600160981b810490921661014084015263ffffffff600160a81b83048116610160850152600160c81b830416610180840152919391926101a0850192600160e81b90920490911690811115611bb357611bb36141fa565b6002811115611bc457611bc46141fa565b8152602001600182018054611bd890614a77565b80601f0160208091040260200160405190810160405280929190818152602001828054611c0490614a77565b8015611c515780601f10611c2657610100808354040283529160200191611c51565b820191906000526020600020905b815481529060010190602001808311611c3457829003601f168201915b50505050508152505090506000611c6f826060015161ffff16613513565b90506000611c8783610160015163ffffffff16613513565b90506000611c9c846080015161ffff16613513565b90506000611cb18560a0015161ffff16613513565b90506000611cc68660e0015161ffff16613513565b90506000611cdb8760c0015161ffff16613513565b90506000611d98611ceb8b613513565b896101c00151600560008c6101a001516002811115611d0c57611d0c6141fa565b6002811115611d1d57611d1d6141fa565b8152602001908152602001600020600660008d6101a001516002811115611d4657611d466141fa565b6002811115611d5757611d576141fa565b81526020019081526020016000208a8c8b8b8b8b604051602001611d849a999897969594939291906152ac565b604051602081830303815290604052613611565b9050600081604051602001611dad919061552f565b60408051601f198184030181529190529b9a5050505050505050505050565b8060018181548110611de057611de0614ca8565b600091825260209091206002909102015460ff16611dfd57600080fd5b6000828152600c60205260409020548290611e1790613765565b341015611e365760405162461bcd60e51b8152600401610836906155a4565b6000838152600c6020526040812054611e4e90613765565b90506000611e5c8234615095565b90508015611e9357604051339082156108fc029083906000818181858888f19350505050158015611e91573d6000803e3d6000fd5b505b600060018681548110611ea857611ea8614ca8565b60009182526020909120600290910201805460ff1916911515919091179055611ed1338661264e565b600b54611ee8906001600160a01b03163387612a81565b6000858152600d60205260408082205490516001600160a01b039091169184156108fc02918591818181858888f19350505050158015611f2c573d6000803e3d6000fd5b50505060009283525050600c60209081526040808320839055600d909152902080546001600160a01b0319169055565b60008160018181548110611f7257611f72614ca8565b600091825260209091206002909102015460ff16611f8f57600080fd5b50506000908152600c602052604090205490565b33600090815260046020526040902054600161ffff9091161015611fd95760405162461bcd60e51b81526004016108369061560e565b611fe4838383612ce3565b336000908152600460205260409020546120039061ffff16600161377e565b600460003361199c565b6001600160a01b039182166000908152600a6020908152604080832093909416825291909152205460ff1690565b6000806120717f000000000000000000000000000000000000000000000000000000000000000063ffffffff8087169061378a16565b90506002836002811115612087576120876141fa565b14156120bf576120b7817f0000000000000000000000000000000000000000000000000000000000000000613796565b91505061076a565b60008360028111156120d3576120d36141fa565b1415612103576120b7817f0000000000000000000000000000000000000000000000000000000000000000613796565b61212d817f0000000000000000000000000000000000000000000000000000000000000000613796565b949350505050565b60008181526002602052604090205460609061076a906001600160a01b031661107d565b6000546001600160a01b031633146121835760405162461bcd60e51b815260040161083690614be7565b6001600160a01b0381166121a95760405162461bcd60e51b815260040161083690615661565b61150381612bf0565b6001600160a01b0381166000908152600360205260408120546060918167ffffffffffffffff8111156121e7576121e761475e565b60405190808252806020026020018201604052801561222057816020015b61220d613e89565b8152602001906001900390816122055790505b5090508161222f579392505050565b6000805b60015481101561125a576000818152600260205260409020546001600160a01b03878116911614156124775760405180604001604052806001838154811061227d5761227d614ca8565b6000918252602091829020604080516101e0810182526002938402909201805460ff8082161515855261ffff61010080840482169887019890985263010000008304811694860194909452600160281b820484166060860152600160381b820484166080860152600160481b8204841660a0860152600160581b8204841660c0860152600160681b8204841660e0860152600160781b8204841696850196909652600160881b81048316610120850152600160981b810490921661014084015263ffffffff600160a81b83048116610160850152600160c81b830416610180840152919391926101a0850192600160e81b90920490911690811115612384576123846141fa565b6002811115612395576123956141fa565b81526020016001820180546123a990614a77565b80601f01602080910402602001604051908101604052809291908181526020018280546123d590614a77565b80156124225780601f106123f757610100808354040283529160200191612422565b820191906000526020600020905b81548152906001019060200180831161240557829003601f168201915b50505050508152505081526020018281525083838151811061244657612446614ca8565b6020026020010181905250818061245c90614eff565b925050838061246a90614f1a565b945050836124775761125a565b8061248181614eff565b915050612233565b60008581526002602052604090205485906001600160a01b0316336001600160a01b0316146124ca5760405162461bcd60e51b815260040161083690614c98565b6000600187815481106124df576124df614ca8565b6000918252602090912060029091020190508561250061ffff8216876137a2565b905061251061ffff8216866137a2565b905061252061ffff8216856137a2565b825490915061ffff600160981b909104811690821611156125535760405162461bcd60e51b8152600401610836906156e1565b815461256a90600160981b900461ffff168261377e565b825461ffff60981b1916600160981b61ffff928316021780845561259791600160381b90910416886137a2565b825468ffff000000000000001916600160381b61ffff92831602178084556125c891600160481b90910416876137a2565b82546affff0000000000000000001916600160481b61ffff92831602178084556125fb91600160581b90910416856137a2565b825461ffff60581b1916600160581b61ffff928316021780845561262891600160681b90910416866137a2565b825461ffff91909116600160681b0261ffff60681b199091161790915550505050505050565b600081815260096020908152604080832080546001600160a01b0319166001600160a01b038781169182179092556002909352818420549151859492909116917f8c5be1e5ebec7d5bd14f71427d1e84f3dd0314c0f7b2291e5b200ac8c7c3b92591a45050565b6126df7f0000000000000000000000000000000000000000000000000000000000000000426156f1565b815463ffffffff91909116600160c81b0263ffffffff60c81b19909116179055565b600061270d8284615709565b9392505050565b8454600090600160281b900461ffff1660028754600160e81b900460ff166002811115612743576127436141fa565b141561279d5761275e63ffffffff808316906019906137ae16565b87549091506000906127839063ffffffff600160a81b90910481169060059061270116565b905061279963ffffffff8084169083906137ae16565b9150505b8354600160281b900461ffff1660028554600160e81b900460ff1660028111156127c9576127c96141fa565b1415612823576127e463ffffffff808316906019906137ae16565b88549091506000906128099063ffffffff600160a81b90910481169060059061270116565b905061281f63ffffffff8084169083906137ae16565b9150505b60005b8854612850908b908a90600160681b900461ffff16338a548c90600160581b900461ffff166137ba565b905061ffff811663ffffffff83161161286f57600193505050506128de565b61287d61ffff82168361573c565b86549092506128aa9088908790600160681b900461ffff16338d548f90600160581b900461ffff166137ba565b905061ffff811663ffffffff8416116128c957600093505050506128de565b6128d761ffff82168461573c565b9250612826565b9695505050505050565b6000600182815481106128fd576128fd614ca8565b60009182526020909120600290910201805490915061292690610100900461ffff1660016137a2565b815462ffff00191661010061ffff928316021780835561295091600160781b9091041660286137a2565b815461ffff60781b1916600160781b61ffff928316810291909117808455600160881b81048316919004909116106119595761195981836138cd565b6000600182815481106129a1576129a1614ca8565b6000918252602090912060029091020180549091506129cc906301000000900461ffff1660016137a2565b815464ffff0000001916630100000061ffff928316021780835561295091600160781b9091041660196137a2565b6000818152600260205260408120546001600160a01b0316612a2e5760405162461bcd60e51b81526004016108369061579c565b6000828152600260205260409020546001600160a01b03908116908416811480612a715750836001600160a01b0316612a6684610802565b6001600160a01b0316145b8061212d575061212d818561200d565b6000818152600260205260409020546001600160a01b03848116911614612aba5760405162461bcd60e51b8152600401610836906157ee565b6001600160a01b038216612ae05760405162461bcd60e51b81526004016108369061583f565b612aeb60008261264e565b6001600160a01b038316600090815260036020526040902054612b0f906001613a60565b6001600160a01b038085166000908152600360205260408082209390935590841681522054612b3f906001613796565b6001600160a01b038084166000818152600360209081526040808320959095558582526002905283812080546001600160a01b031916831790559251849391928716917fddf252ad1be2c89b69c2b068fc378daa952ba7f163c4a11628f55a4df523b3ef91a4505050565b60006064612bdc61ffff7f0000000000000000000000000000000000000000000000000000000000000000168461584f565b612be6919061587f565b61076a90836156f1565b600080546001600160a01b038381166001600160a01b0319831681178455604051919092169283917f8be0079c531659141344cd1fd0a4f28419497f9722a3daafe3b4186f6b6457e09190a35050565b816001600160a01b0316836001600160a01b03161415612c725760405162461bcd60e51b8152600401610836906158c7565b6001600160a01b038381166000818152600a602090815260408083209487168084529490915290819020805460ff1916851515179055517f17307eab39ab6107e8899845ad3d59bd9653f200f220920489ca2b5937696c3190612cd6908590613ffe565b60405180910390a3505050565b828280612d025760405162461bcd60e51b815260040161083690615926565b826000816002811115612d1757612d176141fa565b1480612d3457506001816002811115612d3257612d326141fa565b145b80612d5057506002816002811115612d4e57612d4e6141fa565b145b612d6c5760405162461bcd60e51b815260040161083690615986565b85858080601f01602080910402602001604051908101604052809392919081815260200183838082843760009201829052509250612dad91503390506121b2565b90506000805b8251811015612e0857612de8838281518110612dd157612dd1614ca8565b6020026020010151600001516101c0015185613a6c565b15612df65760019150612e08565b80612e0081614eff565b915050612db3565b508015612e275760405162461bcd60e51b8152600401610836906159f0565b604080516101e08101825260008082526020820181905291810182905260646060820181905260016080830181905260a0830181905260c0830181905260e08301819052610100830184905261012083019190915261014082019290925261016081018290526101808101612ebc427f0000000000000000000000000000000000000000000000000000000000000000613796565b63ffffffff168152602001896002811115612ed957612ed96141fa565b81526020018b8b8080601f016020809104026020016040519081016040528093929190818152602001838380828437600081840152601f19601f82011690508083019250505050505050815250908060018154018082558091505060019003906000526020600020906002020160009091909190915060008201518160000160006101000a81548160ff02191690831515021790555060208201518160000160016101000a81548161ffff021916908361ffff16021790555060408201518160000160036101000a81548161ffff021916908361ffff16021790555060608201518160000160056101000a81548161ffff021916908361ffff16021790555060808201518160000160076101000a81548161ffff021916908361ffff16021790555060a08201518160000160096101000a81548161ffff021916908361ffff16021790555060c082015181600001600b6101000a81548161ffff021916908361ffff16021790555060e082015181600001600d6101000a81548161ffff021916908361ffff16021790555061010082015181600001600f6101000a81548161ffff021916908361ffff1602179055506101208201518160000160116101000a81548161ffff021916908361ffff1602179055506101408201518160000160136101000a81548161ffff021916908361ffff1602179055506101608201518160000160156101000a81548163ffffffff021916908363ffffffff1602179055506101808201518160000160196101000a81548163ffffffff021916908363ffffffff1602179055506101a082015181600001601d6101000a81548160ff0219169083600281111561314b5761314b6141fa565b02179055506101c0820151805161316c916001840191602090910190613e9c565b505060018054600092506131809190615095565b600081815260026020908152604080832080546001600160a01b03191633908117909155835260039091529020549091506131bc906001613796565b336000818152600360205260409020919091556131d99082613ac5565b50505050505050505050565b8260018163ffffffff16101561320d5760405162461bcd60e51b815260040161083690615a4f565b826000816001811115613222576132226141fa565b148061323f5750600181600181111561323d5761323d6141fa565b145b61325b5760405162461bcd60e51b815260040161083690615aad565b826000816002811115613270576132706141fa565b148061328d5750600181600281111561328b5761328b6141fa565b145b806132a9575060028160028111156132a7576132a76141fa565b145b6132c55760405162461bcd60e51b815260040161083690615aad565b6000808560028111156132da576132da6141fa565b14156132e4575060085b60018560028111156132f8576132f86141fa565b1415613302575060065b6002856002811115613316576133166141fa565b1415613320575060035b600e6040518060a001604052808963ffffffff1681526020016133438a89613adf565b63ffffffff1681526020018361ffff16815260200188600181111561336a5761336a6141fa565b8152602001876002811115613381576133816141fa565b9052815460018181018455600093845260209384902083519201805494840151604085015161ffff16600160401b0269ffff00000000000000001963ffffffff9283166401000000000267ffffffffffffffff199098169290951691909117959095179283168517815560608401519394909392849260ff60501b199092166affffff0000000000000000199091161790600160501b908490811115613429576134296141fa565b021790555060808201518154829060ff60581b1916600160581b836002811115613455576134556141fa565b0217905550505087600f60006001600e805490506134739190615095565b81526020808201929092526040908101600090812080546001600160a01b0319166001600160a01b03958616179055928b16835260109091529020546134ba906001613796565b6001600160a01b0390981660009081526010602052604090209790975550505050505050565b6134eb848484612a81565b6134f784848484613b5b565b611a8f5760405162461bcd60e51b815260040161083690615b0c565b6060816135375750506040805180820190915260018152600360fc1b602082015290565b8160005b8115613561578061354b81614eff565b915061355a9050600a8361587f565b915061353b565b60008167ffffffffffffffff81111561357c5761357c61475e565b6040519080825280601f01601f1916602001820160405280156135a6576020820181803683370190505b5090505b841561212d576135bb600183615095565b91506135c8600a86615b1c565b6135d39060306156f1565b60f81b8183815181106135e8576135e8614ca8565b60200101906001600160f81b031916908160001a90535061360a600a8661587f565b94506135aa565b606081516000141561363157505060408051602081019091526000815290565b6000604051806060016040528060408152602001615cfe604091399050600060038451600261366091906156f1565b61366a919061587f565b61367590600461584f565b67ffffffffffffffff81111561368d5761368d61475e565b6040519080825280601f01601f1916602001820160405280156136b7576020820181803683370190505b509050600182016020820185865187015b80821015613723576003820191508151603f8160121c168501518453600184019350603f81600c1c168501518453600184019350603f8160061c168501518453600184019350603f81168501518453600184019350506136c8565b505060038651066001811461373f57600281146137525761375a565b603d6001830353603d600283035361375a565b603d60018303535b509195945050505050565b6000601561377483601461584f565b61076a919061587f565b600061270d8284615b34565b600061270d828461584f565b600061270d82846156f1565b600061270d8284615b47565b600061270d8284615b6b565b60006137c68483613c59565b1561380f5782877fcce4f0668cb0ecd051f3e42f34aaff29f7fc1d9554bcf8d825cb4960f15a9e776000806040516137ff929190615baa565b60405180910390a35060006128de565b6138198486613c59565b1561388a5782877fcce4f0668cb0ecd051f3e42f34aaff29f7fc1d9554bcf8d825cb4960f15a9e7761385663ffffffff808b169060029061270116565b6001604051613866929190615bc5565b60405180910390a361388363ffffffff8088169060029061270116565b90506128de565b82877fcce4f0668cb0ecd051f3e42f34aaff29f7fc1d9554bcf8d825cb4960f15a9e778860006040516138be929190615bc5565b60405180910390a350846128de565b81546138e590600160881b900461ffff1660646137a2565b825461ffff91909116600160881b0261ffff60881b199091161780835561391f9063ffffffff600160a81b9091048116906001906137ae16565b825463ffffffff60a81b1916600160a81b63ffffffff928316021780845561395791600160281b90910461ffff1690600a906137a216565b825466ffff00000000001916600160281b61ffff928316021780845561398791600160981b9091041660016137a2565b825461ffff91909116600160981b0261ffff60981b19909116178083556139c19063ffffffff600160a81b909104811690600a90613cdb16565b63ffffffff16611959576000818152600260209081526040808320546001600160a01b0316808452600490925290912054613a019061ffff1660016137a2565b6001600160a01b0382166000908152600460205260409020805461ffff191661ffff92909216919091179055613a3681613ce7565b156108d95782546108d9908290600160a81b900463ffffffff16613a5982613d36565b60026131e5565b600061270d8284615095565b600081604051602001613a7f9190615bd3565b6040516020818303038152906040528051906020012083604051602001613aa69190615bd3565b6040516020818303038152906040528051906020012014905092915050565b611959828260405180602001604052806000815250613d85565b60006002826002811115613af557613af56141fa565b1415613b1757613b1063ffffffff8085169060029061270116565b905061076a565b6000826002811115613b2b57613b2b6141fa565b1415613b4657613b1063ffffffff8085169060049061270116565b61270d63ffffffff8085169060039061270116565b60006001600160a01b0384163b15613c4e57604051630a85bd0160e11b81526001600160a01b0385169063150b7a0290613b9f903390899088908890600401615bdf565b6020604051808303816000875af1925050508015613bda575060408051601f3d908101601f19168201909252613bd791810190615c24565b60015b613c34573d808015613c08576040519150601f19603f3d011682016040523d82523d6000602084013e613c0d565b606091505b508051613c2c5760405162461bcd60e51b815260040161083690615b0c565b805181602001fd5b6001600160e01b031916630a85bd0160e11b14905061212d565b506001949350505050565b600080613c6b61ffff841660056156f1565b601154909150613c7c906001613796565b6011819055604051600091613cbc91606491613c9e9142918a91602001615c6d565b60408051601f19818403018152919052805160209091012090613db8565b9050818111613cd05760019250505061076a565b506000949350505050565b600061270d8284615ca4565b601154600090613cf8906001613796565b6011819055604051600091613d1a91606491613c9e9142918891602001615c6d565b905060288111613d2d5750600192915050565b50600092915050565b601154600090613d47906001613796565b6011819055604051600091613d6991606491613c9e9142918891602001615c6d565b905060328111613d7c5750600092915050565b50600192915050565b613d8f8383613dc4565b613d9c6000848484613b5b565b6108d95760405162461bcd60e51b815260040161083690615b0c565b600061270d8284615b1c565b6001600160a01b038216613dea5760405162461bcd60e51b815260040161083690615ced565b60405181906001600160a01b038416906000907fddf252ad1be2c89b69c2b068fc378daa952ba7f163c4a11628f55a4df523b3ef908290a45050565b6040805160e0810182526000918101828152606082018390526080820183905260a0820183905260c08201929092529081905b8152602001600081525090565b604051806060016040528060006001600160a01b03168152602001613e59613f20565b6040518060400160405280613e59613f20565b828054613ea890614a77565b90600052602060002090601f016020900481019282613eca5760008555613f10565b82601f10613ee357805160ff1916838001178555613f10565b82800160010185558215613f10579182015b82811115613f10578251825591602001919060010190613ef5565b50613f1c929150613f9c565b5090565b604080516101e081018252600080825260208201819052918101829052606081018290526080810182905260a0810182905260c0810182905260e0810182905261010081018290526101208101829052610140810182905261016081018290526101808101829052906101a08201908152602001606081525090565b5b80821115613f1c5760008155600101613f9d565b6001600160e01b031981165b811461150357600080fd5b803561076a81613fb1565b600060208284031215613fe857613fe8600080fd5b600061212d8484613fc8565b8015155b82525050565b6020810161076a8284613ff4565b60005b8381101561402757818101518382015260200161400f565b83811115611a8f5750506000910152565b6000614042825190565b80845260208401935061405981856020860161400c565b601f01601f19169290920192915050565b6020808252810161270d8184614038565b80613fbd565b803561076a8161407b565b6000602082840312156140a1576140a1600080fd5b600061212d8484614081565b60006001600160a01b03821661076a565b613ff8816140ad565b6020810161076a82846140be565b613fbd816140ad565b803561076a816140d5565b600080604083850312156140ff576140ff600080fd5b600061410b85856140de565b925050602061411c85828601614081565b9150509250929050565b60006020828403121561413b5761413b600080fd5b600061212d84846140de565b801515613fbd565b803561076a81614147565b60008060008060008060c0878903121561417657614176600080fd5b60006141828989614081565b965050602061419389828a0161414f565b95505060406141a489828a01614081565b94505060606141b589828a01614081565b93505060806141c689828a0161414f565b92505060a06141d789828a01614081565b9150509295509295509295565b63ffffffff8116613ff8565b61ffff8116613ff8565b634e487b7160e01b600052602160045260246000fd5b60028110611503576115036141fa565b8061422a81614210565b919050565b600061076a82614220565b613ff88161422f565b60038110611503576115036141fa565b8061422a81614243565b600061076a82614253565b613ff88161425d565b805160a083019061428284826141e4565b50602082015161429560208501826141e4565b5060408201516142a860408501826141f0565b5060608201516142bb606085018261423a565b506080820151611a8f6080850182614268565b80613ff8565b805160c08301906142e58482614271565b506020820151611a8f60a08501826142ce565b600061430483836142d4565b505060c00190565b6000614316825190565b80845260209384019383018060005b8381101561434a57815161433988826142f8565b975060208301925050600101614325565b509495945050505050565b6020808252810161270d818461430c565b60008060006060848603121561437e5761437e600080fd5b600061438a86866140de565b935050602061439b868287016140de565b92505060406143ac86828701614081565b9150509250925092565b600080604083850312156143cc576143cc600080fd5b600061410b8585614081565b6020810161076a82846142ce565b6020810161076a82846141f0565b80516000906101e08401906144098582613ff4565b50602083015161441c60208601826141f0565b50604083015161442f60408601826141f0565b50606083015161444260608601826141f0565b50608083015161445560808601826141f0565b5060a083015161446860a08601826141f0565b5060c083015161447b60c08601826141f0565b5060e083015161448e60e08601826141f0565b506101008301516144a36101008601826141f0565b506101208301516144b86101208601826141f0565b506101408301516144cd6101408601826141f0565b506101608301516144e26101608601826141e4565b506101808301516144f76101808601826141e4565b506101a083015161450c6101a0860182614268565b506101c08301518482036101c08601526145268282614038565b95945050505050565b8051600090606084019061454385826140be565b506020830151848203602086015261455b82826143f4565b915050604083015161457060408601826142ce565b509392505050565b600061270d838361452f565b600061458e825190565b808452602084019350836020820285016145a88560200190565b8060005b858110156145dd57848403895281516145c58582614578565b94506020830160209a909a01999250506001016145ac565b5091979650505050505050565b6020808252810161270d8184614584565b6000806040838503121561461157614611600080fd5b600061461d85856140de565b925050602061411c8582860161414f565b60008083601f84011261464357614643600080fd5b50813567ffffffffffffffff81111561465e5761465e600080fd5b60208301915083600182028301111561467957614679600080fd5b9250929050565b6003811061150357600080fd5b803561076a81614680565b6000806000604084860312156146b0576146b0600080fd5b833567ffffffffffffffff8111156146ca576146ca600080fd5b6146d68682870161462e565b935093505060206143ac8682870161468d565b63ffffffff8116613fbd565b803561076a816146e9565b6002811061150357600080fd5b803561076a81614700565b60008060006060848603121561473057614730600080fd5b600061473c86866146f5565b935050602061474d8682870161470d565b92505060406143ac8682870161468d565b634e487b7160e01b600052604160045260246000fd5b601f19601f830116810181811067ffffffffffffffff8211171561479a5761479a61475e565b6040525050565b60006147ac60405190565b905061422a8282614774565b600067ffffffffffffffff8211156147d2576147d261475e565b601f19601f83011660200192915050565b82818337506000910152565b60006148026147fd846147b8565b6147a1565b90508281526020810184848401111561481d5761481d600080fd5b6145708482856147e3565b600082601f83011261483c5761483c600080fd5b813561212d8482602086016147ef565b6000806000806080858703121561486557614865600080fd5b600061487187876140de565b9450506020614882878288016140de565b935050604061489387828801614081565b925050606085013567ffffffffffffffff8111156148b3576148b3600080fd5b6148bf87828801614828565b91505092959194509250565b600080604083850312156148e1576148e1600080fd5b60006148ed85856140de565b925050602061411c858286016140de565b6000806040838503121561491457614914600080fd5b600061492085856146f5565b925050602061411c8582860161468d565b805160408084526000919084019061494982826143f4565b915050602083015161457060208601826142ce565b600061270d8383614931565b6000614974825190565b8084526020840193508360208202850161498e8560200190565b8060005b858110156145dd57848403895281516149ab858261495e565b94506020830160209a909a0199925050600101614992565b6020808252810161270d818461496a565b61ffff8116613fbd565b803561076a816149d4565b600080600080600060a08688031215614a0457614a04600080fd5b6000614a108888614081565b9550506020614a21888289016149de565b9450506040614a32888289016149de565b9350506060614a43888289016149de565b9250506080614a54888289016149de565b9150509295509295909350565b634e487b7160e01b600052602260045260246000fd5b600281046001821680614a8b57607f821691505b6020821081141561155457611554614a61565b602c81526000602082017f4552433732313a20617070726f76656420717565727920666f72206e6f6e657881526b34b9ba32b73a103a37b5b2b760a11b602082015291505b5060400190565b6020808252810161076a81614a9e565b602181526000602082017f4552433732313a20617070726f76616c20746f2063757272656e74206f776e658152603960f91b60208201529150614ae3565b6020808252810161076a81614afa565b603881526000602082017f4552433732313a20617070726f76652063616c6c6572206973206e6f74206f7781527f6e6572206e6f7220617070726f76656420666f7220616c6c000000000000000060208201529150614ae3565b6020808252810161076a81614b48565b60208082527f4f776e61626c653a2063616c6c6572206973206e6f7420746865206f776e6572910190815260005b5060200190565b6020808252810161076a81614bb2565b603181526000602082017f43616e6e6f7420736574204e465420686f6c646572206164647265737320746f81527020746865207a65726f206164647265737360781b60208201529150614ae3565b6020808252810161076a81614bf7565b602681526000602082017f596f7520617265206e6f7420746865206f776e6572206f66207468697320466981526567687465722160d01b60208201529150614ae3565b6020808252810161076a81614c55565b634e487b7160e01b600052603260045260246000fd5b602381526000602082017f596f752063616e6e6f742061747461636b20796f7572206f776e20466967687481526265722160e81b60208201529150614ae3565b6020808252810161076a81614cbe565b602781526000602082017f596f75722066696768746572206973206e6f742079657420726561647920746f8152662066696768742160c81b60208201529150614ae3565b6020808252810161076a81614d0e565b602581526000602082017f596f7520617265206e6f7420746865206f776e6572206f66207468697320576581526461706f6e2160d81b60208201529150614ae3565b6020808252810161076a81614d62565b603481526000602082017f596f752063616e6e6f7420757365207468697320776561706f6e2c20796f7572815273206c6576656c20697320746f6f20736d616c6c2160601b60208201529150614ae3565b6020808252810161076a81614db4565b603f81526000602082017f596f752063616e6e6f7420757365207468697320776561706f6e2c20796f757281527f206167696c69747920736b696c6c20697320696e73756666696369656e74210060208201529150614ae3565b6020808252810161076a81614e15565b604081526000602082017f596f752063616e6e6f7420757365207468697320776561706f6e2c20796f757281527f20737472656e67746820736b696c6c20697320696e73756666696369656e742160208201529150614ae3565b6020808252810161076a81614e7f565b634e487b7160e01b600052601160045260246000fd5b6000600019821415614f1357614f13614ee9565b5060010190565b600081614f2957614f29614ee9565b506000190190565b603181526000602082017f4552433732313a207472616e736665722063616c6c6572206973206e6f74206f8152701ddb995c881b9bdc88185c1c1c9bdd9959607a1b60208201529150614ae3565b6020808252810161076a81614f31565b602c81526000602082017f596f752063616e6e6f742073656c6c206f72206769667420796f7572206f6e6c81526b79206368617261637465722160a01b60208201529150614ae3565b6020808252810161076a81614f8f565b602981526000602082017f4552433732313a206f776e657220717565727920666f72206e6f6e657869737481526832b73a103a37b5b2b760b91b60208201529150614ae3565b6020808252810161076a81614fe8565b602a81526000602082017f4552433732313a2062616c616e636520717565727920666f7220746865207a65815269726f206164647265737360b01b60208201529150614ae3565b6020808252810161076a8161503e565b6000825b9250828210156150ab576150ab614ee9565b500390565b602381526000602082017f43616e6e6f742067696674204e465420746f20746865207a65726f206164647281526265737360e81b60208201529150614ae3565b6020808252810161076a816150b0565b605c81526000602082017f596f7520616c7265616479206861766520666967687465727320696e20796f7581527f72204261727261636b732120456e74657220746865204172656e6120616e642060208201527f6561726e20796f757273656c66206d6f72652046696768746572732100000000604082015291505b5060600190565b6020808252810161076a81615100565b603281526000602082017f596f752073656e7420696e73756666696369656e742045544820666f7220666f8152717267696e67207468697320776561706f6e2160701b60208201529150614ae3565b6020808252810161076a81615193565b60006151fc825190565b61520a81856020860161400c565b9290920192915050565b6000815461522181614a77565b600182168015615238576001811461524957615279565b60ff19831686528186019350615279565b60008581526020902060005b8381101561527157815488820152600190910190602001615255565b838801955050505b50505092915050565b7f7b2274726169745f74797065223a20224c75636b222c202276616c7565223a2081526000614be0565b737b226e616d65223a20225b46696768746572202360601b815260140160006152d5828d6151f2565b6302e9016960e51b815260040191506152ee828c6151f2565b640103a3432960dd1b81526005019150615308828b615214565b7f222c20226465736372697074696f6e223a202254686973204e4654207265707281527f6573656e747320612043727970746f4172656e61332e3020466967687465722160208201526c1116101134b6b0b3b2911d101160991b6040820152604d019150615376828a615214565b7f222c202261747472696275746573223a205b7b2274726169745f74797065223a815272010113632bb32b6111610113b30b63ab2911d1606d1b602082015260330191506153c482896151f2565b611f4b60f21b81527f7b2274726169745f74797065223a20224865616c746820506f696e7473222c206002820152680113b30b63ab2911d160bd1b6022820152602b01915061541382886151f2565b611f4b60f21b81527f7b2274726169745f74797065223a2022537472656e677468222c202276616c75600282015263032911d160e51b6022820152602601915061545d82876151f2565b611f4b60f21b81527f7b2274726169745f74797065223a20224167696c697479222c202276616c75656002820152620111d160ed1b602282015260250191506154a682866151f2565b611f4b60f21b815260020191506154bc82615282565b91506154c882856151f2565b611f4b60f21b81527f7b2274726169745f74797065223a2022446578746572697479222c202276616c60028201526403ab2911d160dd1b6022820152602701915061551382846151f2565b627d5d7d60e81b81526003019c9b505050505050505050505050565b7f646174613a6170706c69636174696f6e2f6a736f6e3b6261736536342c0000008152601d01600061270d82846151f2565b602681526000602082017f596f752073656e7420696e73756666696369656e742045544820666f7220466981526567687465722160d01b60208201529150614ae3565b6020808252810161076a81615561565b603981526000602082017f596f7520646f206e6f74206861766520616e7920617661696c61626c6520707581527f70696c732120466967687420746f206561726e206d6f7265210000000000000060208201529150614ae3565b6020808252810161076a816155b4565b602681526000602082017f4f776e61626c653a206e6577206f776e657220697320746865207a65726f206181526564647265737360d01b60208201529150614ae3565b6020808252810161076a8161561e565b604d81526000602082017f596f7520646f206e6f74206861766520656e6f75676820617661696c61626c6581527f207370656e6461626c6520706f696e747320696e206f7264657220746f20646f60208201526c207468697320616374696f6e2160981b6040820152915061517c565b6020808252810161076a81615671565b6000821982111561570457615704614ee9565b500190565b600063ffffffff8216915063ffffffff831692508163ffffffff048311821515161561573757615737614ee9565b500290565b600063ffffffff8216915063ffffffff8316615099565b602c81526000602082017f4552433732313a206f70657261746f7220717565727920666f72206e6f6e657881526b34b9ba32b73a103a37b5b2b760a11b60208201529150614ae3565b6020808252810161076a81615753565b602581526000602082017f4552433732313a207472616e736665722066726f6d20696e636f72726563742081526437bbb732b960d91b60208201529150614ae3565b6020808252810161076a816157ac565b602481526000602082017f4552433732313a207472616e7366657220746f20746865207a65726f206164648152637265737360e01b60208201529150614ae3565b6020808252810161076a816157fe565b600081600019048311821515161561573757615737614ee9565b634e487b7160e01b600052601260045260246000fd5b60008261588e5761588e615869565b500490565b601981526000602082017f4552433732313a20617070726f766520746f2063616c6c65720000000000000081529150614be0565b6020808252810161076a81615893565b603281526000602082017f546865206e616d6520796f7520696e73657274656420666f7220796f7572204681527169676874657220697320696e76616c69642160701b60208201529150614ae3565b6020808252810161076a816158d7565b603381526000602082017f54686520636c61737320796f7520696e73657274656420666f7220796f7572208152724669676874657220697320696e76616c69642160681b60208201529150614ae3565b6020808252810161076a81615936565b603781526000602082017f546865206e616d6520796f7520696e73657274656420666f7220796f7572204681527f69676874657220697320616c726561647920757365642100000000000000000060208201529150614ae3565b6020808252810161076a81615996565b603281526000602082017f546865206c6576656c20796f7520696e73657274656420666f7220796f757220815271576561706f6e20697320696e76616c69642160701b60208201529150614ae3565b6020808252810161076a81615a00565b603181526000602082017f546865207479706520796f7520696e73657274656420666f7220796f757220578152706561706f6e20697320696e76616c69642160781b60208201529150614ae3565b6020808252810161076a81615a5f565b603281526000602082017f4552433732313a207472616e7366657220746f206e6f6e20455243373231526581527131b2b4bb32b91034b6b83632b6b2b73a32b960711b60208201529150614ae3565b6020808252810161076a81615abd565b6000825b925082615b2f57615b2f615869565b500690565b600061ffff8216915061ffff8316615099565b600061ffff8216915061ffff831692508261ffff0382111561570457615704614ee9565b600063ffffffff8216915063ffffffff831692508263ffffffff0382111561570457615704614ee9565b600061ffff821661076a565b613ff881615b95565b60408101615bb88285615ba1565b61270d6020830184613ff4565b60408101615bb882856141f0565b600061270d82846151f2565b60808101615bed82876140be565b615bfa60208301866140be565b615c0760408301856142ce565b81810360608301526128de8184614038565b805161076a81613fb1565b600060208284031215615c3957615c39600080fd5b600061212d8484615c19565b600061076a8260601b90565b600061076a82615c45565b613ff8615c68826140ad565b615c51565b6000615c7982866142ce565b602082019150615c898285615c5c565b601482019150615c9982846142ce565b506020019392505050565b600063ffffffff8216915063ffffffff8316615b20565b60208082527f4552433732313a206d696e7420746f20746865207a65726f206164647265737391019081526000614be0565b6020808252810161076a81615cbb56fe4142434445464748494a4b4c4d4e4f505152535455565758595a6162636465666768696a6b6c6d6e6f707172737475767778797a303132333435363738392b2fa26469706673582212203b6a2c1522a89b7175a27320583c331a738e0f8f2fc4d22976087e3cdf09d5a764736f6c634300080a0033",
  "linkReferences": {},
  "deployedLinkReferences": {}
}