{
  "_format": "hh-sol-artifact-1",
  "contractName": "Arena",
  "sourceName": "contracts/Arena.sol",
  "abi": [
    {
      "anonymous": false,
      "inputs": [
        {
          "indexed": true,
          "internalType": "uint256",
          "name": "attackerId",
          "type": "uint256"
        },
        {
          "indexed": true,
          "internalType": "uint256",
          "name": "targetId",
          "type": "uint256"
        },
        {
          "indexed": false,
          "internalType": "uint16",
          "name": "damage",
          "type": "uint16"
        },
        {
          "indexed": false,
          "internalType": "bool",
          "name": "wasCritical",
          "type": "bool"
        }
      ],
      "name": "ArenaEvent",
      "type": "event"
    },
    {
      "anonymous": false,
      "inputs": [
        {
          "indexed": true,
          "internalType": "address",
          "name": "previousOwner",
          "type": "address"
        },
        {
          "indexed": true,
          "internalType": "address",
          "name": "newOwner",
          "type": "address"
        }
      ],
      "name": "OwnershipTransferred",
      "type": "event"
    },
    {
      "anonymous": false,
      "inputs": [
        {
          "indexed": false,
          "internalType": "bool",
          "name": "youWon",
          "type": "bool"
        }
      ],
      "name": "WhoWon",
      "type": "event"
    },
    {
      "inputs": [],
      "name": "_collectMerchantBalance",
      "outputs": [],
      "stateMutability": "nonpayable",
      "type": "function"
    },
    {
      "inputs": [
        {
          "internalType": "uint32",
          "name": "_level",
          "type": "uint32"
        },
        {
          "internalType": "enum WeaponTier",
          "name": "_tier",
          "type": "uint8"
        }
      ],
      "name": "_computeWeaponPrice",
      "outputs": [
        {
          "internalType": "uint256",
          "name": "",
          "type": "uint256"
        }
      ],
      "stateMutability": "view",
      "type": "function"
    },
    {
      "inputs": [
        {
          "internalType": "string",
          "name": "_name",
          "type": "string"
        },
        {
          "internalType": "enum FighterClass",
          "name": "_class",
          "type": "uint8"
        }
      ],
      "name": "_createFirstFighter",
      "outputs": [],
      "stateMutability": "nonpayable",
      "type": "function"
    },
    {
      "inputs": [],
      "name": "_getFightersCount",
      "outputs": [
        {
          "internalType": "uint256",
          "name": "",
          "type": "uint256"
        }
      ],
      "stateMutability": "view",
      "type": "function"
    },
    {
      "inputs": [
        {
          "internalType": "uint256",
          "name": "latest",
          "type": "uint256"
        }
      ],
      "name": "_getLatestFighters",
      "outputs": [
        {
          "components": [
            {
              "internalType": "address",
              "name": "owner",
              "type": "address"
            },
            {
              "components": [
                {
                  "internalType": "uint16",
                  "name": "winCount",
                  "type": "uint16"
                },
                {
                  "internalType": "uint16",
                  "name": "lossCount",
                  "type": "uint16"
                },
                {
                  "internalType": "uint16",
                  "name": "HP",
                  "type": "uint16"
                },
                {
                  "internalType": "uint16",
                  "name": "strength",
                  "type": "uint16"
                },
                {
                  "internalType": "uint16",
                  "name": "agility",
                  "type": "uint16"
                },
                {
                  "internalType": "uint16",
                  "name": "dexterity",
                  "type": "uint16"
                },
                {
                  "internalType": "uint16",
                  "name": "luck",
                  "type": "uint16"
                },
                {
                  "internalType": "uint16",
                  "name": "currentXP",
                  "type": "uint16"
                },
                {
                  "internalType": "uint16",
                  "name": "levelUpXP",
                  "type": "uint16"
                },
                {
                  "internalType": "uint16",
                  "name": "spendablePoints",
                  "type": "uint16"
                },
                {
                  "internalType": "uint32",
                  "name": "level",
                  "type": "uint32"
                },
                {
                  "internalType": "uint32",
                  "name": "readyTime",
                  "type": "uint32"
                },
                {
                  "internalType": "enum FighterClass",
                  "name": "class",
                  "type": "uint8"
                },
                {
                  "internalType": "string",
                  "name": "name",
                  "type": "string"
                }
              ],
              "internalType": "struct FighterFactory.Fighter",
              "name": "fighter",
              "type": "tuple"
            },
            {
              "internalType": "uint256",
              "name": "id",
              "type": "uint256"
            }
          ],
          "internalType": "struct FighterFactory.FighterDTO[]",
          "name": "",
          "type": "tuple[]"
        }
      ],
      "stateMutability": "view",
      "type": "function"
    },
    {
      "inputs": [],
      "name": "_getMyAvailablePupils",
      "outputs": [
        {
          "internalType": "uint256",
          "name": "",
          "type": "uint256"
        }
      ],
      "stateMutability": "view",
      "type": "function"
    },
    {
      "inputs": [
        {
          "internalType": "address",
          "name": "_owner",
          "type": "address"
        }
      ],
      "name": "_getUserFighters",
      "outputs": [
        {
          "components": [
            {
              "components": [
                {
                  "internalType": "uint16",
                  "name": "winCount",
                  "type": "uint16"
                },
                {
                  "internalType": "uint16",
                  "name": "lossCount",
                  "type": "uint16"
                },
                {
                  "internalType": "uint16",
                  "name": "HP",
                  "type": "uint16"
                },
                {
                  "internalType": "uint16",
                  "name": "strength",
                  "type": "uint16"
                },
                {
                  "internalType": "uint16",
                  "name": "agility",
                  "type": "uint16"
                },
                {
                  "internalType": "uint16",
                  "name": "dexterity",
                  "type": "uint16"
                },
                {
                  "internalType": "uint16",
                  "name": "luck",
                  "type": "uint16"
                },
                {
                  "internalType": "uint16",
                  "name": "currentXP",
                  "type": "uint16"
                },
                {
                  "internalType": "uint16",
                  "name": "levelUpXP",
                  "type": "uint16"
                },
                {
                  "internalType": "uint16",
                  "name": "spendablePoints",
                  "type": "uint16"
                },
                {
                  "internalType": "uint32",
                  "name": "level",
                  "type": "uint32"
                },
                {
                  "internalType": "uint32",
                  "name": "readyTime",
                  "type": "uint32"
                },
                {
                  "internalType": "enum FighterClass",
                  "name": "class",
                  "type": "uint8"
                },
                {
                  "internalType": "string",
                  "name": "name",
                  "type": "string"
                }
              ],
              "internalType": "struct FighterFactory.Fighter",
              "name": "fighter",
              "type": "tuple"
            },
            {
              "internalType": "uint256",
              "name": "id",
              "type": "uint256"
            }
          ],
          "internalType": "struct FighterFactory.FighterBarracksDTO[]",
          "name": "",
          "type": "tuple[]"
        }
      ],
      "stateMutability": "view",
      "type": "function"
    },
    {
      "inputs": [
        {
          "internalType": "address",
          "name": "_owner",
          "type": "address"
        }
      ],
      "name": "_getUserWeapons",
      "outputs": [
        {
          "components": [
            {
              "components": [
                {
                  "internalType": "uint32",
                  "name": "levelReq",
                  "type": "uint32"
                },
                {
                  "internalType": "uint32",
                  "name": "damage",
                  "type": "uint32"
                },
                {
                  "internalType": "uint16",
                  "name": "skillReq",
                  "type": "uint16"
                },
                {
                  "internalType": "enum WeaponType",
                  "name": "weapType",
                  "type": "uint8"
                },
                {
                  "internalType": "enum WeaponTier",
                  "name": "tier",
                  "type": "uint8"
                }
              ],
              "internalType": "struct WeaponFactory.Weapon",
              "name": "weapon",
              "type": "tuple"
            },
            {
              "internalType": "uint256",
              "name": "id",
              "type": "uint256"
            }
          ],
          "internalType": "struct WeaponFactory.WeaponDTO[]",
          "name": "",
          "type": "tuple[]"
        }
      ],
      "stateMutability": "view",
      "type": "function"
    },
    {
      "inputs": [
        {
          "internalType": "uint256",
          "name": "id",
          "type": "uint256"
        }
      ],
      "name": "_getWeaponByFighterId",
      "outputs": [
        {
          "components": [
            {
              "components": [
                {
                  "internalType": "uint32",
                  "name": "levelReq",
                  "type": "uint32"
                },
                {
                  "internalType": "uint32",
                  "name": "damage",
                  "type": "uint32"
                },
                {
                  "internalType": "uint16",
                  "name": "skillReq",
                  "type": "uint16"
                },
                {
                  "internalType": "enum WeaponType",
                  "name": "weapType",
                  "type": "uint8"
                },
                {
                  "internalType": "enum WeaponTier",
                  "name": "tier",
                  "type": "uint8"
                }
              ],
              "internalType": "struct WeaponFactory.Weapon",
              "name": "weapon",
              "type": "tuple"
            },
            {
              "internalType": "uint256",
              "name": "id",
              "type": "uint256"
            }
          ],
          "internalType": "struct WeaponFactory.WeaponDTO[]",
          "name": "",
          "type": "tuple[]"
        }
      ],
      "stateMutability": "view",
      "type": "function"
    },
    {
      "inputs": [
        {
          "internalType": "uint32",
          "name": "_level",
          "type": "uint32"
        },
        {
          "internalType": "enum WeaponType",
          "name": "_type",
          "type": "uint8"
        },
        {
          "internalType": "enum WeaponTier",
          "name": "_tier",
          "type": "uint8"
        }
      ],
      "name": "_purchaseWeapon",
      "outputs": [],
      "stateMutability": "payable",
      "type": "function"
    },
    {
      "inputs": [
        {
          "internalType": "uint256",
          "name": "_fighterId",
          "type": "uint256"
        },
        {
          "internalType": "uint16",
          "name": "_STR",
          "type": "uint16"
        },
        {
          "internalType": "uint16",
          "name": "_AGL",
          "type": "uint16"
        },
        {
          "internalType": "uint16",
          "name": "_LCK",
          "type": "uint16"
        },
        {
          "internalType": "uint16",
          "name": "_DEX",
          "type": "uint16"
        }
      ],
      "name": "_spendAvailablePoints",
      "outputs": [],
      "stateMutability": "nonpayable",
      "type": "function"
    },
    {
      "inputs": [
        {
          "internalType": "uint256",
          "name": "_myFighterId",
          "type": "uint256"
        },
        {
          "internalType": "bool",
          "name": "_hasOwnerWeapon",
          "type": "bool"
        },
        {
          "internalType": "uint256",
          "name": "_myWeaponId",
          "type": "uint256"
        },
        {
          "internalType": "uint256",
          "name": "_targetFighterId",
          "type": "uint256"
        },
        {
          "internalType": "bool",
          "name": "_hasTargetWeapon",
          "type": "bool"
        },
        {
          "internalType": "uint256",
          "name": "_targetWeaponId",
          "type": "uint256"
        }
      ],
      "name": "attack",
      "outputs": [],
      "stateMutability": "nonpayable",
      "type": "function"
    },
    {
      "inputs": [
        {
          "internalType": "address",
          "name": "_owner",
          "type": "address"
        }
      ],
      "name": "fetchAvailablePupils",
      "outputs": [
        {
          "internalType": "uint16",
          "name": "",
          "type": "uint16"
        }
      ],
      "stateMutability": "view",
      "type": "function"
    },
    {
      "inputs": [],
      "name": "owner",
      "outputs": [
        {
          "internalType": "address",
          "name": "",
          "type": "address"
        }
      ],
      "stateMutability": "view",
      "type": "function"
    },
    {
      "inputs": [
        {
          "internalType": "string",
          "name": "_name",
          "type": "string"
        },
        {
          "internalType": "enum FighterClass",
          "name": "_class",
          "type": "uint8"
        }
      ],
      "name": "redeemAvailablePupil",
      "outputs": [],
      "stateMutability": "nonpayable",
      "type": "function"
    },
    {
      "inputs": [],
      "name": "renounceOwnership",
      "outputs": [],
      "stateMutability": "nonpayable",
      "type": "function"
    },
    {
      "inputs": [
        {
          "internalType": "address",
          "name": "newOwner",
          "type": "address"
        }
      ],
      "name": "transferOwnership",
      "outputs": [],
      "stateMutability": "nonpayable",
      "type": "function"
    },
    {
      "stateMutability": "payable",
      "type": "receive"
    }
  ],
  "bytecode": "0x6080604052603c6001556602aa1efb94e0006009556601c6bf52634000600a556605543df729c000600b55660aa87bee538000600c556000600d55600f600e60006101000a81548163ffffffff021916908363ffffffff1602179055503480156200006957600080fd5b506200008a6200007e6200009060201b60201c565b6200009860201b60201c565b6200015c565b600033905090565b60008060009054906101000a900473ffffffffffffffffffffffffffffffffffffffff169050816000806101000a81548173ffffffffffffffffffffffffffffffffffffffff021916908373ffffffffffffffffffffffffffffffffffffffff1602179055508173ffffffffffffffffffffffffffffffffffffffff168173ffffffffffffffffffffffffffffffffffffffff167f8be0079c531659141344cd1fd0a4f28419497f9722a3daafe3b4186f6b6457e060405160405180910390a35050565b615a40806200016c6000396000f3fe6080604052600436106101025760003560e01c8063b67340b511610095578063ea96525511610064578063ea9652551461030b578063ecfa934814610348578063f2fde38b14610385578063f9d7f171146103ae578063fbba44c6146103eb57610109565b8063b67340b514610270578063cb74c2a81461028c578063d5f5da3b146102b7578063dc932676146102e057610109565b80638da5cb5b116100d15780638da5cb5b146101a2578063927eeddc146101cd5780639b1f87e81461020a578063adec464a1461024757610109565b806313c1bce11461010e578063208ea929146101375780636c691ab914610174578063715018a61461018b57610109565b3661010957005b600080fd5b34801561011a57600080fd5b5061013560048036038101906101309190613e76565b610414565b005b34801561014357600080fd5b5061015e60048036038101906101599190613f61565b610f5d565b60405161016b91906141de565b60405180910390f35b34801561018057600080fd5b5061018961120e565b005b34801561019757600080fd5b506101a06112da565b005b3480156101ae57600080fd5b506101b7611362565b6040516101c4919061420f565b60405180910390f35b3480156101d957600080fd5b506101f460048036038101906101ef9190613f61565b61138b565b6040516102019190614239565b60405180910390f35b34801561021657600080fd5b50610231600480360381019061022c9190614254565b6113e2565b60405161023e91906145b1565b60405180910390f35b34801561025357600080fd5b5061026e6004803603810190610269919061465d565b6117f5565b005b61028a60048036038101906102859190614733565b6118f0565b005b34801561029857600080fd5b506102a16119ce565b6040516102ae9190614795565b60405180910390f35b3480156102c357600080fd5b506102de60048036038101906102d9919061465d565b6119db565b005b3480156102ec57600080fd5b506102f5611a8b565b6040516103029190614795565b60405180910390f35b34801561031757600080fd5b50610332600480360381019061032d91906147b0565b611aeb565b60405161033f9190614795565b60405180910390f35b34801561035457600080fd5b5061036f600480360381019061036a9190614254565b611bbd565b60405161037c91906141de565b60405180910390f35b34801561039157600080fd5b506103ac60048036038101906103a79190613f61565b611c02565b005b3480156103ba57600080fd5b506103d560048036038101906103d09190613f61565b611cfa565b6040516103e291906148ef565b60405180910390f35b3480156103f757600080fd5b50610412600480360381019061040d919061493d565b612127565b005b856003600082815260200190815260200160002060009054906101000a900473ffffffffffffffffffffffffffffffffffffffff1673ffffffffffffffffffffffffffffffffffffffff16610467612410565b73ffffffffffffffffffffffffffffffffffffffff16146104bd576040517f08c379a00000000000000000000000000000000000000000000000000000000081526004016104b490614a3b565b60405180910390fd5b836104c6612410565b73ffffffffffffffffffffffffffffffffffffffff166003600083815260200190815260200160002060009054906101000a900473ffffffffffffffffffffffffffffffffffffffff1673ffffffffffffffffffffffffffffffffffffffff161415610567576040517f08c379a000000000000000000000000000000000000000000000000000000000815260040161055e90614acd565b60405180910390fd5b60006002898154811061057d5761057c614aed565b5b90600052602060002090600202019050428160000160189054906101000a900463ffffffff1663ffffffff1611156105ea576040517f08c379a00000000000000000000000000000000000000000000000000000000081526004016105e190614b8e565b60405180910390fd5b6105f381612418565b6000600e60009054906101000a900463ffffffff1690508815610a3b576007600089815260200190815260200160002060009054906101000a900473ffffffffffffffffffffffffffffffffffffffff1673ffffffffffffffffffffffffffffffffffffffff16610662612410565b73ffffffffffffffffffffffffffffffffffffffff16146106b8576040517f08c379a00000000000000000000000000000000000000000000000000000000081526004016106af90614c20565b60405180910390fd5b6000600689815481106106ce576106cd614aed565b5b906000526020600020016040518060a00160405290816000820160009054906101000a900463ffffffff1663ffffffff1663ffffffff1681526020016000820160049054906101000a900463ffffffff1663ffffffff1663ffffffff1681526020016000820160089054906101000a900461ffff1661ffff1661ffff16815260200160008201600a9054906101000a900460ff16600181111561077457610773613ff6565b5b600181111561078657610785613ff6565b5b815260200160008201600b9054906101000a900460ff1660028111156107af576107ae613ff6565b5b60028111156107c1576107c0613ff6565b5b815250509050806000015163ffffffff168360000160149054906101000a900463ffffffff1663ffffffff16101561082e576040517f08c379a000000000000000000000000000000000000000000000000000000000815260040161082590614cb2565b60405180910390fd5b6000600181111561084257610841613ff6565b5b8160600151600181111561085957610858613ff6565b5b14156108c557806040015161ffff168360000160089054906101000a900461ffff1661ffff1610156108c0576040517f08c379a00000000000000000000000000000000000000000000000000000000081526004016108b790614d44565b60405180910390fd5b610927565b806040015161ffff168360000160069054906101000a900461ffff1661ffff161015610926576040517f08c379a000000000000000000000000000000000000000000000000000000000815260040161091d90614dd6565b60405180910390fd5b5b6001600281111561093b5761093a613ff6565b5b83600001601c9054906101000a900460ff16600281111561095f5761095e613ff6565b5b14801561099457506000600181111561097b5761097a613ff6565b5b8160600151600181111561099257610991613ff6565b5b145b80610a075750600060028111156109ae576109ad613ff6565b5b83600001601c9054906101000a900460ff1660028111156109d2576109d1613ff6565b5b148015610a0657506001808111156109ed576109ec613ff6565b5b81606001516001811115610a0457610a03613ff6565b5b145b5b15610a3157610a2a6002826020015163ffffffff1661244b90919063ffffffff16565b9150610a39565b806020015191505b505b600060028881548110610a5157610a50614aed565b5b906000526020600020906002020190506000600e60009054906101000a900463ffffffff1690508715610ed5576007600088815260200190815260200160002060009054906101000a900473ffffffffffffffffffffffffffffffffffffffff1673ffffffffffffffffffffffffffffffffffffffff16600360008b815260200190815260200160002060009054906101000a900473ffffffffffffffffffffffffffffffffffffffff1673ffffffffffffffffffffffffffffffffffffffff1614610b52576040517f08c379a0000000000000000000000000000000000000000000000000000000008152600401610b4990614c20565b60405180910390fd5b600060068881548110610b6857610b67614aed565b5b906000526020600020016040518060a00160405290816000820160009054906101000a900463ffffffff1663ffffffff1663ffffffff1681526020016000820160049054906101000a900463ffffffff1663ffffffff1663ffffffff1681526020016000820160089054906101000a900461ffff1661ffff1661ffff16815260200160008201600a9054906101000a900460ff166001811115610c0e57610c0d613ff6565b5b6001811115610c2057610c1f613ff6565b5b815260200160008201600b9054906101000a900460ff166002811115610c4957610c48613ff6565b5b6002811115610c5b57610c5a613ff6565b5b815250509050806000015163ffffffff168360000160149054906101000a900463ffffffff1663ffffffff161015610cc8576040517f08c379a0000000000000000000000000000000000000000000000000000000008152600401610cbf90614cb2565b60405180910390fd5b60006001811115610cdc57610cdb613ff6565b5b81606001516001811115610cf357610cf2613ff6565b5b1415610d5f57806040015161ffff168360000160089054906101000a900461ffff1661ffff161015610d5a576040517f08c379a0000000000000000000000000000000000000000000000000000000008152600401610d5190614d44565b60405180910390fd5b610dc1565b806040015161ffff168360000160069054906101000a900461ffff1661ffff161015610dc0576040517f08c379a0000000000000000000000000000000000000000000000000000000008152600401610db790614dd6565b60405180910390fd5b5b60016002811115610dd557610dd4613ff6565b5b83600001601c9054906101000a900460ff166002811115610df957610df8613ff6565b5b148015610e2e575060006001811115610e1557610e14613ff6565b5b81606001516001811115610e2c57610e2b613ff6565b5b145b80610ea1575060006002811115610e4857610e47613ff6565b5b83600001601c9054906101000a900460ff166002811115610e6c57610e6b613ff6565b5b148015610ea05750600180811115610e8757610e86613ff6565b5b81606001516001811115610e9e57610e9d613ff6565b5b145b5b15610ecb57610ec46002826020015163ffffffff1661244b90919063ffffffff16565b9350610ed3565b806020015193505b505b6000610ee58d86868d8787612461565b90508015610f0457610ef68d612713565b610eff8a61280b565b610f17565b610f0d8d61280b565b610f168a612713565b5b7fbf30fbcd321ef240818144cebd3d57345fa6d5d053a6778754a84a8478272f3281604051610f469190614e05565b60405180910390a150505050505050505050505050565b60606000600860008473ffffffffffffffffffffffffffffffffffffffff1673ffffffffffffffffffffffffffffffffffffffff16815260200190815260200160002054905060008167ffffffffffffffff811115610fbf57610fbe614e20565b5b604051908082528060200260200182016040528015610ff857816020015b610fe5613bc6565b815260200190600190039081610fdd5790505b509050600082141561100e578092505050611209565b6000805b600680549050811015611201578573ffffffffffffffffffffffffffffffffffffffff166007600083815260200190815260200160002060009054906101000a900473ffffffffffffffffffffffffffffffffffffffff1673ffffffffffffffffffffffffffffffffffffffff1614156111ee576040518060400160405280600683815481106110a5576110a4614aed565b5b906000526020600020016040518060a00160405290816000820160009054906101000a900463ffffffff1663ffffffff1663ffffffff1681526020016000820160049054906101000a900463ffffffff1663ffffffff1663ffffffff1681526020016000820160089054906101000a900461ffff1661ffff1661ffff16815260200160008201600a9054906101000a900460ff16600181111561114b5761114a613ff6565b5b600181111561115d5761115c613ff6565b5b815260200160008201600b9054906101000a900460ff16600281111561118657611185613ff6565b5b600281111561119857611197613ff6565b5b815250508152602001828152508383815181106111b8576111b7614aed565b5b602002602001018190525081806111ce90614e7e565b92505083806111dc90614ec7565b94505060008414156111ed57611201565b5b80806111f990614e7e565b915050611012565b508193505050505b919050565b611216612410565b73ffffffffffffffffffffffffffffffffffffffff16611234611362565b73ffffffffffffffffffffffffffffffffffffffff161461128a576040517f08c379a000000000000000000000000000000000000000000000000000000000815260040161128190614f3d565b60405180910390fd5b611292612410565b73ffffffffffffffffffffffffffffffffffffffff166108fc479081150290604051600060405180830381858888f193505050501580156112d7573d6000803e3d6000fd5b50565b6112e2612410565b73ffffffffffffffffffffffffffffffffffffffff16611300611362565b73ffffffffffffffffffffffffffffffffffffffff1614611356576040517f08c379a000000000000000000000000000000000000000000000000000000000815260040161134d90614f3d565b60405180910390fd5b6113606000612903565b565b60008060009054906101000a900473ffffffffffffffffffffffffffffffffffffffff16905090565b6000600560008373ffffffffffffffffffffffffffffffffffffffff1673ffffffffffffffffffffffffffffffffffffffff16815260200190815260200160002060009054906101000a900461ffff169050919050565b6060600082101580156113fa57506002805490508211155b61140357600080fd5b60008214156114155760028054905091505b60008267ffffffffffffffff81111561143157611430614e20565b5b60405190808252806020026020018201604052801561146a57816020015b611457613be6565b81526020019060019003908161144f5790505b5090506000600280549050141561148457809150506117f0565b60008060016002805490506114999190614f5d565b90505b846002805490506114ad9190614f5d565b81106117e95760405180606001604052806003600084815260200190815260200160002060009054906101000a900473ffffffffffffffffffffffffffffffffffffffff1673ffffffffffffffffffffffffffffffffffffffff1681526020016002838154811061152157611520614aed565b5b9060005260206000209060020201604051806101c00160405290816000820160009054906101000a900461ffff1661ffff1661ffff1681526020016000820160029054906101000a900461ffff1661ffff1661ffff1681526020016000820160049054906101000a900461ffff1661ffff1661ffff1681526020016000820160069054906101000a900461ffff1661ffff1661ffff1681526020016000820160089054906101000a900461ffff1661ffff1661ffff16815260200160008201600a9054906101000a900461ffff1661ffff1661ffff16815260200160008201600c9054906101000a900461ffff1661ffff1661ffff16815260200160008201600e9054906101000a900461ffff1661ffff1661ffff1681526020016000820160109054906101000a900461ffff1661ffff1661ffff1681526020016000820160129054906101000a900461ffff1661ffff1661ffff1681526020016000820160149054906101000a900463ffffffff1663ffffffff1663ffffffff1681526020016000820160189054906101000a900463ffffffff1663ffffffff1663ffffffff16815260200160008201601c9054906101000a900460ff1660028111156116ec576116eb613ff6565b5b60028111156116fe576116fd613ff6565b5b815260200160018201805461171290614fc0565b80601f016020809104026020016040519081016040528092919081815260200182805461173e90614fc0565b801561178b5780601f106117605761010080835404028352916020019161178b565b820191906000526020600020905b81548152906001019060200180831161176e57829003601f168201915b5050505050815250508152602001828152508383815181106117b0576117af614aed565b5b602002602001018190525081806117c690614e7e565b925050848214156117d6576117e9565b80806117e190614ec7565b91505061149c565b5081925050505b919050565b600060046000611803612410565b73ffffffffffffffffffffffffffffffffffffffff1673ffffffffffffffffffffffffffffffffffffffff168152602001908152602001600020541461187e576040517f08c379a00000000000000000000000000000000000000000000000000000000081526004016118759061508a565b60405180910390fd5b6118898383836129c7565b600060056000611897612410565b73ffffffffffffffffffffffffffffffffffffffff1673ffffffffffffffffffffffffffffffffffffffff16815260200190815260200160002060006101000a81548161ffff021916908361ffff160217905550505050565b6118fa8382611aeb565b8034101561193d576040517f08c379a00000000000000000000000000000000000000000000000000000000081526004016119349061511c565b60405180910390fd5b60006119498584611aeb565b9050600081346119599190614f5d565b905060008111156119b35761196c612410565b73ffffffffffffffffffffffffffffffffffffffff166108fc829081150290604051600060405180830381858888f193505050501580156119b1573d6000803e3d6000fd5b505b6119c66119be612410565b87878761301d565b505050505050565b6000600280549050905090565b600161ffff16600560006119ed612410565b73ffffffffffffffffffffffffffffffffffffffff1673ffffffffffffffffffffffffffffffffffffffff16815260200190815260200160002060009054906101000a900461ffff1661ffff161015611a7b576040517f08c379a0000000000000000000000000000000000000000000000000000000008152600401611a72906151ae565b60405180910390fd5b611a868383836129c7565b505050565b600060056000611a99612410565b73ffffffffffffffffffffffffffffffffffffffff1673ffffffffffffffffffffffffffffffffffffffff16815260200190815260200160002060009054906101000a900461ffff1661ffff16905090565b600080611b098463ffffffff166009546134ba90919063ffffffff16565b9050600280811115611b1e57611b1d613ff6565b5b836002811115611b3157611b30613ff6565b5b1415611b5457611b4c600a54826134d090919063ffffffff16565b915050611bb7565b60006002811115611b6857611b67613ff6565b5b836002811115611b7b57611b7a613ff6565b5b1415611b9e57611b96600c54826134d090919063ffffffff16565b915050611bb7565b611bb3600b54826134d090919063ffffffff16565b9150505b92915050565b6060611bfb6003600084815260200190815260200160002060009054906101000a900473ffffffffffffffffffffffffffffffffffffffff16610f5d565b9050919050565b611c0a612410565b73ffffffffffffffffffffffffffffffffffffffff16611c28611362565b73ffffffffffffffffffffffffffffffffffffffff1614611c7e576040517f08c379a0000000000000000000000000000000000000000000000000000000008152600401611c7590614f3d565b60405180910390fd5b600073ffffffffffffffffffffffffffffffffffffffff168173ffffffffffffffffffffffffffffffffffffffff161415611cee576040517f08c379a0000000000000000000000000000000000000000000000000000000008152600401611ce590615240565b60405180910390fd5b611cf781612903565b50565b60606000600460008473ffffffffffffffffffffffffffffffffffffffff1673ffffffffffffffffffffffffffffffffffffffff16815260200190815260200160002054905060008167ffffffffffffffff811115611d5c57611d5b614e20565b5b604051908082528060200260200182016040528015611d9557816020015b611d82613c23565b815260200190600190039081611d7a5790505b5090506000821415611dab578092505050612122565b6000805b60028054905081101561211a578573ffffffffffffffffffffffffffffffffffffffff166003600083815260200190815260200160002060009054906101000a900473ffffffffffffffffffffffffffffffffffffffff1673ffffffffffffffffffffffffffffffffffffffff16141561210757604051806040016040528060028381548110611e4257611e41614aed565b5b9060005260206000209060020201604051806101c00160405290816000820160009054906101000a900461ffff1661ffff1661ffff1681526020016000820160029054906101000a900461ffff1661ffff1661ffff1681526020016000820160049054906101000a900461ffff1661ffff1661ffff1681526020016000820160069054906101000a900461ffff1661ffff1661ffff1681526020016000820160089054906101000a900461ffff1661ffff1661ffff16815260200160008201600a9054906101000a900461ffff1661ffff1661ffff16815260200160008201600c9054906101000a900461ffff1661ffff1661ffff16815260200160008201600e9054906101000a900461ffff1661ffff1661ffff1681526020016000820160109054906101000a900461ffff1661ffff1661ffff1681526020016000820160129054906101000a900461ffff1661ffff1661ffff1681526020016000820160149054906101000a900463ffffffff1663ffffffff1663ffffffff1681526020016000820160189054906101000a900463ffffffff1663ffffffff1663ffffffff16815260200160008201601c9054906101000a900460ff16600281111561200d5761200c613ff6565b5b600281111561201f5761201e613ff6565b5b815260200160018201805461203390614fc0565b80601f016020809104026020016040519081016040528092919081815260200182805461205f90614fc0565b80156120ac5780601f10612081576101008083540402835291602001916120ac565b820191906000526020600020905b81548152906001019060200180831161208f57829003601f168201915b5050505050815250508152602001828152508383815181106120d1576120d0614aed565b5b602002602001018190525081806120e790614e7e565b92505083806120f590614ec7565b94505060008414156121065761211a565b5b808061211290614e7e565b915050611daf565b508193505050505b919050565b846003600082815260200190815260200160002060009054906101000a900473ffffffffffffffffffffffffffffffffffffffff1673ffffffffffffffffffffffffffffffffffffffff1661217a612410565b73ffffffffffffffffffffffffffffffffffffffff16146121d0576040517f08c379a00000000000000000000000000000000000000000000000000000000081526004016121c790614a3b565b60405180910390fd5b6000600287815481106121e6576121e5614aed565b5b906000526020600020906002020190506000869050612212868261ffff166134e690919063ffffffff16565b905061222b858261ffff166134e690919063ffffffff16565b9050612244848261ffff166134e690919063ffffffff16565b90508160000160129054906101000a900461ffff1661ffff168161ffff1611156122a3576040517f08c379a000000000000000000000000000000000000000000000000000000000815260040161229a906152f8565b60405180910390fd5b6122cc818360000160129054906101000a900461ffff1661ffff166134fc90919063ffffffff16565b8260000160126101000a81548161ffff021916908361ffff160217905550612313878360000160069054906101000a900461ffff1661ffff166134e690919063ffffffff16565b8260000160066101000a81548161ffff021916908361ffff16021790555061235a868360000160089054906101000a900461ffff1661ffff166134e690919063ffffffff16565b8260000160086101000a81548161ffff021916908361ffff1602179055506123a18483600001600a9054906101000a900461ffff1661ffff166134e690919063ffffffff16565b82600001600a6101000a81548161ffff021916908361ffff1602179055506123e88583600001600c9054906101000a900461ffff1661ffff166134e690919063ffffffff16565b82600001600c6101000a81548161ffff021916908361ffff1602179055505050505050505050565b600033905090565b600154426124269190615318565b8160000160186101000a81548163ffffffff021916908363ffffffff16021790555050565b60008183612459919061536e565b905092915050565b6000808660000160049054906101000a900461ffff1661ffff1690506002808111156124905761248f613ff6565b5b87600001601c9054906101000a900460ff1660028111156124b4576124b3613ff6565b5b1415612525576124d460198263ffffffff1661351290919063ffffffff16565b9050600061250660058960000160149054906101000a900463ffffffff1663ffffffff1661244b90919063ffffffff16565b9050612521818363ffffffff1661351290919063ffffffff16565b9150505b60008460000160049054906101000a900461ffff1661ffff16905060028081111561255357612552613ff6565b5b85600001601c9054906101000a900460ff16600281111561257757612576613ff6565b5b14156125e85761259760198263ffffffff1661351290919063ffffffff16565b905060006125c960058a60000160149054906101000a900463ffffffff1663ffffffff1661244b90919063ffffffff16565b90506125e4818363ffffffff1661351290919063ffffffff16565b9150505b60005b6001156126d75761262b8a898b600001600c9054906101000a900461ffff16612612612410565b8b8b600001600a9054906101000a900461ffff16613528565b90508061ffff1663ffffffff168263ffffffff16116126505760019350505050612709565b8061ffff168261266091906153ac565b915061269b878688600001600c9054906101000a900461ffff16612682612410565b8e8e600001600a9054906101000a900461ffff16613528565b90508061ffff1663ffffffff168363ffffffff16116126c05760009350505050612709565b8061ffff16836126d091906153ac565b92506125eb565b60008363ffffffff161115806126f4575060008263ffffffff1611155b612701576127006153e0565b5b600093505050505b9695505050505050565b60006002828154811061272957612728614aed565b5b9060005260206000209060020201905061276360018260000160009054906101000a900461ffff1661ffff166134e690919063ffffffff16565b8160000160006101000a81548161ffff021916908361ffff1602179055506127ab602882600001600e9054906101000a900461ffff1661ffff166134e690919063ffffffff16565b81600001600e6101000a81548161ffff021916908361ffff1602179055508060000160109054906101000a900461ffff1661ffff1681600001600e9054906101000a900461ffff1661ffff161061280757612806818361364d565b5b5050565b60006002828154811061282157612820614aed565b5b9060005260206000209060020201905061285b60018260000160029054906101000a900461ffff1661ffff166134e690919063ffffffff16565b8160000160026101000a81548161ffff021916908361ffff1602179055506128a3601982600001600e9054906101000a900461ffff1661ffff166134e690919063ffffffff16565b81600001600e6101000a81548161ffff021916908361ffff1602179055508060000160109054906101000a900461ffff1661ffff1681600001600e9054906101000a900461ffff1661ffff16106128ff576128fe818361364d565b5b5050565b60008060009054906101000a900473ffffffffffffffffffffffffffffffffffffffff169050816000806101000a81548173ffffffffffffffffffffffffffffffffffffffff021916908373ffffffffffffffffffffffffffffffffffffffff1602179055508173ffffffffffffffffffffffffffffffffffffffff168173ffffffffffffffffffffffffffffffffffffffff167f8be0079c531659141344cd1fd0a4f28419497f9722a3daafe3b4186f6b6457e060405160405180910390a35050565b82826000828290501415612a10576040517f08c379a0000000000000000000000000000000000000000000000000000000008152600401612a0790615481565b60405180910390fd5b8260006002811115612a2557612a24613ff6565b5b816002811115612a3857612a37613ff6565b5b1480612a68575060016002811115612a5357612a52613ff6565b5b816002811115612a6657612a65613ff6565b5b145b80612a965750600280811115612a8157612a80613ff6565b5b816002811115612a9457612a93613ff6565b5b145b612ad5576040517f08c379a0000000000000000000000000000000000000000000000000000000008152600401612acc90615513565b60405180910390fd5b85858080601f016020809104026020016040519081016040528093929190818152602001838380828437600081840152601f19601f820116905080830192505050505050506000612b2c612b27612410565b611cfa565b90506000805b8251811015612b8957612b68838281518110612b5157612b50614aed565b5b6020026020010151600001516101a00151856138e5565b15612b765760019150612b89565b8080612b8190614e7e565b915050612b32565b508015612bcb576040517f08c379a0000000000000000000000000000000000000000000000000000000008152600401612bc2906155a5565b60405180910390fd5b6002604051806101c00160405280600061ffff168152602001600061ffff168152602001606461ffff168152602001600161ffff168152602001600161ffff168152602001600161ffff168152602001600161ffff168152602001600061ffff168152602001606461ffff168152602001600061ffff168152602001600163ffffffff168152602001612c69600154426134d090919063ffffffff16565b63ffffffff168152602001896002811115612c8757612c86613ff6565b5b81526020018b8b8080601f016020809104026020016040519081016040528093929190818152602001838380828437600081840152601f19601f82011690508083019250505050505050815250908060018154018082558091505060019003906000526020600020906002020160009091909190915060008201518160000160006101000a81548161ffff021916908361ffff16021790555060208201518160000160026101000a81548161ffff021916908361ffff16021790555060408201518160000160046101000a81548161ffff021916908361ffff16021790555060608201518160000160066101000a81548161ffff021916908361ffff16021790555060808201518160000160086101000a81548161ffff021916908361ffff16021790555060a082015181600001600a6101000a81548161ffff021916908361ffff16021790555060c082015181600001600c6101000a81548161ffff021916908361ffff16021790555060e082015181600001600e6101000a81548161ffff021916908361ffff1602179055506101008201518160000160106101000a81548161ffff021916908361ffff1602179055506101208201518160000160126101000a81548161ffff021916908361ffff1602179055506101408201518160000160146101000a81548163ffffffff021916908363ffffffff1602179055506101608201518160000160186101000a81548163ffffffff021916908363ffffffff16021790555061018082015181600001601c6101000a81548160ff02191690836002811115612ed957612ed8613ff6565b5b02179055506101a0820151816001019080519060200190612efb929190613c43565b50505060006001600280549050612f129190614f5d565b9050612f1c612410565b6003600083815260200190815260200160002060006101000a81548173ffffffffffffffffffffffffffffffffffffffff021916908373ffffffffffffffffffffffffffffffffffffffff160217905550612fc7600160046000612f7e612410565b73ffffffffffffffffffffffffffffffffffffffff1673ffffffffffffffffffffffffffffffffffffffff168152602001908152602001600020546134d090919063ffffffff16565b60046000612fd3612410565b73ffffffffffffffffffffffffffffffffffffffff1673ffffffffffffffffffffffffffffffffffffffff1681526020019081526020016000208190555050505050505050505050565b8260018163ffffffff161015613068576040517f08c379a000000000000000000000000000000000000000000000000000000000815260040161305f90615637565b60405180910390fd5b826000600181111561307d5761307c613ff6565b5b8160018111156130905761308f613ff6565b5b14806130bf57506001808111156130aa576130a9613ff6565b5b8160018111156130bd576130bc613ff6565b5b145b6130fe576040517f08c379a00000000000000000000000000000000000000000000000000000000081526004016130f5906156c9565b60405180910390fd5b826000600281111561311357613112613ff6565b5b81600281111561312657613125613ff6565b5b148061315657506001600281111561314157613140613ff6565b5b81600281111561315457613153613ff6565b5b145b80613184575060028081111561316f5761316e613ff6565b5b81600281111561318257613181613ff6565b5b145b6131c3576040517f08c379a00000000000000000000000000000000000000000000000000000000081526004016131ba906156c9565b60405180910390fd5b60008060028111156131d8576131d7613ff6565b5b8560028111156131eb576131ea613ff6565b5b14156131f657600890505b6001600281111561320a57613209613ff6565b5b85600281111561321d5761321c613ff6565b5b141561322857600690505b60028081111561323b5761323a613ff6565b5b85600281111561324e5761324d613ff6565b5b141561325957600390505b60066040518060a001604052808963ffffffff16815260200161327c8a8961393e565b63ffffffff1681526020018361ffff1681526020018860018111156132a4576132a3613ff6565b5b81526020018760028111156132bc576132bb613ff6565b5b8152509080600181540180825580915050600190039060005260206000200160009091909190915060008201518160000160006101000a81548163ffffffff021916908363ffffffff16021790555060208201518160000160046101000a81548163ffffffff021916908363ffffffff16021790555060408201518160000160086101000a81548161ffff021916908361ffff160217905550606082015181600001600a6101000a81548160ff021916908360018111156133805761337f613ff6565b5b0217905550608082015181600001600b6101000a81548160ff021916908360028111156133b0576133af613ff6565b5b02179055505050876007600060016006805490506133ce9190614f5d565b815260200190815260200160002060006101000a81548173ffffffffffffffffffffffffffffffffffffffff021916908373ffffffffffffffffffffffffffffffffffffffff16021790555061346d6001600860008b73ffffffffffffffffffffffffffffffffffffffff1673ffffffffffffffffffffffffffffffffffffffff168152602001908152602001600020546134d090919063ffffffff16565b600860008a73ffffffffffffffffffffffffffffffffffffffff1673ffffffffffffffffffffffffffffffffffffffff168152602001908152602001600020819055505050505050505050565b600081836134c891906156e9565b905092915050565b600081836134de9190615318565b905092915050565b600081836134f49190615743565b905092915050565b6000818361350a919061577b565b905092915050565b6000818361352091906157af565b905092915050565b600061353484836139fe565b1561357e5782877fcce4f0668cb0ecd051f3e42f34aaff29f7fc1d9554bcf8d825cb4960f15a9e7760008060405161356d92919061582e565b60405180910390a360009050613643565b61358884866139fe565b156136035782877fcce4f0668cb0ecd051f3e42f34aaff29f7fc1d9554bcf8d825cb4960f15a9e776135ca60028a63ffffffff1661244b90919063ffffffff16565b60016040516135da929190615857565b60405180910390a36135fc60028763ffffffff1661244b90919063ffffffff16565b9050613643565b82877fcce4f0668cb0ecd051f3e42f34aaff29f7fc1d9554bcf8d825cb4960f15a9e77886000604051613637929190615857565b60405180910390a38590505b9695505050505050565b61367760648360000160109054906101000a900461ffff1661ffff166134e690919063ffffffff16565b8260000160106101000a81548161ffff021916908361ffff1602179055506136c360018360000160149054906101000a900463ffffffff1663ffffffff1661351290919063ffffffff16565b8260000160146101000a81548163ffffffff021916908363ffffffff16021790555061370f600a8360000160049054906101000a900461ffff1661ffff166134e690919063ffffffff16565b8260000160046101000a81548161ffff021916908361ffff16021790555061375760018360000160129054906101000a900461ffff1661ffff166134e690919063ffffffff16565b8260000160126101000a81548161ffff021916908361ffff16021790555060006137a5600a8460000160149054906101000a900463ffffffff1663ffffffff16613a9690919063ffffffff16565b63ffffffff1614156138e15760006003600083815260200190815260200160002060009054906101000a900473ffffffffffffffffffffffffffffffffffffffff16905061384e6001600560008473ffffffffffffffffffffffffffffffffffffffff1673ffffffffffffffffffffffffffffffffffffffff16815260200190815260200160002060009054906101000a900461ffff1661ffff166134e690919063ffffffff16565b600560008373ffffffffffffffffffffffffffffffffffffffff1673ffffffffffffffffffffffffffffffffffffffff16815260200190815260200160002060006101000a81548161ffff021916908361ffff1602179055506138b081613aac565b156138df576138de818460000160149054906101000a900463ffffffff166138d784613b2e565b600261301d565b5b505b5050565b6000816040516020016138f891906158bc565b604051602081830303815290604052805190602001208360405160200161391f91906158bc565b6040516020818303038152906040528051906020012014905092915050565b600060028081111561395357613952613ff6565b5b82600281111561396657613965613ff6565b5b141561398d5761398660028463ffffffff1661244b90919063ffffffff16565b90506139f8565b600060028111156139a1576139a0613ff6565b5b8260028111156139b4576139b3613ff6565b5b14156139db576139d460048463ffffffff1661244b90919063ffffffff16565b90506139f8565b6139f560038463ffffffff1661244b90919063ffffffff16565b90505b92915050565b60008060058361ffff16613a129190615318565b9050613a2a6001600d546134d090919063ffffffff16565b600d819055506000613a7560644287600d54604051602001613a4e9392919061593c565b6040516020818303038152906040528051906020012060001c613bb090919063ffffffff16565b9050818111613a8957600192505050613a90565b6000925050505b92915050565b60008183613aa491906159a8565b905092915050565b6000613ac46001600d546134d090919063ffffffff16565b600d819055506000613b0f60644285600d54604051602001613ae89392919061593c565b6040516020818303038152906040528051906020012060001c613bb090919063ffffffff16565b905060288111613b23576001915050613b29565b60009150505b919050565b6000613b466001600d546134d090919063ffffffff16565b600d819055506000613b9160644285600d54604051602001613b6a9392919061593c565b6040516020818303038152906040528051906020012060001c613bb090919063ffffffff16565b905060328111613ba5576000915050613bab565b60019150505b919050565b60008183613bbe91906159d9565b905092915050565b6040518060400160405280613bd9613cc9565b8152602001600081525090565b6040518060600160405280600073ffffffffffffffffffffffffffffffffffffffff168152602001613c16613d2c565b8152602001600081525090565b6040518060400160405280613c36613d2c565b8152602001600081525090565b828054613c4f90614fc0565b90600052602060002090601f016020900481019282613c715760008555613cb8565b82601f10613c8a57805160ff1916838001178555613cb8565b82800160010185558215613cb8579182015b82811115613cb7578251825591602001919060010190613c9c565b5b509050613cc59190613de1565b5090565b6040518060a00160405280600063ffffffff168152602001600063ffffffff168152602001600061ffff16815260200160006001811115613d0d57613d0c613ff6565b5b815260200160006002811115613d2657613d25613ff6565b5b81525090565b604051806101c00160405280600061ffff168152602001600061ffff168152602001600061ffff168152602001600061ffff168152602001600061ffff168152602001600061ffff168152602001600061ffff168152602001600061ffff168152602001600061ffff168152602001600061ffff168152602001600063ffffffff168152602001600063ffffffff16815260200160006002811115613dd457613dd3613ff6565b5b8152602001606081525090565b5b80821115613dfa576000816000905550600101613de2565b5090565b600080fd5b600080fd5b6000819050919050565b613e1b81613e08565b8114613e2657600080fd5b50565b600081359050613e3881613e12565b92915050565b60008115159050919050565b613e5381613e3e565b8114613e5e57600080fd5b50565b600081359050613e7081613e4a565b92915050565b60008060008060008060c08789031215613e9357613e92613dfe565b5b6000613ea189828a01613e29565b9650506020613eb289828a01613e61565b9550506040613ec389828a01613e29565b9450506060613ed489828a01613e29565b9350506080613ee589828a01613e61565b92505060a0613ef689828a01613e29565b9150509295509295509295565b600073ffffffffffffffffffffffffffffffffffffffff82169050919050565b6000613f2e82613f03565b9050919050565b613f3e81613f23565b8114613f4957600080fd5b50565b600081359050613f5b81613f35565b92915050565b600060208284031215613f7757613f76613dfe565b5b6000613f8584828501613f4c565b91505092915050565b600081519050919050565b600082825260208201905092915050565b6000819050602082019050919050565b600063ffffffff82169050919050565b613fd381613fba565b82525050565b600061ffff82169050919050565b613ff081613fd9565b82525050565b7f4e487b7100000000000000000000000000000000000000000000000000000000600052602160045260246000fd5b6002811061403657614035613ff6565b5b50565b600081905061404782614025565b919050565b600061405782614039565b9050919050565b6140678161404c565b82525050565b6003811061407e5761407d613ff6565b5b50565b600081905061408f8261406d565b919050565b600061409f82614081565b9050919050565b6140af81614094565b82525050565b60a0820160008201516140cb6000850182613fca565b5060208201516140de6020850182613fca565b5060408201516140f16040850182613fe7565b506060820151614104606085018261405e565b50608082015161411760808501826140a6565b50505050565b61412681613e08565b82525050565b60c08201600082015161414260008501826140b5565b50602082015161415560a085018261411d565b50505050565b6000614167838361412c565b60c08301905092915050565b6000602082019050919050565b600061418b82613f8e565b6141958185613f99565b93506141a083613faa565b8060005b838110156141d15781516141b8888261415b565b97506141c383614173565b9250506001810190506141a4565b5085935050505092915050565b600060208201905081810360008301526141f88184614180565b905092915050565b61420981613f23565b82525050565b60006020820190506142246000830184614200565b92915050565b61423381613fd9565b82525050565b600060208201905061424e600083018461422a565b92915050565b60006020828403121561426a57614269613dfe565b5b600061427884828501613e29565b91505092915050565b600081519050919050565b600082825260208201905092915050565b6000819050602082019050919050565b6142b681613f23565b82525050565b600381106142cd576142cc613ff6565b5b50565b60008190506142de826142bc565b919050565b60006142ee826142d0565b9050919050565b6142fe816142e3565b82525050565b600081519050919050565b600082825260208201905092915050565b60005b8381101561433e578082015181840152602081019050614323565b8381111561434d576000848401525b50505050565b6000601f19601f8301169050919050565b600061436f82614304565b614379818561430f565b9350614389818560208601614320565b61439281614353565b840191505092915050565b60006101c0830160008301516143b66000860182613fe7565b5060208301516143c96020860182613fe7565b5060408301516143dc6040860182613fe7565b5060608301516143ef6060860182613fe7565b5060808301516144026080860182613fe7565b5060a083015161441560a0860182613fe7565b5060c083015161442860c0860182613fe7565b5060e083015161443b60e0860182613fe7565b50610100830151614450610100860182613fe7565b50610120830151614465610120860182613fe7565b5061014083015161447a610140860182613fca565b5061016083015161448f610160860182613fca565b506101808301516144a46101808601826142f5565b506101a08301518482036101a08601526144be8282614364565b9150508091505092915050565b60006060830160008301516144e360008601826142ad565b50602083015184820360208601526144fb828261439d565b9150506040830151614510604086018261411d565b508091505092915050565b600061452783836144cb565b905092915050565b6000602082019050919050565b600061454782614281565b614551818561428c565b9350836020820285016145638561429d565b8060005b8581101561459f5784840389528151614580858261451b565b945061458b8361452f565b925060208a01995050600181019050614567565b50829750879550505050505092915050565b600060208201905081810360008301526145cb818461453c565b905092915050565b600080fd5b600080fd5b600080fd5b60008083601f8401126145f8576145f76145d3565b5b8235905067ffffffffffffffff811115614615576146146145d8565b5b602083019150836001820283011115614631576146306145dd565b5b9250929050565b6003811061464557600080fd5b50565b60008135905061465781614638565b92915050565b60008060006040848603121561467657614675613dfe565b5b600084013567ffffffffffffffff81111561469457614693613e03565b5b6146a0868287016145e2565b935093505060206146b386828701614648565b9150509250925092565b6146c681613fba565b81146146d157600080fd5b50565b6000813590506146e3816146bd565b92915050565b600281106146f657600080fd5b50565b600081359050614708816146e9565b92915050565b6003811061471b57600080fd5b50565b60008135905061472d8161470e565b92915050565b60008060006060848603121561474c5761474b613dfe565b5b600061475a868287016146d4565b935050602061476b868287016146f9565b925050604061477c8682870161471e565b9150509250925092565b61478f81613e08565b82525050565b60006020820190506147aa6000830184614786565b92915050565b600080604083850312156147c7576147c6613dfe565b5b60006147d5858286016146d4565b92505060206147e68582860161471e565b9150509250929050565b600081519050919050565b600082825260208201905092915050565b6000819050602082019050919050565b60006040830160008301518482036000860152614839828261439d565b915050602083015161484e602086018261411d565b508091505092915050565b6000614865838361481c565b905092915050565b6000602082019050919050565b6000614885826147f0565b61488f81856147fb565b9350836020820285016148a18561480c565b8060005b858110156148dd57848403895281516148be8582614859565b94506148c98361486d565b925060208a019950506001810190506148a5565b50829750879550505050505092915050565b60006020820190508181036000830152614909818461487a565b905092915050565b61491a81613fd9565b811461492557600080fd5b50565b60008135905061493781614911565b92915050565b600080600080600060a0868803121561495957614958613dfe565b5b600061496788828901613e29565b955050602061497888828901614928565b945050604061498988828901614928565b935050606061499a88828901614928565b92505060806149ab88828901614928565b9150509295509295909350565b600082825260208201905092915050565b7f596f7520617265206e6f7420746865206f776e6572206f66207468697320466960008201527f6768746572210000000000000000000000000000000000000000000000000000602082015250565b6000614a256026836149b8565b9150614a30826149c9565b604082019050919050565b60006020820190508181036000830152614a5481614a18565b9050919050565b7f596f752063616e6e6f742061747461636b20796f7572206f776e20466967687460008201527f6572210000000000000000000000000000000000000000000000000000000000602082015250565b6000614ab76023836149b8565b9150614ac282614a5b565b604082019050919050565b60006020820190508181036000830152614ae681614aaa565b9050919050565b7f4e487b7100000000000000000000000000000000000000000000000000000000600052603260045260246000fd5b7f596f75722066696768746572206973206e6f742079657420726561647920746f60008201527f2066696768742100000000000000000000000000000000000000000000000000602082015250565b6000614b786027836149b8565b9150614b8382614b1c565b604082019050919050565b60006020820190508181036000830152614ba781614b6b565b9050919050565b7f596f7520617265206e6f7420746865206f776e6572206f66207468697320576560008201527f61706f6e21000000000000000000000000000000000000000000000000000000602082015250565b6000614c0a6025836149b8565b9150614c1582614bae565b604082019050919050565b60006020820190508181036000830152614c3981614bfd565b9050919050565b7f596f752063616e6e6f7420757365207468697320776561706f6e2c20796f757260008201527f206c6576656c20697320746f6f20736d616c6c21000000000000000000000000602082015250565b6000614c9c6034836149b8565b9150614ca782614c40565b604082019050919050565b60006020820190508181036000830152614ccb81614c8f565b9050919050565b7f596f752063616e6e6f7420757365207468697320776561706f6e2c20796f757260008201527f206167696c69747920736b696c6c20697320696e73756666696369656e742100602082015250565b6000614d2e603f836149b8565b9150614d3982614cd2565b604082019050919050565b60006020820190508181036000830152614d5d81614d21565b9050919050565b7f596f752063616e6e6f7420757365207468697320776561706f6e2c20796f757260008201527f20737472656e67746820736b696c6c20697320696e73756666696369656e7421602082015250565b6000614dc06040836149b8565b9150614dcb82614d64565b604082019050919050565b60006020820190508181036000830152614def81614db3565b9050919050565b614dff81613e3e565b82525050565b6000602082019050614e1a6000830184614df6565b92915050565b7f4e487b7100000000000000000000000000000000000000000000000000000000600052604160045260246000fd5b7f4e487b7100000000000000000000000000000000000000000000000000000000600052601160045260246000fd5b6000614e8982613e08565b91507fffffffffffffffffffffffffffffffffffffffffffffffffffffffffffffffff821415614ebc57614ebb614e4f565b5b600182019050919050565b6000614ed282613e08565b91506000821415614ee657614ee5614e4f565b5b600182039050919050565b7f4f776e61626c653a2063616c6c6572206973206e6f7420746865206f776e6572600082015250565b6000614f276020836149b8565b9150614f3282614ef1565b602082019050919050565b60006020820190508181036000830152614f5681614f1a565b9050919050565b6000614f6882613e08565b9150614f7383613e08565b925082821015614f8657614f85614e4f565b5b828203905092915050565b7f4e487b7100000000000000000000000000000000000000000000000000000000600052602260045260246000fd5b60006002820490506001821680614fd857607f821691505b60208210811415614fec57614feb614f91565b5b50919050565b7f596f7520616c7265616479206861766520666967687465727320696e20796f7560008201527f72204261727261636b732120456e74657220746865204172656e6120616e642060208201527f6561726e20796f757273656c66206d6f72652046696768746572732100000000604082015250565b6000615074605c836149b8565b915061507f82614ff2565b606082019050919050565b600060208201905081810360008301526150a381615067565b9050919050565b7f596f752073656e7420696e73756666696369656e742045544820666f7220666f60008201527f7267696e67207468697320776561706f6e210000000000000000000000000000602082015250565b60006151066032836149b8565b9150615111826150aa565b604082019050919050565b60006020820190508181036000830152615135816150f9565b9050919050565b7f596f7520646f206e6f74206861766520616e7920617661696c61626c6520707560008201527f70696c732120466967687420746f206561726e206d6f72652100000000000000602082015250565b60006151986039836149b8565b91506151a38261513c565b604082019050919050565b600060208201905081810360008301526151c78161518b565b9050919050565b7f4f776e61626c653a206e6577206f776e657220697320746865207a65726f206160008201527f6464726573730000000000000000000000000000000000000000000000000000602082015250565b600061522a6026836149b8565b9150615235826151ce565b604082019050919050565b600060208201905081810360008301526152598161521d565b9050919050565b7f596f7520646f206e6f74206861766520656e6f75676820617661696c61626c6560008201527f207370656e6461626c6520706f696e747320696e206f7264657220746f20646f60208201527f207468697320616374696f6e2100000000000000000000000000000000000000604082015250565b60006152e2604d836149b8565b91506152ed82615260565b606082019050919050565b60006020820190508181036000830152615311816152d5565b9050919050565b600061532382613e08565b915061532e83613e08565b9250827fffffffffffffffffffffffffffffffffffffffffffffffffffffffffffffffff0382111561536357615362614e4f565b5b828201905092915050565b600061537982613fba565b915061538483613fba565b92508163ffffffff04831182151516156153a1576153a0614e4f565b5b828202905092915050565b60006153b782613fba565b91506153c283613fba565b9250828210156153d5576153d4614e4f565b5b828203905092915050565b7f4e487b7100000000000000000000000000000000000000000000000000000000600052600160045260246000fd5b7f546865206e616d6520796f7520696e73657274656420666f7220796f7572204660008201527f69676874657220697320696e76616c6964210000000000000000000000000000602082015250565b600061546b6032836149b8565b91506154768261540f565b604082019050919050565b6000602082019050818103600083015261549a8161545e565b9050919050565b7f54686520636c61737320796f7520696e73657274656420666f7220796f75722060008201527f4669676874657220697320696e76616c69642100000000000000000000000000602082015250565b60006154fd6033836149b8565b9150615508826154a1565b604082019050919050565b6000602082019050818103600083015261552c816154f0565b9050919050565b7f546865206e616d6520796f7520696e73657274656420666f7220796f7572204660008201527f69676874657220697320616c7265616479207573656421000000000000000000602082015250565b600061558f6037836149b8565b915061559a82615533565b604082019050919050565b600060208201905081810360008301526155be81615582565b9050919050565b7f546865206c6576656c20796f7520696e73657274656420666f7220796f75722060008201527f576561706f6e20697320696e76616c6964210000000000000000000000000000602082015250565b60006156216032836149b8565b915061562c826155c5565b604082019050919050565b6000602082019050818103600083015261565081615614565b9050919050565b7f546865207479706520796f7520696e73657274656420666f7220796f7572205760008201527f6561706f6e20697320696e76616c696421000000000000000000000000000000602082015250565b60006156b36031836149b8565b91506156be82615657565b604082019050919050565b600060208201905081810360008301526156e2816156a6565b9050919050565b60006156f482613e08565b91506156ff83613e08565b9250817fffffffffffffffffffffffffffffffffffffffffffffffffffffffffffffffff048311821515161561573857615737614e4f565b5b828202905092915050565b600061574e82613fd9565b915061575983613fd9565b92508261ffff038211156157705761576f614e4f565b5b828201905092915050565b600061578682613fd9565b915061579183613fd9565b9250828210156157a4576157a3614e4f565b5b828203905092915050565b60006157ba82613fba565b91506157c583613fba565b92508263ffffffff038211156157de576157dd614e4f565b5b828201905092915050565b6000819050919050565b6000819050919050565b600061581861581361580e846157e9565b6157f3565b613fd9565b9050919050565b615828816157fd565b82525050565b6000604082019050615843600083018561581f565b6158506020830184614df6565b9392505050565b600060408201905061586c600083018561422a565b6158796020830184614df6565b9392505050565b600081905092915050565b600061589682614304565b6158a08185615880565b93506158b0818560208601614320565b80840191505092915050565b60006158c8828461588b565b915081905092915050565b6000819050919050565b6158ee6158e982613e08565b6158d3565b82525050565b60008160601b9050919050565b600061590c826158f4565b9050919050565b600061591e82615901565b9050919050565b61593661593182613f23565b615913565b82525050565b600061594882866158dd565b6020820191506159588285615925565b60148201915061596882846158dd565b602082019150819050949350505050565b7f4e487b7100000000000000000000000000000000000000000000000000000000600052601260045260246000fd5b60006159b382613fba565b91506159be83613fba565b9250826159ce576159cd615979565b5b828206905092915050565b60006159e482613e08565b91506159ef83613e08565b9250826159ff576159fe615979565b5b82820690509291505056fea26469706673582212204d43b1930fbfaa45e257aad22c4876e7b577ff9a33502c48bdf7eecf7ccc8a7364736f6c634300080a0033",
  "linkReferences": {},
  "deployedLinkReferences": {}
}