{
  "_format": "hh-sol-artifact-1",
  "contractName": "FighterFactory",
  "sourceName": "contracts/FighterFactory.sol",
  "abi": [
    {
      "anonymous": false,
      "inputs": [
        {
          "indexed": false,
          "internalType": "uint256",
          "name": "fighterId",
          "type": "uint256"
        },
        {
          "indexed": false,
          "internalType": "string",
          "name": "name",
          "type": "string"
        },
        {
          "indexed": false,
          "internalType": "uint256",
          "name": "timestamp",
          "type": "uint256"
        },
        {
          "indexed": true,
          "internalType": "enum FighterClass",
          "name": "fighterClass",
          "type": "uint8"
        },
        {
          "indexed": true,
          "internalType": "address",
          "name": "owner",
          "type": "address"
        }
      ],
      "name": "NewFighter",
      "type": "event"
    },
    {
      "anonymous": false,
      "inputs": [
        {
          "indexed": true,
          "internalType": "address",
          "name": "previousOwner",
          "type": "address"
        },
        {
          "indexed": true,
          "internalType": "address",
          "name": "newOwner",
          "type": "address"
        }
      ],
      "name": "OwnershipTransferred",
      "type": "event"
    },
    {
      "inputs": [
        {
          "internalType": "string",
          "name": "_name",
          "type": "string"
        },
        {
          "internalType": "enum FighterClass",
          "name": "_class",
          "type": "uint8"
        }
      ],
      "name": "_createFighter",
      "outputs": [],
      "stateMutability": "nonpayable",
      "type": "function"
    },
    {
      "inputs": [],
      "name": "_getAllFighters",
      "outputs": [
        {
          "components": [
            {
              "components": [
                {
                  "internalType": "string",
                  "name": "name",
                  "type": "string"
                },
                {
                  "internalType": "uint32",
                  "name": "level",
                  "type": "uint32"
                },
                {
                  "internalType": "uint32",
                  "name": "readyTime",
                  "type": "uint32"
                },
                {
                  "internalType": "uint16",
                  "name": "winCount",
                  "type": "uint16"
                },
                {
                  "internalType": "uint16",
                  "name": "lossCount",
                  "type": "uint16"
                },
                {
                  "internalType": "enum FighterClass",
                  "name": "class",
                  "type": "uint8"
                }
              ],
              "internalType": "struct FighterFactory.Fighter",
              "name": "fighter",
              "type": "tuple"
            },
            {
              "internalType": "address",
              "name": "owner",
              "type": "address"
            }
          ],
          "internalType": "struct FighterFactory.FighterDTO[]",
          "name": "",
          "type": "tuple[]"
        }
      ],
      "stateMutability": "view",
      "type": "function"
    },
    {
      "inputs": [],
      "name": "_getFightersCount",
      "outputs": [
        {
          "internalType": "uint256",
          "name": "",
          "type": "uint256"
        }
      ],
      "stateMutability": "view",
      "type": "function"
    },
    {
      "inputs": [],
      "name": "_getMyFighters",
      "outputs": [
        {
          "components": [
            {
              "internalType": "string",
              "name": "name",
              "type": "string"
            },
            {
              "internalType": "uint32",
              "name": "level",
              "type": "uint32"
            },
            {
              "internalType": "uint32",
              "name": "readyTime",
              "type": "uint32"
            },
            {
              "internalType": "uint16",
              "name": "winCount",
              "type": "uint16"
            },
            {
              "internalType": "uint16",
              "name": "lossCount",
              "type": "uint16"
            },
            {
              "internalType": "enum FighterClass",
              "name": "class",
              "type": "uint8"
            }
          ],
          "internalType": "struct FighterFactory.Fighter[]",
          "name": "",
          "type": "tuple[]"
        }
      ],
      "stateMutability": "view",
      "type": "function"
    },
    {
      "inputs": [],
      "name": "owner",
      "outputs": [
        {
          "internalType": "address",
          "name": "",
          "type": "address"
        }
      ],
      "stateMutability": "view",
      "type": "function"
    },
    {
      "inputs": [],
      "name": "renounceOwnership",
      "outputs": [],
      "stateMutability": "nonpayable",
      "type": "function"
    },
    {
      "inputs": [
        {
          "internalType": "address",
          "name": "newOwner",
          "type": "address"
        }
      ],
      "name": "transferOwnership",
      "outputs": [],
      "stateMutability": "nonpayable",
      "type": "function"
    }
  ],
  "bytecode": "0x60806040526201518060015534801561001757600080fd5b5061003461002961003960201b60201c565b61004160201b60201c565b610105565b600033905090565b60008060009054906101000a900473ffffffffffffffffffffffffffffffffffffffff169050816000806101000a81548173ffffffffffffffffffffffffffffffffffffffff021916908373ffffffffffffffffffffffffffffffffffffffff1602179055508173ffffffffffffffffffffffffffffffffffffffff168173ffffffffffffffffffffffffffffffffffffffff167f8be0079c531659141344cd1fd0a4f28419497f9722a3daafe3b4186f6b6457e060405160405180910390a35050565b611b2b806101146000396000f3fe608060405234801561001057600080fd5b506004361061007d5760003560e01c8063cb74c2a81161005b578063cb74c2a8146100c6578063d8481bcd146100e4578063f2fde38b14610102578063f9a9f81c1461011e5761007d565b8063621f7b7614610082578063715018a61461009e5780638da5cb5b146100a8575b600080fd5b61009c600480360381019061009791906110ba565b61013c565b005b6100a66105d4565b005b6100b061065c565b6040516100bd9190611157565b60405180910390f35b6100ce610685565b6040516100db919061118b565b60405180910390f35b6100ec610692565b6040516100f99190611478565b60405180910390f35b61011c600480360381019061011791906114c6565b61091d565b005b610126610a15565b60405161013391906115b5565b60405180910390f35b60006004600061014a610d24565b73ffffffffffffffffffffffffffffffffffffffff1673ffffffffffffffffffffffffffffffffffffffff16815260200190815260200160002054146101c5576040517f08c379a00000000000000000000000000000000000000000000000000000000081526004016101bc90611680565b60405180910390fd5b816000819050600081511415610210576040517f08c379a000000000000000000000000000000000000000000000000000000000815260040161020790611712565b60405180910390fd5b826000600281111561022557610224611296565b5b81600281111561023857610237611296565b5b148061026857506001600281111561025357610252611296565b5b81600281111561026657610265611296565b5b145b80610296575060028081111561028157610280611296565b5b81600281111561029457610293611296565b5b145b6102d5576040517f08c379a00000000000000000000000000000000000000000000000000000000081526004016102cc906117a4565b60405180910390fd5b60026040518060c00160405280878152602001600163ffffffff16815260200161030a60015442610d2c90919063ffffffff16565b63ffffffff168152602001600061ffff168152602001600061ffff16815260200186600281111561033e5761033d611296565b5b81525090806001815401808255809150506001900390600052602060002090600202016000909190919091506000820151816000019080519060200190610386929190610e06565b5060208201518160010160006101000a81548163ffffffff021916908363ffffffff16021790555060408201518160010160046101000a81548163ffffffff021916908363ffffffff16021790555060608201518160010160086101000a81548161ffff021916908361ffff160217905550608082015181600101600a6101000a81548161ffff021916908361ffff16021790555060a082015181600101600c6101000a81548160ff0219169083600281111561044657610445611296565b5b021790555050506000600160028054905061046191906117f3565b905061046b610d24565b6003600083815260200190815260200160002060006101000a81548173ffffffffffffffffffffffffffffffffffffffff021916908373ffffffffffffffffffffffffffffffffffffffff1602179055506105166001600460006104cd610d24565b73ffffffffffffffffffffffffffffffffffffffff1673ffffffffffffffffffffffffffffffffffffffff16815260200190815260200160002054610d2c90919063ffffffff16565b60046000610522610d24565b73ffffffffffffffffffffffffffffffffffffffff1673ffffffffffffffffffffffffffffffffffffffff16815260200190815260200160002081905550610568610d24565b73ffffffffffffffffffffffffffffffffffffffff1685600281111561059157610590611296565b5b7f6ed133a2ac12b28e6d90ae261b1bb5b14246bb8ee8fd05c5ed861041453959118389426040516105c493929190611860565b60405180910390a3505050505050565b6105dc610d24565b73ffffffffffffffffffffffffffffffffffffffff166105fa61065c565b73ffffffffffffffffffffffffffffffffffffffff1614610650576040517f08c379a0000000000000000000000000000000000000000000000000000000008152600401610647906118ea565b60405180910390fd5b61065a6000610d42565b565b60008060009054906101000a900473ffffffffffffffffffffffffffffffffffffffff16905090565b6000600280549050905090565b6060600060028054905067ffffffffffffffff8111156106b5576106b4610f6a565b5b6040519080825280602002602001820160405280156106ee57816020015b6106db610e8c565b8152602001906001900390816106d35790505b50905060005b600280549050811015610915576040518060400160405280600283815481106107205761071f61190a565b5b90600052602060002090600202016040518060c001604052908160008201805461074990611968565b80601f016020809104026020016040519081016040528092919081815260200182805461077590611968565b80156107c25780601f10610797576101008083540402835291602001916107c2565b820191906000526020600020905b8154815290600101906020018083116107a557829003601f168201915b505050505081526020016001820160009054906101000a900463ffffffff1663ffffffff1663ffffffff1681526020016001820160049054906101000a900463ffffffff1663ffffffff1663ffffffff1681526020016001820160089054906101000a900461ffff1661ffff1661ffff16815260200160018201600a9054906101000a900461ffff1661ffff1661ffff16815260200160018201600c9054906101000a900460ff16600281111561087c5761087b611296565b5b600281111561088e5761088d611296565b5b8152505081526020016003600084815260200190815260200160002060009054906101000a900473ffffffffffffffffffffffffffffffffffffffff1673ffffffffffffffffffffffffffffffffffffffff168152508282815181106108f7576108f661190a565b5b6020026020010181905250808061090d9061199a565b9150506106f4565b508091505090565b610925610d24565b73ffffffffffffffffffffffffffffffffffffffff1661094361065c565b73ffffffffffffffffffffffffffffffffffffffff1614610999576040517f08c379a0000000000000000000000000000000000000000000000000000000008152600401610990906118ea565b60405180910390fd5b600073ffffffffffffffffffffffffffffffffffffffff168173ffffffffffffffffffffffffffffffffffffffff161415610a09576040517f08c379a0000000000000000000000000000000000000000000000000000000008152600401610a0090611a55565b60405180910390fd5b610a1281610d42565b50565b60606000610a21610d24565b90506000600460008373ffffffffffffffffffffffffffffffffffffffff1673ffffffffffffffffffffffffffffffffffffffff16815260200190815260200160002054905060008167ffffffffffffffff811115610a8357610a82610f6a565b5b604051908082528060200260200182016040528015610abc57816020015b610aa9610ec2565b815260200190600190039081610aa15790505b5090506000805b600280549050811015610d19578473ffffffffffffffffffffffffffffffffffffffff166003600083815260200190815260200160002060009054906101000a900473ffffffffffffffffffffffffffffffffffffffff1673ffffffffffffffffffffffffffffffffffffffff161415610d065760028181548110610b4b57610b4a61190a565b5b90600052602060002090600202016040518060c0016040529081600082018054610b7490611968565b80601f0160208091040260200160405190810160405280929190818152602001828054610ba090611968565b8015610bed5780601f10610bc257610100808354040283529160200191610bed565b820191906000526020600020905b815481529060010190602001808311610bd057829003601f168201915b505050505081526020016001820160009054906101000a900463ffffffff1663ffffffff1663ffffffff1681526020016001820160049054906101000a900463ffffffff1663ffffffff1663ffffffff1681526020016001820160089054906101000a900461ffff1661ffff1661ffff16815260200160018201600a9054906101000a900461ffff1661ffff1661ffff16815260200160018201600c9054906101000a900460ff166002811115610ca757610ca6611296565b5b6002811115610cb957610cb8611296565b5b81525050838381518110610cd057610ccf61190a565b5b60200260200101819052508180610ce69061199a565b9250508380610cf490611a75565b9450506000841415610d0557610d19565b5b8080610d119061199a565b915050610ac3565b508194505050505090565b600033905090565b60008183610d3a9190611a9f565b905092915050565b60008060009054906101000a900473ffffffffffffffffffffffffffffffffffffffff169050816000806101000a81548173ffffffffffffffffffffffffffffffffffffffff021916908373ffffffffffffffffffffffffffffffffffffffff1602179055508173ffffffffffffffffffffffffffffffffffffffff168173ffffffffffffffffffffffffffffffffffffffff167f8be0079c531659141344cd1fd0a4f28419497f9722a3daafe3b4186f6b6457e060405160405180910390a35050565b828054610e1290611968565b90600052602060002090601f016020900481019282610e345760008555610e7b565b82601f10610e4d57805160ff1916838001178555610e7b565b82800160010185558215610e7b579182015b82811115610e7a578251825591602001919060010190610e5f565b5b509050610e889190610f1e565b5090565b6040518060400160405280610e9f610ec2565b8152602001600073ffffffffffffffffffffffffffffffffffffffff1681525090565b6040518060c0016040528060608152602001600063ffffffff168152602001600063ffffffff168152602001600061ffff168152602001600061ffff16815260200160006002811115610f1857610f17611296565b5b81525090565b5b80821115610f37576000816000905550600101610f1f565b5090565b6000604051905090565b600080fd5b600080fd5b600080fd5b600080fd5b6000601f19601f8301169050919050565b7f4e487b7100000000000000000000000000000000000000000000000000000000600052604160045260246000fd5b610fa282610f59565b810181811067ffffffffffffffff82111715610fc157610fc0610f6a565b5b80604052505050565b6000610fd4610f3b565b9050610fe08282610f99565b919050565b600067ffffffffffffffff82111561100057610fff610f6a565b5b61100982610f59565b9050602081019050919050565b82818337600083830152505050565b600061103861103384610fe5565b610fca565b90508281526020810184848401111561105457611053610f54565b5b61105f848285611016565b509392505050565b600082601f83011261107c5761107b610f4f565b5b813561108c848260208601611025565b91505092915050565b600381106110a257600080fd5b50565b6000813590506110b481611095565b92915050565b600080604083850312156110d1576110d0610f45565b5b600083013567ffffffffffffffff8111156110ef576110ee610f4a565b5b6110fb85828601611067565b925050602061110c858286016110a5565b9150509250929050565b600073ffffffffffffffffffffffffffffffffffffffff82169050919050565b600061114182611116565b9050919050565b61115181611136565b82525050565b600060208201905061116c6000830184611148565b92915050565b6000819050919050565b61118581611172565b82525050565b60006020820190506111a0600083018461117c565b92915050565b600081519050919050565b600082825260208201905092915050565b6000819050602082019050919050565b600081519050919050565b600082825260208201905092915050565b60005b8381101561120c5780820151818401526020810190506111f1565b8381111561121b576000848401525b50505050565b600061122c826111d2565b61123681856111dd565b93506112468185602086016111ee565b61124f81610f59565b840191505092915050565b600063ffffffff82169050919050565b6112738161125a565b82525050565b600061ffff82169050919050565b61129081611279565b82525050565b7f4e487b7100000000000000000000000000000000000000000000000000000000600052602160045260246000fd5b600381106112d6576112d5611296565b5b50565b60008190506112e7826112c5565b919050565b60006112f7826112d9565b9050919050565b611307816112ec565b82525050565b600060c083016000830151848203600086015261132a8282611221565b915050602083015161133f602086018261126a565b506040830151611352604086018261126a565b5060608301516113656060860182611287565b5060808301516113786080860182611287565b5060a083015161138b60a08601826112fe565b508091505092915050565b61139f81611136565b82525050565b600060408301600083015184820360008601526113c2828261130d565b91505060208301516113d76020860182611396565b508091505092915050565b60006113ee83836113a5565b905092915050565b6000602082019050919050565b600061140e826111a6565b61141881856111b1565b93508360208202850161142a856111c2565b8060005b85811015611466578484038952815161144785826113e2565b9450611452836113f6565b925060208a0199505060018101905061142e565b50829750879550505050505092915050565b600060208201905081810360008301526114928184611403565b905092915050565b6114a381611136565b81146114ae57600080fd5b50565b6000813590506114c08161149a565b92915050565b6000602082840312156114dc576114db610f45565b5b60006114ea848285016114b1565b91505092915050565b600081519050919050565b600082825260208201905092915050565b6000819050602082019050919050565b600061152b838361130d565b905092915050565b6000602082019050919050565b600061154b826114f3565b61155581856114fe565b9350836020820285016115678561150f565b8060005b858110156115a35784840389528151611584858261151f565b945061158f83611533565b925060208a0199505060018101905061156b565b50829750879550505050505092915050565b600060208201905081810360008301526115cf8184611540565b905092915050565b600082825260208201905092915050565b7f596f7520616c7265616479206861766520666967687465727320696e20796f7560008201527f72204261727261636b732120456e74657220746865204172656e6120616e642060208201527f6561726e20796f757273656c66206d6f72652046696768746572732100000000604082015250565b600061166a605c836115d7565b9150611675826115e8565b606082019050919050565b600060208201905081810360008301526116998161165d565b9050919050565b7f546865206e616d6520796f7520696e73657274656420666f7220796f7572204660008201527f69676874657220697320696e76616c6964210000000000000000000000000000602082015250565b60006116fc6032836115d7565b9150611707826116a0565b604082019050919050565b6000602082019050818103600083015261172b816116ef565b9050919050565b7f54686520636c61737320796f7520696e73657274656420666f7220796f75722060008201527f4669676874657220697320696e76616c69642100000000000000000000000000602082015250565b600061178e6033836115d7565b915061179982611732565b604082019050919050565b600060208201905081810360008301526117bd81611781565b9050919050565b7f4e487b7100000000000000000000000000000000000000000000000000000000600052601160045260246000fd5b60006117fe82611172565b915061180983611172565b92508282101561181c5761181b6117c4565b5b828203905092915050565b6000611832826111d2565b61183c81856115d7565b935061184c8185602086016111ee565b61185581610f59565b840191505092915050565b6000606082019050611875600083018661117c565b81810360208301526118878185611827565b9050611896604083018461117c565b949350505050565b7f4f776e61626c653a2063616c6c6572206973206e6f7420746865206f776e6572600082015250565b60006118d46020836115d7565b91506118df8261189e565b602082019050919050565b60006020820190508181036000830152611903816118c7565b9050919050565b7f4e487b7100000000000000000000000000000000000000000000000000000000600052603260045260246000fd5b7f4e487b7100000000000000000000000000000000000000000000000000000000600052602260045260246000fd5b6000600282049050600182168061198057607f821691505b6020821081141561199457611993611939565b5b50919050565b60006119a582611172565b91507fffffffffffffffffffffffffffffffffffffffffffffffffffffffffffffffff8214156119d8576119d76117c4565b5b600182019050919050565b7f4f776e61626c653a206e6577206f776e657220697320746865207a65726f206160008201527f6464726573730000000000000000000000000000000000000000000000000000602082015250565b6000611a3f6026836115d7565b9150611a4a826119e3565b604082019050919050565b60006020820190508181036000830152611a6e81611a32565b9050919050565b6000611a8082611172565b91506000821415611a9457611a936117c4565b5b600182039050919050565b6000611aaa82611172565b9150611ab583611172565b9250827fffffffffffffffffffffffffffffffffffffffffffffffffffffffffffffffff03821115611aea57611ae96117c4565b5b82820190509291505056fea2646970667358221220ad353beb95efc114a70480c2fb1d5cf43ef3a288b5d86a202f91c081338c66b664736f6c634300080a0033",
  "linkReferences": {},
  "deployedLinkReferences": {}
}