{
  "_format": "hh-sol-artifact-1",
  "contractName": "FighterFactory",
  "sourceName": "contracts/FighterFactory.sol",
  "abi": [
    {
      "anonymous": false,
      "inputs": [
        {
          "indexed": false,
          "internalType": "uint256",
          "name": "fighterId",
          "type": "uint256"
        },
        {
          "indexed": false,
          "internalType": "string",
          "name": "name",
          "type": "string"
        }
      ],
      "name": "NewFighter",
      "type": "event"
    },
    {
      "anonymous": false,
      "inputs": [
        {
          "indexed": true,
          "internalType": "address",
          "name": "previousOwner",
          "type": "address"
        },
        {
          "indexed": true,
          "internalType": "address",
          "name": "newOwner",
          "type": "address"
        }
      ],
      "name": "OwnershipTransferred",
      "type": "event"
    },
    {
      "inputs": [
        {
          "internalType": "string",
          "name": "_name",
          "type": "string"
        }
      ],
      "name": "_createFighter",
      "outputs": [],
      "stateMutability": "nonpayable",
      "type": "function"
    },
    {
      "inputs": [],
      "name": "_getFightersCount",
      "outputs": [
        {
          "internalType": "uint256",
          "name": "",
          "type": "uint256"
        }
      ],
      "stateMutability": "view",
      "type": "function"
    },
    {
      "inputs": [],
      "name": "_getMyFighters",
      "outputs": [
        {
          "components": [
            {
              "internalType": "string",
              "name": "name",
              "type": "string"
            },
            {
              "internalType": "uint32",
              "name": "level",
              "type": "uint32"
            },
            {
              "internalType": "uint32",
              "name": "readyTime",
              "type": "uint32"
            },
            {
              "internalType": "uint16",
              "name": "winCount",
              "type": "uint16"
            },
            {
              "internalType": "uint16",
              "name": "lossCount",
              "type": "uint16"
            }
          ],
          "internalType": "struct FighterFactory.Fighter[]",
          "name": "",
          "type": "tuple[]"
        }
      ],
      "stateMutability": "view",
      "type": "function"
    },
    {
      "inputs": [],
      "name": "owner",
      "outputs": [
        {
          "internalType": "address",
          "name": "",
          "type": "address"
        }
      ],
      "stateMutability": "view",
      "type": "function"
    },
    {
      "inputs": [],
      "name": "renounceOwnership",
      "outputs": [],
      "stateMutability": "nonpayable",
      "type": "function"
    },
    {
      "inputs": [
        {
          "internalType": "address",
          "name": "newOwner",
          "type": "address"
        }
      ],
      "name": "transferOwnership",
      "outputs": [],
      "stateMutability": "nonpayable",
      "type": "function"
    }
  ],
  "bytecode": "0x60806040526201518060015534801561001757600080fd5b5061003461002961003960201b60201c565b61004160201b60201c565b610105565b600033905090565b60008060009054906101000a900473ffffffffffffffffffffffffffffffffffffffff169050816000806101000a81548173ffffffffffffffffffffffffffffffffffffffff021916908373ffffffffffffffffffffffffffffffffffffffff1602179055508173ffffffffffffffffffffffffffffffffffffffff168173ffffffffffffffffffffffffffffffffffffffff167f8be0079c531659141344cd1fd0a4f28419497f9722a3daafe3b4186f6b6457e060405160405180910390a35050565b6111fd806101146000396000f3fe608060405234801561001057600080fd5b50600436106100625760003560e01c8063715018a6146100675780638da5cb5b14610071578063c2efb1421461008f578063cb74c2a8146100ab578063f2fde38b146100c9578063f9a9f81c146100e5575b600080fd5b61006f610103565b005b61007961018b565b6040516100869190610d1a565b60405180910390f35b6100a960048036038101906100a49190610ae6565b6101b4565b005b6100b361042d565b6040516100c09190610d97565b60405180910390f35b6100e360048036038101906100de9190610abd565b61043a565b005b6100ed610532565b6040516100fa9190610d35565b60405180910390f35b61010b610878565b73ffffffffffffffffffffffffffffffffffffffff1661012961018b565b73ffffffffffffffffffffffffffffffffffffffff161461017f576040517f08c379a000000000000000000000000000000000000000000000000000000000815260040161017690610d77565b60405180910390fd5b6101896000610880565b565b60008060009054906101000a900473ffffffffffffffffffffffffffffffffffffffff16905090565b60026040518060a00160405280838152602001600163ffffffff168152602001600154426101e29190610e9e565b63ffffffff168152602001600061ffff168152602001600061ffff168152509080600181540180825580915050600190039060005260206000209060020201600090919091909150600082015181600001908051906020019061024692919061095a565b5060208201518160010160006101000a81548163ffffffff021916908363ffffffff16021790555060408201518160010160046101000a81548163ffffffff021916908363ffffffff16021790555060608201518160010160086101000a81548161ffff021916908361ffff160217905550608082015181600101600a6101000a81548161ffff021916908361ffff1602179055505050600060016002805490506102f19190610ef4565b90506102fb610878565b6003600083815260200190815260200160002060006101000a81548173ffffffffffffffffffffffffffffffffffffffff021916908373ffffffffffffffffffffffffffffffffffffffff1602179055506103a660016004600061035d610878565b73ffffffffffffffffffffffffffffffffffffffff1673ffffffffffffffffffffffffffffffffffffffff1681526020019081526020016000205461094490919063ffffffff16565b600460006103b2610878565b73ffffffffffffffffffffffffffffffffffffffff1673ffffffffffffffffffffffffffffffffffffffff168152602001908152602001600020819055507fcf0b1657bf9a3add4678d1909d3fdcdb613a214497eb0d3c6b946dee919758388183604051610421929190610db2565b60405180910390a15050565b6000600280549050905090565b610442610878565b73ffffffffffffffffffffffffffffffffffffffff1661046061018b565b73ffffffffffffffffffffffffffffffffffffffff16146104b6576040517f08c379a00000000000000000000000000000000000000000000000000000000081526004016104ad90610d77565b60405180910390fd5b600073ffffffffffffffffffffffffffffffffffffffff168173ffffffffffffffffffffffffffffffffffffffff161415610526576040517f08c379a000000000000000000000000000000000000000000000000000000000815260040161051d90610d57565b60405180910390fd5b61052f81610880565b50565b6060600061053e610878565b90506000600460008373ffffffffffffffffffffffffffffffffffffffff1673ffffffffffffffffffffffffffffffffffffffff16815260200190815260200160002054905060008167ffffffffffffffff8111156105c6577f4e487b7100000000000000000000000000000000000000000000000000000000600052604160045260246000fd5b6040519080825280602002602001820160405280156105ff57816020015b6105ec6109e0565b8152602001906001900390816105e45790505b5090506000805b60028054905081101561086d578473ffffffffffffffffffffffffffffffffffffffff166003600083815260200190815260200160002060009054906101000a900473ffffffffffffffffffffffffffffffffffffffff1673ffffffffffffffffffffffffffffffffffffffff16141561085a57600281815481106106b4577f4e487b7100000000000000000000000000000000000000000000000000000000600052603260045260246000fd5b90600052602060002090600202016040518060a00160405290816000820180546106dd90610fee565b80601f016020809104026020016040519081016040528092919081815260200182805461070990610fee565b80156107565780601f1061072b57610100808354040283529160200191610756565b820191906000526020600020905b81548152906001019060200180831161073957829003601f168201915b505050505081526020016001820160009054906101000a900463ffffffff1663ffffffff1663ffffffff1681526020016001820160049054906101000a900463ffffffff1663ffffffff1663ffffffff1681526020016001820160089054906101000a900461ffff1661ffff1661ffff16815260200160018201600a9054906101000a900461ffff1661ffff1661ffff1681525050838381518110610824577f4e487b7100000000000000000000000000000000000000000000000000000000600052603260045260246000fd5b6020026020010181905250818061083a90611051565b925050838061084890610fc4565b94505060008414156108595761086d565b5b808061086590611051565b915050610606565b508194505050505090565b600033905090565b60008060009054906101000a900473ffffffffffffffffffffffffffffffffffffffff169050816000806101000a81548173ffffffffffffffffffffffffffffffffffffffff021916908373ffffffffffffffffffffffffffffffffffffffff1602179055508173ffffffffffffffffffffffffffffffffffffffff168173ffffffffffffffffffffffffffffffffffffffff167f8be0079c531659141344cd1fd0a4f28419497f9722a3daafe3b4186f6b6457e060405160405180910390a35050565b600081836109529190610e9e565b905092915050565b82805461096690610fee565b90600052602060002090601f01602090048101928261098857600085556109cf565b82601f106109a157805160ff19168380011785556109cf565b828001600101855582156109cf579182015b828111156109ce5782518255916020019190600101906109b3565b5b5090506109dc9190610a23565b5090565b6040518060a0016040528060608152602001600063ffffffff168152602001600063ffffffff168152602001600061ffff168152602001600061ffff1681525090565b5b80821115610a3c576000816000905550600101610a24565b5090565b6000610a53610a4e84610e07565b610de2565b905082815260208101848484011115610a6b57600080fd5b610a76848285610f82565b509392505050565b600081359050610a8d816111b0565b92915050565b600082601f830112610aa457600080fd5b8135610ab4848260208601610a40565b91505092915050565b600060208284031215610acf57600080fd5b6000610add84828501610a7e565b91505092915050565b600060208284031215610af857600080fd5b600082013567ffffffffffffffff811115610b1257600080fd5b610b1e84828501610a93565b91505092915050565b6000610b338383610c77565b905092915050565b610b4481610f28565b82525050565b6000610b5582610e48565b610b5f8185610e6b565b935083602082028501610b7185610e38565b8060005b85811015610bad5784840389528151610b8e8582610b27565b9450610b9983610e5e565b925060208a01995050600181019050610b75565b50829750879550505050505092915050565b6000610bca82610e53565b610bd48185610e7c565b9350610be4818560208601610f91565b610bed81611127565b840191505092915050565b6000610c0382610e53565b610c0d8185610e8d565b9350610c1d818560208601610f91565b610c2681611127565b840191505092915050565b6000610c3e602683610e8d565b9150610c4982611138565b604082019050919050565b6000610c61602083610e8d565b9150610c6c82611187565b602082019050919050565b600060a0830160008301518482036000860152610c948282610bbf565b9150506020830151610ca96020860182610d0b565b506040830151610cbc6040860182610d0b565b506060830151610ccf6060860182610ced565b506080830151610ce26080860182610ced565b508091505092915050565b610cf681610f3a565b82525050565b610d0581610f68565b82525050565b610d1481610f72565b82525050565b6000602082019050610d2f6000830184610b3b565b92915050565b60006020820190508181036000830152610d4f8184610b4a565b905092915050565b60006020820190508181036000830152610d7081610c31565b9050919050565b60006020820190508181036000830152610d9081610c54565b9050919050565b6000602082019050610dac6000830184610cfc565b92915050565b6000604082019050610dc76000830185610cfc565b8181036020830152610dd98184610bf8565b90509392505050565b6000610dec610dfd565b9050610df88282611020565b919050565b6000604051905090565b600067ffffffffffffffff821115610e2257610e216110f8565b5b610e2b82611127565b9050602081019050919050565b6000819050602082019050919050565b600081519050919050565b600081519050919050565b6000602082019050919050565b600082825260208201905092915050565b600082825260208201905092915050565b600082825260208201905092915050565b6000610ea982610f68565b9150610eb483610f68565b9250827fffffffffffffffffffffffffffffffffffffffffffffffffffffffffffffffff03821115610ee957610ee861109a565b5b828201905092915050565b6000610eff82610f68565b9150610f0a83610f68565b925082821015610f1d57610f1c61109a565b5b828203905092915050565b6000610f3382610f48565b9050919050565b600061ffff82169050919050565b600073ffffffffffffffffffffffffffffffffffffffff82169050919050565b6000819050919050565b600063ffffffff82169050919050565b82818337600083830152505050565b60005b83811015610faf578082015181840152602081019050610f94565b83811115610fbe576000848401525b50505050565b6000610fcf82610f68565b91506000821415610fe357610fe261109a565b5b600182039050919050565b6000600282049050600182168061100657607f821691505b6020821081141561101a576110196110c9565b5b50919050565b61102982611127565b810181811067ffffffffffffffff82111715611048576110476110f8565b5b80604052505050565b600061105c82610f68565b91507fffffffffffffffffffffffffffffffffffffffffffffffffffffffffffffffff82141561108f5761108e61109a565b5b600182019050919050565b7f4e487b7100000000000000000000000000000000000000000000000000000000600052601160045260246000fd5b7f4e487b7100000000000000000000000000000000000000000000000000000000600052602260045260246000fd5b7f4e487b7100000000000000000000000000000000000000000000000000000000600052604160045260246000fd5b6000601f19601f8301169050919050565b7f4f776e61626c653a206e6577206f776e657220697320746865207a65726f206160008201527f6464726573730000000000000000000000000000000000000000000000000000602082015250565b7f4f776e61626c653a2063616c6c6572206973206e6f7420746865206f776e6572600082015250565b6111b981610f28565b81146111c457600080fd5b5056fea26469706673582212207db1b2d713c87146377986e33f0b8d406c52a369be33caa18aee8fe88b6e5d6964736f6c63430008040033",
  "linkReferences": {},
  "deployedLinkReferences": {}
}