{
  "_format": "hh-sol-artifact-1",
  "contractName": "WeaponFactory",
  "sourceName": "contracts/WeaponFactory.sol",
  "abi": [
    {
      "anonymous": false,
      "inputs": [
        {
          "indexed": false,
          "internalType": "uint32",
          "name": "levelReq",
          "type": "uint32"
        },
        {
          "indexed": false,
          "internalType": "uint256",
          "name": "timestamp",
          "type": "uint256"
        },
        {
          "indexed": true,
          "internalType": "enum WeaponType",
          "name": "weapType",
          "type": "uint8"
        },
        {
          "indexed": true,
          "internalType": "enum WeaponTier",
          "name": "tier",
          "type": "uint8"
        },
        {
          "indexed": true,
          "internalType": "address",
          "name": "owner",
          "type": "address"
        }
      ],
      "name": "newWeapon",
      "type": "event"
    },
    {
      "inputs": [
        {
          "internalType": "uint32",
          "name": "_level",
          "type": "uint32"
        },
        {
          "internalType": "enum WeaponType",
          "name": "_type",
          "type": "uint8"
        },
        {
          "internalType": "enum WeaponTier",
          "name": "_tier",
          "type": "uint8"
        }
      ],
      "name": "_forgeWeapon",
      "outputs": [],
      "stateMutability": "nonpayable",
      "type": "function"
    },
    {
      "inputs": [],
      "name": "_getMyWeapons",
      "outputs": [
        {
          "components": [
            {
              "internalType": "uint32",
              "name": "levelReq",
              "type": "uint32"
            },
            {
              "internalType": "uint32",
              "name": "skillReq",
              "type": "uint32"
            },
            {
              "internalType": "uint32",
              "name": "damage",
              "type": "uint32"
            },
            {
              "internalType": "enum WeaponType",
              "name": "weapType",
              "type": "uint8"
            },
            {
              "internalType": "enum WeaponTier",
              "name": "tier",
              "type": "uint8"
            }
          ],
          "internalType": "struct WeaponFactory.Weapon[]",
          "name": "",
          "type": "tuple[]"
        }
      ],
      "stateMutability": "view",
      "type": "function"
    },
    {
      "inputs": [],
      "name": "_getWeaponsCount",
      "outputs": [
        {
          "internalType": "uint256",
          "name": "",
          "type": "uint256"
        }
      ],
      "stateMutability": "view",
      "type": "function"
    }
  ],
  "bytecode": "0x608060405234801561001057600080fd5b5061105b806100206000396000f3fe608060405234801561001057600080fd5b50600436106100415760003560e01c806352414e5d1461004657806388e04ae414610064578063f607455014610082575b600080fd5b61004e61009e565b60405161005b9190610bcc565b60405180910390f35b61006c610338565b6040516100799190610c07565b60405180910390f35b61009c60048036038101906100979190610c9d565b610344565b005b606060006100aa61087e565b90506000600260008373ffffffffffffffffffffffffffffffffffffffff1673ffffffffffffffffffffffffffffffffffffffff16815260200190815260200160002054905060008167ffffffffffffffff81111561010c5761010b610cf0565b5b60405190808252806020026020018201604052801561014557816020015b610132610972565b81526020019060019003908161012a5790505b5090506000805b60008054905081101561032d578473ffffffffffffffffffffffffffffffffffffffff166001600083815260200190815260200160002060009054906101000a900473ffffffffffffffffffffffffffffffffffffffff1673ffffffffffffffffffffffffffffffffffffffff16141561031a57600081815481106101d4576101d3610d1f565b5b906000526020600020016040518060a00160405290816000820160009054906101000a900463ffffffff1663ffffffff1663ffffffff1681526020016000820160049054906101000a900463ffffffff1663ffffffff1663ffffffff1681526020016000820160089054906101000a900463ffffffff1663ffffffff1663ffffffff16815260200160008201600c9054906101000a900460ff1660018111156102805761027f610a22565b5b600181111561029257610291610a22565b5b815260200160008201600d9054906101000a900460ff1660028111156102bb576102ba610a22565b5b60028111156102cd576102cc610a22565b5b815250508383815181106102e4576102e3610d1f565b5b602002602001018190525081806102fa90610d7d565b925050838061030890610dc6565b94505060008414156103195761032d565b5b808061032590610d7d565b91505061014c565b508194505050505090565b60008080549050905090565b8260018163ffffffff16101561038f576040517f08c379a000000000000000000000000000000000000000000000000000000000815260040161038690610e73565b60405180910390fd5b82600060018111156103a4576103a3610a22565b5b8160018111156103b7576103b6610a22565b5b14806103e657506001808111156103d1576103d0610a22565b5b8160018111156103e4576103e3610a22565b5b145b610425576040517f08c379a000000000000000000000000000000000000000000000000000000000815260040161041c90610f05565b60405180910390fd5b826000600281111561043a57610439610a22565b5b81600281111561044d5761044c610a22565b5b148061047d57506001600281111561046857610467610a22565b5b81600281111561047b5761047a610a22565b5b145b806104ab575060028081111561049657610495610a22565b5b8160028111156104a9576104a8610a22565b5b145b6104ea576040517f08c379a00000000000000000000000000000000000000000000000000000000081526004016104e190610f05565b60405180910390fd5b60008060028111156104ff576104fe610a22565b5b85600281111561051257610511610a22565b5b141561051d57600890505b6001600281111561053157610530610a22565b5b85600281111561054457610543610a22565b5b141561054f57600690505b60028081111561056257610561610a22565b5b85600281111561057557610574610a22565b5b141561058057600390505b60006040518060a001604052808963ffffffff1681526020018363ffffffff1681526020016105af8a89610886565b63ffffffff1681526020018860018111156105cd576105cc610a22565b5b81526020018760028111156105e5576105e4610a22565b5b8152509080600181540180825580915050600190039060005260206000200160009091909190915060008201518160000160006101000a81548163ffffffff021916908363ffffffff16021790555060208201518160000160046101000a81548163ffffffff021916908363ffffffff16021790555060408201518160000160086101000a81548163ffffffff021916908363ffffffff160217905550606082015181600001600c6101000a81548160ff021916908360018111156106ad576106ac610a22565b5b0217905550608082015181600001600d6101000a81548160ff021916908360028111156106dd576106dc610a22565b5b02179055505050600060016000805490506106f89190610f25565b905061070261087e565b6001600083815260200190815260200160002060006101000a81548173ffffffffffffffffffffffffffffffffffffffff021916908373ffffffffffffffffffffffffffffffffffffffff1602179055506107ad60016002600061076461087e565b73ffffffffffffffffffffffffffffffffffffffff1673ffffffffffffffffffffffffffffffffffffffff1681526020019081526020016000205461094690919063ffffffff16565b600260006107b961087e565b73ffffffffffffffffffffffffffffffffffffffff1673ffffffffffffffffffffffffffffffffffffffff168152602001908152602001600020819055506107ff61087e565b73ffffffffffffffffffffffffffffffffffffffff1686600281111561082857610827610a22565b5b88600181111561083b5761083a610a22565b5b7fba7a6577cdebcb9b611938d6c969da242fd41c8040032dfaa732979779f305288b4260405161086c929190610f68565b60405180910390a45050505050505050565b600033905090565b600060028081111561089b5761089a610a22565b5b8260028111156108ae576108ad610a22565b5b14156108d5576108ce60028463ffffffff1661095c90919063ffffffff16565b9050610940565b600060028111156108e9576108e8610a22565b5b8260028111156108fc576108fb610a22565b5b14156109235761091c60048463ffffffff1661095c90919063ffffffff16565b9050610940565b61093d60038463ffffffff1661095c90919063ffffffff16565b90505b92915050565b600081836109549190610f91565b905092915050565b6000818361096a9190610fe7565b905092915050565b6040518060a00160405280600063ffffffff168152602001600063ffffffff168152602001600063ffffffff168152602001600060018111156109b8576109b7610a22565b5b8152602001600060028111156109d1576109d0610a22565b5b81525090565b600081519050919050565b600082825260208201905092915050565b6000819050602082019050919050565b600063ffffffff82169050919050565b610a1c81610a03565b82525050565b7f4e487b7100000000000000000000000000000000000000000000000000000000600052602160045260246000fd5b60028110610a6257610a61610a22565b5b50565b6000819050610a7382610a51565b919050565b6000610a8382610a65565b9050919050565b610a9381610a78565b82525050565b60038110610aaa57610aa9610a22565b5b50565b6000819050610abb82610a99565b919050565b6000610acb82610aad565b9050919050565b610adb81610ac0565b82525050565b60a082016000820151610af76000850182610a13565b506020820151610b0a6020850182610a13565b506040820151610b1d6040850182610a13565b506060820151610b306060850182610a8a565b506080820151610b436080850182610ad2565b50505050565b6000610b558383610ae1565b60a08301905092915050565b6000602082019050919050565b6000610b79826109d7565b610b8381856109e2565b9350610b8e836109f3565b8060005b83811015610bbf578151610ba68882610b49565b9750610bb183610b61565b925050600181019050610b92565b5085935050505092915050565b60006020820190508181036000830152610be68184610b6e565b905092915050565b6000819050919050565b610c0181610bee565b82525050565b6000602082019050610c1c6000830184610bf8565b92915050565b600080fd5b610c3081610a03565b8114610c3b57600080fd5b50565b600081359050610c4d81610c27565b92915050565b60028110610c6057600080fd5b50565b600081359050610c7281610c53565b92915050565b60038110610c8557600080fd5b50565b600081359050610c9781610c78565b92915050565b600080600060608486031215610cb657610cb5610c22565b5b6000610cc486828701610c3e565b9350506020610cd586828701610c63565b9250506040610ce686828701610c88565b9150509250925092565b7f4e487b7100000000000000000000000000000000000000000000000000000000600052604160045260246000fd5b7f4e487b7100000000000000000000000000000000000000000000000000000000600052603260045260246000fd5b7f4e487b7100000000000000000000000000000000000000000000000000000000600052601160045260246000fd5b6000610d8882610bee565b91507fffffffffffffffffffffffffffffffffffffffffffffffffffffffffffffffff821415610dbb57610dba610d4e565b5b600182019050919050565b6000610dd182610bee565b91506000821415610de557610de4610d4e565b5b600182039050919050565b600082825260208201905092915050565b7f546865206c6576656c20796f7520696e73657274656420666f7220796f75722060008201527f576561706f6e20697320696e76616c6964210000000000000000000000000000602082015250565b6000610e5d603283610df0565b9150610e6882610e01565b604082019050919050565b60006020820190508181036000830152610e8c81610e50565b9050919050565b7f546865207479706520796f7520696e73657274656420666f7220796f7572205760008201527f6561706f6e20697320696e76616c696421000000000000000000000000000000602082015250565b6000610eef603183610df0565b9150610efa82610e93565b604082019050919050565b60006020820190508181036000830152610f1e81610ee2565b9050919050565b6000610f3082610bee565b9150610f3b83610bee565b925082821015610f4e57610f4d610d4e565b5b828203905092915050565b610f6281610a03565b82525050565b6000604082019050610f7d6000830185610f59565b610f8a6020830184610bf8565b9392505050565b6000610f9c82610bee565b9150610fa783610bee565b9250827fffffffffffffffffffffffffffffffffffffffffffffffffffffffffffffffff03821115610fdc57610fdb610d4e565b5b828201905092915050565b6000610ff282610a03565b9150610ffd83610a03565b92508163ffffffff048311821515161561101a57611019610d4e565b5b82820290509291505056fea2646970667358221220559fa51a58d7d7229be6a3100319a0f109ca56dda01fa4c7475f1aa331c4ed8e64736f6c634300080a0033",
  "linkReferences": {},
  "deployedLinkReferences": {}
}